{
  "transactions": [
    {
      "hash": "0xb69ca6f565509be2eeddcfe6e1d24aef2dd930e3f5a90c9671421a65170080f2",
      "transactionType": "CALL",
      "contractName": null,
      "contractAddress": "0xce78c8F6f7bdE717B276ea263eBEaD8deC7280E1",
      "function": "setGasAmount(uint32,uint32,uint256)",
      "arguments": [
        "1098411886",
        "84532",
        "500000"
      ],
      "transaction": {
        "from": "0xc13113E56E00050327Be3AD164185103541f1903",
        "to": "0xce78c8F6f7bdE717B276ea263eBEaD8deC7280E1",
        "gas": "0xf98f",
        "value": "0x0",
        "input": "0x36a86c170000000000000000000000000000000000000000000000000000000041786f6e0000000000000000000000000000000000000000000000000000000000014a34000000000000000000000000000000000000000000000000000000000007a120",
        "nonce": "0x124a",
        "chainId": "0x41786f6e"
      },
      "additionalContracts": [],
      "isFixedGasLimit": false
    }
  ],
  "receipts": [
    {
      "status": "0x1",
      "cumulativeGasUsed": "0xb4ae",
      "logs": [],
      "logsBloom": "0x00000000000000000000000000000000000000000000000000000000000000000000000000000000000000000000000000000000000000000000000000000000000000000000000000000000000000000000000000000000000000000000000000000000000000000000000000000000000000000000000000000000000000000000000000000000000000000000000000000000000000000000000000000000000000000000000000000000000000000000000000000000000000000000000000000000000000000000000000000000000000000000000000000000000000000000000000000000000000000000000000000000000000000000000000000000",
      "type": "0x2",
      "transactionHash": "0xb69ca6f565509be2eeddcfe6e1d24aef2dd930e3f5a90c9671421a65170080f2",
      "transactionIndex": "0x0",
      "blockHash": "0xc689ebf623c69c804e127bb115ce85e65ab2e1c683178a7e0234f7eee15beeb2",
      "blockNumber": "0x707be0",
      "gasUsed": "0xb4ae",
      "effectiveGasPrice": "0xb4ae",
      "from": "0xc13113E56E00050327Be3AD164185103541f1903",
      "to": "0xce78c8F6f7bdE717B276ea263eBEaD8deC7280E1",
      "contractAddress": null,
      "root": "0x87be4d0c5c6feeae5e1f7c84331cbe6bb47c09e4f2fc4c4c663524d7196b213a"
    }
  ],
  "libraries": [],
  "pending": [],
  "returns": {},
  "timestamp": 1746619598,
  "chain": 1098411886,
  "commit": "7691af1"
}