{
  "transactions": [
    {
      "hash": "0x5cdf8f2674b53388da3c35a75430b0a59454ec0a29fce305b33523deabb400a2",
      "transactionType": "CALL",
      "contractName": null,
      "contractAddress": "0xce78c8F6f7bdE717B276ea263eBEaD8deC7280E1",
      "function": "setGasAmount(uint32,uint32,uint256)",
      "arguments": [
        "1098411886",
        "11155111",
        "500000"
      ],
      "transaction": {
        "from": "0xc13113E56E00050327Be3AD164185103541f1903",
        "to": "0xce78c8F6f7bdE717B276ea263eBEaD8deC7280E1",
        "gas": "0xf98f",
        "value": "0x0",
        "input": "0x36a86c170000000000000000000000000000000000000000000000000000000041786f6e0000000000000000000000000000000000000000000000000000000000aa36a7000000000000000000000000000000000000000000000000000000000007a120",
        "nonce": "0x1236",
        "chainId": "0x41786f6e"
      },
      "additionalContracts": [],
      "isFixedGasLimit": false
    }
  ],
  "receipts": [
    {
      "status": "0x1",
      "cumulativeGasUsed": "0xb4ae",
      "logs": [],
      "logsBloom": "0x00000000000000000000000000000000000000000000000000000000000000000000000000000000000000000000000000000000000000000000000000000000000000000000000000000000000000000000000000000000000000000000000000000000000000000000000000000000000000000000000000000000000000000000000000000000000000000000000000000000000000000000000000000000000000000000000000000000000000000000000000000000000000000000000000000000000000000000000000000000000000000000000000000000000000000000000000000000000000000000000000000000000000000000000000000000",
      "type": "0x2",
      "transactionHash": "0x5cdf8f2674b53388da3c35a75430b0a59454ec0a29fce305b33523deabb400a2",
      "transactionIndex": "0x0",
      "blockHash": "0xe3cbb13f9d76614dd294abff41083418f35bf46b7e79108f404842cb5848907e",
      "blockNumber": "0x706d79",
      "gasUsed": "0xb4ae",
      "effectiveGasPrice": "0xb4ae",
      "from": "0xc13113E56E00050327Be3AD164185103541f1903",
      "to": "0xce78c8F6f7bdE717B276ea263eBEaD8deC7280E1",
      "contractAddress": null,
      "root": "0x05731959a1922224d8a377dda19c4fc95dd91e598308c104ee51096ce499be21"
    }
  ],
  "libraries": [],
  "pending": [],
  "returns": {},
  "timestamp": 1746607528,
  "chain": 1098411886,
  "commit": "f1418e3"
}