{
  "transactions": [
    {
      "hash": "0x21afe636cd7ae60cf05c376872b578f81e6f669f16c0d98d619dd5674e88251e",
      "transactionType": "CALL",
      "contractName": null,
      "contractAddress": "0xce78c8F6f7bdE717B276ea263eBEaD8deC7280E1",
      "function": "setGasAmount(uint32,uint32,uint256)",
      "arguments": [
        "1098411886",
        "11155420",
        "500000"
      ],
      "transaction": {
        "from": "0xc13113E56E00050327Be3AD164185103541f1903",
        "to": "0xce78c8F6f7bdE717B276ea263eBEaD8deC7280E1",
        "gas": "0xf98f",
        "value": "0x0",
        "input": "0x36a86c170000000000000000000000000000000000000000000000000000000041786f6e0000000000000000000000000000000000000000000000000000000000aa37dc000000000000000000000000000000000000000000000000000000000007a120",
        "nonce": "0x1224",
        "chainId": "0x41786f6e"
      },
      "additionalContracts": [],
      "isFixedGasLimit": false
    }
  ],
  "receipts": [
    {
      "status": "0x1",
      "cumulativeGasUsed": "0xb4ae",
      "logs": [],
      "logsBloom": "0x00000000000000000000000000000000000000000000000000000000000000000000000000000000000000000000000000000000000000000000000000000000000000000000000000000000000000000000000000000000000000000000000000000000000000000000000000000000000000000000000000000000000000000000000000000000000000000000000000000000000000000000000000000000000000000000000000000000000000000000000000000000000000000000000000000000000000000000000000000000000000000000000000000000000000000000000000000000000000000000000000000000000000000000000000000000",
      "type": "0x2",
      "transactionHash": "0x21afe636cd7ae60cf05c376872b578f81e6f669f16c0d98d619dd5674e88251e",
      "transactionIndex": "0x0",
      "blockHash": "0x81074281cee33baa6eaac88c6a3e5129cec5b0e3b5de7a1d59cdecb027144ede",
      "blockNumber": "0x70683c",
      "gasUsed": "0xb4ae",
      "effectiveGasPrice": "0xb4ae",
      "from": "0xc13113E56E00050327Be3AD164185103541f1903",
      "to": "0xce78c8F6f7bdE717B276ea263eBEaD8deC7280E1",
      "contractAddress": null,
      "root": "0x5efff586da32c77f54a075cc7f751c029cf4b69d242320372dd304584ef75af7"
    }
  ],
  "libraries": [],
  "pending": [],
  "returns": {},
  "timestamp": 1746603137,
  "chain": 1098411886,
  "commit": "0342e81"
}