{
  "transactions": [
    {
      "hash": "0x44363840ea2f86bc3a713f1444b0f0e99271fb2330077a6242ba3e65900f2f87",
      "transactionType": "CALL",
      "contractName": null,
      "contractAddress": "0xce78c8F6f7bdE717B276ea263eBEaD8deC7280E1",
      "function": "setGasAmount(uint32,uint32,uint256)",
      "arguments": [
        "1098411886",
        "43113",
        "500000"
      ],
      "transaction": {
        "from": "0xc13113E56E00050327Be3AD164185103541f1903",
        "to": "0xce78c8F6f7bdE717B276ea263eBEaD8deC7280E1",
        "gas": "0x1082c",
        "value": "0x0",
        "input": "0x36a86c170000000000000000000000000000000000000000000000000000000041786f6e000000000000000000000000000000000000000000000000000000000000a869000000000000000000000000000000000000000000000000000000000007a120",
        "nonce": "0x118a",
        "chainId": "0x41786f6e"
      },
      "additionalContracts": [],
      "isFixedGasLimit": false
    }
  ],
  "receipts": [
    {
      "status": "0x1",
      "cumulativeGasUsed": "0xb4a2",
      "logs": [],
      "logsBloom": "0x00000000000000000000000000000000000000000000000000000000000000000000000000000000000000000000000000000000000000000000000000000000000000000000000000000000000000000000000000000000000000000000000000000000000000000000000000000000000000000000000000000000000000000000000000000000000000000000000000000000000000000000000000000000000000000000000000000000000000000000000000000000000000000000000000000000000000000000000000000000000000000000000000000000000000000000000000000000000000000000000000000000000000000000000000000000",
      "type": "0x2",
      "transactionHash": "0x44363840ea2f86bc3a713f1444b0f0e99271fb2330077a6242ba3e65900f2f87",
      "transactionIndex": "0x0",
      "blockHash": "0x3122039cdfdd4937313769655730723af2bb6ed48a908a0843f5ef5ca3d2ae82",
      "blockNumber": "0x6e8915",
      "gasUsed": "0xb4a2",
      "effectiveGasPrice": "0xb4a2",
      "from": "0xc13113E56E00050327Be3AD164185103541f1903",
      "to": "0xce78c8F6f7bdE717B276ea263eBEaD8deC7280E1",
      "contractAddress": null,
      "root": "0x99caf537b2e9fc310e6c367c98d0e920a76694449f570b9ff2b643d6e78a28af"
    }
  ],
  "libraries": [],
  "pending": [],
  "returns": {},
  "timestamp": 1746201754,
  "chain": 1098411886,
  "commit": "041237c"
}