{
  "transactions": [
    {
      "hash": "0x289492d25c212fb81eef288730296c50f37c5c3b66e546378c859de01381620b",
      "transactionType": "CALL",
      "contractName": null,
      "contractAddress": "0xce78c8F6f7bdE717B276ea263eBEaD8deC7280E1",
      "function": "setGasAmount(uint32,uint32,uint256)",
      "arguments": [
        "1098411886",
        "421614",
        "500000"
      ],
      "transaction": {
        "from": "0xc13113E56E00050327Be3AD164185103541f1903",
        "to": "0xce78c8F6f7bdE717B276ea263eBEaD8deC7280E1",
        "gas": "0xf98f",
        "value": "0x0",
        "input": "0x36a86c170000000000000000000000000000000000000000000000000000000041786f6e0000000000000000000000000000000000000000000000000000000000066eee000000000000000000000000000000000000000000000000000000000007a120",
        "nonce": "0x118b",
        "chainId": "0x41786f6e"
      },
      "additionalContracts": [],
      "isFixedGasLimit": false
    }
  ],
  "receipts": [
    {
      "status": "0x1",
      "cumulativeGasUsed": "0xb4ae",
      "logs": [],
      "logsBloom": "0x00000000000000000000000000000000000000000000000000000000000000000000000000000000000000000000000000000000000000000000000000000000000000000000000000000000000000000000000000000000000000000000000000000000000000000000000000000000000000000000000000000000000000000000000000000000000000000000000000000000000000000000000000000000000000000000000000000000000000000000000000000000000000000000000000000000000000000000000000000000000000000000000000000000000000000000000000000000000000000000000000000000000000000000000000000000",
      "type": "0x2",
      "transactionHash": "0x289492d25c212fb81eef288730296c50f37c5c3b66e546378c859de01381620b",
      "transactionIndex": "0x0",
      "blockHash": "0xbbb325358178f12c222bdcb381f10a42ecc7c90378f12d4d8a77e65e694eeaf0",
      "blockNumber": "0x6e891c",
      "gasUsed": "0xb4ae",
      "effectiveGasPrice": "0xb4ae",
      "from": "0xc13113E56E00050327Be3AD164185103541f1903",
      "to": "0xce78c8F6f7bdE717B276ea263eBEaD8deC7280E1",
      "contractAddress": null,
      "root": "0xd6e34631b91d940c7994a96912db1365d4ba676af0faed125c6839a36fc2ee1d"
    }
  ],
  "libraries": [],
  "pending": [],
  "returns": {},
  "timestamp": 1746201782,
  "chain": 1098411886,
  "commit": "041237c"
}