{
  "transactions": [
    {
      "hash": "0xefee435aadcccd800f455f6c935a148bfb32207a82189266fb7114ed52081d79",
      "transactionType": "CALL",
      "contractName": null,
      "contractAddress": "0x7b8255c08Dab785b30B4EF88378E32C2a7C20422",
      "function": "addRemoteProver(address)",
      "arguments": [
        "0xB8D044808487663b9612b3880E253b52041b63EF"
      ],
      "transaction": {
        "from": "0xc13113E56E00050327Be3AD164185103541f1903",
        "to": "0x7b8255c08Dab785b30B4EF88378E32C2a7C20422",
        "gas": "0xf8e8",
        "value": "0x0",
        "input": "0xc6cee29d000000000000000000000000b8d044808487663b9612b3880e253b52041b63ef",
        "nonce": "0x81",
        "chainId": "0x14a34"
      },
      "additionalContracts": [],
      "isFixedGasLimit": false
    }
  ],
  "receipts": [
    {
      "status": "0x1",
      "cumulativeGasUsed": "0x4c60f5",
      "logs": [],
      "logsBloom": "0x00000000000000000000000000000000000000000000000000000000000000000000000000000000000000000000000000000000000000000000000000000000000000000000000000000000000000000000000000000000000000000000000000000000000000000000000000000000000000000000000000000000000000000000000000000000000000000000000000000000000000000000000000000000000000000000000000000000000000000000000000000000000000000000000000000000000000000000000000000000000000000000000000000000000000000000000000000000000000000000000000000000000000000000000000000000",
      "type": "0x2",
      "transactionHash": "0xefee435aadcccd800f455f6c935a148bfb32207a82189266fb7114ed52081d79",
      "transactionIndex": "0x1b",
      "blockHash": "0x879b92bed7d8eb04450c3da3019802e64a29ac360a6bfb39bac149027216c9aa",
      "blockNumber": "0x183f6bc",
      "gasUsed": "0xb435",
      "effectiveGasPrice": "0xecea6",
      "from": "0xc13113E56E00050327Be3AD164185103541f1903",
      "to": "0x7b8255c08Dab785b30B4EF88378E32C2a7C20422",
      "contractAddress": null,
      "l1BaseFeeScalar": "0x44d",
      "l1BlobBaseFee": "0x1",
      "l1BlobBaseFeeScalar": "0xa118b",
      "l1Fee": "0x13322abe9c",
      "l1GasPrice": "0xae59ab49a",
      "l1GasUsed": "0x640"
    }
  ],
  "libraries": [],
  "pending": [],
  "returns": {},
  "timestamp": 1746619487,
  "chain": 84532,
  "commit": "7691af1"
}