{
  "transactions": [
    {
      "hash": "0x7ca18b37f859e30c79c042c532a3e30205a377488071b42f5639de1656afa6b1",
      "transactionType": "CALL",
      "contractName": null,
      "contractAddress": "0xbbc730c16858953f543a675e54587b63b3859f8a",
      "function": "registerEventType(address,bytes32)",
      "arguments": [
        "0x2Ba13efD182C7930122d4B3d26a28E9371157FEe",
        "0x2099167010ba8d8e6c81a9826a0afe4303c4271925fb4b3c8015514a1e712548"
      ],
      "transaction": {
        "from": "0x230e13243869a3a7eb341e4bdb9120d5cd547fa1",
        "to": "0xbbc730c16858953f543a675e54587b63b3859f8a",
        "gas": "0x17570",
        "value": "0x0",
        "input": "0xe57f6de50000000000000000000000002ba13efd182c7930122d4b3d26a28e9371157fee2099167010ba8d8e6c81a9826a0afe4303c4271925fb4b3c8015514a1e712548",
        "nonce": "0xc",
        "chainId": "0xaa36a7"
      },
      "additionalContracts": [],
      "isFixedGasLimit": false
    }
  ],
  "receipts": [
    {
      "status": "0x1",
      "cumulativeGasUsed": "0x5ee397",
      "logs": [],
      "logsBloom": "0x00000000000000000000000000000000000000000000000000000000000000000000000000000000000000000000000000000000000000000000000000000000000000000000000000000000000000000000000000000000000000000000000000000000000000000000000000000000000000000000000000000000000000000000000000000000000000000000000000000000000000000000000000000000000000000000000000000000000000000000000000000000000000000000000000000000000000000000000000000000000000000000000000000000000000000000000000000000000000000000000000000000000000000000000000000000",
      "type": "0x2",
      "transactionHash": "0x7ca18b37f859e30c79c042c532a3e30205a377488071b42f5639de1656afa6b1",
      "transactionIndex": "0x31",
      "blockHash": "0x8fe0c208526db8a3513136bb0f450f316f81e2087d12917a8825fbdb819a875b",
      "blockNumber": "0x838447",
      "gasUsed": "0x10e5e",
      "effectiveGasPrice": "0xbf843ccf",
      "from": "0x230e13243869a3a7eb341e4bdb9120d5cd547fa1",
      "to": "0xbbc730c16858953f543a675e54587b63b3859f8a",
      "contractAddress": null
    }
  ],
  "libraries": [],
  "pending": [],
  "returns": {},
  "timestamp": 1750772137,
  "chain": 11155111,
  "commit": "80c8da4"
}