{
  "transactions": [
    {
      "hash": "0x792f49962f8723781fc1cd702d7673844534818a35e4b12a77d229c6f62a6475",
      "transactionType": "CALL",
      "contractName": null,
      "contractAddress": "0xF3815caFc75450C00c01a3D14fa03f88cC316d26",
      "function": "addAsset(address)",
      "arguments": [
        "0x31cd10b71f0b5194bDD8Ec58b567ffe17B942c0B"
      ],
      "transaction": {
        "from": "0xc13113E56E00050327Be3AD164185103541f1903",
        "to": "0xF3815caFc75450C00c01a3D14fa03f88cC316d26",
        "gas": "0x1a176",
        "value": "0x0",
        "input": "0x298410e500000000000000000000000031cd10b71f0b5194bdd8ec58b567ffe17b942c0b",
        "nonce": "0x86",
        "chainId": "0xaa37dc"
      },
      "additionalContracts": [],
      "isFixedGasLimit": false
    }
  ],
  "receipts": [
    {
      "status": "0x1",
      "cumulativeGasUsed": "0x198ae32",
      "logs": [
        {
          "address": "0xF3815caFc75450C00c01a3D14fa03f88cC316d26",
          "topics": [
            "0x57c9e281a77ac9ba91a9f926dda440cd98f47ee4f2d5030b5d54688cecbc9989",
            "0x00000000000000000000000031cd10b71f0b5194bdd8ec58b567ffe17b942c0b"
          ],
          "data": "0x0000000000000000000000000000000000000000000000000000000000000012",
          "blockHash": "0x24d03b55faa7738f664ccb68960db608bc2471f52cbcdd0de0a5b9693ec16481",
          "blockNumber": "0x1a21a06",
          "transactionHash": "0x792f49962f8723781fc1cd702d7673844534818a35e4b12a77d229c6f62a6475",
          "transactionIndex": "0x13",
          "logIndex": "0x6c",
          "removed": false
        }
      ],
      "logsBloom": "0x00000000000010000000000000000000000000000000000000000000000000000000000000000000000000000000000000000000000000000000000000000000000000000000000000000000000000000000000000000000000000000000000000000000000000000000000000040000000000000000000000000000000000000000000000000000000000000000000000000000000000000000000000000000000000000000000000000000000000000000000000000000000000000000000000000000000020000000000000000000020000000040000000040000000000000000008000000000000004000000000000000000000000100000000000000000",
      "type": "0x2",
      "transactionHash": "0x792f49962f8723781fc1cd702d7673844534818a35e4b12a77d229c6f62a6475",
      "transactionIndex": "0x13",
      "blockHash": "0x24d03b55faa7738f664ccb68960db608bc2471f52cbcdd0de0a5b9693ec16481",
      "blockNumber": "0x1a21a06",
      "gasUsed": "0x11d72",
      "effectiveGasPrice": "0x168c1f7c",
      "from": "0xc13113E56E00050327Be3AD164185103541f1903",
      "to": "0xF3815caFc75450C00c01a3D14fa03f88cC316d26",
      "contractAddress": null,
      "l1BaseFeeScalar": "0x1db0",
      "l1BlobBaseFee": "0x1",
      "l1BlobBaseFeeScalar": "0xd2730",
      "l1Fee": "0x314f90f141",
      "l1GasPrice": "0x40e1f49b5",
      "l1GasUsed": "0x640"
    }
  ],
  "libraries": [],
  "pending": [],
  "returns": {},
  "timestamp": 1746603966,
  "chain": 11155420,
  "commit": "0342e81"
}