{
  "transactions": [
    {
      "hash": "0x908f8d811b1a9cbd382037ed5a3bb90c90c13d6f5a17043fa906d946119856d9",
      "transactionType": "CALL",
      "contractName": null,
      "contractAddress": "0xF3815caFc75450C00c01a3D14fa03f88cC316d26",
      "function": "addAsset(address)",
      "arguments": [
        "0x6711C699d048Eb2e46a7519eA8506041c2E91D6B"
      ],
      "transaction": {
        "from": "0xc13113E56E00050327Be3AD164185103541f1903",
        "to": "0xF3815caFc75450C00c01a3D14fa03f88cC316d26",
        "gas": "0x1a176",
        "value": "0x0",
        "input": "0x298410e50000000000000000000000006711c699d048eb2e46a7519ea8506041c2e91d6b",
        "nonce": "0x83",
        "chainId": "0xaa37dc"
      },
      "additionalContracts": [],
      "isFixedGasLimit": false
    }
  ],
  "receipts": [
    {
      "status": "0x1",
      "cumulativeGasUsed": "0xb1413f",
      "logs": [
        {
          "address": "0xF3815caFc75450C00c01a3D14fa03f88cC316d26",
          "topics": [
            "0x57c9e281a77ac9ba91a9f926dda440cd98f47ee4f2d5030b5d54688cecbc9989",
            "0x0000000000000000000000006711c699d048eb2e46a7519ea8506041c2e91d6b"
          ],
          "data": "0x0000000000000000000000000000000000000000000000000000000000000012",
          "blockHash": "0xe2738a01945f6245fd01b859047b13476017559b05dd0423e5b56e3dcb942fcd",
          "blockNumber": "0x1a21940",
          "transactionHash": "0x908f8d811b1a9cbd382037ed5a3bb90c90c13d6f5a17043fa906d946119856d9",
          "transactionIndex": "0x19",
          "logIndex": "0x23",
          "removed": false
        }
      ],
      "logsBloom": "0x00000000000010000000000000000000000000000000040000000000000000000000000000000000000000000000000000000000000200000000000000000000000000000000000000000000000000000000000000000000000000000000000000000000000000000000000000040000000000000000000000000000000000000000000000000000000000000000000000000000000000000000000000000000000000000000000000000000000000000000000000000000000000000000000000000000000020000000000000000000020000000040000000000000000000000000008000000000000000000000004000000000000000000000000000000000",
      "type": "0x2",
      "transactionHash": "0x908f8d811b1a9cbd382037ed5a3bb90c90c13d6f5a17043fa906d946119856d9",
      "transactionIndex": "0x19",
      "blockHash": "0xe2738a01945f6245fd01b859047b13476017559b05dd0423e5b56e3dcb942fcd",
      "blockNumber": "0x1a21940",
      "gasUsed": "0x11d72",
      "effectiveGasPrice": "0x15e407db",
      "from": "0xc13113E56E00050327Be3AD164185103541f1903",
      "to": "0xF3815caFc75450C00c01a3D14fa03f88cC316d26",
      "contractAddress": null,
      "l1BaseFeeScalar": "0x1db0",
      "l1BlobBaseFee": "0x1",
      "l1BlobBaseFeeScalar": "0xd2730",
      "l1Fee": "0x2e671a404d",
      "l1GasPrice": "0x3d0e65e86",
      "l1GasUsed": "0x640"
    }
  ],
  "libraries": [],
  "pending": [],
  "returns": {},
  "timestamp": 1746603570,
  "chain": 11155420,
  "commit": "0342e81"
}