{
  "transactions": [
    {
      "hash": "0x3454f62f4e0b2dbc0c989dece7e9dd5bc736549eb9ce7bb2e05294d3f73706e0",
      "transactionType": "CALL",
      "contractName": null,
      "contractAddress": "0xF3815caFc75450C00c01a3D14fa03f88cC316d26",
      "function": "addAsset(address)",
      "arguments": [
        "0xFe3C69De114047C6b43a9b40D72001f06D4f3782"
      ],
      "transaction": {
        "from": "0xc13113E56E00050327Be3AD164185103541f1903",
        "to": "0xF3815caFc75450C00c01a3D14fa03f88cC316d26",
        "gas": "0x1a176",
        "value": "0x0",
        "input": "0x298410e5000000000000000000000000fe3c69de114047c6b43a9b40d72001f06d4f3782",
        "nonce": "0x85",
        "chainId": "0xaa37dc"
      },
      "additionalContracts": [],
      "isFixedGasLimit": false
    }
  ],
  "receipts": [
    {
      "status": "0x1",
      "cumulativeGasUsed": "0x8598f5",
      "logs": [
        {
          "address": "0xF3815caFc75450C00c01a3D14fa03f88cC316d26",
          "topics": [
            "0x57c9e281a77ac9ba91a9f926dda440cd98f47ee4f2d5030b5d54688cecbc9989",
            "0x000000000000000000000000fe3c69de114047c6b43a9b40d72001f06d4f3782"
          ],
          "data": "0x0000000000000000000000000000000000000000000000000000000000000012",
          "blockHash": "0x2e345f961271aa941a94be58e8c96b3481abb50d7ab6d9356edb7de0834f198c",
          "blockNumber": "0x1a219b9",
          "transactionHash": "0x3454f62f4e0b2dbc0c989dece7e9dd5bc736549eb9ce7bb2e05294d3f73706e0",
          "transactionIndex": "0x12",
          "logIndex": "0x2a",
          "removed": false
        }
      ],
      "logsBloom": "0x00000000000010000000000000000000000000000000000000000000000000000000000000000000000000004000000000000000000000000040000000000000000000000000000000000000000000000000000000000000000000000000000000000000000000000000000000040000000000000000000000000000000000000000000000000000000000000000000000000000000000000000000000000000000000000000000000000000000000000000000000000000000000000000000000000000000020000000000000000004020000000040000000000000000000000000008000000000000000000000000000000000000000000000000000000000",
      "type": "0x2",
      "transactionHash": "0x3454f62f4e0b2dbc0c989dece7e9dd5bc736549eb9ce7bb2e05294d3f73706e0",
      "transactionIndex": "0x12",
      "blockHash": "0x2e345f961271aa941a94be58e8c96b3481abb50d7ab6d9356edb7de0834f198c",
      "blockNumber": "0x1a219b9",
      "gasUsed": "0x11d72",
      "effectiveGasPrice": "0x169204cd",
      "from": "0xc13113E56E00050327Be3AD164185103541f1903",
      "to": "0xF3815caFc75450C00c01a3D14fa03f88cC316d26",
      "contractAddress": null,
      "l1BaseFeeScalar": "0x1db0",
      "l1BlobBaseFee": "0x1",
      "l1BlobBaseFeeScalar": "0xd2730",
      "l1Fee": "0x2d4c5303b6",
      "l1GasPrice": "0x3b9a5247d",
      "l1GasUsed": "0x640"
    }
  ],
  "libraries": [],
  "pending": [],
  "returns": {},
  "timestamp": 1746603813,
  "chain": 11155420,
  "commit": "0342e81"
}