{
  "transactions": [
    {
      "hash": "0xe8e79fe81905c0f8ac4a8cb6efdee9615b903305ce50b0ef7a0ef8ca92f58d36",
      "transactionType": "CALL",
      "contractName": null,
      "contractAddress": "0xc06Ce41AB23c070F25ea3fa41Bf8f1A9e98f34f5",
      "function": "addAsset(address)",
      "arguments": [
        "0x0C338bB6b49F82b6C9BC2081785AEbEfc228DcB6"
      ],
      "transaction": {
        "from": "0xc13113E56E00050327Be3AD164185103541f1903",
        "to": "0xc06Ce41AB23c070F25ea3fa41Bf8f1A9e98f34f5",
        "gas": "0x1a176",
        "value": "0x0",
        "input": "0x298410e50000000000000000000000000c338bb6b49f82b6c9bc2081785aebefc228dcb6",
        "nonce": "0x83",
        "chainId": "0x14a34"
      },
      "additionalContracts": [],
      "isFixedGasLimit": false
    }
  ],
  "receipts": [
    {
      "status": "0x1",
      "cumulativeGasUsed": "0x9c971",
      "logs": [
        {
          "address": "0xc06Ce41AB23c070F25ea3fa41Bf8f1A9e98f34f5",
          "topics": [
            "0x57c9e281a77ac9ba91a9f926dda440cd98f47ee4f2d5030b5d54688cecbc9989",
            "0x0000000000000000000000000c338bb6b49f82b6c9bc2081785aebefc228dcb6"
          ],
          "data": "0x0000000000000000000000000000000000000000000000000000000000000012",
          "blockHash": "0x578e5666b318adfcc7c60084304a75d403b234fc8f49cc0b1bc04757a3ccedb7",
          "blockNumber": "0x183f725",
          "blockTimestamp": "0x681b4d2a",
          "transactionHash": "0xe8e79fe81905c0f8ac4a8cb6efdee9615b903305ce50b0ef7a0ef8ca92f58d36",
          "transactionIndex": "0x2",
          "logIndex": "0x0",
          "removed": false
        }
      ],
      "logsBloom": "0x00000000000010000000000000000000000000000000000000000000000000000000000800000000000000000000000000000000000000000000000000000000000000000000000000000000000000000000000000000000000000000000000000000000000000000000000080000000000110000000000000000000000000000000000000000000000000000000000000000000000000000000000000000000000000000000000000000000000000000000000001000000000000000000000000000000000020000000000000008000000000000040000000000000000000000000000000000000000000000000000000000000000000000000000000000000",
      "type": "0x2",
      "transactionHash": "0xe8e79fe81905c0f8ac4a8cb6efdee9615b903305ce50b0ef7a0ef8ca92f58d36",
      "transactionIndex": "0x2",
      "blockHash": "0x578e5666b318adfcc7c60084304a75d403b234fc8f49cc0b1bc04757a3ccedb7",
      "blockNumber": "0x183f725",
      "gasUsed": "0x11d72",
      "effectiveGasPrice": "0xe5eae",
      "from": "0xc13113E56E00050327Be3AD164185103541f1903",
      "to": "0xc06Ce41AB23c070F25ea3fa41Bf8f1A9e98f34f5",
      "contractAddress": null,
      "l1BaseFeeScalar": "0x44d",
      "l1BlobBaseFee": "0x1",
      "l1BlobBaseFeeScalar": "0xa118b",
      "l1Fee": "0x142395a8d5",
      "l1GasPrice": "0xb6ea61aa3",
      "l1GasUsed": "0x640"
    }
  ],
  "libraries": [],
  "pending": [],
  "returns": {},
  "timestamp": 1746619695,
  "chain": 84532,
  "commit": "7691af1"
}