{
  "transactions": [
    {
      "hash": "0x025839d0c6f2906fb308f97bbca41d57a6d04d260500445b77b35bc24bb6239a",
      "transactionType": "CALL",
      "contractName": null,
      "contractAddress": "0xc06Ce41AB23c070F25ea3fa41Bf8f1A9e98f34f5",
      "function": "addAsset(address)",
      "arguments": [
        "0xFe3C69De114047C6b43a9b40D72001f06D4f3782"
      ],
      "transaction": {
        "from": "0xc13113E56E00050327Be3AD164185103541f1903",
        "to": "0xc06Ce41AB23c070F25ea3fa41Bf8f1A9e98f34f5",
        "gas": "0x1a176",
        "value": "0x0",
        "input": "0x298410e5000000000000000000000000fe3c69de114047c6b43a9b40d72001f06d4f3782",
        "nonce": "0x86",
        "chainId": "0x14a34"
      },
      "additionalContracts": [],
      "isFixedGasLimit": false
    }
  ],
  "receipts": [
    {
      "status": "0x1",
      "cumulativeGasUsed": "0xfbabd",
      "logs": [
        {
          "address": "0xc06Ce41AB23c070F25ea3fa41Bf8f1A9e98f34f5",
          "topics": [
            "0x57c9e281a77ac9ba91a9f926dda440cd98f47ee4f2d5030b5d54688cecbc9989",
            "0x000000000000000000000000fe3c69de114047c6b43a9b40d72001f06d4f3782"
          ],
          "data": "0x0000000000000000000000000000000000000000000000000000000000000012",
          "blockHash": "0xa35d5ced5fd92b62f027f20fb3359aab5427e3c515876824c4208a17c30b6735",
          "blockNumber": "0x183f785",
          "blockTimestamp": "0x681b4dea",
          "transactionHash": "0x025839d0c6f2906fb308f97bbca41d57a6d04d260500445b77b35bc24bb6239a",
          "transactionIndex": "0x4",
          "logIndex": "0x2d",
          "removed": false
        }
      ],
      "logsBloom": "0x00000000000010000000000000000000000000000000000000000000000000000000000800000000000000004000000000000000000000000040000000000000000000000000000000000000000000000000000000000000000000000000000000000000000000000000000080000000000000000000000000000000000000000000000000000000000000000000000000000000000000000000000000000000000000000000000000000000000000000000000000000000000000000000000000000000000020000000000000008004000000000040000000000000000000000000000000000000000000000000000000000000000000000000000000000000",
      "type": "0x2",
      "transactionHash": "0x025839d0c6f2906fb308f97bbca41d57a6d04d260500445b77b35bc24bb6239a",
      "transactionIndex": "0x4",
      "blockHash": "0xa35d5ced5fd92b62f027f20fb3359aab5427e3c515876824c4208a17c30b6735",
      "blockNumber": "0x183f785",
      "gasUsed": "0x11d72",
      "effectiveGasPrice": "0xe7301",
      "from": "0xc13113E56E00050327Be3AD164185103541f1903",
      "to": "0xc06Ce41AB23c070F25ea3fa41Bf8f1A9e98f34f5",
      "contractAddress": null,
      "l1BaseFeeScalar": "0x44d",
      "l1BlobBaseFee": "0x1",
      "l1BlobBaseFeeScalar": "0xa118b",
      "l1Fee": "0x12b0569ac0",
      "l1GasPrice": "0xa9be7afd3",
      "l1GasUsed": "0x640"
    }
  ],
  "libraries": [],
  "pending": [],
  "returns": {},
  "timestamp": 1746619887,
  "chain": 84532,
  "commit": "7691af1"
}