{
  "transactions": [
    {
      "hash": "0x0dd6884be9cebf72a2fcaf3ee14155100d140f8cbf9e6c581f91de750ead851a",
      "transactionType": "CALL",
      "contractName": null,
      "contractAddress": "0xc06Ce41AB23c070F25ea3fa41Bf8f1A9e98f34f5",
      "function": "addAsset(address)",
      "arguments": [
        "0xC1Bb55D783a696Aa3f6d1c6f47a30b2348D88Ee4"
      ],
      "transaction": {
        "from": "0xc13113E56E00050327Be3AD164185103541f1903",
        "to": "0xc06Ce41AB23c070F25ea3fa41Bf8f1A9e98f34f5",
        "gas": "0x1a176",
        "value": "0x0",
        "input": "0x298410e5000000000000000000000000c1bb55d783a696aa3f6d1c6f47a30b2348d88ee4",
        "nonce": "0x84",
        "chainId": "0x14a34"
      },
      "additionalContracts": [],
      "isFixedGasLimit": false
    }
  ],
  "receipts": [
    {
      "status": "0x1",
      "cumulativeGasUsed": "0x1922fa",
      "logs": [
        {
          "address": "0xc06Ce41AB23c070F25ea3fa41Bf8f1A9e98f34f5",
          "topics": [
            "0x57c9e281a77ac9ba91a9f926dda440cd98f47ee4f2d5030b5d54688cecbc9989",
            "0x000000000000000000000000c1bb55d783a696aa3f6d1c6f47a30b2348d88ee4"
          ],
          "data": "0x0000000000000000000000000000000000000000000000000000000000000012",
          "blockHash": "0xcd189ec11047fb1c6ad2b3e93b8dae7a633f3a6de3f23efa9819da6f6a14f7ca",
          "blockNumber": "0x183f754",
          "blockTimestamp": "0x681b4d88",
          "transactionHash": "0x0dd6884be9cebf72a2fcaf3ee14155100d140f8cbf9e6c581f91de750ead851a",
          "transactionIndex": "0xa",
          "logIndex": "0x4b",
          "removed": false
        }
      ],
      "logsBloom": "0x00000000000010000000000000000000000000000000000000000000000000000000000800000000000000000000000000000000000000000000000000000000000000000000000000000000000000000000000000000000000000000000000000000000000000000000000080000000000000000000000000000000000000000000000000000000000000000000000000000000400000000000000000000000000000000000000000000000000000000000000000000000000000000000000000000004000020000000000000008000000000000040000000000000000000000000000200000000000000000000000000000000000000000000000000000000",
      "type": "0x2",
      "transactionHash": "0x0dd6884be9cebf72a2fcaf3ee14155100d140f8cbf9e6c581f91de750ead851a",
      "transactionIndex": "0xa",
      "blockHash": "0xcd189ec11047fb1c6ad2b3e93b8dae7a633f3a6de3f23efa9819da6f6a14f7ca",
      "blockNumber": "0x183f754",
      "gasUsed": "0x11d72",
      "effectiveGasPrice": "0xe25db",
      "from": "0xc13113E56E00050327Be3AD164185103541f1903",
      "to": "0xc06Ce41AB23c070F25ea3fa41Bf8f1A9e98f34f5",
      "contractAddress": null,
      "l1BaseFeeScalar": "0x44d",
      "l1BlobBaseFee": "0x1",
      "l1BlobBaseFeeScalar": "0xa118b",
      "l1Fee": "0x1522f3238d",
      "l1GasPrice": "0xbff9c63ca",
      "l1GasUsed": "0x640"
    }
  ],
  "libraries": [],
  "pending": [],
  "returns": {},
  "timestamp": 1746619790,
  "chain": 84532,
  "commit": "7691af1"
}