{
  "transactions": [
    {
      "hash": "0x6c599643452b3a03ff1ffe07f61fb11b2f9dc624053deeb37ebba461eab01adf",
      "transactionType": "CALL",
      "contractName": null,
      "contractAddress": "0x67Ca31c56f2daB0138D700AEc08296D353c35c54",
      "function": "createMToken(string,string,address,uint32)",
      "arguments": [
        "MUSDC",
        "MUSDC",
        "0x6711C699d048Eb2e46a7519eA8506041c2E91D6B",
        "11155420"
      ],
      "transaction": {
        "from": "0xc13113E56E00050327Be3AD164185103541f1903",
        "to": "0x67Ca31c56f2daB0138D700AEc08296D353c35c54",
        "gas": "0x15c5a4",
        "value": "0x0",
        "input": "0x8d4994c9000000000000000000000000000000000000000000000000000000000000008000000000000000000000000000000000000000000000000000000000000000c00000000000000000000000006711c699d048eb2e46a7519ea8506041c2e91d6b0000000000000000000000000000000000000000000000000000000000aa37dc00000000000000000000000000000000000000000000000000000000000000054d5553444300000000000000000000000000000000000000000000000000000000000000000000000000000000000000000000000000000000000000000000054d55534443000000000000000000000000000000000000000000000000000000",
        "nonce": "0x1225",
        "chainId": "0x41786f6e"
      },
      "additionalContracts": [],
      "isFixedGasLimit": false
    }
  ],
  "receipts": [
    {
      "status": "0x1",
      "cumulativeGasUsed": "0xee30a",
      "logs": [
        {
          "address": "0x14A10983864CC6463fC4E8c1d7254797Cf19fd9B",
          "topics": [
            "0x8be0079c531659141344cd1fd0a4f28419497f9722a3daafe3b4186f6b6457e0",
            "0x0000000000000000000000000000000000000000000000000000000000000000",
            "0x00000000000000000000000067ca31c56f2dab0138d700aec08296d353c35c54"
          ],
          "data": "0x",
          "blockHash": "0x8f9f6c303fe6f67d696b1415faeb6a347512fc8705bf4e3c8323b12e154d0554",
          "blockNumber": "0x7068d4",
          "transactionHash": "0x6c599643452b3a03ff1ffe07f61fb11b2f9dc624053deeb37ebba461eab01adf",
          "transactionIndex": "0x0",
          "logIndex": "0x0",
          "removed": false
        },
        {
          "address": "0x14A10983864CC6463fC4E8c1d7254797Cf19fd9B",
          "topics": [
            "0x8be0079c531659141344cd1fd0a4f28419497f9722a3daafe3b4186f6b6457e0",
            "0x00000000000000000000000067ca31c56f2dab0138d700aec08296d353c35c54",
            "0x0000000000000000000000006ce716d6bbfa3837debe3fc5a01bfa6b59b8211f"
          ],
          "data": "0x",
          "blockHash": "0x8f9f6c303fe6f67d696b1415faeb6a347512fc8705bf4e3c8323b12e154d0554",
          "blockNumber": "0x7068d4",
          "transactionHash": "0x6c599643452b3a03ff1ffe07f61fb11b2f9dc624053deeb37ebba461eab01adf",
          "transactionIndex": "0x0",
          "logIndex": "0x1",
          "removed": false
        },
        {
          "address": "0x67Ca31c56f2daB0138D700AEc08296D353c35c54",
          "topics": [
            "0x3215760d6245a94a9e09852a311aa644934ef4f41594bf1b3b32881763a0f5c2",
            "0x00000000000000000000000014a10983864cc6463fc4e8c1d7254797cf19fd9b"
          ],
          "data": "0x000000000000000000000000000000000000000000000000000000000000008000000000000000000000000000000000000000000000000000000000000000c00000000000000000000000006711c699d048eb2e46a7519ea8506041c2e91d6b0000000000000000000000000000000000000000000000000000000000aa37dc00000000000000000000000000000000000000000000000000000000000000054d5553444300000000000000000000000000000000000000000000000000000000000000000000000000000000000000000000000000000000000000000000054d55534443000000000000000000000000000000000000000000000000000000",
          "blockHash": "0x8f9f6c303fe6f67d696b1415faeb6a347512fc8705bf4e3c8323b12e154d0554",
          "blockNumber": "0x7068d4",
          "transactionHash": "0x6c599643452b3a03ff1ffe07f61fb11b2f9dc624053deeb37ebba461eab01adf",
          "transactionIndex": "0x0",
          "logIndex": "0x2",
          "removed": false
        }
      ],
      "logsBloom": "0x00000000000000000000000000000008000000000000000000800000400000000000000000000000000000800000000000000000000000000000080020000000000000000000000000000000000000000001000000000800000000000000004000000000020000000000000000002800000000000000000000000000000000400000000000000000000000000000000000000000000020000000000000000000000000000000000020000000000000000000020004000000008000000000000000000000000000000000000000000400000800000000000000000000000020000080000000010000000000000000000000000000040000000000000000000000",
      "type": "0x2",
      "transactionHash": "0x6c599643452b3a03ff1ffe07f61fb11b2f9dc624053deeb37ebba461eab01adf",
      "transactionIndex": "0x0",
      "blockHash": "0x8f9f6c303fe6f67d696b1415faeb6a347512fc8705bf4e3c8323b12e154d0554",
      "blockNumber": "0x7068d4",
      "gasUsed": "0xee30a",
      "effectiveGasPrice": "0xee30a",
      "from": "0xc13113E56E00050327Be3AD164185103541f1903",
      "to": "0x67Ca31c56f2daB0138D700AEc08296D353c35c54",
      "contractAddress": null,
      "root": "0xedddc0d37d2539058234eea4fd4e4f458a79f7a50d6bd34327df1a670f76a6be"
    }
  ],
  "libraries": [],
  "pending": [],
  "returns": {},
  "timestamp": 1746603635,
  "chain": 1098411886,
  "commit": "0342e81"
}