{
  "transactions": [
    {
      "hash": "0x34f9a2450134c7246064e7fb9b768f31531c82b55095d599cfc85c81494f688f",
      "transactionType": "CALL",
      "contractName": null,
      "contractAddress": "0x67Ca31c56f2daB0138D700AEc08296D353c35c54",
      "function": "createMToken(string,string,address,uint32)",
      "arguments": [
        "MUSDC",
        "MUSDC",
        "0xaC28F48c835fA1Faa510e7C31A6E308882f1C097",
        "421614"
      ],
      "transaction": {
        "from": "0xc13113E56E00050327Be3AD164185103541f1903",
        "to": "0x67Ca31c56f2daB0138D700AEc08296D353c35c54",
        "gas": "0x15c5a4",
        "value": "0x0",
        "input": "0x8d4994c9000000000000000000000000000000000000000000000000000000000000008000000000000000000000000000000000000000000000000000000000000000c0000000000000000000000000ac28f48c835fa1faa510e7c31a6e308882f1c0970000000000000000000000000000000000000000000000000000000000066eee00000000000000000000000000000000000000000000000000000000000000054d5553444300000000000000000000000000000000000000000000000000000000000000000000000000000000000000000000000000000000000000000000054d55534443000000000000000000000000000000000000000000000000000000",
        "nonce": "0x1188",
        "chainId": "0x41786f6e"
      },
      "additionalContracts": [],
      "isFixedGasLimit": false
    }
  ],
  "receipts": [
    {
      "status": "0x1",
      "cumulativeGasUsed": "0xee30a",
      "logs": [
        {
          "address": "0x4047b02a030EDCB148272848Fc943CA8B517a78A",
          "topics": [
            "0x8be0079c531659141344cd1fd0a4f28419497f9722a3daafe3b4186f6b6457e0",
            "0x0000000000000000000000000000000000000000000000000000000000000000",
            "0x00000000000000000000000067ca31c56f2dab0138d700aec08296d353c35c54"
          ],
          "data": "0x",
          "blockHash": "0xfed97164ba9d260310ad84488dcfcd6fdda566bcaeb967598430816bc7426553",
          "blockNumber": "0x6e87d3",
          "transactionHash": "0x34f9a2450134c7246064e7fb9b768f31531c82b55095d599cfc85c81494f688f",
          "transactionIndex": "0x0",
          "logIndex": "0x0",
          "removed": false
        },
        {
          "address": "0x4047b02a030EDCB148272848Fc943CA8B517a78A",
          "topics": [
            "0x8be0079c531659141344cd1fd0a4f28419497f9722a3daafe3b4186f6b6457e0",
            "0x00000000000000000000000067ca31c56f2dab0138d700aec08296d353c35c54",
            "0x0000000000000000000000006ce716d6bbfa3837debe3fc5a01bfa6b59b8211f"
          ],
          "data": "0x",
          "blockHash": "0xfed97164ba9d260310ad84488dcfcd6fdda566bcaeb967598430816bc7426553",
          "blockNumber": "0x6e87d3",
          "transactionHash": "0x34f9a2450134c7246064e7fb9b768f31531c82b55095d599cfc85c81494f688f",
          "transactionIndex": "0x0",
          "logIndex": "0x1",
          "removed": false
        },
        {
          "address": "0x67Ca31c56f2daB0138D700AEc08296D353c35c54",
          "topics": [
            "0x3215760d6245a94a9e09852a311aa644934ef4f41594bf1b3b32881763a0f5c2",
            "0x0000000000000000000000004047b02a030edcb148272848fc943ca8b517a78a"
          ],
          "data": "0x000000000000000000000000000000000000000000000000000000000000008000000000000000000000000000000000000000000000000000000000000000c0000000000000000000000000ac28f48c835fa1faa510e7c31a6e308882f1c0970000000000000000000000000000000000000000000000000000000000066eee00000000000000000000000000000000000000000000000000000000000000054d5553444300000000000000000000000000000000000000000000000000000000000000000000000000000000000000000000000000000000000000000000054d55534443000000000000000000000000000000000000000000000000000000",
          "blockHash": "0xfed97164ba9d260310ad84488dcfcd6fdda566bcaeb967598430816bc7426553",
          "blockNumber": "0x6e87d3",
          "transactionHash": "0x34f9a2450134c7246064e7fb9b768f31531c82b55095d599cfc85c81494f688f",
          "transactionIndex": "0x0",
          "logIndex": "0x2",
          "removed": false
        }
      ],
      "logsBloom": "0x00000000000000000000002000000008000000000000000000800000400000000000000000000000000000800000000000000000000000000000000000000000000000000000000000000000000000000001000000000800000000000000004000000000020000000000000000000800000000000010000000000000000000400020000000000200000000000000000000000400000020000010000000000000000000000000000020000000000000000000000004000000000000000000000000000000000000000000000000000400000000000000000000000000000020000080000000010000000000000000000000000000040000000000000000000000",
      "type": "0x2",
      "transactionHash": "0x34f9a2450134c7246064e7fb9b768f31531c82b55095d599cfc85c81494f688f",
      "transactionIndex": "0x0",
      "blockHash": "0xfed97164ba9d260310ad84488dcfcd6fdda566bcaeb967598430816bc7426553",
      "blockNumber": "0x6e87d3",
      "gasUsed": "0xee30a",
      "effectiveGasPrice": "0xee30a",
      "from": "0xc13113E56E00050327Be3AD164185103541f1903",
      "to": "0x67Ca31c56f2daB0138D700AEc08296D353c35c54",
      "contractAddress": null,
      "root": "0x499e8d6d999eded4b3986f6edc2589f19f0eda783c6381c4b25fccc259dd0884"
    }
  ],
  "libraries": [],
  "pending": [],
  "returns": {},
  "timestamp": 1746200701,
  "chain": 1098411886,
  "commit": "041237c"
}