{
  "transactions": [
    {
      "hash": "0xba14a7fd97bce910683d77e43d4d2a905b75b043dddd7901da4cbc52d72b8170",
      "transactionType": "CALL",
      "contractName": null,
      "contractAddress": "0x67Ca31c56f2daB0138D700AEc08296D353c35c54",
      "function": "createMToken(string,string,address,uint32)",
      "arguments": [
        "MUSDC",
        "MUSDC",
        "0x277cAAC382cb1b1087598e710bCf96bAF218f9F9",
        "43113"
      ],
      "transaction": {
        "from": "0xc13113E56E00050327Be3AD164185103541f1903",
        "to": "0x67Ca31c56f2daB0138D700AEc08296D353c35c54",
        "gas": "0x148fed",
        "value": "0x0",
        "input": "0x8d4994c9000000000000000000000000000000000000000000000000000000000000008000000000000000000000000000000000000000000000000000000000000000c0000000000000000000000000277caac382cb1b1087598e710bcf96baf218f9f9000000000000000000000000000000000000000000000000000000000000a86900000000000000000000000000000000000000000000000000000000000000054d5553444300000000000000000000000000000000000000000000000000000000000000000000000000000000000000000000000000000000000000000000054d55534443000000000000000000000000000000000000000000000000000000",
        "nonce": "0x1189",
        "chainId": "0x41786f6e"
      },
      "additionalContracts": [],
      "isFixedGasLimit": false
    }
  ],
  "receipts": [
    {
      "status": "0x1",
      "cumulativeGasUsed": "0xee2fe",
      "logs": [
        {
          "address": "0xeE37F7f98d003C2474310EC27529297bBEAd61Ef",
          "topics": [
            "0x8be0079c531659141344cd1fd0a4f28419497f9722a3daafe3b4186f6b6457e0",
            "0x0000000000000000000000000000000000000000000000000000000000000000",
            "0x00000000000000000000000067ca31c56f2dab0138d700aec08296d353c35c54"
          ],
          "data": "0x",
          "blockHash": "0x024224414537a60532cf4da7e43cb9eb794cb7a60a38a82cea2008097108a071",
          "blockNumber": "0x6e87e5",
          "transactionHash": "0xba14a7fd97bce910683d77e43d4d2a905b75b043dddd7901da4cbc52d72b8170",
          "transactionIndex": "0x0",
          "logIndex": "0x0",
          "removed": false
        },
        {
          "address": "0xeE37F7f98d003C2474310EC27529297bBEAd61Ef",
          "topics": [
            "0x8be0079c531659141344cd1fd0a4f28419497f9722a3daafe3b4186f6b6457e0",
            "0x00000000000000000000000067ca31c56f2dab0138d700aec08296d353c35c54",
            "0x0000000000000000000000006ce716d6bbfa3837debe3fc5a01bfa6b59b8211f"
          ],
          "data": "0x",
          "blockHash": "0x024224414537a60532cf4da7e43cb9eb794cb7a60a38a82cea2008097108a071",
          "blockNumber": "0x6e87e5",
          "transactionHash": "0xba14a7fd97bce910683d77e43d4d2a905b75b043dddd7901da4cbc52d72b8170",
          "transactionIndex": "0x0",
          "logIndex": "0x1",
          "removed": false
        },
        {
          "address": "0x67Ca31c56f2daB0138D700AEc08296D353c35c54",
          "topics": [
            "0x3215760d6245a94a9e09852a311aa644934ef4f41594bf1b3b32881763a0f5c2",
            "0x000000000000000000000000ee37f7f98d003c2474310ec27529297bbead61ef"
          ],
          "data": "0x000000000000000000000000000000000000000000000000000000000000008000000000000000000000000000000000000000000000000000000000000000c0000000000000000000000000277caac382cb1b1087598e710bcf96baf218f9f9000000000000000000000000000000000000000000000000000000000000a86900000000000000000000000000000000000000000000000000000000000000054d5553444300000000000000000000000000000000000000000000000000000000000000000000000000000000000000000000000000000000000000000000054d55534443000000000000000000000000000000000000000000000000000000",
          "blockHash": "0x024224414537a60532cf4da7e43cb9eb794cb7a60a38a82cea2008097108a071",
          "blockNumber": "0x6e87e5",
          "transactionHash": "0xba14a7fd97bce910683d77e43d4d2a905b75b043dddd7901da4cbc52d72b8170",
          "transactionIndex": "0x0",
          "logIndex": "0x2",
          "removed": false
        }
      ],
      "logsBloom": "0x00000000000000000000000000000008000000000000000000800000400000000000000000000000000000800000000000002000000000000000000000000000000000000000000000000000000000000001000000000802000000000000004000000000020000000000000000000800000000000000000000000000000000400000000000040000000000000000000000000000000020000000000000000000000000000000000020000000000000000000000004000000000000000000000000000000000000000004000000000400000000000000000000000000000020020080000040010000000000000000000000000000040000000000000000000000",
      "type": "0x2",
      "transactionHash": "0xba14a7fd97bce910683d77e43d4d2a905b75b043dddd7901da4cbc52d72b8170",
      "transactionIndex": "0x0",
      "blockHash": "0x024224414537a60532cf4da7e43cb9eb794cb7a60a38a82cea2008097108a071",
      "blockNumber": "0x6e87e5",
      "gasUsed": "0xee2fe",
      "effectiveGasPrice": "0xee2fe",
      "from": "0xc13113E56E00050327Be3AD164185103541f1903",
      "to": "0x67Ca31c56f2daB0138D700AEc08296D353c35c54",
      "contractAddress": null,
      "root": "0x2cec794d50680be2596b046a75c7221533c391e1728c60a96926d6e6e8e45d32"
    }
  ],
  "libraries": [],
  "pending": [],
  "returns": {},
  "timestamp": 1746200761,
  "chain": 1098411886,
  "commit": "041237c"
}