{
  "transactions": [
    {
      "hash": "0x6dd534e04d5783ddee459b18eeca153ad3d3b81dea44869c4ef7ed62582a32c8",
      "transactionType": "CALL",
      "contractName": null,
      "contractAddress": "0x67Ca31c56f2daB0138D700AEc08296D353c35c54",
      "function": "createMToken(string,string,address,uint32)",
      "arguments": [
        "METH",
        "METH",
        "0x20F6cECe05F713ac6781f6f3b6C683c6266A18d1",
        "11155111"
      ],
      "transaction": {
        "from": "0xc13113E56E00050327Be3AD164185103541f1903",
        "to": "0x67Ca31c56f2daB0138D700AEc08296D353c35c54",
        "gas": "0x15c581",
        "value": "0x0",
        "input": "0x8d4994c9000000000000000000000000000000000000000000000000000000000000008000000000000000000000000000000000000000000000000000000000000000c000000000000000000000000020f6cece05f713ac6781f6f3b6c683c6266a18d10000000000000000000000000000000000000000000000000000000000aa36a700000000000000000000000000000000000000000000000000000000000000044d4554480000000000000000000000000000000000000000000000000000000000000000000000000000000000000000000000000000000000000000000000044d45544800000000000000000000000000000000000000000000000000000000",
        "nonce": "0x123a",
        "chainId": "0x41786f6e"
      },
      "additionalContracts": [],
      "isFixedGasLimit": false
    }
  ],
  "receipts": [
    {
      "status": "0x1",
      "cumulativeGasUsed": "0xee2f2",
      "logs": [
        {
          "address": "0x94D18c570e993F373Dfe79De8315f7b3ADA6882D",
          "topics": [
            "0x8be0079c531659141344cd1fd0a4f28419497f9722a3daafe3b4186f6b6457e0",
            "0x0000000000000000000000000000000000000000000000000000000000000000",
            "0x00000000000000000000000067ca31c56f2dab0138d700aec08296d353c35c54"
          ],
          "data": "0x",
          "blockHash": "0x0bf0e50f6c91403ea80c63ac9c34ce86565b205ba6458ea1b22df3c3a7fba5b0",
          "blockNumber": "0x706e6c",
          "transactionHash": "0x6dd534e04d5783ddee459b18eeca153ad3d3b81dea44869c4ef7ed62582a32c8",
          "transactionIndex": "0x0",
          "logIndex": "0x0",
          "removed": false
        },
        {
          "address": "0x94D18c570e993F373Dfe79De8315f7b3ADA6882D",
          "topics": [
            "0x8be0079c531659141344cd1fd0a4f28419497f9722a3daafe3b4186f6b6457e0",
            "0x00000000000000000000000067ca31c56f2dab0138d700aec08296d353c35c54",
            "0x0000000000000000000000006ce716d6bbfa3837debe3fc5a01bfa6b59b8211f"
          ],
          "data": "0x",
          "blockHash": "0x0bf0e50f6c91403ea80c63ac9c34ce86565b205ba6458ea1b22df3c3a7fba5b0",
          "blockNumber": "0x706e6c",
          "transactionHash": "0x6dd534e04d5783ddee459b18eeca153ad3d3b81dea44869c4ef7ed62582a32c8",
          "transactionIndex": "0x0",
          "logIndex": "0x1",
          "removed": false
        },
        {
          "address": "0x67Ca31c56f2daB0138D700AEc08296D353c35c54",
          "topics": [
            "0x3215760d6245a94a9e09852a311aa644934ef4f41594bf1b3b32881763a0f5c2",
            "0x00000000000000000000000094d18c570e993f373dfe79de8315f7b3ada6882d"
          ],
          "data": "0x000000000000000000000000000000000000000000000000000000000000008000000000000000000000000000000000000000000000000000000000000000c000000000000000000000000020f6cece05f713ac6781f6f3b6c683c6266a18d10000000000000000000000000000000000000000000000000000000000aa36a700000000000000000000000000000000000000000000000000000000000000044d4554480000000000000000000000000000000000000000000000000000000000000000000000000000000000000000000000000000000000000000000000044d45544800000000000000000000000000000000000000000000000000000000",
          "blockHash": "0x0bf0e50f6c91403ea80c63ac9c34ce86565b205ba6458ea1b22df3c3a7fba5b0",
          "blockNumber": "0x706e6c",
          "transactionHash": "0x6dd534e04d5783ddee459b18eeca153ad3d3b81dea44869c4ef7ed62582a32c8",
          "transactionIndex": "0x0",
          "logIndex": "0x2",
          "removed": false
        }
      ],
      "logsBloom": "0x00000000000000000000000000000008000000000000000000800000400000000000000000000080000000800000000000000000000010000000000000000000000000000000000000000000000000000001000000000800000000000000004000000000020000000000000000080800000000000000000000000000000000400000000000000000000000000000000000000000000020000000000000000000000000000000000020000000000000000000000004000000200000000000000000000000008000000000000000000400000000000000000000000000000020000080000000010000000000000000000000000000040000000000000000000002",
      "type": "0x2",
      "transactionHash": "0x6dd534e04d5783ddee459b18eeca153ad3d3b81dea44869c4ef7ed62582a32c8",
      "transactionIndex": "0x0",
      "blockHash": "0x0bf0e50f6c91403ea80c63ac9c34ce86565b205ba6458ea1b22df3c3a7fba5b0",
      "blockNumber": "0x706e6c",
      "gasUsed": "0xee2f2",
      "effectiveGasPrice": "0xee2f2",
      "from": "0xc13113E56E00050327Be3AD164185103541f1903",
      "to": "0x67Ca31c56f2daB0138D700AEc08296D353c35c54",
      "contractAddress": null,
      "root": "0xb8aa210436dc3011636bdbd4a8cc08c808219f96382f673be26ed052a329dd21"
    }
  ],
  "libraries": [],
  "pending": [],
  "returns": {},
  "timestamp": 1746608322,
  "chain": 1098411886,
  "commit": "f1418e3"
}