{
  "transactions": [
    {
      "hash": "0x240f3f6b72f545d34f31ee17373937a504f69cfbca82a95e91a4fb7ee589e4a7",
      "transactionType": "CALL",
      "contractName": null,
      "contractAddress": "0x67Ca31c56f2daB0138D700AEc08296D353c35c54",
      "function": "createMToken(string,string,address,uint32)",
      "arguments": [
        "MUSDC",
        "MUSDC",
        "0xfE69cC79d53cd27BC9A4B39d309F309C2B614114",
        "11155111"
      ],
      "transaction": {
        "from": "0xc13113E56E00050327Be3AD164185103541f1903",
        "to": "0x67Ca31c56f2daB0138D700AEc08296D353c35c54",
        "gas": "0x15c5a4",
        "value": "0x0",
        "input": "0x8d4994c9000000000000000000000000000000000000000000000000000000000000008000000000000000000000000000000000000000000000000000000000000000c0000000000000000000000000fe69cc79d53cd27bc9a4b39d309f309c2b6141140000000000000000000000000000000000000000000000000000000000aa36a700000000000000000000000000000000000000000000000000000000000000054d5553444300000000000000000000000000000000000000000000000000000000000000000000000000000000000000000000000000000000000000000000054d55534443000000000000000000000000000000000000000000000000000000",
        "nonce": "0x1237",
        "chainId": "0x41786f6e"
      },
      "additionalContracts": [],
      "isFixedGasLimit": false
    }
  ],
  "receipts": [
    {
      "status": "0x1",
      "cumulativeGasUsed": "0xee30a",
      "logs": [
        {
          "address": "0x00C64e1766943c3676329bF08A8275C0decC4AB4",
          "topics": [
            "0x8be0079c531659141344cd1fd0a4f28419497f9722a3daafe3b4186f6b6457e0",
            "0x0000000000000000000000000000000000000000000000000000000000000000",
            "0x00000000000000000000000067ca31c56f2dab0138d700aec08296d353c35c54"
          ],
          "data": "0x",
          "blockHash": "0x11b2d227998e749744867a1df4f915cdc36bbb5d0a91ba05af9b1e8cf7812f0e",
          "blockNumber": "0x706dfc",
          "transactionHash": "0x240f3f6b72f545d34f31ee17373937a504f69cfbca82a95e91a4fb7ee589e4a7",
          "transactionIndex": "0x0",
          "logIndex": "0x0",
          "removed": false
        },
        {
          "address": "0x00C64e1766943c3676329bF08A8275C0decC4AB4",
          "topics": [
            "0x8be0079c531659141344cd1fd0a4f28419497f9722a3daafe3b4186f6b6457e0",
            "0x00000000000000000000000067ca31c56f2dab0138d700aec08296d353c35c54",
            "0x0000000000000000000000006ce716d6bbfa3837debe3fc5a01bfa6b59b8211f"
          ],
          "data": "0x",
          "blockHash": "0x11b2d227998e749744867a1df4f915cdc36bbb5d0a91ba05af9b1e8cf7812f0e",
          "blockNumber": "0x706dfc",
          "transactionHash": "0x240f3f6b72f545d34f31ee17373937a504f69cfbca82a95e91a4fb7ee589e4a7",
          "transactionIndex": "0x0",
          "logIndex": "0x1",
          "removed": false
        },
        {
          "address": "0x67Ca31c56f2daB0138D700AEc08296D353c35c54",
          "topics": [
            "0x3215760d6245a94a9e09852a311aa644934ef4f41594bf1b3b32881763a0f5c2",
            "0x00000000000000000000000000c64e1766943c3676329bf08a8275c0decc4ab4"
          ],
          "data": "0x000000000000000000000000000000000000000000000000000000000000008000000000000000000000000000000000000000000000000000000000000000c0000000000000000000000000fe69cc79d53cd27bc9a4b39d309f309c2b6141140000000000000000000000000000000000000000000000000000000000aa36a700000000000000000000000000000000000000000000000000000000000000054d5553444300000000000000000000000000000000000000000000000000000000000000000000000000000000000000000000000000000000000000000000054d55534443000000000000000000000000000000000000000000000000000000",
          "blockHash": "0x11b2d227998e749744867a1df4f915cdc36bbb5d0a91ba05af9b1e8cf7812f0e",
          "blockNumber": "0x706dfc",
          "transactionHash": "0x240f3f6b72f545d34f31ee17373937a504f69cfbca82a95e91a4fb7ee589e4a7",
          "transactionIndex": "0x0",
          "logIndex": "0x2",
          "removed": false
        }
      ],
      "logsBloom": "0x00000000000000000000000000000008000000000000000000800000400000000000400000000000000000800000000000000000000000000000000000002000000000000000000000000000000000000001000000000800000000000000004000000000020000000000000000000800000000000000000000000000000000400000000000000000000000000000000020000000000020000000000000000000000000000040000020000000000000000000000004000000000000000000000000000000000000000000000000000400000000000000020000000000000020000080000000010000000000000000000000000000040000000200000000000000",
      "type": "0x2",
      "transactionHash": "0x240f3f6b72f545d34f31ee17373937a504f69cfbca82a95e91a4fb7ee589e4a7",
      "transactionIndex": "0x0",
      "blockHash": "0x11b2d227998e749744867a1df4f915cdc36bbb5d0a91ba05af9b1e8cf7812f0e",
      "blockNumber": "0x706dfc",
      "gasUsed": "0xee30a",
      "effectiveGasPrice": "0xee30a",
      "from": "0xc13113E56E00050327Be3AD164185103541f1903",
      "to": "0x67Ca31c56f2daB0138D700AEc08296D353c35c54",
      "contractAddress": null,
      "root": "0x600eb58b3463a1ec4e027866d50e1638ac08c1d3c234bdb9be6ae2349ff3d61d"
    }
  ],
  "libraries": [],
  "pending": [],
  "returns": {},
  "timestamp": 1746607954,
  "chain": 1098411886,
  "commit": "f1418e3"
}