{
  "transactions": [
    {
      "hash": "0xda3929b58f0d84cced9fa43ad0090fe7847f29c8212873809d063595741141d7",
      "transactionType": "CALL",
      "contractName": null,
      "contractAddress": "0x67Ca31c56f2daB0138D700AEc08296D353c35c54",
      "function": "createMToken(string,string,address,uint32)",
      "arguments": [
        "MDAI",
        "MDAI",
        "0xFe3C69De114047C6b43a9b40D72001f06D4f3782",
        "421614"
      ],
      "transaction": {
        "from": "0xc13113E56E00050327Be3AD164185103541f1903",
        "to": "0x67Ca31c56f2daB0138D700AEc08296D353c35c54",
        "gas": "0x15c581",
        "value": "0x0",
        "input": "0x8d4994c9000000000000000000000000000000000000000000000000000000000000008000000000000000000000000000000000000000000000000000000000000000c0000000000000000000000000fe3c69de114047c6b43a9b40d72001f06d4f37820000000000000000000000000000000000000000000000000000000000066eee00000000000000000000000000000000000000000000000000000000000000044d4441490000000000000000000000000000000000000000000000000000000000000000000000000000000000000000000000000000000000000000000000044d44414900000000000000000000000000000000000000000000000000000000",
        "nonce": "0x11f2",
        "chainId": "0x41786f6e"
      },
      "additionalContracts": [],
      "isFixedGasLimit": false
    }
  ],
  "receipts": [
    {
      "status": "0x1",
      "cumulativeGasUsed": "0xee2f2",
      "logs": [
        {
          "address": "0x863433D741543E2995570e19c6761c010cF3D8b7",
          "topics": [
            "0x8be0079c531659141344cd1fd0a4f28419497f9722a3daafe3b4186f6b6457e0",
            "0x0000000000000000000000000000000000000000000000000000000000000000",
            "0x00000000000000000000000067ca31c56f2dab0138d700aec08296d353c35c54"
          ],
          "data": "0x",
          "blockHash": "0x97318d597c42826bbb6f625460a864c60416a6d4893399bf1da684212ecaa3b2",
          "blockNumber": "0x70120c",
          "transactionHash": "0xda3929b58f0d84cced9fa43ad0090fe7847f29c8212873809d063595741141d7",
          "transactionIndex": "0x0",
          "logIndex": "0x0",
          "removed": false
        },
        {
          "address": "0x863433D741543E2995570e19c6761c010cF3D8b7",
          "topics": [
            "0x8be0079c531659141344cd1fd0a4f28419497f9722a3daafe3b4186f6b6457e0",
            "0x00000000000000000000000067ca31c56f2dab0138d700aec08296d353c35c54",
            "0x0000000000000000000000006ce716d6bbfa3837debe3fc5a01bfa6b59b8211f"
          ],
          "data": "0x",
          "blockHash": "0x97318d597c42826bbb6f625460a864c60416a6d4893399bf1da684212ecaa3b2",
          "blockNumber": "0x70120c",
          "transactionHash": "0xda3929b58f0d84cced9fa43ad0090fe7847f29c8212873809d063595741141d7",
          "transactionIndex": "0x0",
          "logIndex": "0x1",
          "removed": false
        },
        {
          "address": "0x67Ca31c56f2daB0138D700AEc08296D353c35c54",
          "topics": [
            "0x3215760d6245a94a9e09852a311aa644934ef4f41594bf1b3b32881763a0f5c2",
            "0x000000000000000000000000863433d741543e2995570e19c6761c010cf3d8b7"
          ],
          "data": "0x000000000000000000000000000000000000000000000000000000000000008000000000000000000000000000000000000000000000000000000000000000c0000000000000000000000000fe3c69de114047c6b43a9b40d72001f06d4f37820000000000000000000000000000000000000000000000000000000000066eee00000000000000000000000000000000000000000000000000000000000000044d4441490000000000000000000000000000000000000000000000000000000000000000000000000000000000000000000000000000000000000000000000044d44414900000000000000000000000000000000000000000000000000000000",
          "blockHash": "0x97318d597c42826bbb6f625460a864c60416a6d4893399bf1da684212ecaa3b2",
          "blockNumber": "0x70120c",
          "transactionHash": "0xda3929b58f0d84cced9fa43ad0090fe7847f29c8212873809d063595741141d7",
          "transactionIndex": "0x0",
          "logIndex": "0x2",
          "removed": false
        }
      ],
      "logsBloom": "0x00000000000000000000000000000008000000000000000004800000400000000000000000000000000000800000000000000000000000000000000000000000000000000000000000000000000000000001000000000800000000000000004000000000020000200000000000000800000000000000000000000000010000400000000000000000000000000000000000000000000020000000000000000000000000000400000020000000000000000000000004000000000000000000000000000000000000000000000000000400000000000000000000000000000020000080000000010000000000002000000000000000040080000000000000000000",
      "type": "0x2",
      "transactionHash": "0xda3929b58f0d84cced9fa43ad0090fe7847f29c8212873809d063595741141d7",
      "transactionIndex": "0x0",
      "blockHash": "0x97318d597c42826bbb6f625460a864c60416a6d4893399bf1da684212ecaa3b2",
      "blockNumber": "0x70120c",
      "gasUsed": "0xee2f2",
      "effectiveGasPrice": "0xee2f2",
      "from": "0xc13113E56E00050327Be3AD164185103541f1903",
      "to": "0x67Ca31c56f2daB0138D700AEc08296D353c35c54",
      "contractAddress": null,
      "root": "0x0593296fbbd7dad89edd0cab585d295c4a065d09176bb7651724d970538745d9"
    }
  ],
  "libraries": [],
  "pending": [],
  "returns": {},
  "timestamp": 1746530935,
  "chain": 1098411886,
  "commit": "757664c"
}