{
  "transactions": [
    {
      "hash": "0xeef0ec2ff30a5eba5539767870a51c40c30b0bc8e16a4878449d28c5ef3fa177",
      "transactionType": "CALL",
      "contractName": null,
      "contractAddress": "0x67Ca31c56f2daB0138D700AEc08296D353c35c54",
      "function": "createMToken(string,string,address,uint32)",
      "arguments": [
        "MUSDC",
        "MUSDC",
        "0x0C338bB6b49F82b6C9BC2081785AEbEfc228DcB6",
        "84532"
      ],
      "transaction": {
        "from": "0xc13113E56E00050327Be3AD164185103541f1903",
        "to": "0x67Ca31c56f2daB0138D700AEc08296D353c35c54",
        "gas": "0x15c5a4",
        "value": "0x0",
        "input": "0x8d4994c9000000000000000000000000000000000000000000000000000000000000008000000000000000000000000000000000000000000000000000000000000000c00000000000000000000000000c338bb6b49f82b6c9bc2081785aebefc228dcb60000000000000000000000000000000000000000000000000000000000014a3400000000000000000000000000000000000000000000000000000000000000054d5553444300000000000000000000000000000000000000000000000000000000000000000000000000000000000000000000000000000000000000000000054d55534443000000000000000000000000000000000000000000000000000000",
        "nonce": "0x124b",
        "chainId": "0x41786f6e"
      },
      "additionalContracts": [],
      "isFixedGasLimit": false
    }
  ],
  "receipts": [
    {
      "status": "0x1",
      "cumulativeGasUsed": "0xee30a",
      "logs": [
        {
          "address": "0xcB317cd9838B81144cAf49383d1924a4C11b0813",
          "topics": [
            "0x8be0079c531659141344cd1fd0a4f28419497f9722a3daafe3b4186f6b6457e0",
            "0x0000000000000000000000000000000000000000000000000000000000000000",
            "0x00000000000000000000000067ca31c56f2dab0138d700aec08296d353c35c54"
          ],
          "data": "0x",
          "blockHash": "0x0f487dc511b9cd7c98e5fa52fc5d6b7f025521bc16c0fa9077db44f16daf3f7f",
          "blockNumber": "0x707c07",
          "transactionHash": "0xeef0ec2ff30a5eba5539767870a51c40c30b0bc8e16a4878449d28c5ef3fa177",
          "transactionIndex": "0x0",
          "logIndex": "0x0",
          "removed": false
        },
        {
          "address": "0xcB317cd9838B81144cAf49383d1924a4C11b0813",
          "topics": [
            "0x8be0079c531659141344cd1fd0a4f28419497f9722a3daafe3b4186f6b6457e0",
            "0x00000000000000000000000067ca31c56f2dab0138d700aec08296d353c35c54",
            "0x0000000000000000000000006ce716d6bbfa3837debe3fc5a01bfa6b59b8211f"
          ],
          "data": "0x",
          "blockHash": "0x0f487dc511b9cd7c98e5fa52fc5d6b7f025521bc16c0fa9077db44f16daf3f7f",
          "blockNumber": "0x707c07",
          "transactionHash": "0xeef0ec2ff30a5eba5539767870a51c40c30b0bc8e16a4878449d28c5ef3fa177",
          "transactionIndex": "0x0",
          "logIndex": "0x1",
          "removed": false
        },
        {
          "address": "0x67Ca31c56f2daB0138D700AEc08296D353c35c54",
          "topics": [
            "0x3215760d6245a94a9e09852a311aa644934ef4f41594bf1b3b32881763a0f5c2",
            "0x000000000000000000000000cb317cd9838b81144caf49383d1924a4c11b0813"
          ],
          "data": "0x000000000000000000000000000000000000000000000000000000000000008000000000000000000000000000000000000000000000000000000000000000c00000000000000000000000000c338bb6b49f82b6c9bc2081785aebefc228dcb60000000000000000000000000000000000000000000000000000000000014a3400000000000000000000000000000000000000000000000000000000000000054d5553444300000000000000000000000000000000000000000000000000000000000000000000000000000000000000000000000000000000000000000000054d55534443000000000000000000000000000000000000000000000000000000",
          "blockHash": "0x0f487dc511b9cd7c98e5fa52fc5d6b7f025521bc16c0fa9077db44f16daf3f7f",
          "blockNumber": "0x707c07",
          "transactionHash": "0xeef0ec2ff30a5eba5539767870a51c40c30b0bc8e16a4878449d28c5ef3fa177",
          "transactionIndex": "0x0",
          "logIndex": "0x2",
          "removed": false
        }
      ],
      "logsBloom": "0x00000000000000000000000000000008000000000000000000800000400000000000000000000000000000800000001000000000000400000000000000000000000000000000080008000000000000000001000000000800000000000000004000000000020000000000000000000800000000000000000000000000000000400000000000000000000000000000000000000000000120000000000000000000000000000000000020000000000000000000000004000000000000000000000000000000000000000000000000000400000000000000000000000000000020000080000000010000000004000000000000000000040000000000000000000000",
      "type": "0x2",
      "transactionHash": "0xeef0ec2ff30a5eba5539767870a51c40c30b0bc8e16a4878449d28c5ef3fa177",
      "transactionIndex": "0x0",
      "blockHash": "0x0f487dc511b9cd7c98e5fa52fc5d6b7f025521bc16c0fa9077db44f16daf3f7f",
      "blockNumber": "0x707c07",
      "gasUsed": "0xee30a",
      "effectiveGasPrice": "0xee30a",
      "from": "0xc13113E56E00050327Be3AD164185103541f1903",
      "to": "0x67Ca31c56f2daB0138D700AEc08296D353c35c54",
      "contractAddress": null,
      "root": "0x4bb97814775ccb0d4768755d083d3348bfa526b2041ef7ccfdc3e2d26470d957"
    }
  ],
  "libraries": [],
  "pending": [],
  "returns": {},
  "timestamp": 1746619724,
  "chain": 1098411886,
  "commit": "7691af1"
}