{
  "transactions": [
    {
      "hash": "0x774c68e3af1c9068f0a0c1fc786015af07256832c500688420ba1aa6ece2f5de",
      "transactionType": "CALL",
      "contractName": null,
      "contractAddress": "0x67Ca31c56f2daB0138D700AEc08296D353c35c54",
      "function": "createMToken(string,string,address,uint32)",
      "arguments": [
        "METH",
        "METH",
        "0xFe3C69De114047C6b43a9b40D72001f06D4f3782",
        "84532"
      ],
      "transaction": {
        "from": "0xc13113E56E00050327Be3AD164185103541f1903",
        "to": "0x67Ca31c56f2daB0138D700AEc08296D353c35c54",
        "gas": "0x15c581",
        "value": "0x0",
        "input": "0x8d4994c9000000000000000000000000000000000000000000000000000000000000008000000000000000000000000000000000000000000000000000000000000000c0000000000000000000000000fe3c69de114047c6b43a9b40d72001f06d4f37820000000000000000000000000000000000000000000000000000000000014a3400000000000000000000000000000000000000000000000000000000000000044d4554480000000000000000000000000000000000000000000000000000000000000000000000000000000000000000000000000000000000000000000000044d45544800000000000000000000000000000000000000000000000000000000",
        "nonce": "0x124e",
        "chainId": "0x41786f6e"
      },
      "additionalContracts": [],
      "isFixedGasLimit": false
    }
  ],
  "receipts": [
    {
      "status": "0x1",
      "cumulativeGasUsed": "0xee2f2",
      "logs": [
        {
          "address": "0x6E26c370B28C7e438Aaf7d7DE2F64D9A1dFB59e4",
          "topics": [
            "0x8be0079c531659141344cd1fd0a4f28419497f9722a3daafe3b4186f6b6457e0",
            "0x0000000000000000000000000000000000000000000000000000000000000000",
            "0x00000000000000000000000067ca31c56f2dab0138d700aec08296d353c35c54"
          ],
          "data": "0x",
          "blockHash": "0x12bb0e1024ae5f2f87387d305ee4cfd32e6992ca858ebfb4dfcdc77cd0db25c0",
          "blockNumber": "0x707c41",
          "transactionHash": "0x774c68e3af1c9068f0a0c1fc786015af07256832c500688420ba1aa6ece2f5de",
          "transactionIndex": "0x0",
          "logIndex": "0x0",
          "removed": false
        },
        {
          "address": "0x6E26c370B28C7e438Aaf7d7DE2F64D9A1dFB59e4",
          "topics": [
            "0x8be0079c531659141344cd1fd0a4f28419497f9722a3daafe3b4186f6b6457e0",
            "0x00000000000000000000000067ca31c56f2dab0138d700aec08296d353c35c54",
            "0x0000000000000000000000006ce716d6bbfa3837debe3fc5a01bfa6b59b8211f"
          ],
          "data": "0x",
          "blockHash": "0x12bb0e1024ae5f2f87387d305ee4cfd32e6992ca858ebfb4dfcdc77cd0db25c0",
          "blockNumber": "0x707c41",
          "transactionHash": "0x774c68e3af1c9068f0a0c1fc786015af07256832c500688420ba1aa6ece2f5de",
          "transactionIndex": "0x0",
          "logIndex": "0x1",
          "removed": false
        },
        {
          "address": "0x67Ca31c56f2daB0138D700AEc08296D353c35c54",
          "topics": [
            "0x3215760d6245a94a9e09852a311aa644934ef4f41594bf1b3b32881763a0f5c2",
            "0x0000000000000000000000006e26c370b28c7e438aaf7d7de2f64d9a1dfb59e4"
          ],
          "data": "0x000000000000000000000000000000000000000000000000000000000000008000000000000000000000000000000000000000000000000000000000000000c0000000000000000000000000fe3c69de114047c6b43a9b40d72001f06d4f37820000000000000000000000000000000000000000000000000000000000014a3400000000000000000000000000000000000000000000000000000000000000044d4554480000000000000000000000000000000000000000000000000000000000000000000000000000000000000000000000000000000000000000000000044d45544800000000000000000000000000000000000000000000000000000000",
          "blockHash": "0x12bb0e1024ae5f2f87387d305ee4cfd32e6992ca858ebfb4dfcdc77cd0db25c0",
          "blockNumber": "0x707c41",
          "transactionHash": "0x774c68e3af1c9068f0a0c1fc786015af07256832c500688420ba1aa6ece2f5de",
          "transactionIndex": "0x0",
          "logIndex": "0x2",
          "removed": false
        }
      ],
      "logsBloom": "0x00000000000000000000000000000008000000000000000000800001400000020000000000000000000000801000000000000000000000000000000000000000000000000000000000000000000000000001000000000800000000000000004000000000020000200000000000000800000000000000000000000000000000400000000000000000000000000000040000000004000020000000000000000000000000000000000020000000000000000000000004000000000000000000000000000000000000000000000000000400000000000000000000000000000020000080000000010000000000000000000000000000040000000000000000000000",
      "type": "0x2",
      "transactionHash": "0x774c68e3af1c9068f0a0c1fc786015af07256832c500688420ba1aa6ece2f5de",
      "transactionIndex": "0x0",
      "blockHash": "0x12bb0e1024ae5f2f87387d305ee4cfd32e6992ca858ebfb4dfcdc77cd0db25c0",
      "blockNumber": "0x707c41",
      "gasUsed": "0xee2f2",
      "effectiveGasPrice": "0xee2f2",
      "from": "0xc13113E56E00050327Be3AD164185103541f1903",
      "to": "0x67Ca31c56f2daB0138D700AEc08296D353c35c54",
      "contractAddress": null,
      "root": "0x181b55022fd1e68e1e67fe25028efc26fc958125e9a9862d970f704a3d969efc"
    }
  ],
  "libraries": [],
  "pending": [],
  "returns": {},
  "timestamp": 1746619910,
  "chain": 1098411886,
  "commit": "7691af1"
}