{
  "transactions": [
    {
      "hash": "0x4ee87c75009360c37f4ff9f0a715d6d34ab1c3b7a4c1c6ae63690faaa369df9c",
      "transactionType": "CALL",
      "contractName": null,
      "contractAddress": "0x67Ca31c56f2daB0138D700AEc08296D353c35c54",
      "function": "createMToken(string,string,address,uint32)",
      "arguments": [
        "MDAI",
        "MDAI",
        "0xeAa5cbBc599556be8d182488aF6b3b89e10c10F3",
        "84532"
      ],
      "transaction": {
        "from": "0xc13113E56E00050327Be3AD164185103541f1903",
        "to": "0x67Ca31c56f2daB0138D700AEc08296D353c35c54",
        "gas": "0x15c581",
        "value": "0x0",
        "input": "0x8d4994c9000000000000000000000000000000000000000000000000000000000000008000000000000000000000000000000000000000000000000000000000000000c0000000000000000000000000eaa5cbbc599556be8d182488af6b3b89e10c10f30000000000000000000000000000000000000000000000000000000000014a3400000000000000000000000000000000000000000000000000000000000000044d4441490000000000000000000000000000000000000000000000000000000000000000000000000000000000000000000000000000000000000000000000044d44414900000000000000000000000000000000000000000000000000000000",
        "nonce": "0x124d",
        "chainId": "0x41786f6e"
      },
      "additionalContracts": [],
      "isFixedGasLimit": false
    }
  ],
  "receipts": [
    {
      "status": "0x1",
      "cumulativeGasUsed": "0xee2f2",
      "logs": [
        {
          "address": "0x46693634184433B8bE894aaDA367C5F7b323a7a7",
          "topics": [
            "0x8be0079c531659141344cd1fd0a4f28419497f9722a3daafe3b4186f6b6457e0",
            "0x0000000000000000000000000000000000000000000000000000000000000000",
            "0x00000000000000000000000067ca31c56f2dab0138d700aec08296d353c35c54"
          ],
          "data": "0x",
          "blockHash": "0x22f6dc08eac1cf5824e6075531a230ad47bb985a9596d790b7aa1a16fa94fff5",
          "blockNumber": "0x707c31",
          "transactionHash": "0x4ee87c75009360c37f4ff9f0a715d6d34ab1c3b7a4c1c6ae63690faaa369df9c",
          "transactionIndex": "0x0",
          "logIndex": "0x0",
          "removed": false
        },
        {
          "address": "0x46693634184433B8bE894aaDA367C5F7b323a7a7",
          "topics": [
            "0x8be0079c531659141344cd1fd0a4f28419497f9722a3daafe3b4186f6b6457e0",
            "0x00000000000000000000000067ca31c56f2dab0138d700aec08296d353c35c54",
            "0x0000000000000000000000006ce716d6bbfa3837debe3fc5a01bfa6b59b8211f"
          ],
          "data": "0x",
          "blockHash": "0x22f6dc08eac1cf5824e6075531a230ad47bb985a9596d790b7aa1a16fa94fff5",
          "blockNumber": "0x707c31",
          "transactionHash": "0x4ee87c75009360c37f4ff9f0a715d6d34ab1c3b7a4c1c6ae63690faaa369df9c",
          "transactionIndex": "0x0",
          "logIndex": "0x1",
          "removed": false
        },
        {
          "address": "0x67Ca31c56f2daB0138D700AEc08296D353c35c54",
          "topics": [
            "0x3215760d6245a94a9e09852a311aa644934ef4f41594bf1b3b32881763a0f5c2",
            "0x00000000000000000000000046693634184433b8be894aada367c5f7b323a7a7"
          ],
          "data": "0x000000000000000000000000000000000000000000000000000000000000008000000000000000000000000000000000000000000000000000000000000000c0000000000000000000000000eaa5cbbc599556be8d182488af6b3b89e10c10f30000000000000000000000000000000000000000000000000000000000014a3400000000000000000000000000000000000000000000000000000000000000044d4441490000000000000000000000000000000000000000000000000000000000000000000000000000000000000000000000000000000000000000000000044d44414900000000000000000000000000000000000000000000000000000000",
          "blockHash": "0x22f6dc08eac1cf5824e6075531a230ad47bb985a9596d790b7aa1a16fa94fff5",
          "blockNumber": "0x707c31",
          "transactionHash": "0x4ee87c75009360c37f4ff9f0a715d6d34ab1c3b7a4c1c6ae63690faaa369df9c",
          "transactionIndex": "0x0",
          "logIndex": "0x2",
          "removed": false
        }
      ],
      "logsBloom": "0x00000000000000000000000000000008000000000000000000800000400000000000000000000000000000800000000000000000000000000080000000000000000000000000000000000000000000000009000000000800000000000000004000000000020000000000000000000800100000000000000000000000000000400000000000000000000000000000000000000000000020000000000400000000000000000000000020000000000000000000000004000000000000000000000000000000000000000000000000000400000000000000000000002000000022000080000000010000000000000000000000000000040000000000000000000000",
      "type": "0x2",
      "transactionHash": "0x4ee87c75009360c37f4ff9f0a715d6d34ab1c3b7a4c1c6ae63690faaa369df9c",
      "transactionIndex": "0x0",
      "blockHash": "0x22f6dc08eac1cf5824e6075531a230ad47bb985a9596d790b7aa1a16fa94fff5",
      "blockNumber": "0x707c31",
      "gasUsed": "0xee2f2",
      "effectiveGasPrice": "0xee2f2",
      "from": "0xc13113E56E00050327Be3AD164185103541f1903",
      "to": "0x67Ca31c56f2daB0138D700AEc08296D353c35c54",
      "contractAddress": null,
      "root": "0xa3b23f95a1c8e3a92eb3dad74490b8b99b404b7717ba26bd2c6ab9422d331436"
    }
  ],
  "libraries": [],
  "pending": [],
  "returns": {},
  "timestamp": 1746619865,
  "chain": 1098411886,
  "commit": "7691af1"
}