{
  "transactions": [
    {
      "hash": "0xf06a3a19c3827b9b04bd259b6f6a1c6264ac0a0db84a180e62c0a0e90c952c9e",
      "transactionType": "CALL",
      "contractName": null,
      "contractAddress": "0x67Ca31c56f2daB0138D700AEc08296D353c35c54",
      "function": "createMToken(string,string,address,uint32)",
      "arguments": [
        "MDAI",
        "MDAI",
        "0xe3b81Dc806f92C45dCAe11d24288bA636b831387",
        "11155111"
      ],
      "transaction": {
        "from": "0xc13113E56E00050327Be3AD164185103541f1903",
        "to": "0x67Ca31c56f2daB0138D700AEc08296D353c35c54",
        "gas": "0x15c581",
        "value": "0x0",
        "input": "0x8d4994c9000000000000000000000000000000000000000000000000000000000000008000000000000000000000000000000000000000000000000000000000000000c0000000000000000000000000e3b81dc806f92c45dcae11d24288ba636b8313870000000000000000000000000000000000000000000000000000000000aa36a700000000000000000000000000000000000000000000000000000000000000044d4441490000000000000000000000000000000000000000000000000000000000000000000000000000000000000000000000000000000000000000000000044d44414900000000000000000000000000000000000000000000000000000000",
        "nonce": "0x1239",
        "chainId": "0x41786f6e"
      },
      "additionalContracts": [],
      "isFixedGasLimit": false
    }
  ],
  "receipts": [
    {
      "status": "0x1",
      "cumulativeGasUsed": "0xee2f2",
      "logs": [
        {
          "address": "0x91550653eA903d6c838a69b508adF0bf48d9a30e",
          "topics": [
            "0x8be0079c531659141344cd1fd0a4f28419497f9722a3daafe3b4186f6b6457e0",
            "0x0000000000000000000000000000000000000000000000000000000000000000",
            "0x00000000000000000000000067ca31c56f2dab0138d700aec08296d353c35c54"
          ],
          "data": "0x",
          "blockHash": "0x8a13e69248e61ff510f1cade5e2f1ff9f70c32bf58dbff8a35e011092fd1feb9",
          "blockNumber": "0x706e34",
          "transactionHash": "0xf06a3a19c3827b9b04bd259b6f6a1c6264ac0a0db84a180e62c0a0e90c952c9e",
          "transactionIndex": "0x0",
          "logIndex": "0x0",
          "removed": false
        },
        {
          "address": "0x91550653eA903d6c838a69b508adF0bf48d9a30e",
          "topics": [
            "0x8be0079c531659141344cd1fd0a4f28419497f9722a3daafe3b4186f6b6457e0",
            "0x00000000000000000000000067ca31c56f2dab0138d700aec08296d353c35c54",
            "0x0000000000000000000000006ce716d6bbfa3837debe3fc5a01bfa6b59b8211f"
          ],
          "data": "0x",
          "blockHash": "0x8a13e69248e61ff510f1cade5e2f1ff9f70c32bf58dbff8a35e011092fd1feb9",
          "blockNumber": "0x706e34",
          "transactionHash": "0xf06a3a19c3827b9b04bd259b6f6a1c6264ac0a0db84a180e62c0a0e90c952c9e",
          "transactionIndex": "0x0",
          "logIndex": "0x1",
          "removed": false
        },
        {
          "address": "0x67Ca31c56f2daB0138D700AEc08296D353c35c54",
          "topics": [
            "0x3215760d6245a94a9e09852a311aa644934ef4f41594bf1b3b32881763a0f5c2",
            "0x00000000000000000000000091550653ea903d6c838a69b508adf0bf48d9a30e"
          ],
          "data": "0x000000000000000000000000000000000000000000000000000000000000008000000000000000000000000000000000000000000000000000000000000000c0000000000000000000000000e3b81dc806f92c45dcae11d24288ba636b8313870000000000000000000000000000000000000000000000000000000000aa36a700000000000000000000000000000000000000000000000000000000000000044d4441490000000000000000000000000000000000000000000000000000000000000000000000000000000000000000000000000000000000000000000000044d44414900000000000000000000000000000000000000000000000000000000",
          "blockHash": "0x8a13e69248e61ff510f1cade5e2f1ff9f70c32bf58dbff8a35e011092fd1feb9",
          "blockNumber": "0x706e34",
          "transactionHash": "0xf06a3a19c3827b9b04bd259b6f6a1c6264ac0a0db84a180e62c0a0e90c952c9e",
          "transactionIndex": "0x0",
          "logIndex": "0x2",
          "removed": false
        }
      ],
      "logsBloom": "0x10000000000000000000000000000008000000000000000000800000400000000000000000000000000000800000000000000000000000000000000000000000000000000000000000000000000000000001000000000800000000000000004000000000020000000000000000000800000000000000000000000000000000400000000000000000000000000004000000400000000020002000000000000000000000000000000020000000000000000000000024000000000000000000000000000000000000000004000000000400000000000000000000000000000020000080000000010000000000000000000000000000040000000000000000000000",
      "type": "0x2",
      "transactionHash": "0xf06a3a19c3827b9b04bd259b6f6a1c6264ac0a0db84a180e62c0a0e90c952c9e",
      "transactionIndex": "0x0",
      "blockHash": "0x8a13e69248e61ff510f1cade5e2f1ff9f70c32bf58dbff8a35e011092fd1feb9",
      "blockNumber": "0x706e34",
      "gasUsed": "0xee2f2",
      "effectiveGasPrice": "0xee2f2",
      "from": "0xc13113E56E00050327Be3AD164185103541f1903",
      "to": "0x67Ca31c56f2daB0138D700AEc08296D353c35c54",
      "contractAddress": null,
      "root": "0xe43e9a148f9af4c7f28ffb81a0c9d11c7717e2137b370330c7b30f0bddd8dafd"
    }
  ],
  "libraries": [],
  "pending": [],
  "returns": {},
  "timestamp": 1746608137,
  "chain": 1098411886,
  "commit": "f1418e3"
}