{
  "transactions": [
    {
      "hash": "0xb7d46b2805dd36942dc71d2e891f8dea4e218d1b0d387444caf68e3d0a6bc6ad",
      "transactionType": "CALL",
      "contractName": null,
      "contractAddress": "0x67Ca31c56f2daB0138D700AEc08296D353c35c54",
      "function": "createMToken(string,string,address,uint32)",
      "arguments": [
        "MUSDT",
        "MUSDT",
        "0x2B403fDF61038dB622e1740b2Ad271489438AA56",
        "11155111"
      ],
      "transaction": {
        "from": "0xc13113E56E00050327Be3AD164185103541f1903",
        "to": "0x67Ca31c56f2daB0138D700AEc08296D353c35c54",
        "gas": "0x15c5a4",
        "value": "0x0",
        "input": "0x8d4994c9000000000000000000000000000000000000000000000000000000000000008000000000000000000000000000000000000000000000000000000000000000c00000000000000000000000002b403fdf61038db622e1740b2ad271489438aa560000000000000000000000000000000000000000000000000000000000aa36a700000000000000000000000000000000000000000000000000000000000000054d5553445400000000000000000000000000000000000000000000000000000000000000000000000000000000000000000000000000000000000000000000054d55534454000000000000000000000000000000000000000000000000000000",
        "nonce": "0x1238",
        "chainId": "0x41786f6e"
      },
      "additionalContracts": [],
      "isFixedGasLimit": false
    }
  ],
  "receipts": [
    {
      "status": "0x1",
      "cumulativeGasUsed": "0xee30a",
      "logs": [
        {
          "address": "0xa3E350e4f418d1584e8a2013a6F4F2edF51A8D24",
          "topics": [
            "0x8be0079c531659141344cd1fd0a4f28419497f9722a3daafe3b4186f6b6457e0",
            "0x0000000000000000000000000000000000000000000000000000000000000000",
            "0x00000000000000000000000067ca31c56f2dab0138d700aec08296d353c35c54"
          ],
          "data": "0x",
          "blockHash": "0x99b9b752f8596021a259d4fcc722b41af75799fa4ab6fe53d1b6e73deb920b5a",
          "blockNumber": "0x706e20",
          "transactionHash": "0xb7d46b2805dd36942dc71d2e891f8dea4e218d1b0d387444caf68e3d0a6bc6ad",
          "transactionIndex": "0x0",
          "logIndex": "0x0",
          "removed": false
        },
        {
          "address": "0xa3E350e4f418d1584e8a2013a6F4F2edF51A8D24",
          "topics": [
            "0x8be0079c531659141344cd1fd0a4f28419497f9722a3daafe3b4186f6b6457e0",
            "0x00000000000000000000000067ca31c56f2dab0138d700aec08296d353c35c54",
            "0x0000000000000000000000006ce716d6bbfa3837debe3fc5a01bfa6b59b8211f"
          ],
          "data": "0x",
          "blockHash": "0x99b9b752f8596021a259d4fcc722b41af75799fa4ab6fe53d1b6e73deb920b5a",
          "blockNumber": "0x706e20",
          "transactionHash": "0xb7d46b2805dd36942dc71d2e891f8dea4e218d1b0d387444caf68e3d0a6bc6ad",
          "transactionIndex": "0x0",
          "logIndex": "0x1",
          "removed": false
        },
        {
          "address": "0x67Ca31c56f2daB0138D700AEc08296D353c35c54",
          "topics": [
            "0x3215760d6245a94a9e09852a311aa644934ef4f41594bf1b3b32881763a0f5c2",
            "0x000000000000000000000000a3e350e4f418d1584e8a2013a6f4f2edf51a8d24"
          ],
          "data": "0x000000000000000000000000000000000000000000000000000000000000008000000000000000000000000000000000000000000000000000000000000000c00000000000000000000000002b403fdf61038db622e1740b2ad271489438aa560000000000000000000000000000000000000000000000000000000000aa36a700000000000000000000000000000000000000000000000000000000000000054d5553445400000000000000000000000000000000000000000000000000000000000000000000000000000000000000000000000000000000000000000000054d55534454000000000000000000000000000000000000000000000000000000",
          "blockHash": "0x99b9b752f8596021a259d4fcc722b41af75799fa4ab6fe53d1b6e73deb920b5a",
          "blockNumber": "0x706e20",
          "transactionHash": "0xb7d46b2805dd36942dc71d2e891f8dea4e218d1b0d387444caf68e3d0a6bc6ad",
          "transactionIndex": "0x0",
          "logIndex": "0x2",
          "removed": false
        }
      ],
      "logsBloom": "0x20000000000000000000000000000008000000000000000000800000400000000000000000000000000000800000000000000000000000000000000000400000000000000000800000000000000000021001000000000800000000000000004000000000020000002000000000000800000000000000000000000000000000400000000000000000000000000000000000000000000020000000000000000000000000000000000020000000000000000000000004000000000000000000000000000000000000000000000000000400000000000000000000000000000020000080000000010000000000000000000000000000040000000000000000000000",
      "type": "0x2",
      "transactionHash": "0xb7d46b2805dd36942dc71d2e891f8dea4e218d1b0d387444caf68e3d0a6bc6ad",
      "transactionIndex": "0x0",
      "blockHash": "0x99b9b752f8596021a259d4fcc722b41af75799fa4ab6fe53d1b6e73deb920b5a",
      "blockNumber": "0x706e20",
      "gasUsed": "0xee30a",
      "effectiveGasPrice": "0xee30a",
      "from": "0xc13113E56E00050327Be3AD164185103541f1903",
      "to": "0x67Ca31c56f2daB0138D700AEc08296D353c35c54",
      "contractAddress": null,
      "root": "0xd59a48ab3baa36f5ce7ff3ce1dff45baa42b1daf47bfc4bca6fb7b070156f814"
    }
  ],
  "libraries": [],
  "pending": [],
  "returns": {},
  "timestamp": 1746608073,
  "chain": 1098411886,
  "commit": "f1418e3"
}