{
  "transactions": [
    {
      "hash": "0x2c6e2f877479a8638a4f98eded6589eb2593f43de2a73d1a19dc18fd64d91063",
      "transactionType": "CALL",
      "contractName": null,
      "contractAddress": "0x67Ca31c56f2daB0138D700AEc08296D353c35c54",
      "function": "createMToken(string,string,address,uint32)",
      "arguments": [
        "MDAI",
        "MDAI",
        "0xFe3C69De114047C6b43a9b40D72001f06D4f3782",
        "11155420"
      ],
      "transaction": {
        "from": "0xc13113E56E00050327Be3AD164185103541f1903",
        "to": "0x67Ca31c56f2daB0138D700AEc08296D353c35c54",
        "gas": "0x15c581",
        "value": "0x0",
        "input": "0x8d4994c9000000000000000000000000000000000000000000000000000000000000008000000000000000000000000000000000000000000000000000000000000000c0000000000000000000000000fe3c69de114047c6b43a9b40d72001f06d4f37820000000000000000000000000000000000000000000000000000000000aa37dc00000000000000000000000000000000000000000000000000000000000000044d4441490000000000000000000000000000000000000000000000000000000000000000000000000000000000000000000000000000000000000000000000044d44414900000000000000000000000000000000000000000000000000000000",
        "nonce": "0x1227",
        "chainId": "0x41786f6e"
      },
      "additionalContracts": [],
      "isFixedGasLimit": false
    }
  ],
  "receipts": [
    {
      "status": "0x1",
      "cumulativeGasUsed": "0xee2f2",
      "logs": [
        {
          "address": "0xD9613f0758Fd56AF3D1740D586cec359BC8b84F4",
          "topics": [
            "0x8be0079c531659141344cd1fd0a4f28419497f9722a3daafe3b4186f6b6457e0",
            "0x0000000000000000000000000000000000000000000000000000000000000000",
            "0x00000000000000000000000067ca31c56f2dab0138d700aec08296d353c35c54"
          ],
          "data": "0x",
          "blockHash": "0x60cb0db3d950b424ad8f9b53e04e22472ef6c1e217b050192009e8cb59db0dea",
          "blockNumber": "0x706911",
          "transactionHash": "0x2c6e2f877479a8638a4f98eded6589eb2593f43de2a73d1a19dc18fd64d91063",
          "transactionIndex": "0x0",
          "logIndex": "0x0",
          "removed": false
        },
        {
          "address": "0xD9613f0758Fd56AF3D1740D586cec359BC8b84F4",
          "topics": [
            "0x8be0079c531659141344cd1fd0a4f28419497f9722a3daafe3b4186f6b6457e0",
            "0x00000000000000000000000067ca31c56f2dab0138d700aec08296d353c35c54",
            "0x0000000000000000000000006ce716d6bbfa3837debe3fc5a01bfa6b59b8211f"
          ],
          "data": "0x",
          "blockHash": "0x60cb0db3d950b424ad8f9b53e04e22472ef6c1e217b050192009e8cb59db0dea",
          "blockNumber": "0x706911",
          "transactionHash": "0x2c6e2f877479a8638a4f98eded6589eb2593f43de2a73d1a19dc18fd64d91063",
          "transactionIndex": "0x0",
          "logIndex": "0x1",
          "removed": false
        },
        {
          "address": "0x67Ca31c56f2daB0138D700AEc08296D353c35c54",
          "topics": [
            "0x3215760d6245a94a9e09852a311aa644934ef4f41594bf1b3b32881763a0f5c2",
            "0x000000000000000000000000d9613f0758fd56af3d1740d586cec359bc8b84f4"
          ],
          "data": "0x000000000000000000000000000000000000000000000000000000000000008000000000000000000000000000000000000000000000000000000000000000c0000000000000000000000000fe3c69de114047c6b43a9b40d72001f06d4f37820000000000000000000000000000000000000000000000000000000000aa37dc00000000000000000000000000000000000000000000000000000000000000044d4441490000000000000000000000000000000000000000000000000000000000000000000000000000000000000000000000000000000000000000000000044d44414900000000000000000000000000000000000000000000000000000000",
          "blockHash": "0x60cb0db3d950b424ad8f9b53e04e22472ef6c1e217b050192009e8cb59db0dea",
          "blockNumber": "0x706911",
          "transactionHash": "0x2c6e2f877479a8638a4f98eded6589eb2593f43de2a73d1a19dc18fd64d91063",
          "transactionIndex": "0x0",
          "logIndex": "0x2",
          "removed": false
        }
      ],
      "logsBloom": "0x00000000000000000000000000000008000000000000000000800000400000000000000000000000000000800000000000000000000000000000000000000000000000000000000000000000000000000001000000000800000000000000004000000000020000000000000000000800000000000000000000000000000000400000000000000000000000000000000000000000000020001000000000000000000000000000000020000000000000000000000004000000000000000000000000000000000000000000040000000400020000000000000000000000000020000080000000010002000000000000000200000000040000000000000000000000",
      "type": "0x2",
      "transactionHash": "0x2c6e2f877479a8638a4f98eded6589eb2593f43de2a73d1a19dc18fd64d91063",
      "transactionIndex": "0x0",
      "blockHash": "0x60cb0db3d950b424ad8f9b53e04e22472ef6c1e217b050192009e8cb59db0dea",
      "blockNumber": "0x706911",
      "gasUsed": "0xee2f2",
      "effectiveGasPrice": "0xee2f2",
      "from": "0xc13113E56E00050327Be3AD164185103541f1903",
      "to": "0x67Ca31c56f2daB0138D700AEc08296D353c35c54",
      "contractAddress": null,
      "root": "0x6cf881c4261abc5d42cacc7f3e4fa70d07a0e2e9d9c69b905fe39ca34f4d52c7"
    }
  ],
  "libraries": [],
  "pending": [],
  "returns": {},
  "timestamp": 1746603837,
  "chain": 1098411886,
  "commit": "0342e81"
}