{
  "transactions": [
    {
      "hash": "0x62aa5946997c15599ab88f8fb0a52b5856b348adbe697f6f0f9d2a0eedc1f915",
      "transactionType": "CALL",
      "contractName": null,
      "contractAddress": "0x67Ca31c56f2daB0138D700AEc08296D353c35c54",
      "function": "createMToken(string,string,address,uint32)",
      "arguments": [
        "METH",
        "METH",
        "0x31cd10b71f0b5194bDD8Ec58b567ffe17B942c0B",
        "11155420"
      ],
      "transaction": {
        "from": "0xc13113E56E00050327Be3AD164185103541f1903",
        "to": "0x67Ca31c56f2daB0138D700AEc08296D353c35c54",
        "gas": "0x15c581",
        "value": "0x0",
        "input": "0x8d4994c9000000000000000000000000000000000000000000000000000000000000008000000000000000000000000000000000000000000000000000000000000000c000000000000000000000000031cd10b71f0b5194bdd8ec58b567ffe17b942c0b0000000000000000000000000000000000000000000000000000000000aa37dc00000000000000000000000000000000000000000000000000000000000000044d4554480000000000000000000000000000000000000000000000000000000000000000000000000000000000000000000000000000000000000000000000044d45544800000000000000000000000000000000000000000000000000000000",
        "nonce": "0x1228",
        "chainId": "0x41786f6e"
      },
      "additionalContracts": [],
      "isFixedGasLimit": false
    }
  ],
  "receipts": [
    {
      "status": "0x1",
      "cumulativeGasUsed": "0xee2f2",
      "logs": [
        {
          "address": "0x005afaFEccC4D7689cB8147C021931e5Ff426Bde",
          "topics": [
            "0x8be0079c531659141344cd1fd0a4f28419497f9722a3daafe3b4186f6b6457e0",
            "0x0000000000000000000000000000000000000000000000000000000000000000",
            "0x00000000000000000000000067ca31c56f2dab0138d700aec08296d353c35c54"
          ],
          "data": "0x",
          "blockHash": "0xe1b311137373b2085f2947f39b32df8116887391e11ecacfb082d5573cbbafd6",
          "blockNumber": "0x706941",
          "transactionHash": "0x62aa5946997c15599ab88f8fb0a52b5856b348adbe697f6f0f9d2a0eedc1f915",
          "transactionIndex": "0x0",
          "logIndex": "0x0",
          "removed": false
        },
        {
          "address": "0x005afaFEccC4D7689cB8147C021931e5Ff426Bde",
          "topics": [
            "0x8be0079c531659141344cd1fd0a4f28419497f9722a3daafe3b4186f6b6457e0",
            "0x00000000000000000000000067ca31c56f2dab0138d700aec08296d353c35c54",
            "0x0000000000000000000000006ce716d6bbfa3837debe3fc5a01bfa6b59b8211f"
          ],
          "data": "0x",
          "blockHash": "0xe1b311137373b2085f2947f39b32df8116887391e11ecacfb082d5573cbbafd6",
          "blockNumber": "0x706941",
          "transactionHash": "0x62aa5946997c15599ab88f8fb0a52b5856b348adbe697f6f0f9d2a0eedc1f915",
          "transactionIndex": "0x0",
          "logIndex": "0x1",
          "removed": false
        },
        {
          "address": "0x67Ca31c56f2daB0138D700AEc08296D353c35c54",
          "topics": [
            "0x3215760d6245a94a9e09852a311aa644934ef4f41594bf1b3b32881763a0f5c2",
            "0x000000000000000000000000005afafeccc4d7689cb8147c021931e5ff426bde"
          ],
          "data": "0x000000000000000000000000000000000000000000000000000000000000008000000000000000000000000000000000000000000000000000000000000000c000000000000000000000000031cd10b71f0b5194bdd8ec58b567ffe17b942c0b0000000000000000000000000000000000000000000000000000000000aa37dc00000000000000000000000000000000000000000000000000000000000000044d4554480000000000000000000000000000000000000000000000000000000000000000000000000000000000000000000000000000000000000000000000044d45544800000000000000000000000000000000000000000000000000000000",
          "blockHash": "0xe1b311137373b2085f2947f39b32df8116887391e11ecacfb082d5573cbbafd6",
          "blockNumber": "0x706941",
          "transactionHash": "0x62aa5946997c15599ab88f8fb0a52b5856b348adbe697f6f0f9d2a0eedc1f915",
          "transactionIndex": "0x0",
          "logIndex": "0x2",
          "removed": false
        }
      ],
      "logsBloom": "0x00000000000000000000000000000008000000000000000000800000400000000000000000000000000008800000000000000000000000000000000000000000000400000000080000000000000000000001000000000800000000000000004000000000020000000000000000000800000000000000000000000000000000400000000000000000000000000000000000000000000020000000000000000000000000000000000020000000000000000000000004000000000000000000000000000000000000000000000200000440000010000000000000000000000020000080000000010000000000000000000000000000040000000000000000000000",
      "type": "0x2",
      "transactionHash": "0x62aa5946997c15599ab88f8fb0a52b5856b348adbe697f6f0f9d2a0eedc1f915",
      "transactionIndex": "0x0",
      "blockHash": "0xe1b311137373b2085f2947f39b32df8116887391e11ecacfb082d5573cbbafd6",
      "blockNumber": "0x706941",
      "gasUsed": "0xee2f2",
      "effectiveGasPrice": "0xee2f2",
      "from": "0xc13113E56E00050327Be3AD164185103541f1903",
      "to": "0x67Ca31c56f2daB0138D700AEc08296D353c35c54",
      "contractAddress": null,
      "root": "0x264bbc8166643ed45cb7ea3b2e366bb0185a6916b6498f202ff96b1dcb6ca24c"
    }
  ],
  "libraries": [],
  "pending": [],
  "returns": {},
  "timestamp": 1746603994,
  "chain": 1098411886,
  "commit": "0342e81"
}