{
  "transactions": [
    {
      "hash": "0xe7363edf636c264ba2f90936df9f638ac245575ff4c9178720e93a27380134f4",
      "transactionType": "CALL",
      "contractName": null,
      "contractAddress": "0x67Ca31c56f2daB0138D700AEc08296D353c35c54",
      "function": "createMToken(string,string,address,uint32)",
      "arguments": [
        "METH",
        "METH",
        "0x31cd10b71f0b5194bDD8Ec58b567ffe17B942c0B",
        "421614"
      ],
      "transaction": {
        "from": "0xc13113E56E00050327Be3AD164185103541f1903",
        "to": "0x67Ca31c56f2daB0138D700AEc08296D353c35c54",
        "gas": "0x15c581",
        "value": "0x0",
        "input": "0x8d4994c9000000000000000000000000000000000000000000000000000000000000008000000000000000000000000000000000000000000000000000000000000000c000000000000000000000000031cd10b71f0b5194bdd8ec58b567ffe17b942c0b0000000000000000000000000000000000000000000000000000000000066eee00000000000000000000000000000000000000000000000000000000000000044d4554480000000000000000000000000000000000000000000000000000000000000000000000000000000000000000000000000000000000000000000000044d45544800000000000000000000000000000000000000000000000000000000",
        "nonce": "0x11f4",
        "chainId": "0x41786f6e"
      },
      "additionalContracts": [],
      "isFixedGasLimit": false
    }
  ],
  "receipts": [
    {
      "status": "0x1",
      "cumulativeGasUsed": "0xee2f2",
      "logs": [
        {
          "address": "0x9cfBe192742fc6f35D1Dc4F303a2b88C690A4628",
          "topics": [
            "0x8be0079c531659141344cd1fd0a4f28419497f9722a3daafe3b4186f6b6457e0",
            "0x0000000000000000000000000000000000000000000000000000000000000000",
            "0x00000000000000000000000067ca31c56f2dab0138d700aec08296d353c35c54"
          ],
          "data": "0x",
          "blockHash": "0x9d7c4a9a9965815e6ef59bcf9579ebdc10f95ddf72ccc167b01d345bc14fa63a",
          "blockNumber": "0x70129d",
          "transactionHash": "0xe7363edf636c264ba2f90936df9f638ac245575ff4c9178720e93a27380134f4",
          "transactionIndex": "0x0",
          "logIndex": "0x0",
          "removed": false
        },
        {
          "address": "0x9cfBe192742fc6f35D1Dc4F303a2b88C690A4628",
          "topics": [
            "0x8be0079c531659141344cd1fd0a4f28419497f9722a3daafe3b4186f6b6457e0",
            "0x00000000000000000000000067ca31c56f2dab0138d700aec08296d353c35c54",
            "0x0000000000000000000000006ce716d6bbfa3837debe3fc5a01bfa6b59b8211f"
          ],
          "data": "0x",
          "blockHash": "0x9d7c4a9a9965815e6ef59bcf9579ebdc10f95ddf72ccc167b01d345bc14fa63a",
          "blockNumber": "0x70129d",
          "transactionHash": "0xe7363edf636c264ba2f90936df9f638ac245575ff4c9178720e93a27380134f4",
          "transactionIndex": "0x0",
          "logIndex": "0x1",
          "removed": false
        },
        {
          "address": "0x67Ca31c56f2daB0138D700AEc08296D353c35c54",
          "topics": [
            "0x3215760d6245a94a9e09852a311aa644934ef4f41594bf1b3b32881763a0f5c2",
            "0x0000000000000000000000009cfbe192742fc6f35d1dc4f303a2b88c690a4628"
          ],
          "data": "0x000000000000000000000000000000000000000000000000000000000000008000000000000000000000000000000000000000000000000000000000000000c000000000000000000000000031cd10b71f0b5194bdd8ec58b567ffe17b942c0b0000000000000000000000000000000000000000000000000000000000066eee00000000000000000000000000000000000000000000000000000000000000044d4554480000000000000000000000000000000000000000000000000000000000000000000000000000000000000000000000000000000000000000000000044d45544800000000000000000000000000000000000000000000000000000000",
          "blockHash": "0x9d7c4a9a9965815e6ef59bcf9579ebdc10f95ddf72ccc167b01d345bc14fa63a",
          "blockNumber": "0x70129d",
          "transactionHash": "0xe7363edf636c264ba2f90936df9f638ac245575ff4c9178720e93a27380134f4",
          "transactionIndex": "0x0",
          "logIndex": "0x2",
          "removed": false
        }
      ],
      "logsBloom": "0x00000000000000000000000000000008000000000000000000800000400000000000000010000000000000800000000000000000000000000000000000000000000000000000000000000000000000000001000000000800000000000000004000000000020000000000000000000800000000000000000000000000000000400000000000000040100000000000000000000000000020000000000000000000000000000000000020200000000000000000000004000000000000000000000000000000000000000000000000000400000000000000000000000000000020000080000000010000004000000000000008000000040000000000000000000000",
      "type": "0x2",
      "transactionHash": "0xe7363edf636c264ba2f90936df9f638ac245575ff4c9178720e93a27380134f4",
      "transactionIndex": "0x0",
      "blockHash": "0x9d7c4a9a9965815e6ef59bcf9579ebdc10f95ddf72ccc167b01d345bc14fa63a",
      "blockNumber": "0x70129d",
      "gasUsed": "0xee2f2",
      "effectiveGasPrice": "0xee2f2",
      "from": "0xc13113E56E00050327Be3AD164185103541f1903",
      "to": "0x67Ca31c56f2daB0138D700AEc08296D353c35c54",
      "contractAddress": null,
      "root": "0x598aa47e21e65d491de14ea4f826fcb97465a739be9841f8f146bcee27f4ddb1"
    }
  ],
  "libraries": [],
  "pending": [],
  "returns": {},
  "timestamp": 1746531409,
  "chain": 1098411886,
  "commit": "757664c"
}