{
  "transactions": [
    {
      "hash": "0x262fee85ac867aca0a8237c54157e870460e8d2ead3d0dd6bfbb33983a748944",
      "transactionType": "CALL",
      "contractName": null,
      "contractAddress": "0x67Ca31c56f2daB0138D700AEc08296D353c35c54",
      "function": "createMToken(string,string,address,uint32)",
      "arguments": [
        "MUSDT",
        "MUSDT",
        "0xeAa5cbBc599556be8d182488aF6b3b89e10c10F3",
        "421614"
      ],
      "transaction": {
        "from": "0xc13113E56E00050327Be3AD164185103541f1903",
        "to": "0x67Ca31c56f2daB0138D700AEc08296D353c35c54",
        "gas": "0x15c5a4",
        "value": "0x0",
        "input": "0x8d4994c9000000000000000000000000000000000000000000000000000000000000008000000000000000000000000000000000000000000000000000000000000000c0000000000000000000000000eaa5cbbc599556be8d182488af6b3b89e10c10f30000000000000000000000000000000000000000000000000000000000066eee00000000000000000000000000000000000000000000000000000000000000054d5553445400000000000000000000000000000000000000000000000000000000000000000000000000000000000000000000000000000000000000000000054d55534454000000000000000000000000000000000000000000000000000000",
        "nonce": "0x11f3",
        "chainId": "0x41786f6e"
      },
      "additionalContracts": [],
      "isFixedGasLimit": false
    }
  ],
  "receipts": [
    {
      "status": "0x1",
      "cumulativeGasUsed": "0xee30a",
      "logs": [
        {
          "address": "0x5D6861D2E8481Ceb8627b445154F7E2D9E914958",
          "topics": [
            "0x8be0079c531659141344cd1fd0a4f28419497f9722a3daafe3b4186f6b6457e0",
            "0x0000000000000000000000000000000000000000000000000000000000000000",
            "0x00000000000000000000000067ca31c56f2dab0138d700aec08296d353c35c54"
          ],
          "data": "0x",
          "blockHash": "0x5a8ceff5d56e2e64c724b0ec79b2975e6e7576845ed7e19bb11d02c8795ff44d",
          "blockNumber": "0x701238",
          "transactionHash": "0x262fee85ac867aca0a8237c54157e870460e8d2ead3d0dd6bfbb33983a748944",
          "transactionIndex": "0x0",
          "logIndex": "0x0",
          "removed": false
        },
        {
          "address": "0x5D6861D2E8481Ceb8627b445154F7E2D9E914958",
          "topics": [
            "0x8be0079c531659141344cd1fd0a4f28419497f9722a3daafe3b4186f6b6457e0",
            "0x00000000000000000000000067ca31c56f2dab0138d700aec08296d353c35c54",
            "0x0000000000000000000000006ce716d6bbfa3837debe3fc5a01bfa6b59b8211f"
          ],
          "data": "0x",
          "blockHash": "0x5a8ceff5d56e2e64c724b0ec79b2975e6e7576845ed7e19bb11d02c8795ff44d",
          "blockNumber": "0x701238",
          "transactionHash": "0x262fee85ac867aca0a8237c54157e870460e8d2ead3d0dd6bfbb33983a748944",
          "transactionIndex": "0x0",
          "logIndex": "0x1",
          "removed": false
        },
        {
          "address": "0x67Ca31c56f2daB0138D700AEc08296D353c35c54",
          "topics": [
            "0x3215760d6245a94a9e09852a311aa644934ef4f41594bf1b3b32881763a0f5c2",
            "0x0000000000000000000000005d6861d2e8481ceb8627b445154f7e2d9e914958"
          ],
          "data": "0x000000000000000000000000000000000000000000000000000000000000008000000000000000000000000000000000000000000000000000000000000000c0000000000000000000000000eaa5cbbc599556be8d182488af6b3b89e10c10f30000000000000000000000000000000000000000000000000000000000066eee00000000000000000000000000000000000000000000000000000000000000054d5553445400000000000000000000000000000000000000000000000000000000000000000000000000000000000000000000000000000000000000000000054d55534454000000000000000000000000000000000000000000000000000000",
          "blockHash": "0x5a8ceff5d56e2e64c724b0ec79b2975e6e7576845ed7e19bb11d02c8795ff44d",
          "blockNumber": "0x701238",
          "transactionHash": "0x262fee85ac867aca0a8237c54157e870460e8d2ead3d0dd6bfbb33983a748944",
          "transactionIndex": "0x0",
          "logIndex": "0x2",
          "removed": false
        }
      ],
      "logsBloom": "0x00000020000010000000000000000008000000000000000000800000400000000000000000000000000000800000000000000000000000000000000000000000000000000000000000000000000000000001000000000800000000000000004000000000020000000000000000000800000000000000000000000000000000400000000000000000000000000000000000000000000020000000000000000000000000000000000020000000020000000000000004000000000000000000000000000000000000000000000000000400000001000000000000000400000020000080000000010000000000000000000000000000040000000000000000002000",
      "type": "0x2",
      "transactionHash": "0x262fee85ac867aca0a8237c54157e870460e8d2ead3d0dd6bfbb33983a748944",
      "transactionIndex": "0x0",
      "blockHash": "0x5a8ceff5d56e2e64c724b0ec79b2975e6e7576845ed7e19bb11d02c8795ff44d",
      "blockNumber": "0x701238",
      "gasUsed": "0xee30a",
      "effectiveGasPrice": "0xee30a",
      "from": "0xc13113E56E00050327Be3AD164185103541f1903",
      "to": "0x67Ca31c56f2daB0138D700AEc08296D353c35c54",
      "contractAddress": null,
      "root": "0x55982c47d081624d78c57f9c0ec4f844c7a8d707c7a6ff9e6f78ead0c5c5749b"
    }
  ],
  "libraries": [],
  "pending": [],
  "returns": {},
  "timestamp": 1746531079,
  "chain": 1098411886,
  "commit": "757664c"
}