{
  "transactions": [
    {
      "hash": "0x786fad5edb24b19622cc8cfb2981c2aa76838efde111d48b4b85f01de168525a",
      "transactionType": "CALL",
      "contractName": null,
      "contractAddress": "0x67Ca31c56f2daB0138D700AEc08296D353c35c54",
      "function": "createMToken(string,string,address,uint32)",
      "arguments": [
        "METH",
        "METH",
        "0x390b45e024aC78A1fF0AF9322895123EB0c25DBb",
        "43113"
      ],
      "transaction": {
        "from": "0xc13113E56E00050327Be3AD164185103541f1903",
        "to": "0x67Ca31c56f2daB0138D700AEc08296D353c35c54",
        "gas": "0x148fcd",
        "value": "0x0",
        "input": "0x8d4994c9000000000000000000000000000000000000000000000000000000000000008000000000000000000000000000000000000000000000000000000000000000c0000000000000000000000000390b45e024ac78a1ff0af9322895123eb0c25dbb000000000000000000000000000000000000000000000000000000000000a86900000000000000000000000000000000000000000000000000000000000000044d4554480000000000000000000000000000000000000000000000000000000000000000000000000000000000000000000000000000000000000000000000044d45544800000000000000000000000000000000000000000000000000000000",
        "nonce": "0x11f7",
        "chainId": "0x41786f6e"
      },
      "additionalContracts": [],
      "isFixedGasLimit": false
    }
  ],
  "receipts": [
    {
      "status": "0x1",
      "cumulativeGasUsed": "0xee2e6",
      "logs": [
        {
          "address": "0x71A52aFdDedBe8D4E3D93312fBDe5F75e7ce4A34",
          "topics": [
            "0x8be0079c531659141344cd1fd0a4f28419497f9722a3daafe3b4186f6b6457e0",
            "0x0000000000000000000000000000000000000000000000000000000000000000",
            "0x00000000000000000000000067ca31c56f2dab0138d700aec08296d353c35c54"
          ],
          "data": "0x",
          "blockHash": "0xc735ab29e766b7226ac68dd1cc0bbfae3206d333bd4bbd2ce3fb45649701e7aa",
          "blockNumber": "0x701310",
          "transactionHash": "0x786fad5edb24b19622cc8cfb2981c2aa76838efde111d48b4b85f01de168525a",
          "transactionIndex": "0x0",
          "logIndex": "0x0",
          "removed": false
        },
        {
          "address": "0x71A52aFdDedBe8D4E3D93312fBDe5F75e7ce4A34",
          "topics": [
            "0x8be0079c531659141344cd1fd0a4f28419497f9722a3daafe3b4186f6b6457e0",
            "0x00000000000000000000000067ca31c56f2dab0138d700aec08296d353c35c54",
            "0x0000000000000000000000006ce716d6bbfa3837debe3fc5a01bfa6b59b8211f"
          ],
          "data": "0x",
          "blockHash": "0xc735ab29e766b7226ac68dd1cc0bbfae3206d333bd4bbd2ce3fb45649701e7aa",
          "blockNumber": "0x701310",
          "transactionHash": "0x786fad5edb24b19622cc8cfb2981c2aa76838efde111d48b4b85f01de168525a",
          "transactionIndex": "0x0",
          "logIndex": "0x1",
          "removed": false
        },
        {
          "address": "0x67Ca31c56f2daB0138D700AEc08296D353c35c54",
          "topics": [
            "0x3215760d6245a94a9e09852a311aa644934ef4f41594bf1b3b32881763a0f5c2",
            "0x00000000000000000000000071a52afddedbe8d4e3d93312fbde5f75e7ce4a34"
          ],
          "data": "0x000000000000000000000000000000000000000000000000000000000000008000000000000000000000000000000000000000000000000000000000000000c0000000000000000000000000390b45e024ac78a1ff0af9322895123eb0c25dbb000000000000000000000000000000000000000000000000000000000000a86900000000000000000000000000000000000000000000000000000000000000044d4554480000000000000000000000000000000000000000000000000000000000000000000000000000000000000000000000000000000000000000000000044d45544800000000000000000000000000000000000000000000000000000000",
          "blockHash": "0xc735ab29e766b7226ac68dd1cc0bbfae3206d333bd4bbd2ce3fb45649701e7aa",
          "blockNumber": "0x701310",
          "transactionHash": "0x786fad5edb24b19622cc8cfb2981c2aa76838efde111d48b4b85f01de168525a",
          "transactionIndex": "0x0",
          "logIndex": "0x2",
          "removed": false
        }
      ],
      "logsBloom": "0x00000000000000000000000000800008000000000000000000800000400000000000000000000000000000800000008000040000000000000000000000000000000000000000000000000000000000000001000000000800000000000000004000000000820000000800000000000800000000000000000000000000000000400000000000000000000000000000000000000000004020000000000000000000000000000000000020000000000000000000000004000000000000000000000000000000000000000000000000000400000000000000000000000000000020000080000000010000000000000000000000000000040000000000000000000000",
      "type": "0x2",
      "transactionHash": "0x786fad5edb24b19622cc8cfb2981c2aa76838efde111d48b4b85f01de168525a",
      "transactionIndex": "0x0",
      "blockHash": "0xc735ab29e766b7226ac68dd1cc0bbfae3206d333bd4bbd2ce3fb45649701e7aa",
      "blockNumber": "0x701310",
      "gasUsed": "0xee2e6",
      "effectiveGasPrice": "0xee2e6",
      "from": "0xc13113E56E00050327Be3AD164185103541f1903",
      "to": "0x67Ca31c56f2daB0138D700AEc08296D353c35c54",
      "contractAddress": null,
      "root": "0x969f430e434c818622455efe12c3b065e31a2fa6fd5d459ac90ee4f2c979b6aa"
    }
  ],
  "libraries": [],
  "pending": [],
  "returns": {},
  "timestamp": 1746531780,
  "chain": 1098411886,
  "commit": "757664c"
}