{
  "transactions": [
    {
      "hash": "0x17df2228a7795f6b45e9c83a8d8cb19426cf37786ad04de3c723e7ddf9fe2dca",
      "transactionType": "CALL",
      "contractName": null,
      "contractAddress": "0x67Ca31c56f2daB0138D700AEc08296D353c35c54",
      "function": "createMToken(string,string,address,uint32)",
      "arguments": [
        "MDAI",
        "MDAI",
        "0x26FaF3BB5f1201168600ca87f987dfCdB3a9aEEe",
        "43113"
      ],
      "transaction": {
        "from": "0xc13113E56E00050327Be3AD164185103541f1903",
        "to": "0x67Ca31c56f2daB0138D700AEc08296D353c35c54",
        "gas": "0x15c55e",
        "value": "0x0",
        "input": "0x8d4994c9000000000000000000000000000000000000000000000000000000000000008000000000000000000000000000000000000000000000000000000000000000c000000000000000000000000026faf3bb5f1201168600ca87f987dfcdb3a9aeee000000000000000000000000000000000000000000000000000000000000a86900000000000000000000000000000000000000000000000000000000000000044d4441490000000000000000000000000000000000000000000000000000000000000000000000000000000000000000000000000000000000000000000000044d44414900000000000000000000000000000000000000000000000000000000",
        "nonce": "0x11f6",
        "chainId": "0x41786f6e"
      },
      "additionalContracts": [],
      "isFixedGasLimit": false
    }
  ],
  "receipts": [
    {
      "status": "0x1",
      "cumulativeGasUsed": "0xee2da",
      "logs": [
        {
          "address": "0xF7d2Ddf33265a468180359AD603CDF1d1aEe1a72",
          "topics": [
            "0x8be0079c531659141344cd1fd0a4f28419497f9722a3daafe3b4186f6b6457e0",
            "0x0000000000000000000000000000000000000000000000000000000000000000",
            "0x00000000000000000000000067ca31c56f2dab0138d700aec08296d353c35c54"
          ],
          "data": "0x",
          "blockHash": "0x7d25a2f65f24246c9efbd9f326796a1235f2893c76fe143666e6d48a96211dca",
          "blockNumber": "0x7012f8",
          "transactionHash": "0x17df2228a7795f6b45e9c83a8d8cb19426cf37786ad04de3c723e7ddf9fe2dca",
          "transactionIndex": "0x0",
          "logIndex": "0x0",
          "removed": false
        },
        {
          "address": "0xF7d2Ddf33265a468180359AD603CDF1d1aEe1a72",
          "topics": [
            "0x8be0079c531659141344cd1fd0a4f28419497f9722a3daafe3b4186f6b6457e0",
            "0x00000000000000000000000067ca31c56f2dab0138d700aec08296d353c35c54",
            "0x0000000000000000000000006ce716d6bbfa3837debe3fc5a01bfa6b59b8211f"
          ],
          "data": "0x",
          "blockHash": "0x7d25a2f65f24246c9efbd9f326796a1235f2893c76fe143666e6d48a96211dca",
          "blockNumber": "0x7012f8",
          "transactionHash": "0x17df2228a7795f6b45e9c83a8d8cb19426cf37786ad04de3c723e7ddf9fe2dca",
          "transactionIndex": "0x0",
          "logIndex": "0x1",
          "removed": false
        },
        {
          "address": "0x67Ca31c56f2daB0138D700AEc08296D353c35c54",
          "topics": [
            "0x3215760d6245a94a9e09852a311aa644934ef4f41594bf1b3b32881763a0f5c2",
            "0x000000000000000000000000f7d2ddf33265a468180359ad603cdf1d1aee1a72"
          ],
          "data": "0x000000000000000000000000000000000000000000000000000000000000008000000000000000000000000000000000000000000000000000000000000000c000000000000000000000000026faf3bb5f1201168600ca87f987dfcdb3a9aeee000000000000000000000000000000000000000000000000000000000000a86900000000000000000000000000000000000000000000000000000000000000044d4441490000000000000000000000000000000000000000000000000000000000000000000000000000000000000000000000000000000000000000000000044d44414900000000000000000000000000000000000000000000000000000000",
          "blockHash": "0x7d25a2f65f24246c9efbd9f326796a1235f2893c76fe143666e6d48a96211dca",
          "blockNumber": "0x7012f8",
          "transactionHash": "0x17df2228a7795f6b45e9c83a8d8cb19426cf37786ad04de3c723e7ddf9fe2dca",
          "transactionIndex": "0x0",
          "logIndex": "0x2",
          "removed": false
        }
      ],
      "logsBloom": "0x00000000000000000000000000000008000000000000000000800000400800000000000000000000000000800000000000000000000000000000000000000000000000000000000000000000000000000001000010000800000000000001004000004000020000000000000000000800000000000000000000000000000000400000000000000000000000100000000000000000000020000000000000000002000000000000000020000000000000000000000004000000000000000000000000000000000000000000000000000400000000000000000000000000000020000080000000010000000000000000000000000000040000000000000000000000",
      "type": "0x2",
      "transactionHash": "0x17df2228a7795f6b45e9c83a8d8cb19426cf37786ad04de3c723e7ddf9fe2dca",
      "transactionIndex": "0x0",
      "blockHash": "0x7d25a2f65f24246c9efbd9f326796a1235f2893c76fe143666e6d48a96211dca",
      "blockNumber": "0x7012f8",
      "gasUsed": "0xee2da",
      "effectiveGasPrice": "0xee2da",
      "from": "0xc13113E56E00050327Be3AD164185103541f1903",
      "to": "0x67Ca31c56f2daB0138D700AEc08296D353c35c54",
      "contractAddress": null,
      "root": "0xdb8a6634f0ed78914233c70ea5cf16b858503984aea922e70a1459815bbc30a6"
    }
  ],
  "libraries": [],
  "pending": [],
  "returns": {},
  "timestamp": 1746531708,
  "chain": 1098411886,
  "commit": "757664c"
}