{
  "transactions": [
    {
      "hash": "0x11ec913a985e7db2eb3cfce9b702060c39703210c7222926d459acb8eae2541a",
      "transactionType": "CALL",
      "contractName": null,
      "contractAddress": "0x67Ca31c56f2daB0138D700AEc08296D353c35c54",
      "function": "createMToken(string,string,address,uint32)",
      "arguments": [
        "MUSDT",
        "MUSDT",
        "0xeAa5cbBc599556be8d182488aF6b3b89e10c10F3",
        "11155420"
      ],
      "transaction": {
        "from": "0xc13113E56E00050327Be3AD164185103541f1903",
        "to": "0x67Ca31c56f2daB0138D700AEc08296D353c35c54",
        "gas": "0x15c5a4",
        "value": "0x0",
        "input": "0x8d4994c9000000000000000000000000000000000000000000000000000000000000008000000000000000000000000000000000000000000000000000000000000000c0000000000000000000000000eaa5cbbc599556be8d182488af6b3b89e10c10f30000000000000000000000000000000000000000000000000000000000aa37dc00000000000000000000000000000000000000000000000000000000000000054d5553445400000000000000000000000000000000000000000000000000000000000000000000000000000000000000000000000000000000000000000000054d55534454000000000000000000000000000000000000000000000000000000",
        "nonce": "0x1226",
        "chainId": "0x41786f6e"
      },
      "additionalContracts": [],
      "isFixedGasLimit": false
    }
  ],
  "receipts": [
    {
      "status": "0x1",
      "cumulativeGasUsed": "0xee30a",
      "logs": [
        {
          "address": "0x1FF1a010b22422d07926b2c2C48D865292A21AA6",
          "topics": [
            "0x8be0079c531659141344cd1fd0a4f28419497f9722a3daafe3b4186f6b6457e0",
            "0x0000000000000000000000000000000000000000000000000000000000000000",
            "0x00000000000000000000000067ca31c56f2dab0138d700aec08296d353c35c54"
          ],
          "data": "0x",
          "blockHash": "0x5c5829d1b7915a0af4eb9e8b1639ef622776105310f8a2624d846e37c15ea088",
          "blockNumber": "0x7068f5",
          "transactionHash": "0x11ec913a985e7db2eb3cfce9b702060c39703210c7222926d459acb8eae2541a",
          "transactionIndex": "0x0",
          "logIndex": "0x0",
          "removed": false
        },
        {
          "address": "0x1FF1a010b22422d07926b2c2C48D865292A21AA6",
          "topics": [
            "0x8be0079c531659141344cd1fd0a4f28419497f9722a3daafe3b4186f6b6457e0",
            "0x00000000000000000000000067ca31c56f2dab0138d700aec08296d353c35c54",
            "0x0000000000000000000000006ce716d6bbfa3837debe3fc5a01bfa6b59b8211f"
          ],
          "data": "0x",
          "blockHash": "0x5c5829d1b7915a0af4eb9e8b1639ef622776105310f8a2624d846e37c15ea088",
          "blockNumber": "0x7068f5",
          "transactionHash": "0x11ec913a985e7db2eb3cfce9b702060c39703210c7222926d459acb8eae2541a",
          "transactionIndex": "0x0",
          "logIndex": "0x1",
          "removed": false
        },
        {
          "address": "0x67Ca31c56f2daB0138D700AEc08296D353c35c54",
          "topics": [
            "0x3215760d6245a94a9e09852a311aa644934ef4f41594bf1b3b32881763a0f5c2",
            "0x0000000000000000000000001ff1a010b22422d07926b2c2c48d865292a21aa6"
          ],
          "data": "0x000000000000000000000000000000000000000000000000000000000000008000000000000000000000000000000000000000000000000000000000000000c0000000000000000000000000eaa5cbbc599556be8d182488af6b3b89e10c10f30000000000000000000000000000000000000000000000000000000000aa37dc00000000000000000000000000000000000000000000000000000000000000054d5553445400000000000000000000000000000000000000000000000000000000000000000000000000000000000000000000000000000000000000000000054d55534454000000000000000000000000000000000000000000000000000000",
          "blockHash": "0x5c5829d1b7915a0af4eb9e8b1639ef622776105310f8a2624d846e37c15ea088",
          "blockNumber": "0x7068f5",
          "transactionHash": "0x11ec913a985e7db2eb3cfce9b702060c39703210c7222926d459acb8eae2541a",
          "transactionIndex": "0x0",
          "logIndex": "0x2",
          "removed": false
        }
      ],
      "logsBloom": "0x00000000000000000000000000000008000000000000000000800000400000000000000000000000000000800000000000000000002000000000000000000000000008000000000000000000000000000001000000000800000000000000004000000000020000000000000000000820000020000000000000000000000000400000000000000000000000000000000000000000000020000000000000000000000000000000000020000000000000000000000004000000000000000000000000000000000000000000000000000400000000000000000000000000000024000080000000010001000000000000000000000000040000000000000000000000",
      "type": "0x2",
      "transactionHash": "0x11ec913a985e7db2eb3cfce9b702060c39703210c7222926d459acb8eae2541a",
      "transactionIndex": "0x0",
      "blockHash": "0x5c5829d1b7915a0af4eb9e8b1639ef622776105310f8a2624d846e37c15ea088",
      "blockNumber": "0x7068f5",
      "gasUsed": "0xee30a",
      "effectiveGasPrice": "0xee30a",
      "from": "0xc13113E56E00050327Be3AD164185103541f1903",
      "to": "0x67Ca31c56f2daB0138D700AEc08296D353c35c54",
      "contractAddress": null,
      "root": "0x3d9aeba59fa2f5fdb5185025fee5b7fe7481b24b4a351703dfebb5f183c9ed30"
    }
  ],
  "libraries": [],
  "pending": [],
  "returns": {},
  "timestamp": 1746603738,
  "chain": 1098411886,
  "commit": "0342e81"
}