{
  "transactions": [
    {
      "hash": "0xa6d5a026f1fc10f4f7c2deb3356acfc0a58343330edce4a1b2866c728b01ab9b",
      "transactionType": "CALL",
      "contractName": null,
      "contractAddress": "0x67Ca31c56f2daB0138D700AEc08296D353c35c54",
      "function": "createMToken(string,string,address,uint32)",
      "arguments": [
        "MUSDT",
        "MUSDT",
        "0xC1Bb55D783a696Aa3f6d1c6f47a30b2348D88Ee4",
        "84532"
      ],
      "transaction": {
        "from": "0xc13113E56E00050327Be3AD164185103541f1903",
        "to": "0x67Ca31c56f2daB0138D700AEc08296D353c35c54",
        "gas": "0x15c5a4",
        "value": "0x0",
        "input": "0x8d4994c9000000000000000000000000000000000000000000000000000000000000008000000000000000000000000000000000000000000000000000000000000000c0000000000000000000000000c1bb55d783a696aa3f6d1c6f47a30b2348d88ee40000000000000000000000000000000000000000000000000000000000014a3400000000000000000000000000000000000000000000000000000000000000054d5553445400000000000000000000000000000000000000000000000000000000000000000000000000000000000000000000000000000000000000000000054d55534454000000000000000000000000000000000000000000000000000000",
        "nonce": "0x124c",
        "chainId": "0x41786f6e"
      },
      "additionalContracts": [],
      "isFixedGasLimit": false
    }
  ],
  "receipts": [
    {
      "status": "0x1",
      "cumulativeGasUsed": "0xee30a",
      "logs": [
        {
          "address": "0xA32Dd3a3e36C0780FEE11F5A525Ef45E24FDaD96",
          "topics": [
            "0x8be0079c531659141344cd1fd0a4f28419497f9722a3daafe3b4186f6b6457e0",
            "0x0000000000000000000000000000000000000000000000000000000000000000",
            "0x00000000000000000000000067ca31c56f2dab0138d700aec08296d353c35c54"
          ],
          "data": "0x",
          "blockHash": "0x0a4fe172ad799765f3d9bbffdacd0c692e074abe2ccda5e1aba0e8cb16800573",
          "blockNumber": "0x707c24",
          "transactionHash": "0xa6d5a026f1fc10f4f7c2deb3356acfc0a58343330edce4a1b2866c728b01ab9b",
          "transactionIndex": "0x0",
          "logIndex": "0x0",
          "removed": false
        },
        {
          "address": "0xA32Dd3a3e36C0780FEE11F5A525Ef45E24FDaD96",
          "topics": [
            "0x8be0079c531659141344cd1fd0a4f28419497f9722a3daafe3b4186f6b6457e0",
            "0x00000000000000000000000067ca31c56f2dab0138d700aec08296d353c35c54",
            "0x0000000000000000000000006ce716d6bbfa3837debe3fc5a01bfa6b59b8211f"
          ],
          "data": "0x",
          "blockHash": "0x0a4fe172ad799765f3d9bbffdacd0c692e074abe2ccda5e1aba0e8cb16800573",
          "blockNumber": "0x707c24",
          "transactionHash": "0xa6d5a026f1fc10f4f7c2deb3356acfc0a58343330edce4a1b2866c728b01ab9b",
          "transactionIndex": "0x0",
          "logIndex": "0x1",
          "removed": false
        },
        {
          "address": "0x67Ca31c56f2daB0138D700AEc08296D353c35c54",
          "topics": [
            "0x3215760d6245a94a9e09852a311aa644934ef4f41594bf1b3b32881763a0f5c2",
            "0x000000000000000000000000a32dd3a3e36c0780fee11f5a525ef45e24fdad96"
          ],
          "data": "0x000000000000000000000000000000000000000000000000000000000000008000000000000000000000000000000000000000000000000000000000000000c0000000000000000000000000c1bb55d783a696aa3f6d1c6f47a30b2348d88ee40000000000000000000000000000000000000000000000000000000000014a3400000000000000000000000000000000000000000000000000000000000000054d5553445400000000000000000000000000000000000000000000000000000000000000000000000000000000000000000000000000000000000000000000054d55534454000000000000000000000000000000000000000000000000000000",
          "blockHash": "0x0a4fe172ad799765f3d9bbffdacd0c692e074abe2ccda5e1aba0e8cb16800573",
          "blockNumber": "0x707c24",
          "transactionHash": "0xa6d5a026f1fc10f4f7c2deb3356acfc0a58343330edce4a1b2866c728b01ab9b",
          "transactionIndex": "0x0",
          "logIndex": "0x2",
          "removed": false
        }
      ],
      "logsBloom": "0x00000000000000000000000000000008000000000000000000800000400000000000000000000000000000800000000000000080000000000000800000000000000000000000000000000000000000000001000000000800000000000000004000000000020000000000000000000800000000000000000000000000000000400000000000000000000000000000000000000000000020000000000000000000000000000000000020000000000000000000000004001000000000000000000000000000000000000000000000000400000000000000000000000400000020000080000000010000000000000000000000000000040200000000000002000000",
      "type": "0x2",
      "transactionHash": "0xa6d5a026f1fc10f4f7c2deb3356acfc0a58343330edce4a1b2866c728b01ab9b",
      "transactionIndex": "0x0",
      "blockHash": "0x0a4fe172ad799765f3d9bbffdacd0c692e074abe2ccda5e1aba0e8cb16800573",
      "blockNumber": "0x707c24",
      "gasUsed": "0xee30a",
      "effectiveGasPrice": "0xee30a",
      "from": "0xc13113E56E00050327Be3AD164185103541f1903",
      "to": "0x67Ca31c56f2daB0138D700AEc08296D353c35c54",
      "contractAddress": null,
      "root": "0xf780e89a39f8dc200138a7d47d68008708a8c5c1e4fd509f5e5267a93794aec3"
    }
  ],
  "libraries": [],
  "pending": [],
  "returns": {},
  "timestamp": 1746619820,
  "chain": 1098411886,
  "commit": "7691af1"
}