{
  "transactions": [
    {
      "hash": "0x1376c505b0b78ac5285ee052bb328e720161cfd7edf2a2a2a800bbc8406e3552",
      "transactionType": "CALL",
      "contractName": null,
      "contractAddress": "0x67Ca31c56f2daB0138D700AEc08296D353c35c54",
      "function": "createMToken(string,string,address,uint32)",
      "arguments": [
        "MUSDT",
        "MUSDT",
        "0x083F108e8302138230fAf206B6d3965C1969b6FA",
        "43113"
      ],
      "transaction": {
        "from": "0xc13113E56E00050327Be3AD164185103541f1903",
        "to": "0x67Ca31c56f2daB0138D700AEc08296D353c35c54",
        "gas": "0x148fed",
        "value": "0x0",
        "input": "0x8d4994c9000000000000000000000000000000000000000000000000000000000000008000000000000000000000000000000000000000000000000000000000000000c0000000000000000000000000083f108e8302138230faf206b6d3965c1969b6fa000000000000000000000000000000000000000000000000000000000000a86900000000000000000000000000000000000000000000000000000000000000054d5553445400000000000000000000000000000000000000000000000000000000000000000000000000000000000000000000000000000000000000000000054d55534454000000000000000000000000000000000000000000000000000000",
        "nonce": "0x11f5",
        "chainId": "0x41786f6e"
      },
      "additionalContracts": [],
      "isFixedGasLimit": false
    }
  ],
  "receipts": [
    {
      "status": "0x1",
      "cumulativeGasUsed": "0xee2fe",
      "logs": [
        {
          "address": "0xC685464c9Eacaf46F74eB6F1778EdDA5Ffd4DD63",
          "topics": [
            "0x8be0079c531659141344cd1fd0a4f28419497f9722a3daafe3b4186f6b6457e0",
            "0x0000000000000000000000000000000000000000000000000000000000000000",
            "0x00000000000000000000000067ca31c56f2dab0138d700aec08296d353c35c54"
          ],
          "data": "0x",
          "blockHash": "0x4c0722f05e4f796f437b1df01a6acef877367011c7aaec96f974e8a0dc82fbe0",
          "blockNumber": "0x7012de",
          "transactionHash": "0x1376c505b0b78ac5285ee052bb328e720161cfd7edf2a2a2a800bbc8406e3552",
          "transactionIndex": "0x0",
          "logIndex": "0x0",
          "removed": false
        },
        {
          "address": "0xC685464c9Eacaf46F74eB6F1778EdDA5Ffd4DD63",
          "topics": [
            "0x8be0079c531659141344cd1fd0a4f28419497f9722a3daafe3b4186f6b6457e0",
            "0x00000000000000000000000067ca31c56f2dab0138d700aec08296d353c35c54",
            "0x0000000000000000000000006ce716d6bbfa3837debe3fc5a01bfa6b59b8211f"
          ],
          "data": "0x",
          "blockHash": "0x4c0722f05e4f796f437b1df01a6acef877367011c7aaec96f974e8a0dc82fbe0",
          "blockNumber": "0x7012de",
          "transactionHash": "0x1376c505b0b78ac5285ee052bb328e720161cfd7edf2a2a2a800bbc8406e3552",
          "transactionIndex": "0x0",
          "logIndex": "0x1",
          "removed": false
        },
        {
          "address": "0x67Ca31c56f2daB0138D700AEc08296D353c35c54",
          "topics": [
            "0x3215760d6245a94a9e09852a311aa644934ef4f41594bf1b3b32881763a0f5c2",
            "0x000000000000000000000000c685464c9eacaf46f74eb6f1778edda5ffd4dd63"
          ],
          "data": "0x000000000000000000000000000000000000000000000000000000000000008000000000000000000000000000000000000000000000000000000000000000c0000000000000000000000000083f108e8302138230faf206b6d3965c1969b6fa000000000000000000000000000000000000000000000000000000000000a86900000000000000000000000000000000000000000000000000000000000000054d5553445400000000000000000000000000000000000000000000000000000000000000000000000000000000000000000000000000000000000000000000054d55534454000000000000000000000000000000000000000000000000000000",
          "blockHash": "0x4c0722f05e4f796f437b1df01a6acef877367011c7aaec96f974e8a0dc82fbe0",
          "blockNumber": "0x7012de",
          "transactionHash": "0x1376c505b0b78ac5285ee052bb328e720161cfd7edf2a2a2a800bbc8406e3552",
          "transactionIndex": "0x0",
          "logIndex": "0x2",
          "removed": false
        }
      ],
      "logsBloom": "0x00000000000000000000000000000008000000000000000000800000400000000000000040000000000000800000000000000000000000000000000000000000002000000000000000000000000000000001000000000800000000000000004000000000020000000000000000000800000000000000000000000004000000400000200000000000000000000000000000000000000020000000000000000000000000000000000020000000000000000000000004000000000000000000000040000000000080000000000000000400000000000000000000000000000020000080000000010000000000000000000000000000040000000000000000000000",
      "type": "0x2",
      "transactionHash": "0x1376c505b0b78ac5285ee052bb328e720161cfd7edf2a2a2a800bbc8406e3552",
      "transactionIndex": "0x0",
      "blockHash": "0x4c0722f05e4f796f437b1df01a6acef877367011c7aaec96f974e8a0dc82fbe0",
      "blockNumber": "0x7012de",
      "gasUsed": "0xee2fe",
      "effectiveGasPrice": "0xee2fe",
      "from": "0xc13113E56E00050327Be3AD164185103541f1903",
      "to": "0x67Ca31c56f2daB0138D700AEc08296D353c35c54",
      "contractAddress": null,
      "root": "0x062672b10ed73c4624969b68df25b19159caf6cbd17aec654743ee00bb455a7f"
    }
  ],
  "libraries": [],
  "pending": [],
  "returns": {},
  "timestamp": 1746531613,
  "chain": 1098411886,
  "commit": "757664c"
}