{
  "transactions": [
    {
      "hash": "0x799248dd93d5e9c06b7b3c31a52e14455b6a3e86bca1eb506ef3d97b33478fbe",
      "transactionType": "CREATE",
      "contractName": "EventProver",
      "contractAddress": "0x9104f7e648320519ff15cf9ec3b5593433a9c882",
      "function": null,
      "arguments": [
        "0x33dB966328Ea213b0f76eF96CA368AB37779F065",
        "0x9E93513CefEf10abcD22D058df0D1f4878aF6954",
        "421614",
        "0xfBeaF07855181f8476B235Cf746A7DF3F9e386Fb",
        "0xA2B8D4De320CCAb559c2B3032085dD4593217AE3"
      ],
      "transaction": {
        "from": "0x230e13243869a3a7eb341e4bdb9120d5cd547fa1",
        "gas": "0xeae96",
        "value": "0x0",
        "input": "0x61014080604052346101ad5760a081610d70803803809161002082856101c6565b8339810103126101ad57610033816101ff565b90610040602082016101ff565b61004c60408301610213565b610064608061005d606086016101ff565b94016101ff565b60008054336001600160a01b03198216811783556040519397602093859360049385939290916001600160a01b0316907f8be0079c531659141344cd1fd0a4f28419497f9722a3daafe3b4186f6b6457e09080a3600180556001600160a01b0316608081905263234d8e3d60e21b82525afa9081156101ba5760009161017b575b5060e05261012052610100526001600160a01b0390811660a0521660c052604051610b4b908161022582396080518181816101e001526102bd015260a0518181816103fb01526107c9015260c05181818161072a01526109f2015260e051818181610688015261099401526101005181818161030b015261080c0152610120518181816102df0152818161062001526109bc0152f35b90506020813d6020116101b2575b81610196602093836101c6565b810103126101ad576101a790610213565b386100e5565b600080fd5b3d9150610189565b6040513d6000823e3d90fd5b601f909101601f19168101906001600160401b038211908210176101e957604052565b634e487b7160e01b600052604160045260246000fd5b51906001600160a01b03821682036101ad57565b519063ffffffff821682036101ad5756fe608080604052600436101561001357600080fd5b600090813560e01c90816307aef2fa146107f85750806339bb4ad9146107b3578063715018a6146107595780637c12f857146107145780638b6dfd9f146106ac5780638d3638f41461066b5780638da5cb5b14610644578063a721719514610603578063c307e6341461020f578063d5438eae146101ca578063ea8f4a44146101a7578063f0c51c5f146101785763f2fde38b146100b057600080fd5b34610175576020366003190112610175576100c961083b565b6100d1610abd565b6001600160a01b031680156101215781546001600160a01b03198116821783556001600160a01b03167f8be0079c531659141344cd1fd0a4f28419497f9722a3daafe3b4186f6b6457e08380a380f35b60405162461bcd60e51b815260206004820152602660248201527f4f776e61626c653a206e6577206f776e657220697320746865207a65726f206160448201526564647265737360d01b6064820152608490fd5b80fd5b50346101755760203660031901126101755760ff60406020926004358152600384522054166040519015158152f35b503461017557806003193601126101755760206101c2610980565b604051908152f35b50346101755780600319360112610175576040517f00000000000000000000000000000000000000000000000000000000000000006001600160a01b03168152602090f35b5060203660031901126101755760043567ffffffffffffffff81116105465760a081600401916003199036030112610546576002546001600160a01b031633036105f4576002600154146105af5760026001556040516020810190610286816102788585610856565b03601f1981018352826108ec565b519020808352600360205260ff6040842054166105a0578252600360205260408220600160ff198254161790558160018060a01b037f0000000000000000000000000000000000000000000000000000000000000000167f00000000000000000000000000000000000000000000000000000000000000009061035d60018060a01b037f0000000000000000000000000000000000000000000000000000000000000000169460206040516103418161027885858301610856565b6040518094819263138857a360e31b83528a8960048501610924565b0381865afa91821561059557859261055d575b50916103b99561038e9261039c602095604051958691888301610856565b03601f1981018652856108ec565b60405180988195829463fa31de0160e01b84528960048501610924565b03925af192831561055257829361051a575b506103d4610980565b60405163a692979360e01b815263ffffffff929092166004830181905260248301919091527f00000000000000000000000000000000000000000000000000000000000000006001600160a01b0316602083604481845afa92831561050f5784936104d7575b50610443610980565b94813b156104d35784936084926040519788958694630237e58360e31b86526004860152602485015260448401523360648401525af180156104c6576104b6575b8080809350478181156104ad575b3390f1156104a1576001805580f35b604051903d90823e3d90fd5b506108fc610492565b6104bf916108ec565b3881610484565b50604051903d90823e3d90fd5b8480fd5b9092506020813d602011610507575b816104f3602093836108ec565b810103126105035751913861043a565b8380fd5b3d91506104e6565b6040513d86823e3d90fd5b9092506020813d60201161054a575b81610536602093836108ec565b81010312610546575191386103cb565b5080fd5b3d9150610529565b6040513d84823e3d90fd5b9150916020823d60201161058d575b81610579602093836108ec565b810103126104d357905190916103b9610370565b3d915061056c565b6040513d87823e3d90fd5b632ccaca7760e01b8352600483fd5b60405162461bcd60e51b815260206004820152601f60248201527f5265656e7472616e637947756172643a207265656e7472616e742063616c6c006044820152606490fd5b632cdc897760e01b8252600482fd5b5034610175578060031936011261017557602060405163ffffffff7f0000000000000000000000000000000000000000000000000000000000000000168152f35b5034610175578060031936011261017557546040516001600160a01b039091168152602090f35b5034610175578060031936011261017557602060405163ffffffff7f0000000000000000000000000000000000000000000000000000000000000000168152f35b5034610175576020366003190112610175576106c661083b565b6106ce610abd565b600280546001600160a01b0319166001600160a01b039290921691821790557f6f2346fd427e08f951b0c6f27eb5ba63691c987aa57e7e466c4cd074c6fbd1968280a280f35b50346101755780600319360112610175576040517f00000000000000000000000000000000000000000000000000000000000000006001600160a01b03168152602090f35b5034610175578060031936011261017557610772610abd565b80546001600160a01b03198116825581906001600160a01b03167f8be0079c531659141344cd1fd0a4f28419497f9722a3daafe3b4186f6b6457e08280a380f35b50346101755780600319360112610175576040517f00000000000000000000000000000000000000000000000000000000000000006001600160a01b03168152602090f35b9050346105465781600319360112610546577f00000000000000000000000000000000000000000000000000000000000000006001600160a01b03168152602090f35b600435906001600160a01b038216820361085157565b600080fd5b6020815281356001600160a01b0381169081900361085157602082015260208201356040820152604082013560608201526060820135601e198336030181121561085157820160208135910167ffffffffffffffff82116108515781360381136108515760e0938260809260a0848701528160c0870152868601376000848401860152013560a0830152601f01601f1916010190565b90601f8019910116810190811067ffffffffffffffff82111761090e57604052565b634e487b7160e01b600052604160045260246000fd5b919063ffffffff90949394168252602082015260606040820152825180606083015260005b81811061096a575060809293506000838284010152601f8019910116010190565b8060208092870101516080828601015201610949565b6040516335806ef960e01b815263ffffffff7f0000000000000000000000000000000000000000000000000000000000000000811660048301527f0000000000000000000000000000000000000000000000000000000000000000166024820152906020826044816001600160a01b037f0000000000000000000000000000000000000000000000000000000000000000165afa918215610ab157600092610a7d575b508115610a2c57565b60405162461bcd60e51b815260206004820152602360248201527f476173416d6f756e744f7261636c653a2047617320616d6f756e74206e6f74206044820152621cd95d60ea1b6064820152608490fd5b90916020823d602011610aa9575b81610a98602093836108ec565b810103126101755750519038610a23565b3d9150610a8b565b6040513d6000823e3d90fd5b6000546001600160a01b03163303610ad157565b606460405162461bcd60e51b815260206004820152602060248201527f4f776e61626c653a2063616c6c6572206973206e6f7420746865206f776e65726044820152fdfea2646970667358221220db3bcc7afd1fa8993ad8a51dbb2ce1e1c4a968088e28d119d8e61e3057c63be564736f6c634300081e003300000000000000000000000033db966328ea213b0f76ef96ca368ab37779f0650000000000000000000000009e93513cefef10abcd22d058df0d1f4878af69540000000000000000000000000000000000000000000000000000000000066eee000000000000000000000000fbeaf07855181f8476b235cf746a7df3f9e386fb000000000000000000000000a2b8d4de320ccab559c2b3032085dd4593217ae3",
        "nonce": "0x28",
        "chainId": "0x41786f6e"
      },
      "additionalContracts": [],
      "isFixedGasLimit": false
    },
    {
      "hash": "0x2386d30c109472ac2ff54625a86202339f695cd2eb1e272bcff71dcca98e1fc2",
      "transactionType": "CALL",
      "contractName": null,
      "contractAddress": "0xfe2bfca82a01631cd8652d50ff8dc3d3f73945b7",
      "function": "authorizeOriginChain(uint256)",
      "arguments": [
        "421614"
      ],
      "transaction": {
        "from": "0x230e13243869a3a7eb341e4bdb9120d5cd547fa1",
        "to": "0xfe2bfca82a01631cd8652d50ff8dc3d3f73945b7",
        "gas": "0x10555",
        "value": "0x0",
        "input": "0x3ac006720000000000000000000000000000000000000000000000000000000000066eee",
        "nonce": "0x29",
        "chainId": "0x41786f6e"
      },
      "additionalContracts": [],
      "isFixedGasLimit": false
    },
    {
      "hash": "0xb137b13aef063a9e5a1363711ad27793b3d578185a2def90dc91c59d6ac53d26",
      "transactionType": "CALL",
      "contractName": null,
      "contractAddress": "0x0d20af55731e9363ad2e27a96d27b735d5673a8a",
      "function": "registerEventProver(uint32,address)",
      "arguments": [
        "421614",
        "0x9104F7e648320519ff15CF9ec3B5593433A9C882"
      ],
      "transaction": {
        "from": "0x230e13243869a3a7eb341e4bdb9120d5cd547fa1",
        "to": "0x0d20af55731e9363ad2e27a96d27b735d5673a8a",
        "gas": "0x11e35",
        "value": "0x0",
        "input": "0x6dc0ac2e0000000000000000000000000000000000000000000000000000000000066eee0000000000000000000000009104f7e648320519ff15cf9ec3b5593433a9c882",
        "nonce": "0x2a",
        "chainId": "0x41786f6e"
      },
      "additionalContracts": [],
      "isFixedGasLimit": false
    },
    {
      "hash": "0xad4985f40be472ed5a34cbedf3a5ba2677242484d8a8282d6cd3e07499a2e824",
      "transactionType": "CALL",
      "contractName": "EventProver",
      "contractAddress": "0x9104f7e648320519ff15cf9ec3b5593433a9c882",
      "function": "addEventPublisher(address)",
      "arguments": [
        "0x0d20af55731e9363AD2e27a96D27B735d5673A8a"
      ],
      "transaction": {
        "from": "0x230e13243869a3a7eb341e4bdb9120d5cd547fa1",
        "to": "0x9104f7e648320519ff15cf9ec3b5593433a9c882",
        "gas": "0xfea7",
        "value": "0x0",
        "input": "0x8b6dfd9f0000000000000000000000000d20af55731e9363ad2e27a96d27b735d5673a8a",
        "nonce": "0x2b",
        "chainId": "0x41786f6e"
      },
      "additionalContracts": [],
      "isFixedGasLimit": false
    }
  ],
  "receipts": [
    {
      "status": "0x1",
      "cumulativeGasUsed": "0xb4b39",
      "logs": [
        {
          "address": "0x9104f7e648320519ff15cf9ec3b5593433a9c882",
          "topics": [
            "0x8be0079c531659141344cd1fd0a4f28419497f9722a3daafe3b4186f6b6457e0",
            "0x0000000000000000000000000000000000000000000000000000000000000000",
            "0x000000000000000000000000230e13243869a3a7eb341e4bdb9120d5cd547fa1"
          ],
          "data": "0x",
          "blockHash": "0x70557085f6a1fa44a49fed2158309e3fc625bbb6cecc9fdd30fdf1c262e2daae",
          "blockNumber": "0x845920",
          "transactionHash": "0x799248dd93d5e9c06b7b3c31a52e14455b6a3e86bca1eb506ef3d97b33478fbe",
          "transactionIndex": "0x0",
          "logIndex": "0x0",
          "removed": false
        }
      ],
      "logsBloom": "0x00000000000000000000000000000000000000000000010000800000000000004000000000000000008000000000000000000000000000000008000000000000000000000000000000000000000000000001000040000000000000000000000000000000020000000000000000000800000000000000000000000000000000400000000000000000000000000000000000000000000000000000000000000000000000000000000000000000000000000000000000000000000000000000000000000000000000000000000000000000000000000000000000000000000020000000000000000000000000000000000000000000000000000000000000100000",
      "type": "0x2",
      "transactionHash": "0x799248dd93d5e9c06b7b3c31a52e14455b6a3e86bca1eb506ef3d97b33478fbe",
      "transactionIndex": "0x0",
      "blockHash": "0x70557085f6a1fa44a49fed2158309e3fc625bbb6cecc9fdd30fdf1c262e2daae",
      "blockNumber": "0x845920",
      "gasUsed": "0xb4b39",
      "effectiveGasPrice": "0xb4b39",
      "from": "0x230e13243869a3a7eb341e4bdb9120d5cd547fa1",
      "to": null,
      "contractAddress": "0x9104f7e648320519ff15cf9ec3b5593433a9c882",
      "root": "0x2e792844bea1e6533f4508f9285d5e2fb9d6548aee41c33b748e483bf0398438"
    },
    {
      "status": "0x1",
      "cumulativeGasUsed": "0xb2b1",
      "logs": [],
      "logsBloom": "0x00000000000000000000000000000000000000000000000000000000000000000000000000000000000000000000000000000000000000000000000000000000000000000000000000000000000000000000000000000000000000000000000000000000000000000000000000000000000000000000000000000000000000000000000000000000000000000000000000000000000000000000000000000000000000000000000000000000000000000000000000000000000000000000000000000000000000000000000000000000000000000000000000000000000000000000000000000000000000000000000000000000000000000000000000000000",
      "type": "0x2",
      "transactionHash": "0x2386d30c109472ac2ff54625a86202339f695cd2eb1e272bcff71dcca98e1fc2",
      "transactionIndex": "0x1",
      "blockHash": "0x70557085f6a1fa44a49fed2158309e3fc625bbb6cecc9fdd30fdf1c262e2daae",
      "blockNumber": "0x845920",
      "gasUsed": "0xb2b1",
      "effectiveGasPrice": "0xb2b1",
      "from": "0x230e13243869a3a7eb341e4bdb9120d5cd547fa1",
      "to": "0xfe2bfca82a01631cd8652d50ff8dc3d3f73945b7",
      "contractAddress": null,
      "root": "0x2e792844bea1e6533f4508f9285d5e2fb9d6548aee41c33b748e483bf0398438"
    },
    {
      "status": "0x1",
      "cumulativeGasUsed": "0xcf36",
      "logs": [
        {
          "address": "0x0d20af55731e9363ad2e27a96d27b735d5673a8a",
          "topics": [
            "0x486ed864be7b5bb56c3843502994b8390aa402ba14643564d6aff19193f3165e",
            "0x0000000000000000000000009104f7e648320519ff15cf9ec3b5593433a9c882"
          ],
          "data": "0x",
          "blockHash": "0x70557085f6a1fa44a49fed2158309e3fc625bbb6cecc9fdd30fdf1c262e2daae",
          "blockNumber": "0x845920",
          "transactionHash": "0xb137b13aef063a9e5a1363711ad27793b3d578185a2def90dc91c59d6ac53d26",
          "transactionIndex": "0x2",
          "logIndex": "0x0",
          "removed": false
        }
      ],
      "logsBloom": "0x00000000000002000000000000000000000000000200000000000080000000000000000000000000000000000000000000000000000000000000000000000000000000000000000000000000000000000000000000000000000000000000000000000000000000000000000000000000100000000002000000000000000000000000000000000000000000000000000000000000000000000000000000000000000000000000000000000000000000000000800000000000000000000000000000000100000000000000000000000000000000000000000000000001000000000000000000000000008000000000000000000000000000000000000000000000",
      "type": "0x2",
      "transactionHash": "0xb137b13aef063a9e5a1363711ad27793b3d578185a2def90dc91c59d6ac53d26",
      "transactionIndex": "0x2",
      "blockHash": "0x70557085f6a1fa44a49fed2158309e3fc625bbb6cecc9fdd30fdf1c262e2daae",
      "blockNumber": "0x845920",
      "gasUsed": "0xcf36",
      "effectiveGasPrice": "0xcf36",
      "from": "0x230e13243869a3a7eb341e4bdb9120d5cd547fa1",
      "to": "0x0d20af55731e9363ad2e27a96d27b735d5673a8a",
      "contractAddress": null,
      "root": "0x2e792844bea1e6533f4508f9285d5e2fb9d6548aee41c33b748e483bf0398438"
    },
    {
      "status": "0x1",
      "cumulativeGasUsed": "0xb85e",
      "logs": [
        {
          "address": "0x9104f7e648320519ff15cf9ec3b5593433a9c882",
          "topics": [
            "0x6f2346fd427e08f951b0c6f27eb5ba63691c987aa57e7e466c4cd074c6fbd196",
            "0x0000000000000000000000000d20af55731e9363ad2e27a96d27b735d5673a8a"
          ],
          "data": "0x",
          "blockHash": "0x70557085f6a1fa44a49fed2158309e3fc625bbb6cecc9fdd30fdf1c262e2daae",
          "blockNumber": "0x845920",
          "transactionHash": "0xad4985f40be472ed5a34cbedf3a5ba2677242484d8a8282d6cd3e07499a2e824",
          "transactionIndex": "0x3",
          "logIndex": "0x0",
          "removed": false
        }
      ],
      "logsBloom": "0x00000000000000000000000000000000000000000000000000000000000000004000000000000000008000000000000000000000000200000008000000000000000000000000000000000000000000000000000000000000000000000000000000000000000000000000000000000000000000040000000000000000000000000000000000000040000000000000000000000000000000000000000000000000000000000000000000000000000000000010000000000000000000010000000000000000000000000000010000000000000000000000000000000000000000000000000000000000000000000000000000000000000000000000000000000000",
      "type": "0x2",
      "transactionHash": "0xad4985f40be472ed5a34cbedf3a5ba2677242484d8a8282d6cd3e07499a2e824",
      "transactionIndex": "0x3",
      "blockHash": "0x70557085f6a1fa44a49fed2158309e3fc625bbb6cecc9fdd30fdf1c262e2daae",
      "blockNumber": "0x845920",
      "gasUsed": "0xb85e",
      "effectiveGasPrice": "0xb85e",
      "from": "0x230e13243869a3a7eb341e4bdb9120d5cd547fa1",
      "to": "0x9104f7e648320519ff15cf9ec3b5593433a9c882",
      "contractAddress": null,
      "root": "0x2e792844bea1e6533f4508f9285d5e2fb9d6548aee41c33b748e483bf0398438"
    }
  ],
  "libraries": [],
  "pending": [],
  "returns": {},
  "timestamp": 1750892922,
  "chain": 1098411886,
  "commit": "126072b"
}