{
  "transactions": [
    {
      "hash": "0x58425f63125c17b6562262bac09a42d1be7b58b6dd2934143823af01657bca35",
      "transactionType": "CREATE",
      "contractName": "HubHandler",
      "contractAddress": "0x4bf8a6ead82d1e088a96e72279dce674a7f7df61",
      "function": null,
      "arguments": null,
      "transaction": {
        "from": "0x230e13243869a3a7eb341e4bdb9120d5cd547fa1",
        "gas": "0xb1fd3",
        "value": "0x0",
        "input": "0x60808060405234605a5760008054336001600160a01b0319821681178355916001600160a01b03909116907f8be0079c531659141344cd1fd0a4f28419497f9722a3daafe3b4186f6b6457e09080a36108b990816100608239f35b600080fdfe608080604052600436101561001357600080fd5b600090813560e01c9081630e901e761461059e575080633ac006721461056857806343f44055146104e05780634e48eca9146104755780634fccdd33146104365780635212079c146103b6578063715018a61461035c578063893bc4361461032d5780638973e3b5146102ec5780638da5cb5b146102c55780639821e3b7146102865780639cc0e7d8146101a4578063b495c33814610242578063caafac3b146101dc578063e43427bb146101a9578063e57f6de5146101a45763f2fde38b146100dc57600080fd5b346101a15760203660031901126101a1576100f561079a565b6100fd61082b565b6001600160a01b0316801561014d5781546001600160a01b03198116821783556001600160a01b03167f8be0079c531659141344cd1fd0a4f28419497f9722a3daafe3b4186f6b6457e08380a380f35b60405162461bcd60e51b815260206004820152602660248201527f4f776e61626c653a206e6577206f776e657220697320746865207a65726f206160448201526564647265737360d01b6064820152608490fd5b80fd5b6107b5565b50346101a15760203660031901126101a1576101c361082b565b6004358152600360205260408120805460ff1916905580f35b50346101a15760203660031901126101a1576101f661079a565b6101fe61082b565b6001600160a01b0316808252600160205260408220805460ff191690557f8bd4190ad7c3ff8a7af79796bbc07c67c1bff30cb957f746f25b337efa3776518280a280f35b50346101a15760203660031901126101a15761025c61079a565b61026461082b565b6001600160a01b03168152600260205260408120805460ff1916600117905580f35b50346101a15760203660031901126101a15760209060ff906040906001600160a01b036102b161079a565b168152600284522054166040519015158152f35b50346101a157806003193601126101a157546040516001600160a01b039091168152602090f35b50346101a15760203660031901126101a15761030661079a565b61030e61082b565b6001600160a01b03168152600260205260408120805460ff1916905580f35b50346101a15760203660031901126101a15760ff60406020926004358152600384522054166040519015158152f35b50346101a157806003193601126101a15761037561082b565b80546001600160a01b03198116825581906001600160a01b03167f8be0079c531659141344cd1fd0a4f28419497f9722a3daafe3b4186f6b6457e08280a380f35b50346101a15760203660031901126101a157600435338252600260205260ff6040832054161561042757808252600460205260408220546001600160a01b031661041857815260046020526040812080546001600160a01b0319163317905580f35b63e55117ab60e01b8252600482fd5b63f3590eb160e01b8252600482fd5b50346101a15760203660031901126101a15760209060ff906040906001600160a01b0361046161079a565b168152600184522054166040519015158152f35b50346101a15760203660031901126101a15761048f61079a565b61049761082b565b6001600160a01b03168082526001602081905260408320805460ff191690911790557f5b2327d13ba9321f0a267d98fbe247c984a0148ecc19183491305116fce9ea338280a280f35b50346101a15760203660031901126101a1576004356104fd61082b565b808252600460205260408220546001600160a01b0316156105595780825260046020526040822080546001600160a01b03191690557f85e177165326ed058849de6831bbc87b907ea4e52b6ef382f91c3a84ec634c118280a280f35b63135d8eb560e31b8252600482fd5b50346101a15760203660031901126101a15761058261082b565b6004358152600360205260408120805460ff1916600117905580f35b82346101a15760403660031901126101a1576004359167ffffffffffffffff8311610796578236039260a0600319850112610792576024359363ffffffff851680950361078e57338452600160205260ff6040852054161561077f57848452600360205260ff6040852054161561077057604482013594858552600460205260018060a01b0360408620541691821561076157859695949533817f5b5311b6ab4943667e2aae73227bed7549ab4ebc54f43280be06706c189158f88880a3833b1561075557633b611e2760e01b875260406004880152846004013560018060a01b03811680910361075d576044880152602485013560648801526084870152606484013590602219018112156107595783019060246004830135920167ffffffffffffffff831161075557823603811361075557868387936084839884976101049660a060a48801528160e4880152878701378484018601879052013560c48401526024830152601f01601f191681010301925af1801561074a57610721575080f35b67ffffffffffffffff81116107365760405280f35b634e487b7160e01b82526041600452602482fd5b6040513d84823e3d90fd5b8580fd5b8480fd5b8680fd5b63f3590eb160e01b8652600486fd5b635d13a97960e01b8452600484fd5b631ad15b7f60e21b8452600484fd5b8380fd5b8280fd5b5080fd5b600435906001600160a01b03821682036107b057565b600080fd5b346107b05760403660031901126107b0576107ce61079a565b6024356000818152600460205260409020546001600160a01b031661081a57600090815260046020526040902080546001600160a01b0319166001600160a01b03909216919091179055005b63e55117ab60e01b60005260046000fd5b6000546001600160a01b0316330361083f57565b606460405162461bcd60e51b815260206004820152602060248201527f4f776e61626c653a2063616c6c6572206973206e6f7420746865206f776e65726044820152fdfea2646970667358221220d9c342642ade3dc891a9e2e1524f4c64193d9b3c0eaf0dcb439517ffad83b3da64736f6c634300081e0033",
        "nonce": "0x17",
        "chainId": "0x41786f6e"
      },
      "additionalContracts": [],
      "isFixedGasLimit": false
    },
    {
      "hash": "0xcccaa363df94c002a123f2638fb7152f6578f28b7ae8e2aa147e0f7879ca2cad",
      "transactionType": "CALL",
      "contractName": "HubHandler",
      "contractAddress": "0x4bf8a6ead82d1e088a96e72279dce674a7f7df61",
      "function": "transferOwnership(address)",
      "arguments": [
        "0x230E13243869a3a7eb341E4bDB9120D5cd547fA1"
      ],
      "transaction": {
        "from": "0x230e13243869a3a7eb341e4bdb9120d5cd547fa1",
        "to": "0x4bf8a6ead82d1e088a96e72279dce674a7f7df61",
        "gas": "0x8c0c",
        "value": "0x0",
        "input": "0xf2fde38b000000000000000000000000230e13243869a3a7eb341e4bdb9120d5cd547fa1",
        "nonce": "0x18",
        "chainId": "0x41786f6e"
      },
      "additionalContracts": [],
      "isFixedGasLimit": false
    },
    {
      "hash": "0xf61af8c51e376924345e634edc02e4bcae440d55906a50423e2bb6d95f6dd7c5",
      "transactionType": "CREATE",
      "contractName": "EventProver",
      "contractAddress": "0x686f5424d37713fb9a851bb999212499d96f4ee3",
      "function": null,
      "arguments": [
        "0x33dB966328Ea213b0f76eF96CA368AB37779F065",
        "0x9E93513CefEf10abcD22D058df0D1f4878aF6954",
        "421614",
        "0xfBeaF07855181f8476B235Cf746A7DF3F9e386Fb",
        "0xA2B8D4De320CCAb559c2B3032085dD4593217AE3"
      ],
      "transaction": {
        "from": "0x230e13243869a3a7eb341e4bdb9120d5cd547fa1",
        "gas": "0xeae96",
        "value": "0x0",
        "input": "0x61014080604052346101ad5760a081610d70803803809161002082856101c6565b8339810103126101ad57610033816101ff565b90610040602082016101ff565b61004c60408301610213565b610064608061005d606086016101ff565b94016101ff565b60008054336001600160a01b03198216811783556040519397602093859360049385939290916001600160a01b0316907f8be0079c531659141344cd1fd0a4f28419497f9722a3daafe3b4186f6b6457e09080a3600180556001600160a01b0316608081905263234d8e3d60e21b82525afa9081156101ba5760009161017b575b5060e05261012052610100526001600160a01b0390811660a0521660c052604051610b4b908161022582396080518181816101e001526102bd015260a0518181816103fb01526107c9015260c05181818161072a01526109f2015260e051818181610688015261099401526101005181818161030b015261080c0152610120518181816102df0152818161062001526109bc0152f35b90506020813d6020116101b2575b81610196602093836101c6565b810103126101ad576101a790610213565b386100e5565b600080fd5b3d9150610189565b6040513d6000823e3d90fd5b601f909101601f19168101906001600160401b038211908210176101e957604052565b634e487b7160e01b600052604160045260246000fd5b51906001600160a01b03821682036101ad57565b519063ffffffff821682036101ad5756fe608080604052600436101561001357600080fd5b600090813560e01c90816307aef2fa146107f85750806339bb4ad9146107b3578063715018a6146107595780637c12f857146107145780638b6dfd9f146106ac5780638d3638f41461066b5780638da5cb5b14610644578063a721719514610603578063c307e6341461020f578063d5438eae146101ca578063ea8f4a44146101a7578063f0c51c5f146101785763f2fde38b146100b057600080fd5b34610175576020366003190112610175576100c961083b565b6100d1610abd565b6001600160a01b031680156101215781546001600160a01b03198116821783556001600160a01b03167f8be0079c531659141344cd1fd0a4f28419497f9722a3daafe3b4186f6b6457e08380a380f35b60405162461bcd60e51b815260206004820152602660248201527f4f776e61626c653a206e6577206f776e657220697320746865207a65726f206160448201526564647265737360d01b6064820152608490fd5b80fd5b50346101755760203660031901126101755760ff60406020926004358152600384522054166040519015158152f35b503461017557806003193601126101755760206101c2610980565b604051908152f35b50346101755780600319360112610175576040517f00000000000000000000000000000000000000000000000000000000000000006001600160a01b03168152602090f35b5060203660031901126101755760043567ffffffffffffffff81116105465760a081600401916003199036030112610546576002546001600160a01b031633036105f4576002600154146105af5760026001556040516020810190610286816102788585610856565b03601f1981018352826108ec565b519020808352600360205260ff6040842054166105a0578252600360205260408220600160ff198254161790558160018060a01b037f0000000000000000000000000000000000000000000000000000000000000000167f00000000000000000000000000000000000000000000000000000000000000009061035d60018060a01b037f0000000000000000000000000000000000000000000000000000000000000000169460206040516103418161027885858301610856565b6040518094819263138857a360e31b83528a8960048501610924565b0381865afa91821561059557859261055d575b50916103b99561038e9261039c602095604051958691888301610856565b03601f1981018652856108ec565b60405180988195829463fa31de0160e01b84528960048501610924565b03925af192831561055257829361051a575b506103d4610980565b60405163a692979360e01b815263ffffffff929092166004830181905260248301919091527f00000000000000000000000000000000000000000000000000000000000000006001600160a01b0316602083604481845afa92831561050f5784936104d7575b50610443610980565b94813b156104d35784936084926040519788958694630237e58360e31b86526004860152602485015260448401523360648401525af180156104c6576104b6575b8080809350478181156104ad575b3390f1156104a1576001805580f35b604051903d90823e3d90fd5b506108fc610492565b6104bf916108ec565b3881610484565b50604051903d90823e3d90fd5b8480fd5b9092506020813d602011610507575b816104f3602093836108ec565b810103126105035751913861043a565b8380fd5b3d91506104e6565b6040513d86823e3d90fd5b9092506020813d60201161054a575b81610536602093836108ec565b81010312610546575191386103cb565b5080fd5b3d9150610529565b6040513d84823e3d90fd5b9150916020823d60201161058d575b81610579602093836108ec565b810103126104d357905190916103b9610370565b3d915061056c565b6040513d87823e3d90fd5b632ccaca7760e01b8352600483fd5b60405162461bcd60e51b815260206004820152601f60248201527f5265656e7472616e637947756172643a207265656e7472616e742063616c6c006044820152606490fd5b632cdc897760e01b8252600482fd5b5034610175578060031936011261017557602060405163ffffffff7f0000000000000000000000000000000000000000000000000000000000000000168152f35b5034610175578060031936011261017557546040516001600160a01b039091168152602090f35b5034610175578060031936011261017557602060405163ffffffff7f0000000000000000000000000000000000000000000000000000000000000000168152f35b5034610175576020366003190112610175576106c661083b565b6106ce610abd565b600280546001600160a01b0319166001600160a01b039290921691821790557f6f2346fd427e08f951b0c6f27eb5ba63691c987aa57e7e466c4cd074c6fbd1968280a280f35b50346101755780600319360112610175576040517f00000000000000000000000000000000000000000000000000000000000000006001600160a01b03168152602090f35b5034610175578060031936011261017557610772610abd565b80546001600160a01b03198116825581906001600160a01b03167f8be0079c531659141344cd1fd0a4f28419497f9722a3daafe3b4186f6b6457e08280a380f35b50346101755780600319360112610175576040517f00000000000000000000000000000000000000000000000000000000000000006001600160a01b03168152602090f35b9050346105465781600319360112610546577f00000000000000000000000000000000000000000000000000000000000000006001600160a01b03168152602090f35b600435906001600160a01b038216820361085157565b600080fd5b6020815281356001600160a01b0381169081900361085157602082015260208201356040820152604082013560608201526060820135601e198336030181121561085157820160208135910167ffffffffffffffff82116108515781360381136108515760e0938260809260a0848701528160c0870152868601376000848401860152013560a0830152601f01601f1916010190565b90601f8019910116810190811067ffffffffffffffff82111761090e57604052565b634e487b7160e01b600052604160045260246000fd5b919063ffffffff90949394168252602082015260606040820152825180606083015260005b81811061096a575060809293506000838284010152601f8019910116010190565b8060208092870101516080828601015201610949565b6040516335806ef960e01b815263ffffffff7f0000000000000000000000000000000000000000000000000000000000000000811660048301527f0000000000000000000000000000000000000000000000000000000000000000166024820152906020826044816001600160a01b037f0000000000000000000000000000000000000000000000000000000000000000165afa918215610ab157600092610a7d575b508115610a2c57565b60405162461bcd60e51b815260206004820152602360248201527f476173416d6f756e744f7261636c653a2047617320616d6f756e74206e6f74206044820152621cd95d60ea1b6064820152608490fd5b90916020823d602011610aa9575b81610a98602093836108ec565b810103126101755750519038610a23565b3d9150610a8b565b6040513d6000823e3d90fd5b6000546001600160a01b03163303610ad157565b606460405162461bcd60e51b815260206004820152602060248201527f4f776e61626c653a2063616c6c6572206973206e6f7420746865206f776e65726044820152fdfea2646970667358221220db3bcc7afd1fa8993ad8a51dbb2ce1e1c4a968088e28d119d8e61e3057c63be564736f6c634300081e003300000000000000000000000033db966328ea213b0f76ef96ca368ab37779f0650000000000000000000000009e93513cefef10abcd22d058df0d1f4878af69540000000000000000000000000000000000000000000000000000000000066eee000000000000000000000000fbeaf07855181f8476b235cf746a7df3f9e386fb000000000000000000000000a2b8d4de320ccab559c2b3032085dd4593217ae3",
        "nonce": "0x19",
        "chainId": "0x41786f6e"
      },
      "additionalContracts": [],
      "isFixedGasLimit": false
    },
    {
      "hash": "0xa0c6399cd4d9aa8d7507d237520318e07fff6f4d5241fe820dfc452cbe298616",
      "transactionType": "CALL",
      "contractName": "HubHandler",
      "contractAddress": "0x4bf8a6ead82d1e088a96e72279dce674a7f7df61",
      "function": "authorizeOriginChain(uint256)",
      "arguments": [
        "421614"
      ],
      "transaction": {
        "from": "0x230e13243869a3a7eb341e4bdb9120d5cd547fa1",
        "to": "0x4bf8a6ead82d1e088a96e72279dce674a7f7df61",
        "gas": "0x10555",
        "value": "0x0",
        "input": "0x3ac006720000000000000000000000000000000000000000000000000000000000066eee",
        "nonce": "0x1a",
        "chainId": "0x41786f6e"
      },
      "additionalContracts": [],
      "isFixedGasLimit": false
    },
    {
      "hash": "0x63211ee63b2ec1de7cc34796abb7ca7190cfbb5a8f7a64037f667a9ee346b1fc",
      "transactionType": "CALL",
      "contractName": null,
      "contractAddress": "0x0d20af55731e9363ad2e27a96d27b735d5673a8a",
      "function": "registerEventProver(uint32,address)",
      "arguments": [
        "421614",
        "0x686f5424D37713Fb9a851Bb999212499d96F4EE3"
      ],
      "transaction": {
        "from": "0x230e13243869a3a7eb341e4bdb9120d5cd547fa1",
        "to": "0x0d20af55731e9363ad2e27a96d27b735d5673a8a",
        "gas": "0x190bc",
        "value": "0x0",
        "input": "0x6dc0ac2e0000000000000000000000000000000000000000000000000000000000066eee000000000000000000000000686f5424d37713fb9a851bb999212499d96f4ee3",
        "nonce": "0x1b",
        "chainId": "0x41786f6e"
      },
      "additionalContracts": [],
      "isFixedGasLimit": false
    },
    {
      "hash": "0x0e746954ac3a80a819e68d91ac8a4b56563be9b9371e901ab20207f45e7d9f68",
      "transactionType": "CALL",
      "contractName": "EventProver",
      "contractAddress": "0x686f5424d37713fb9a851bb999212499d96f4ee3",
      "function": "addEventPublisher(address)",
      "arguments": [
        "0x0d20af55731e9363AD2e27a96D27B735d5673A8a"
      ],
      "transaction": {
        "from": "0x230e13243869a3a7eb341e4bdb9120d5cd547fa1",
        "to": "0x686f5424d37713fb9a851bb999212499d96f4ee3",
        "gas": "0xfea7",
        "value": "0x0",
        "input": "0x8b6dfd9f0000000000000000000000000d20af55731e9363ad2e27a96d27b735d5673a8a",
        "nonce": "0x1c",
        "chainId": "0x41786f6e"
      },
      "additionalContracts": [],
      "isFixedGasLimit": false
    }
  ],
  "receipts": [
    {
      "status": "0x1",
      "cumulativeGasUsed": "0x88ea3",
      "logs": [
        {
          "address": "0x4bf8a6ead82d1e088a96e72279dce674a7f7df61",
          "topics": [
            "0x8be0079c531659141344cd1fd0a4f28419497f9722a3daafe3b4186f6b6457e0",
            "0x0000000000000000000000000000000000000000000000000000000000000000",
            "0x000000000000000000000000230e13243869a3a7eb341e4bdb9120d5cd547fa1"
          ],
          "data": "0x",
          "blockHash": "0xf11f473d977b44895fec03f394fa83bd59dadc71d9823ba2b42743822c7b25c1",
          "blockNumber": "0x83df51",
          "transactionHash": "0x58425f63125c17b6562262bac09a42d1be7b58b6dd2934143823af01657bca35",
          "transactionIndex": "0x0",
          "logIndex": "0x0",
          "removed": false
        }
      ],
      "logsBloom": "0x00000000000000000000000040000000000000000000010000800000000000000000000000000000000000000000000000000000000000000000000000000000000000000000000000000000000000000001000040000000000000000000000000000000020000000000000000000800000000000000000000000000000000400000000000000000000000000000000000000000000000000000000000000000000000000000000010000000000000000000000000000000000000000040000000000000000000000000000000000000000000000000000000000000000020000000000000000000000000000000000000000000000000000000000000100000",
      "type": "0x2",
      "transactionHash": "0x58425f63125c17b6562262bac09a42d1be7b58b6dd2934143823af01657bca35",
      "transactionIndex": "0x0",
      "blockHash": "0xf11f473d977b44895fec03f394fa83bd59dadc71d9823ba2b42743822c7b25c1",
      "blockNumber": "0x83df51",
      "gasUsed": "0x88ea3",
      "effectiveGasPrice": "0x88ea3",
      "from": "0x230e13243869a3a7eb341e4bdb9120d5cd547fa1",
      "to": null,
      "contractAddress": "0x4bf8a6ead82d1e088a96e72279dce674a7f7df61",
      "root": "0xe3813c04810aa27a95b7c6a9e46698170805359978bc4ba866aacdc0af4461a1"
    },
    {
      "status": "0x1",
      "cumulativeGasUsed": "0x6565",
      "logs": [
        {
          "address": "0x4bf8a6ead82d1e088a96e72279dce674a7f7df61",
          "topics": [
            "0x8be0079c531659141344cd1fd0a4f28419497f9722a3daafe3b4186f6b6457e0",
            "0x000000000000000000000000230e13243869a3a7eb341e4bdb9120d5cd547fa1",
            "0x000000000000000000000000230e13243869a3a7eb341e4bdb9120d5cd547fa1"
          ],
          "data": "0x",
          "blockHash": "0xf11f473d977b44895fec03f394fa83bd59dadc71d9823ba2b42743822c7b25c1",
          "blockNumber": "0x83df51",
          "transactionHash": "0xcccaa363df94c002a123f2638fb7152f6578f28b7ae8e2aa147e0f7879ca2cad",
          "transactionIndex": "0x1",
          "logIndex": "0x0",
          "removed": false
        }
      ],
      "logsBloom": "0x00000000000000000000000040000000000000000000010000800000000000000000000000000000000000000000000000000000000000000000000000000000000000000000000000000000000000000001000040000000000000000000000000000000000000000000000000000000000000000000000000000000000000400000000000000000000000000000000000000000000000000000000000000000000000000000000010000000000000000000000000000000000000000040000000000000000000000000000000000000000000000000000000000000000000000000000000000000000000000000000000000000000000000000000000100000",
      "type": "0x2",
      "transactionHash": "0xcccaa363df94c002a123f2638fb7152f6578f28b7ae8e2aa147e0f7879ca2cad",
      "transactionIndex": "0x1",
      "blockHash": "0xf11f473d977b44895fec03f394fa83bd59dadc71d9823ba2b42743822c7b25c1",
      "blockNumber": "0x83df51",
      "gasUsed": "0x6565",
      "effectiveGasPrice": "0x6565",
      "from": "0x230e13243869a3a7eb341e4bdb9120d5cd547fa1",
      "to": "0x4bf8a6ead82d1e088a96e72279dce674a7f7df61",
      "contractAddress": null,
      "root": "0xe3813c04810aa27a95b7c6a9e46698170805359978bc4ba866aacdc0af4461a1"
    },
    {
      "status": "0x1",
      "cumulativeGasUsed": "0xb4b39",
      "logs": [
        {
          "address": "0x686f5424d37713fb9a851bb999212499d96f4ee3",
          "topics": [
            "0x8be0079c531659141344cd1fd0a4f28419497f9722a3daafe3b4186f6b6457e0",
            "0x0000000000000000000000000000000000000000000000000000000000000000",
            "0x000000000000000000000000230e13243869a3a7eb341e4bdb9120d5cd547fa1"
          ],
          "data": "0x",
          "blockHash": "0xf11f473d977b44895fec03f394fa83bd59dadc71d9823ba2b42743822c7b25c1",
          "blockNumber": "0x83df51",
          "transactionHash": "0xf61af8c51e376924345e634edc02e4bcae440d55906a50423e2bb6d95f6dd7c5",
          "transactionIndex": "0x2",
          "logIndex": "0x0",
          "removed": false
        }
      ],
      "logsBloom": "0x00000000000000000000000000000000000000000000010000800000000000000000000000000000000000000000000000000000000000000000000000000000000000000000000000000000000000000001000040000000000000000000000000000000020000000000000000000800000000000000000000000000000000400000000000000000000000000000000000000000000000000000000000000000000000000000000000400000000000000000000000000000000000000000000000000000000000000000000000000000000000000000000000000000000020000000000000000000000002000000000000000000020000000000000000100000",
      "type": "0x2",
      "transactionHash": "0xf61af8c51e376924345e634edc02e4bcae440d55906a50423e2bb6d95f6dd7c5",
      "transactionIndex": "0x2",
      "blockHash": "0xf11f473d977b44895fec03f394fa83bd59dadc71d9823ba2b42743822c7b25c1",
      "blockNumber": "0x83df51",
      "gasUsed": "0xb4b39",
      "effectiveGasPrice": "0xb4b39",
      "from": "0x230e13243869a3a7eb341e4bdb9120d5cd547fa1",
      "to": null,
      "contractAddress": "0x686f5424d37713fb9a851bb999212499d96f4ee3",
      "root": "0xe3813c04810aa27a95b7c6a9e46698170805359978bc4ba866aacdc0af4461a1"
    },
    {
      "status": "0x1",
      "cumulativeGasUsed": "0xb2b1",
      "logs": [],
      "logsBloom": "0x00000000000000000000000000000000000000000000000000000000000000000000000000000000000000000000000000000000000000000000000000000000000000000000000000000000000000000000000000000000000000000000000000000000000000000000000000000000000000000000000000000000000000000000000000000000000000000000000000000000000000000000000000000000000000000000000000000000000000000000000000000000000000000000000000000000000000000000000000000000000000000000000000000000000000000000000000000000000000000000000000000000000000000000000000000000",
      "type": "0x2",
      "transactionHash": "0xa0c6399cd4d9aa8d7507d237520318e07fff6f4d5241fe820dfc452cbe298616",
      "transactionIndex": "0x3",
      "blockHash": "0xf11f473d977b44895fec03f394fa83bd59dadc71d9823ba2b42743822c7b25c1",
      "blockNumber": "0x83df51",
      "gasUsed": "0xb2b1",
      "effectiveGasPrice": "0xb2b1",
      "from": "0x230e13243869a3a7eb341e4bdb9120d5cd547fa1",
      "to": "0x4bf8a6ead82d1e088a96e72279dce674a7f7df61",
      "contractAddress": null,
      "root": "0xe3813c04810aa27a95b7c6a9e46698170805359978bc4ba866aacdc0af4461a1"
    },
    {
      "status": "0x1",
      "cumulativeGasUsed": "0x11202",
      "logs": [
        {
          "address": "0x0d20af55731e9363ad2e27a96d27b735d5673a8a",
          "topics": [
            "0x486ed864be7b5bb56c3843502994b8390aa402ba14643564d6aff19193f3165e",
            "0x000000000000000000000000686f5424d37713fb9a851bb999212499d96f4ee3"
          ],
          "data": "0x",
          "blockHash": "0xf11f473d977b44895fec03f394fa83bd59dadc71d9823ba2b42743822c7b25c1",
          "blockNumber": "0x83df51",
          "transactionHash": "0x63211ee63b2ec1de7cc34796abb7ca7190cfbb5a8f7a64037f667a9ee346b1fc",
          "transactionIndex": "0x4",
          "logIndex": "0x0",
          "removed": false
        }
      ],
      "logsBloom": "0x00000000000002000000080000000000000000000200000000000000000000000000000000000000000000000000000000000000000000000000000000000000000000000000000000000000000000000000000000000000000000000000000000000000000000000000000000000000100000000002000000000000000000000000000000000000000000000000000000000000000000000000000000000000002000000000000000000000000000000000000000000000000000000000000010000000000000000000000000000000000000000000000000000001000000000000000000000000008000000000000000000000000000000000000000000000",
      "type": "0x2",
      "transactionHash": "0x63211ee63b2ec1de7cc34796abb7ca7190cfbb5a8f7a64037f667a9ee346b1fc",
      "transactionIndex": "0x4",
      "blockHash": "0xf11f473d977b44895fec03f394fa83bd59dadc71d9823ba2b42743822c7b25c1",
      "blockNumber": "0x83df51",
      "gasUsed": "0x11202",
      "effectiveGasPrice": "0x11202",
      "from": "0x230e13243869a3a7eb341e4bdb9120d5cd547fa1",
      "to": "0x0d20af55731e9363ad2e27a96d27b735d5673a8a",
      "contractAddress": null,
      "root": "0xe3813c04810aa27a95b7c6a9e46698170805359978bc4ba866aacdc0af4461a1"
    },
    {
      "status": "0x1",
      "cumulativeGasUsed": "0xb85e",
      "logs": [
        {
          "address": "0x686f5424d37713fb9a851bb999212499d96f4ee3",
          "topics": [
            "0x6f2346fd427e08f951b0c6f27eb5ba63691c987aa57e7e466c4cd074c6fbd196",
            "0x0000000000000000000000000d20af55731e9363ad2e27a96d27b735d5673a8a"
          ],
          "data": "0x",
          "blockHash": "0xf11f473d977b44895fec03f394fa83bd59dadc71d9823ba2b42743822c7b25c1",
          "blockNumber": "0x83df51",
          "transactionHash": "0x0e746954ac3a80a819e68d91ac8a4b56563be9b9371e901ab20207f45e7d9f68",
          "transactionIndex": "0x5",
          "logIndex": "0x0",
          "removed": false
        }
      ],
      "logsBloom": "0x00000000000000000000000000000000000000000000000000000000000000000000000000000000000000000000000000000000000200000000000000000000000000000000000000000000000000000000000000000000000000000000000000000000000000000000000000000000000000040000000000000000000000000000000000000040000000000000000000000000000000000000000000000000000000000000000000400000000000000010000000000000000000010000000000000000000000000000010000000000000000000000000000000000000000000000000000000000000002000000000000000000020000000000000000000000",
      "type": "0x2",
      "transactionHash": "0x0e746954ac3a80a819e68d91ac8a4b56563be9b9371e901ab20207f45e7d9f68",
      "transactionIndex": "0x5",
      "blockHash": "0xf11f473d977b44895fec03f394fa83bd59dadc71d9823ba2b42743822c7b25c1",
      "blockNumber": "0x83df51",
      "gasUsed": "0xb85e",
      "effectiveGasPrice": "0xb85e",
      "from": "0x230e13243869a3a7eb341e4bdb9120d5cd547fa1",
      "to": "0x686f5424d37713fb9a851bb999212499d96f4ee3",
      "contractAddress": null,
      "root": "0xe3813c04810aa27a95b7c6a9e46698170805359978bc4ba866aacdc0af4461a1"
    }
  ],
  "libraries": [],
  "pending": [],
  "returns": {},
  "timestamp": 1750790867,
  "chain": 1098411886,
  "commit": "80c8da4"
}