{
  "transactions": [
    {
      "hash": "0xed013de20ca6839bd916cc71cf14f9a33012e63ec0d003672b0a8999ab6c82e3",
      "transactionType": "CREATE",
      "contractName": "AccessManager",
      "contractAddress": "0x89cb0eb5a9a0d70cce9dbb09e0a8755aa777ca9c",
      "function": null,
      "arguments": [
        "0x9D6707c2e8f3C631CEB36F4E350F7A17127697E5"
      ],
      "transaction": {
        "from": "0x0e6b8175eb3b4361193f5719c12cc9143bcda14a",
        "gas": "0x28f6d9",
        "value": "0x0",
        "input": "0x6080604052346102eb57604051601f61270f38819003918201601f19168301916001600160401b03831184841017610161578084926020946040528339810103126102eb57516001600160a01b038116908190036102eb5780156102d55760008181526000805160206126cf833981519152602052604081205465ffffffffffff161590811561018d575065ffffffffffff61009a426102f0565b1665ffffffffffff8111610177578060405191604083019383851060018060401b03861117610161576040948552918352600060208085018281528783526000805160206126cf8339815191529091529481209351845495516001600160a01b031990961665ffffffffffff919091161760309590951b600160301b600160a01b0316949094179092556000805160206126ef833981519152916060915b65ffffffffffff604051928684521660208301526040820152a36040516123ad90816103228239f35b634e487b7160e01b600052604160045260246000fd5b634e487b7160e01b600052601160045260246000fd5b9081805260016020526040822083835260205260408220546101ae426102f0565b63ffffffff8260301c169165ffffffffffff808260701c1692168211156000146102c2575050915b63ffffffff831680156102bb5763ffffffff81116102a7575b65ffffffffffff63ffffffff610204426102f0565b92169116019065ffffffffffff8211610293578080526001602090815260408083208784528252918290208054600160301b600160a01b0319169284901b6dffffffffffff0000000000000000169590911b67ffffffff00000000169490941760301b600160301b600160a01b0316179092556000916000805160206126ef8339815191529160609190610138565b634e487b7160e01b81526011600452602490fd5b634e487b7160e01b82526011600452602482fd5b50806101ef565b60501c63ffffffff169391506101d69050565b630409d6d160e11b600052600060045260246000fd5b600080fd5b65ffffffffffff81116103085765ffffffffffff1690565b6306dfcc6560e41b600052603060045260245260446000fdfe6080604052600436101561001257600080fd5b6000803560e01c806308d6122d146115245780630b0a93ba146114dc57806312be8727146114b8578063167bd3951461142d57806318ff183c146113985780631cff79cd1461126f57806325c471a014610f6b5780633078f11414610f1057806330cae18714610e725780633adc277a14610e435780633ca7c02a14610e215780634136a33c14610dee5780634665096d14610dd05780634c1da1e214610d9e5780635296295214610ce6578063530dd45614610c905780636d5115bd14610c3057806375b238fc14610c14578063853551b814610b5a57806394c7d7ee14610a94578063a166aa8914610a47578063a64d95ce1461093b578063abd9bd2a14610916578063ac9650d814610754578063b70096131461070f578063b7d2b162146106dc578063cc1b6c81146106be578063d1f856ee14610679578063d22b5989146105aa578063d6bb62c6146103f2578063f801a698146101cf5763fe0776f51461017d57600080fd5b346101cc5760403660031901126101cc5761019661166d565b61019e611627565b90336001600160a01b038316036101bd57906101b991611d5e565b5080f35b635f159e6360e01b8352600483fd5b80fd5b50346101cc5760603660031901126101cc576101e961160c565b906024356001600160401b0381116103ee57610209903690600401611699565b919060443565ffffffffffff81168091036103ea5761022a84838733611b53565b905061024663ffffffff61023d42612346565b92168092611a7c565b901580156103cf575b610396579065ffffffffffff8092169081808211911802181690610275848287336118e2565b93848452600260205265ffffffffffff6040852054168015159081610385575b5061037157604095849361036287947f82a2da5dee54ea8021c6545b4444620291e07ee83be6dd57edb175062715f3b494868b99526002602052600163ffffffff8a8a205460301c160163ffffffff81169989898c9b52600260205281812065ffffffffffff881665ffffffffffff198254161790558981526002602052209069ffffffff00000000000082549160301b169069ffffffff00000000000019161790558a51948594855233602086015260018060a01b03168b8501526080606085015260808401916118c1565b0390a382519182526020820152f35b63813e945960e01b84526004859052602484fd5b61038f9150611d2a565b1538610295565b606484876103a48887611b9c565b6381c6f24b60e01b8352336004526001600160a01b039091166024526001600160e01b031916604452fd5b50811515801561024f575065ffffffffffff8116821061024f565b8280fd5b5080fd5b50346101cc5761041a906104053661171c565b6104128183949793611b9c565b9286856118e2565b91828452600260205265ffffffffffff6040852054161560001461044c5763060a299b60e41b84526004839052602484fd5b6001600160a01b0316903382036104be575b505060209250808252600283526040822065ffffffffffff1981541690558082526002835263ffffffff604083205460301c1680917fbd9ac67a6e2f6463b80927326310338bcbb4bdb7936ce1365ea3e01067e7b9f76040519480a38152f35b65ffffffffffff946104d1336000611816565b5050961695861515968761058d575b505060018060a01b03169485855284602052604085209163ffffffff60e01b169182865260205261054a336105456001600160401b036040892054166001600160401b031660005260016020526001600160401b0360016040600020015460401c1690565b611a25565b5090159081610584575b501561045e57608492508460405192630ff89d4760e21b8452336004850152602484015260448301526064820152fd5b90501538610554565b90965065ffffffffffff6105a042612346565b16101595386104e0565b50346101cc5760403660031901126101cc576105c461160c565b7fa56b76017453f399ec2327ba00375dbfb1fd070ff854341ad6191e6a2e2de19c6105ed611709565b916105f6611ab0565b60018060a01b03169182845283602052610620816001600160701b036001604088200154166122b1565b9190848652856020526001600160701b036001604088200191166001600160701b03198254161790556106736040519283928390929165ffffffffffff60209163ffffffff604085019616845216910152565b0390a280f35b50346101cc5760403660031901126101cc576106a461069661166d565b61069e611627565b90611a25565b60408051921515835263ffffffff91909116602083015290f35b50346101cc57806003193601126101cc576020604051620697808152f35b50346101cc5760403660031901126101cc576101b96106f961166d565b610701611627565b9061070a611ab0565b611d5e565b50346101cc5760603660031901126101cc5761072961160c565b610731611627565b604435916001600160e01b031983168303610750576106a49350611972565b8380fd5b50346101cc5760203660031901126101cc576004356001600160401b0381116103ee5761078590369060040161163d565b90602060405161079582826117c4565b84815281810191601f1981013684376107ad85611931565b936107bb60405195866117c4565b858552601f196107ca87611931565b01875b81811061090757505036819003601e190190875b87811015610891578060051b8201358381121561088d578201908135916001600160401b0383116108895785018a83360382136101cc578061086d926108496108596001978b8d8f60405195848795858701998a37850191848301938a85525193849161176e565b010103601f1981018352826117c4565b5190305af4610866611cbc565b9030612250565b610877828a611948565b526108828189611948565b50016107e1565b8a80fd5b8980fd5b83898860405191838301848452825180915260408401948060408360051b870101940192955b8287106108c45785850386f35b90919293828080600193603f198a820301865288516108ee8151809281855285808601910161176e565b601f8019910116010196019201960195929190926108b7565b606087820185015283016107cd565b50346101cc57602061093361092a3661171c565b929190916118e2565b604051908152f35b50346101cc5760403660031901126101cc5761095561166d565b6001600160401b03610965611709565b9161096e611ab0565b16906001600160401b038214610a33577ffeb69018ee8b8fd50ea86348f1267d07673379f72cffdeccec63853ee8ce8b489082845260016020526109c5816001600160701b03600160408820015460801c166122b1565b84865260016020818152604080892090920180546dffffffffffffffffffffffffffff60801b191660809590951b6dffffffffffffffffffffffffffff60801b1694909417909355805163ffffffff909416845265ffffffffffff9091169183019190915281908101610673565b63061c6a4360e21b83526004829052602483fd5b50346101cc5760203660031901126101cc576020610a8a610a6661160c565b6001600160a01b031660009081526020819052604090206001015460701c60ff1690565b6040519015158152f35b50346101cc57610aa3366116c6565b91604051638fb3603760e01b8152602081600481335afa908115610b4f578591610b08575b506001600160e01b03191663704c9fc960e01b01610af55791610af0916101b99333906118e2565b611bb2565b630641fee960e31b845233600452602484fd5b90506020813d602011610b47575b81610b23602093836117c4565b81010312610b4357516001600160e01b031981168103610b435738610ac8565b8480fd5b3d9150610b16565b6040513d87823e3d90fd5b50346101cc5760403660031901126101cc57610b7461166d565b602435906001600160401b0382116103ea57610b9c6001600160401b03923690600401611699565b929091610ba7611ab0565b169182158015610c04575b610bf057907f1256f5b5ecb89caec12db449738f2fbcd1ba5806cf38f35413f4e5c15bf6a450916106736040519283926020845260208401916118c1565b63061c6a4360e21b84526004839052602484fd5b506001600160401b038314610bb2565b50346101cc57806003193601126101cc57602090604051908152f35b50346101cc5760403660031901126101cc57610c4a61160c565b6024359063ffffffff60e01b82168092036103ea576001600160a01b0316825260208281526040808420928452918152918190205490516001600160401b039091168152f35b50346101cc5760203660031901126101cc576020610cd5610caf61166d565b6001600160401b031660005260016020526001600160401b036001604060002001541690565b6001600160401b0360405191168152f35b50346101cc5760403660031901126101cc57610d0061166d565b6001600160401b03610d10611683565b91610d19611ab0565b169081158015610d8e575b610a33576001600160401b0390828452600160205260016040852001805467ffffffffffffffff60401b8360401b169067ffffffffffffffff60401b191617905516907f7a8059630b897b5de4c08ade69f8b90c3ead1f8596d62d10b6c4d14a0afb4ae28380a380f35b506001600160401b038214610d24565b50346101cc5760203660031901126101cc576020610dc2610dbd61160c565b611897565b63ffffffff60405191168152f35b50346101cc57806003193601126101cc57602060405162093a808152f35b50346101cc5760203660031901126101cc5763ffffffff6040602092600435815260028452205460301c16604051908152f35b50346101cc57806003193601126101cc5760206040516001600160401b038152f35b50346101cc5760203660031901126101cc576020610e6260043561186a565b65ffffffffffff60405191168152f35b50346101cc5760403660031901126101cc57610e8c61166d565b6001600160401b03610e9c611683565b91610ea5611ab0565b169081158015610f00575b610a33576001600160401b0390828452600160205260016040852001828216831982541617905516907f1fd6dd7631312dfac2205b52913f99de03b4d7e381d5d27d3dbfe0713e6e63408380a380f35b506001600160401b038214610eb0565b50346101cc5760403660031901126101cc57608063ffffffff65ffffffffffff81610f4a610f3c61166d565b610f44611627565b90611816565b93929590918560405197168752166020860152166040840152166060820152f35b50346101cc5760603660031901126101cc57610f8561166d565b610f8d611627565b906044359163ffffffff831680930361075057610fa8611ab0565b6001600160401b03610fb983611791565b9216916001600160401b03831461125b578285526001602090815260408087206001600160a01b0385166000908152925290205465ffffffffffff16159081156110f4576110179063ffffffff61100f42612346565b911690611a7c565b604051604081018181106001600160401b038211176110e057604090815265ffffffffffff80841683526020808401898152888b5260018252838b206001600160a01b038916600090815292529290209251835492516001600160a01b03199093169082161760309290921b600160301b600160a01b0316919091179091557ff98448b987f1428e0e230e1f3c6e2ce15b5693eaf31827fbd0b1ec4b424ae7cf9360609390929091905b60408051988952911660208801528601526001600160a01b031693a380f35b634e487b7160e01b88526041600452602488fd5b5082855260016020526040852060018060a01b03831660005260205261112a6001600160701b0360406000205460301c16611cec565b50508463ffffffff8216818111600014611212570363ffffffff81116111fe579165ffffffffffff7ff98448b987f1428e0e230e1f3c6e2ce15b5693eaf31827fbd0b1ec4b424ae7cf94926111f967ffffffff0000000061119c63ffffffff6060985b1661119742612346565b611a7c565b9260201b1665ffffffffffff60401b8360401b16178917888b52600160205260408b2060018060a01b038716600052602052604060002090600160301b600160a01b0382549160301b1690600160301b600160a01b031916179055565b6110c1565b634e487b7160e01b87526011600452602487fd5b50509160609165ffffffffffff7ff98448b987f1428e0e230e1f3c6e2ce15b5693eaf31827fbd0b1ec4b424ae7cf946111f967ffffffff0000000061119c63ffffffff8c61118d565b63061c6a4360e21b85526004839052602485fd5b50611279366116c6565b9161128683838333611b53565b9390158061138a575b61137c5761129f818484336118e2565b63ffffffff86951615801590611363575b611351575b50600354926112cd6112c78383611b9c565b84611c89565b600355856112da836117fb565b916112e860405193846117c4565b838352602083019336818301116103ea578060209286378301015234471061133a5794806113289392602097519034855af1611322611cbc565b91612250565b5060035563ffffffff60405191168152f35b63cf47918160e01b86524760045234602452604486fd5b61135c919450611bb2565b92386112b5565b5065ffffffffffff6113748261186a565b1615156112b0565b906103a48592606494611b9c565b5063ffffffff84161561128f565b50346101cc5760403660031901126101cc57806113b361160c565b6113bb611627565b906113c4611ab0565b6001600160a01b031690813b1561142957604051637a9e5e4b60e01b81526001600160a01b039091166004820152919081908390602490829084905af1801561141c5761140e5780f35b611417916117c4565b388180f35b50604051903d90823e3d90fd5b5050fd5b50346101cc5760403660031901126101cc5761144761160c565b602435908115158092036103ea5760207f90d4e7bb7e5d933792b3562e1741306f8be94837e1348dacef9b6f1df56eb13891611481611ab0565b6001600160a01b03168085528482526040808620600101805460ff60701b1916607087901b60ff60701b161790555193845292a280f35b50346101cc5760203660031901126101cc576020610dc26114d761166d565b611791565b50346101cc5760203660031901126101cc576020610cd56114fb61166d565b6001600160401b031660005260016020526001600160401b0360016040600020015460401c1690565b50346101cc5760603660031901126101cc5761153e61160c565b6024356001600160401b0381116103ea5761155d90369060040161163d565b604435916001600160401b038316809303610b435761157d939193611ab0565b6001600160a01b0390911690845b84811015611608578060051b8201359063ffffffff60e01b82168092036116045784847f9ea6790c7dadfd01c9f8b9762b3682607af2c7e79e05a9f9fdf5580dde9491516020600195838c528b825260408c20818d52825260408c20856001600160401b0319825416179055604051908152a30161158b565b8680fd5b8580f35b600435906001600160a01b038216820361162257565b600080fd5b602435906001600160a01b038216820361162257565b9181601f84011215611622578235916001600160401b038311611622576020808501948460051b01011161162257565b600435906001600160401b038216820361162257565b602435906001600160401b038216820361162257565b9181601f84011215611622578235916001600160401b038311611622576020838186019501011161162257565b906040600319830112611622576004356001600160a01b03811681036116225791602435906001600160401b0382116116225761170591600401611699565b9091565b6024359063ffffffff8216820361162257565b6060600319820112611622576004356001600160a01b038116810361162257916024356001600160a01b03811681036116225791604435906001600160401b0382116116225761170591600401611699565b60005b8381106117815750506000910152565b8181015183820152602001611771565b6001600160401b031660005260016020526117bf6001600160701b0360016040600020015460801c16611cec565b505090565b90601f801991011681019081106001600160401b038211176117e557604052565b634e487b7160e01b600052604160045260246000fd5b6001600160401b0381116117e557601f01601f191660200190565b6001600160401b031660009081526001602090815260408083206001600160a01b039094168352929052205465ffffffffffff91611860603083901c6001600160701b0316611cec565b9490931693909291565b600052600260205265ffffffffffff6040600020541661188981611d2a565b156118945750600090565b90565b60018060a01b031660005260006020526117bf6001600160701b0360016040600020015416611cec565b908060209392818452848401376000828201840152601f01601f1916010190565b604080516001600160a01b0392831660208201908152929093169083015260608083015292909161192b91839161191d9160808401916118c1565b03601f1981018352826117c4565b51902090565b6001600160401b0381116117e55760051b60200190565b805182101561195c5760209160051b010190565b634e487b7160e01b600052603260045260246000fd5b6001600160a01b03821660009081526020819052604090206001015491929160701c60ff16156119a757505050600090600090565b6001600160a01b03811630036119cc57506119c59060035492611c89565b1490600090565b90611a0a9260018060a01b0316600052600060205260406000209063ffffffff60e01b166000526020526001600160401b0360406000205416611a25565b919015611a1d5763ffffffff8216159190565b600091508190565b6001600160401b0381811603611a3f575050600190600090565b65ffffffffffff9291611a5191611816565b505092168015159081611a6357509190565b905065ffffffffffff611a7542612346565b1610159190565b9065ffffffffffff8091169116019065ffffffffffff8211611a9a57565b634e487b7160e01b600052601160045260246000fd5b611aba3633611e19565b9015611ac35750565b63ffffffff16611afa576001600160401b03611ade36611f07565b50905063f07e038f60e01b600052336004521660245260446000fd5b611b506040516020810190338252306040820152606080820152611b4881602060808201368152366000838301376000823683010152601f19601f360116010103601f1981018352826117c4565b519020611bb2565b50565b909291906001600160a01b0384163003611b71576117059350611ecc565b9192906004841015611b895750505050600090600090565b61170593611b9691611b9c565b91611972565b9060041161162257356001600160e01b03191690565b600081815260026020526040902054909190603081901c63ffffffff169065ffffffffffff1680611bf2578363060a299b60e41b60005260045260246000fd5b65ffffffffffff611c0242612346565b16811115611c1f5783630c65b5bd60e11b60005260045260246000fd5b611c2c9093919293611d2a565b611c75578190806000526002602052604060002065ffffffffffff1981541690557f76a2a46953689d4861a5d3f6ed883ad7e6af674a21f8e162707159fc9dde614d600080a390565b631e2975b960e21b60005260045260246000fd5b604080516001600160a01b03909216602083019081526001600160e01b031990931682820152815261192b6060826117c4565b3d15611ce7573d90611ccd826117fb565b91611cdb60405193846117c4565b82523d6000602084013e565b606090565b611cf542612346565b63ffffffff82169165ffffffffffff604082901c811692168211611d1e57509091600091508190565b60201c63ffffffff1692565b65ffffffffffff62093a8091160165ffffffffffff8111611a9a5765ffffffffffff80611d5642612346565b169116111590565b6001600160401b0316906001600160401b038214611e0457816000526001602052604060002060018060a01b03821660005260205265ffffffffffff6040600020541615611dfd57816000526001602052604060002060018060a01b0382166000526020526000604081205560018060a01b0316907ff229baa593af28c41b1d16b748cd7688f0c83aaf92d4be41c44005defe84c166600080a3600190565b5050600090565b5063061c6a4360e21b60005260045260246000fd5b9060048110611e76576001600160a01b0382163014611eaa57611e3d9060006120ae565b9290911580611e8b575b611e8057611e5491611a25565b9015611e765763ffffffff808093169116908180821191180218169081159190565b5050600090600090565b505050600090600090565b503060009081526020819052604090206001015460701c60ff16611e47565b9050600411611622576003546119c56000356001600160e01b03191630611c89565b919060048210611e80576001600160a01b0383163014611ef05790611e3d916120ae565b611efa9250611b9c565b6119c56003549130611c89565b600090600481106120a757806004116103ee5781356001600160e01b031916906310a6aa3760e31b82148015612097575b8015612087575b8015612077575b8015612067575b61205e5763063fc60f60e21b8214801561204e575b801561203e575b61200d5763012e238d60e51b82148015611ffd575b611fa9575030825281602052604082209082526020526001600160401b036040822054169181929190565b90506024116101cc57806101cc57506004356001600160401b038116810361162257611ff5906001600160401b031660005260016020526001600160401b036001604060002001541690565b600191600090565b50635be958b160e11b8214611f7e565b90506024116101cc57506004356001600160a01b038116908190036116225761203590611897565b60019160009190565b506308d6122d60e01b8214611f69565b5063167bd39560e01b8214611f62565b50506001918190565b5063d22b598960e01b8214611f4d565b50635326cae760e11b8214611f46565b5063294b14a960e11b8214611f3f565b506330cae18760e01b8214611f38565b5080918190565b60048210612243576001600160e01b03196120c98383611b9c565b16916310a6aa3760e31b83148015612233575b8015612223575b8015612213575b8015612203575b6121f55763063fc60f60e21b831480156121e5575b80156121d5575b6121ae5763012e238d60e51b8314801561219e575b6121565750503060005260006020526040600020906000526020526001600160401b03604060002054169060009190600090565b90915060241161162257600401356001600160401b038116810361162257611ff5906001600160401b031660005260016020526001600160401b036001604060002001541690565b50635be958b160e11b8314612122565b909150602411611622576004013560018060a01b0381168091036116225761203590611897565b506308d6122d60e01b831461210d565b5063167bd39560e01b8314612106565b505050600190600090600090565b5063d22b598960e01b83146120f1565b50635326cae760e11b83146120ea565b5063294b14a960e11b83146120e3565b506330cae18760e01b83146120dc565b5050600090600090600090565b90612276575080511561226557805190602001fd5b63d6bda27560e01b60005260046000fd5b815115806122a8575b612287575090565b639996b31560e01b60009081526001600160a01b0391909116600452602490fd5b50803b1561227f565b6122c263ffffffff91939293611cec565b505092168063ffffffff841681811160001461232b570363ffffffff8111611a9a5761231163ffffffff8067ffffffff00000000935b1680620697801181620697801802181661119742612346565b9360201b1665ffffffffffff60401b8460401b1617179190565b505067ffffffff0000000061231163ffffffff8060006122f8565b65ffffffffffff811161235e5765ffffffffffff1690565b6306dfcc6560e41b600052603060045260245260446000fdfea2646970667358221220bca7496538116ba47dc13475e9b1bd1e8126bb5d43b5dd8b9eef0c106a64bc4364736f6c634300081e0033a6eef7e35abe7026729641147f7915573c7e97b47efa546f5f6e3230263bcb49f98448b987f1428e0e230e1f3c6e2ce15b5693eaf31827fbd0b1ec4b424ae7cf0000000000000000000000009d6707c2e8f3c631ceb36f4e350f7a17127697e5",
        "nonce": "0x2",
        "chainId": "0x41786f6e"
      },
      "additionalContracts": [],
      "isFixedGasLimit": false
    },
    {
      "hash": "0x514c2691c457a3499f33e1919335aceacfcaa844103806e78fb145863ed5f290",
      "transactionType": "CALL",
      "contractName": "AccessManager",
      "contractAddress": "0x89cb0eb5a9a0d70cce9dbb09e0a8755aa777ca9c",
      "function": "grantRole(uint64,address,uint32)",
      "arguments": [
        "1",
        "0x230E13243869a3a7eb341E4bDB9120D5cd547fA1",
        "0"
      ],
      "transaction": {
        "from": "0x9d6707c2e8f3c631ceb36f4e350f7a17127697e5",
        "to": "0x89cb0eb5a9a0d70cce9dbb09e0a8755aa777ca9c",
        "gas": "0x1220d",
        "value": "0x0",
        "input": "0x25c471a00000000000000000000000000000000000000000000000000000000000000001000000000000000000000000230e13243869a3a7eb341e4bdb9120d5cd547fa10000000000000000000000000000000000000000000000000000000000000000",
        "nonce": "0x0",
        "chainId": "0x41786f6e"
      },
      "additionalContracts": [],
      "isFixedGasLimit": false
    },
    {
      "hash": "0x6046df82e7d03b27e358d5fa9858f5a1b204de463f27d987a09a1321bbd1267c",
      "transactionType": "CALL",
      "contractName": "AccessManager",
      "contractAddress": "0x89cb0eb5a9a0d70cce9dbb09e0a8755aa777ca9c",
      "function": "grantRole(uint64,address,uint32)",
      "arguments": [
        "10",
        "0xA2F4358E1b686d9125046790Ee761a86FDb9Aa2c",
        "0"
      ],
      "transaction": {
        "from": "0x9d6707c2e8f3c631ceb36f4e350f7a17127697e5",
        "to": "0x89cb0eb5a9a0d70cce9dbb09e0a8755aa777ca9c",
        "gas": "0x1220d",
        "value": "0x0",
        "input": "0x25c471a0000000000000000000000000000000000000000000000000000000000000000a000000000000000000000000a2f4358e1b686d9125046790ee761a86fdb9aa2c0000000000000000000000000000000000000000000000000000000000000000",
        "nonce": "0x1",
        "chainId": "0x41786f6e"
      },
      "additionalContracts": [],
      "isFixedGasLimit": false
    },
    {
      "hash": "0x2f63d394afea48451ca8b8b58908927b37989809d51b606ae5a9fac30369965c",
      "transactionType": "CALL",
      "contractName": "AccessManager",
      "contractAddress": "0x89cb0eb5a9a0d70cce9dbb09e0a8755aa777ca9c",
      "function": "grantRole(uint64,address,uint32)",
      "arguments": [
        "11",
        "0xA2F4358E1b686d9125046790Ee761a86FDb9Aa2c",
        "0"
      ],
      "transaction": {
        "from": "0x9d6707c2e8f3c631ceb36f4e350f7a17127697e5",
        "to": "0x89cb0eb5a9a0d70cce9dbb09e0a8755aa777ca9c",
        "gas": "0x1220d",
        "value": "0x0",
        "input": "0x25c471a0000000000000000000000000000000000000000000000000000000000000000b000000000000000000000000a2f4358e1b686d9125046790ee761a86fdb9aa2c0000000000000000000000000000000000000000000000000000000000000000",
        "nonce": "0x2",
        "chainId": "0x41786f6e"
      },
      "additionalContracts": [],
      "isFixedGasLimit": false
    },
    {
      "hash": "0x1f5e4c34b0d77c4786f2430d292766d3766a74f94d1d7372ff1008baa8b83b25",
      "transactionType": "CALL",
      "contractName": "AccessManager",
      "contractAddress": "0x89cb0eb5a9a0d70cce9dbb09e0a8755aa777ca9c",
      "function": "grantRole(uint64,address,uint32)",
      "arguments": [
        "21",
        "0xA2F4358E1b686d9125046790Ee761a86FDb9Aa2c",
        "0"
      ],
      "transaction": {
        "from": "0x9d6707c2e8f3c631ceb36f4e350f7a17127697e5",
        "to": "0x89cb0eb5a9a0d70cce9dbb09e0a8755aa777ca9c",
        "gas": "0x1220d",
        "value": "0x0",
        "input": "0x25c471a00000000000000000000000000000000000000000000000000000000000000015000000000000000000000000a2f4358e1b686d9125046790ee761a86fdb9aa2c0000000000000000000000000000000000000000000000000000000000000000",
        "nonce": "0x3",
        "chainId": "0x41786f6e"
      },
      "additionalContracts": [],
      "isFixedGasLimit": false
    },
    {
      "hash": "0x3eb8fe7e7a9c7265050b098a5507972d938df668f4476aeb91b2533f6ff5018c",
      "transactionType": "CALL",
      "contractName": "AccessManager",
      "contractAddress": "0x89cb0eb5a9a0d70cce9dbb09e0a8755aa777ca9c",
      "function": "grantRole(uint64,address,uint32)",
      "arguments": [
        "12",
        "0xA2F4358E1b686d9125046790Ee761a86FDb9Aa2c",
        "0"
      ],
      "transaction": {
        "from": "0x9d6707c2e8f3c631ceb36f4e350f7a17127697e5",
        "to": "0x89cb0eb5a9a0d70cce9dbb09e0a8755aa777ca9c",
        "gas": "0x1220d",
        "value": "0x0",
        "input": "0x25c471a0000000000000000000000000000000000000000000000000000000000000000c000000000000000000000000a2f4358e1b686d9125046790ee761a86fdb9aa2c0000000000000000000000000000000000000000000000000000000000000000",
        "nonce": "0x4",
        "chainId": "0x41786f6e"
      },
      "additionalContracts": [],
      "isFixedGasLimit": false
    }
  ],
  "receipts": [
    {
      "status": "0x1",
      "cumulativeGasUsed": "0x1f82cf",
      "logs": [
        {
          "address": "0x89cb0eb5a9a0d70cce9dbb09e0a8755aa777ca9c",
          "topics": [
            "0xf98448b987f1428e0e230e1f3c6e2ce15b5693eaf31827fbd0b1ec4b424ae7cf",
            "0x0000000000000000000000000000000000000000000000000000000000000000",
            "0x0000000000000000000000009d6707c2e8f3c631ceb36f4e350f7a17127697e5"
          ],
          "data": "0x000000000000000000000000000000000000000000000000000000000000000000000000000000000000000000000000000000000000000000000000685946a90000000000000000000000000000000000000000000000000000000000000001",
          "blockHash": "0x86e877d0655ce229af40e3deae69c8cae905bb7fe5a48e85ea0c7f2c5052df13",
          "blockNumber": "0x835c77",
          "transactionHash": "0xed013de20ca6839bd916cc71cf14f9a33012e63ec0d003672b0a8999ab6c82e3",
          "transactionIndex": "0x0",
          "logIndex": "0x0",
          "removed": false
        }
      ],
      "logsBloom": "0x00000800000000000000000000000000000000000000000000000000000000000000000000000000000010000000000000000000000000001000000000000000000000000000000000000000000000000000000000000000000000000000000000000000020000000000000000000800000000000000000000400000000000004000000000000000000000000000400008000000000000000000000000000000000000000000000000002000000000000000000000000008000000000000000000000000000000000000000000000000000000000000000000000000000020000000000000000000000000000000000000000000000000000000000000000000",
      "type": "0x2",
      "transactionHash": "0xed013de20ca6839bd916cc71cf14f9a33012e63ec0d003672b0a8999ab6c82e3",
      "transactionIndex": "0x0",
      "blockHash": "0x86e877d0655ce229af40e3deae69c8cae905bb7fe5a48e85ea0c7f2c5052df13",
      "blockNumber": "0x835c77",
      "gasUsed": "0x1f82cf",
      "effectiveGasPrice": "0x1f82cf",
      "from": "0x0e6b8175eb3b4361193f5719c12cc9143bcda14a",
      "to": null,
      "contractAddress": "0x89cb0eb5a9a0d70cce9dbb09e0a8755aa777ca9c",
      "root": "0xdde5f6b882fcc09f7b485a0dc0ab0f4b1d38c4671b2bb4d7248b3a2c7904a02a"
    },
    {
      "status": "0x1",
      "cumulativeGasUsed": "0xd1ff",
      "logs": [
        {
          "address": "0x89cb0eb5a9a0d70cce9dbb09e0a8755aa777ca9c",
          "topics": [
            "0xf98448b987f1428e0e230e1f3c6e2ce15b5693eaf31827fbd0b1ec4b424ae7cf",
            "0x0000000000000000000000000000000000000000000000000000000000000001",
            "0x000000000000000000000000230e13243869a3a7eb341e4bdb9120d5cd547fa1"
          ],
          "data": "0x000000000000000000000000000000000000000000000000000000000000000000000000000000000000000000000000000000000000000000000000685946b20000000000000000000000000000000000000000000000000000000000000001",
          "blockHash": "0x6b37289fcd584e3c3633f0f2461059f77b7288f6f74a0e6a2efebd4e818c536a",
          "blockNumber": "0x835c79",
          "transactionHash": "0x514c2691c457a3499f33e1919335aceacfcaa844103806e78fb145863ed5f290",
          "transactionIndex": "0x0",
          "logIndex": "0x0",
          "removed": false
        }
      ],
      "logsBloom": "0x00000000000000000000000000000000000000000000010000000000000000000000000000000000000010000000000000000000000000001000000000040000000000000000000000000000000000000000000040040000000000000000000000000000000000000000000000000000000000000000000000400000000000000000000000000000000000000000000008000000000000000000000000000000000000000000000000002000000000000000000000000008000000000000000000000000000000000000000000000000000000000000000000000000000040000000000000000000000000000000000000000000000000000000000000100000",
      "type": "0x2",
      "transactionHash": "0x514c2691c457a3499f33e1919335aceacfcaa844103806e78fb145863ed5f290",
      "transactionIndex": "0x0",
      "blockHash": "0x6b37289fcd584e3c3633f0f2461059f77b7288f6f74a0e6a2efebd4e818c536a",
      "blockNumber": "0x835c79",
      "gasUsed": "0xd1ff",
      "effectiveGasPrice": "0xd1ff",
      "from": "0x9d6707c2e8f3c631ceb36f4e350f7a17127697e5",
      "to": "0x89cb0eb5a9a0d70cce9dbb09e0a8755aa777ca9c",
      "contractAddress": null,
      "root": "0xb870343d3c6877abe099581d37dd869984bf1607d480142c07368e46464cb21a"
    },
    {
      "status": "0x1",
      "cumulativeGasUsed": "0xd1ff",
      "logs": [
        {
          "address": "0x89cb0eb5a9a0d70cce9dbb09e0a8755aa777ca9c",
          "topics": [
            "0xf98448b987f1428e0e230e1f3c6e2ce15b5693eaf31827fbd0b1ec4b424ae7cf",
            "0x000000000000000000000000000000000000000000000000000000000000000a",
            "0x000000000000000000000000a2f4358e1b686d9125046790ee761a86fdb9aa2c"
          ],
          "data": "0x000000000000000000000000000000000000000000000000000000000000000000000000000000000000000000000000000000000000000000000000685946b40000000000000000000000000000000000000000000000000000000000000001",
          "blockHash": "0xd54f58d3791f91b3a2e8b4a604f4c7f905b366c2b74115617a662189ece005ee",
          "blockNumber": "0x835c7a",
          "transactionHash": "0x6046df82e7d03b27e358d5fa9858f5a1b204de463f27d987a09a1321bbd1267c",
          "transactionIndex": "0x0",
          "logIndex": "0x0",
          "removed": false
        }
      ],
      "logsBloom": "0x00000000000000000000000000000000000000000000000000000000000000000000000000000000000010000000000000000000040000001020000000000000000000000000000000000000000000000000000000000000000000000000000000000000000000000000000000000000000000000000000000400000000000000000000000000000010000000000000008000000000000000000400000000000000000000000000000002000000000000000000000000008000000000000000000000000000000000000000000000000002000000020000000000000000000000000000000000000000000000000000000000000000000000000000000000000",
      "type": "0x2",
      "transactionHash": "0x6046df82e7d03b27e358d5fa9858f5a1b204de463f27d987a09a1321bbd1267c",
      "transactionIndex": "0x0",
      "blockHash": "0xd54f58d3791f91b3a2e8b4a604f4c7f905b366c2b74115617a662189ece005ee",
      "blockNumber": "0x835c7a",
      "gasUsed": "0xd1ff",
      "effectiveGasPrice": "0xd1ff",
      "from": "0x9d6707c2e8f3c631ceb36f4e350f7a17127697e5",
      "to": "0x89cb0eb5a9a0d70cce9dbb09e0a8755aa777ca9c",
      "contractAddress": null,
      "root": "0x68cd7f7c8aa8b840df4bccee768e9e7af3c2c01370852bff05be95d644807616"
    },
    {
      "status": "0x1",
      "cumulativeGasUsed": "0xd1ff",
      "logs": [
        {
          "address": "0x89cb0eb5a9a0d70cce9dbb09e0a8755aa777ca9c",
          "topics": [
            "0xf98448b987f1428e0e230e1f3c6e2ce15b5693eaf31827fbd0b1ec4b424ae7cf",
            "0x000000000000000000000000000000000000000000000000000000000000000b",
            "0x000000000000000000000000a2f4358e1b686d9125046790ee761a86fdb9aa2c"
          ],
          "data": "0x000000000000000000000000000000000000000000000000000000000000000000000000000000000000000000000000000000000000000000000000685946bd0000000000000000000000000000000000000000000000000000000000000001",
          "blockHash": "0x827b55ffdd0b81e10e770ca3d57732169bc0e99ca5f36d5a2af1ad759231bce8",
          "blockNumber": "0x835c7c",
          "transactionHash": "0x2f63d394afea48451ca8b8b58908927b37989809d51b606ae5a9fac30369965c",
          "transactionIndex": "0x0",
          "logIndex": "0x0",
          "removed": false
        }
      ],
      "logsBloom": "0x00000000000000000000004000000000000000000000000000000000000000000000000000000000000010000000000000000000000000001000000000000000000000000000000000000000000000000000000000000000000000000000000000000000000000000000000000000000000000000000000000400000000000000000000000000000000000000000000008000000000000000000400000000000000000000000000000002000000000000000000000000008000000000000000000000000000000000000000000000000002000000020000000000000000000000000000000000000000000000000000000000000000000040000000000000000",
      "type": "0x2",
      "transactionHash": "0x2f63d394afea48451ca8b8b58908927b37989809d51b606ae5a9fac30369965c",
      "transactionIndex": "0x0",
      "blockHash": "0x827b55ffdd0b81e10e770ca3d57732169bc0e99ca5f36d5a2af1ad759231bce8",
      "blockNumber": "0x835c7c",
      "gasUsed": "0xd1ff",
      "effectiveGasPrice": "0xd1ff",
      "from": "0x9d6707c2e8f3c631ceb36f4e350f7a17127697e5",
      "to": "0x89cb0eb5a9a0d70cce9dbb09e0a8755aa777ca9c",
      "contractAddress": null,
      "root": "0x7b908bada985363413d9be9c578c8514a538252920a9a0508219f21cc1551667"
    },
    {
      "status": "0x1",
      "cumulativeGasUsed": "0xd1ff",
      "logs": [
        {
          "address": "0x89cb0eb5a9a0d70cce9dbb09e0a8755aa777ca9c",
          "topics": [
            "0xf98448b987f1428e0e230e1f3c6e2ce15b5693eaf31827fbd0b1ec4b424ae7cf",
            "0x0000000000000000000000000000000000000000000000000000000000000015",
            "0x000000000000000000000000a2f4358e1b686d9125046790ee761a86fdb9aa2c"
          ],
          "data": "0x000000000000000000000000000000000000000000000000000000000000000000000000000000000000000000000000000000000000000000000000685946bf0000000000000000000000000000000000000000000000000000000000000001",
          "blockHash": "0x70fac81563c5ae4c973a26c95c0854cb631ddd35b2555ac36d4d9a622fe48e5f",
          "blockNumber": "0x835c7d",
          "transactionHash": "0x1f5e4c34b0d77c4786f2430d292766d3766a74f94d1d7372ff1008baa8b83b25",
          "transactionIndex": "0x0",
          "logIndex": "0x0",
          "removed": false
        }
      ],
      "logsBloom": "0x00000000000000000000000000000000000000000000000000000000000000000000000000000000000010000000000000000000000000001000000000000000001000000000000000000000000000000000000000000000000000000000000000000000000000000000000000000000000000000000000000400000000000000000000000000000000000000000000008000000000000000000400000000000000000000000000000002000010000000000000000000008000000000000000000000000000000000000000000000000002000000020000000000000000000002000000000000000000000000000000000000000000000000000000000000000",
      "type": "0x2",
      "transactionHash": "0x1f5e4c34b0d77c4786f2430d292766d3766a74f94d1d7372ff1008baa8b83b25",
      "transactionIndex": "0x0",
      "blockHash": "0x70fac81563c5ae4c973a26c95c0854cb631ddd35b2555ac36d4d9a622fe48e5f",
      "blockNumber": "0x835c7d",
      "gasUsed": "0xd1ff",
      "effectiveGasPrice": "0xd1ff",
      "from": "0x9d6707c2e8f3c631ceb36f4e350f7a17127697e5",
      "to": "0x89cb0eb5a9a0d70cce9dbb09e0a8755aa777ca9c",
      "contractAddress": null,
      "root": "0x872814d79b3bbe4eb2b97772292748bc74eb3489e0b15e55a892e9cba2a4637e"
    },
    {
      "status": "0x1",
      "cumulativeGasUsed": "0xd1ff",
      "logs": [
        {
          "address": "0x89cb0eb5a9a0d70cce9dbb09e0a8755aa777ca9c",
          "topics": [
            "0xf98448b987f1428e0e230e1f3c6e2ce15b5693eaf31827fbd0b1ec4b424ae7cf",
            "0x000000000000000000000000000000000000000000000000000000000000000c",
            "0x000000000000000000000000a2f4358e1b686d9125046790ee761a86fdb9aa2c"
          ],
          "data": "0x000000000000000000000000000000000000000000000000000000000000000000000000000000000000000000000000000000000000000000000000685946c10000000000000000000000000000000000000000000000000000000000000001",
          "blockHash": "0xac157b22a869b45fe54a0be44afe712dbc6e9d8685007b82af164d227d3aff6b",
          "blockNumber": "0x835c7e",
          "transactionHash": "0x3eb8fe7e7a9c7265050b098a5507972d938df668f4476aeb91b2533f6ff5018c",
          "transactionIndex": "0x0",
          "logIndex": "0x0",
          "removed": false
        }
      ],
      "logsBloom": "0x00000000000000000000000000000000000002000000000000000000000000000000000000000200000010000000000000000000000000001000000000000000000000000000000000000000000000000000000000000000000000000000000000000000000000000000000000000000000000000000000000400000000000000000000000000000000000000000000008000000000000000000400000000000000000000000000000002000000000000000000000000008000000000000000000000000000000000000000000000000002000000020000000000000000000200000000000000000000000000000000000000000000000000000000000000000",
      "type": "0x2",
      "transactionHash": "0x3eb8fe7e7a9c7265050b098a5507972d938df668f4476aeb91b2533f6ff5018c",
      "transactionIndex": "0x0",
      "blockHash": "0xac157b22a869b45fe54a0be44afe712dbc6e9d8685007b82af164d227d3aff6b",
      "blockNumber": "0x835c7e",
      "gasUsed": "0xd1ff",
      "effectiveGasPrice": "0xd1ff",
      "from": "0x9d6707c2e8f3c631ceb36f4e350f7a17127697e5",
      "to": "0x89cb0eb5a9a0d70cce9dbb09e0a8755aa777ca9c",
      "contractAddress": null,
      "root": "0x9fb684247da9e778dbff626d18f07a138881e6f10145fafb625eb641c5b75475"
    }
  ],
  "libraries": [],
  "pending": [],
  "returns": {},
  "timestamp": 1750681282,
  "chain": 1098411886,
  "commit": "80c8da4"
}