{
  "transactions": [
    {
      "hash": "0x7480c98df66b6f62d38bb0347390b75d739e7b568d3801d962843ebc1c9cd47c",
      "transactionType": "CALL",
      "contractName": null,
      "contractAddress": "0x9920D74B9dA66a07b51E6a33fD549a69DC77d601",
      "function": "registerEventType(address,bytes32)",
      "arguments": [
        "0x8E57C1FAd22e4BE6C757ac49e154261Cf9E15f8A",
        "0xee426c88f40a2c5f033cfec70960d0bfd6579409e15f1b5a93084d43eec4a2ae"
      ],
      "transaction": {
        "from": "0xc13113E56E00050327Be3AD164185103541f1903",
        "to": "0x9920D74B9dA66a07b51E6a33fD549a69DC77d601",
        "gas": "0x17570",
        "value": "0x0",
        "input": "0xe57f6de50000000000000000000000008e57c1fad22e4be6c757ac49e154261cf9e15f8aee426c88f40a2c5f033cfec70960d0bfd6579409e15f1b5a93084d43eec4a2ae",
        "nonce": "0xf1",
        "chainId": "0xaa36a7"
      },
      "additionalContracts": [],
      "isFixedGasLimit": false
    }
  ],
  "receipts": [
    {
      "status": "0x1",
      "cumulativeGasUsed": "0xb9b4f3",
      "logs": [],
      "logsBloom": "0x00000000000000000000000000000000000000000000000000000000000000000000000000000000000000000000000000000000000000000000000000000000000000000000000000000000000000000000000000000000000000000000000000000000000000000000000000000000000000000000000000000000000000000000000000000000000000000000000000000000000000000000000000000000000000000000000000000000000000000000000000000000000000000000000000000000000000000000000000000000000000000000000000000000000000000000000000000000000000000000000000000000000000000000000000000000",
      "type": "0x2",
      "transactionHash": "0x7480c98df66b6f62d38bb0347390b75d739e7b568d3801d962843ebc1c9cd47c",
      "transactionIndex": "0x58",
      "blockHash": "0x7cd5368bb3fc26dd52bc347730903b45a326b2fcf7a6ca92e393f772212f1b93",
      "blockNumber": "0x7e4032",
      "gasUsed": "0x10e5e",
      "effectiveGasPrice": "0x7dacfacf3",
      "from": "0xc13113E56E00050327Be3AD164185103541f1903",
      "to": "0x9920D74B9dA66a07b51E6a33fD549a69DC77d601",
      "contractAddress": null
    }
  ],
  "libraries": [],
  "pending": [],
  "returns": {},
  "timestamp": 1746606929,
  "chain": 11155111,
  "commit": "f1418e3"
}