{
  "transactions": [
    {
      "hash": "0xca745a06aba06331d9c2c19125c55a1c1ad6dc7b1e12090131376cd612b08d54",
      "transactionType": "CALL",
      "contractName": null,
      "contractAddress": "0x780d4721f6bd26897a72aff5cb4eee6f381f0c96",
      "function": "mint(address,uint256)",
      "arguments": [
        "0x79DC2cEa06ACd75B52c48022254b10158dD4f87c",
        "1000000000000000000000"
      ],
      "transaction": {
        "from": "0x230e13243869a3a7eb341e4bdb9120d5cd547fa1",
        "to": "0x780d4721f6bd26897a72aff5cb4eee6f381f0c96",
        "gas": "0xb94a",
        "value": "0x0",
        "input": "0x40c10f1900000000000000000000000079dc2cea06acd75b52c48022254b10158dd4f87c00000000000000000000000000000000000000000000003635c9adc5dea00000",
        "nonce": "0x14",
        "chainId": "0x66eee"
      },
      "additionalContracts": [],
      "isFixedGasLimit": false
    }
  ],
  "receipts": [
    {
      "status": "0x1",
      "cumulativeGasUsed": "0xa5e4a",
      "logs": [
        {
          "address": "0x780d4721f6bd26897a72aff5cb4eee6f381f0c96",
          "topics": [
            "0xddf252ad1be2c89b69c2b068fc378daa952ba7f163c4a11628f55a4df523b3ef",
            "0x0000000000000000000000000000000000000000000000000000000000000000",
            "0x00000000000000000000000079dc2cea06acd75b52c48022254b10158dd4f87c"
          ],
          "data": "0x00000000000000000000000000000000000000000000003635c9adc5dea00000",
          "blockHash": "0x12af03765fd30f7774485a0c73f137a2adb551b92219680ec6d63cf38da5e9be",
          "blockNumber": "0x9faed5c",
          "transactionHash": "0xca745a06aba06331d9c2c19125c55a1c1ad6dc7b1e12090131376cd612b08d54",
          "transactionIndex": "0x6",
          "logIndex": "0x15",
          "removed": false
        }
      ],
      "logsBloom": "0x00000000000000000000000000000000000000000000000000000000000000000000000000004000000000000000000000000000000000000000000000000000000000000000000000000008000000000000000100000000000000000000000000000000020001000000000000000800000000000000002000000010000000000000000000000000000000000000000000000000000000000000000000000000000000000000000000000000000008000000000000000000000000000000000000000002000000000000000000000000000000008000000000000000000020000000000000000000000000000000000000000000000000000000000000000000",
      "type": "0x2",
      "transactionHash": "0xca745a06aba06331d9c2c19125c55a1c1ad6dc7b1e12090131376cd612b08d54",
      "transactionIndex": "0x6",
      "blockHash": "0x12af03765fd30f7774485a0c73f137a2adb551b92219680ec6d63cf38da5e9be",
      "blockNumber": "0x9faed5c",
      "gasUsed": "0x8d1e",
      "effectiveGasPrice": "0x5f5e100",
      "from": "0x230e13243869a3a7eb341e4bdb9120d5cd547fa1",
      "to": "0x780d4721f6bd26897a72aff5cb4eee6f381f0c96",
      "contractAddress": null,
      "gasUsedForL1": "0x0",
      "l1BlockNumber": "0x83bca9",
      "timeboosted": false
    }
  ],
  "libraries": [],
  "pending": [],
  "returns": {},
  "timestamp": 1750946927,
  "chain": 421614,
  "commit": "8f02aa2"
}