{
  "transactions": [
    {
      "hash": "0xd26d2f510352864a0700b8bf7a741dad2ed327d8905a32dee4f8f1a520c6cf3b",
      "transactionType": "CALL",
      "contractName": null,
      "contractAddress": "0x901B462853519FF5b3d235b355a23737736538eB",
      "function": "addAsset(address)",
      "arguments": [
        "0x083F108e8302138230fAf206B6d3965C1969b6FA"
      ],
      "transaction": {
        "from": "0xc13113E56E00050327Be3AD164185103541f1903",
        "to": "0x901B462853519FF5b3d235b355a23737736538eB",
        "gas": "0x1a24a",
        "value": "0x0",
        "input": "0x298410e5000000000000000000000000083f108e8302138230faf206b6d3965c1969b6fa",
        "nonce": "0x330",
        "chainId": "0xa869"
      },
      "additionalContracts": [],
      "isFixedGasLimit": false
    }
  ],
  "receipts": [
    {
      "status": "0x1",
      "cumulativeGasUsed": "0x11e03",
      "logs": [
        {
          "address": "0x901B462853519FF5b3d235b355a23737736538eB",
          "topics": [
            "0x57c9e281a77ac9ba91a9f926dda440cd98f47ee4f2d5030b5d54688cecbc9989",
            "0x000000000000000000000000083f108e8302138230faf206b6d3965c1969b6fa"
          ],
          "data": "0x0000000000000000000000000000000000000000000000000000000000000012",
          "blockHash": "0x35b4720d4d6b0510ae21cc8697ee65c81db4fe3787e0d5e800895b8bb193e449",
          "blockNumber": "0x26610d5",
          "transactionHash": "0xd26d2f510352864a0700b8bf7a741dad2ed327d8905a32dee4f8f1a520c6cf3b",
          "transactionIndex": "0x0",
          "logIndex": "0x0",
          "removed": false
        }
      ],
      "logsBloom": "0x00000000000010000000000000000000000000000000000000000000000000000000000000000000000000000000000000000000000000000000000000000000000000000000000000000000000000000000000000000000000000000000000000000000000000000000000000010000000000000000000000000000000000000000000000080000000000000000000000000000000000000000000000000000000000000000000000000000000000000000000000000000000000000000000000000000000020000000000000000000000000000040000000000000080000020000000008000000000000000000000000000200000000000000000000000000",
      "type": "0x2",
      "transactionHash": "0xd26d2f510352864a0700b8bf7a741dad2ed327d8905a32dee4f8f1a520c6cf3b",
      "transactionIndex": "0x0",
      "blockHash": "0x35b4720d4d6b0510ae21cc8697ee65c81db4fe3787e0d5e800895b8bb193e449",
      "blockNumber": "0x26610d5",
      "gasUsed": "0x11e03",
      "effectiveGasPrice": "0x2",
      "from": "0xc13113E56E00050327Be3AD164185103541f1903",
      "to": "0x901B462853519FF5b3d235b355a23737736538eB",
      "contractAddress": null
    }
  ],
  "libraries": [],
  "pending": [],
  "returns": {},
  "timestamp": 1746531577,
  "chain": 43113,
  "commit": "757664c"
}