{
  "transactions": [
    {
      "hash": "0xab6c7f159b6c8b333cd10403af48d34611ae3a608a2995c27683d0e11dd9ce1b",
      "transactionType": "CALL",
      "contractName": null,
      "contractAddress": "0x901B462853519FF5b3d235b355a23737736538eB",
      "function": "addAsset(address)",
      "arguments": [
        "0x390b45e024aC78A1fF0AF9322895123EB0c25DBb"
      ],
      "transaction": {
        "from": "0xc13113E56E00050327Be3AD164185103541f1903",
        "to": "0x901B462853519FF5b3d235b355a23737736538eB",
        "gas": "0x1a24a",
        "value": "0x0",
        "input": "0x298410e5000000000000000000000000390b45e024ac78a1ff0af9322895123eb0c25dbb",
        "nonce": "0x332",
        "chainId": "0xa869"
      },
      "additionalContracts": [],
      "isFixedGasLimit": false
    }
  ],
  "receipts": [
    {
      "status": "0x1",
      "cumulativeGasUsed": "0x11e03",
      "logs": [
        {
          "address": "0x901B462853519FF5b3d235b355a23737736538eB",
          "topics": [
            "0x57c9e281a77ac9ba91a9f926dda440cd98f47ee4f2d5030b5d54688cecbc9989",
            "0x000000000000000000000000390b45e024ac78a1ff0af9322895123eb0c25dbb"
          ],
          "data": "0x0000000000000000000000000000000000000000000000000000000000000012",
          "blockHash": "0xca3239f0f6f62feee823c5eba6e249a9ea7427ac8ca8b5703fae6eac87f5a2c5",
          "blockNumber": "0x2661128",
          "transactionHash": "0xab6c7f159b6c8b333cd10403af48d34611ae3a608a2995c27683d0e11dd9ce1b",
          "transactionIndex": "0x0",
          "logIndex": "0x0",
          "removed": false
        }
      ],
      "logsBloom": "0x00000000000010000000000000000000000000000000000000000000000000000000000000000000000000000000000000000000100000000000000000000000000000000000000000000000000000000000000000000000000000000000000000000000000000000000000000010000000000000000000000000000000000000000000000000000000000000000000000000000000000000000000000400000000000000000000000000000000080000000000000000000000000000000000000000000000020000000000000000000000000000040000000000000080000000000000008000000000000000000000000000000000000000000000000000000",
      "type": "0x2",
      "transactionHash": "0xab6c7f159b6c8b333cd10403af48d34611ae3a608a2995c27683d0e11dd9ce1b",
      "transactionIndex": "0x0",
      "blockHash": "0xca3239f0f6f62feee823c5eba6e249a9ea7427ac8ca8b5703fae6eac87f5a2c5",
      "blockNumber": "0x2661128",
      "gasUsed": "0x11e03",
      "effectiveGasPrice": "0x59682f01",
      "from": "0xc13113E56E00050327Be3AD164185103541f1903",
      "to": "0x901B462853519FF5b3d235b355a23737736538eB",
      "contractAddress": null
    }
  ],
  "libraries": [],
  "pending": [],
  "returns": {},
  "timestamp": 1746531747,
  "chain": 43113,
  "commit": "757664c"
}