{
  "transactions": [
    {
      "hash": "0x9b249c4dae8c2d8ed5a1df84825b5e01ecbb247a99444d46fe5a30f0def01665",
      "transactionType": "CALL",
      "contractName": null,
      "contractAddress": "0x901B462853519FF5b3d235b355a23737736538eB",
      "function": "addAsset(address)",
      "arguments": [
        "0x26FaF3BB5f1201168600ca87f987dfCdB3a9aEEe"
      ],
      "transaction": {
        "from": "0xc13113E56E00050327Be3AD164185103541f1903",
        "to": "0x901B462853519FF5b3d235b355a23737736538eB",
        "gas": "0x18afc",
        "value": "0x0",
        "input": "0x298410e500000000000000000000000026faf3bb5f1201168600ca87f987dfcdb3a9aeee",
        "nonce": "0x331",
        "chainId": "0xa869"
      },
      "additionalContracts": [],
      "isFixedGasLimit": false
    }
  ],
  "receipts": [
    {
      "status": "0x1",
      "cumulativeGasUsed": "0x11df7",
      "logs": [
        {
          "address": "0x901B462853519FF5b3d235b355a23737736538eB",
          "topics": [
            "0x57c9e281a77ac9ba91a9f926dda440cd98f47ee4f2d5030b5d54688cecbc9989",
            "0x00000000000000000000000026faf3bb5f1201168600ca87f987dfcdb3a9aeee"
          ],
          "data": "0x0000000000000000000000000000000000000000000000000000000000000012",
          "blockHash": "0xd10dbeafa39e25e91f0feec2a8ec1f423ad4a9b6b81c6277039ca3605be887eb",
          "blockNumber": "0x26610f6",
          "transactionHash": "0x9b249c4dae8c2d8ed5a1df84825b5e01ecbb247a99444d46fe5a30f0def01665",
          "transactionIndex": "0x0",
          "logIndex": "0x0",
          "removed": false
        }
      ],
      "logsBloom": "0x00000000000010000000000000000000000000000000000000000000000000000000000000000000000000000000000000000000000000000000000000000000000000000000000000000000000000000000000000000000000000000000000000000000000000000000000000010000000000000000000000000000800000000000000000000000000000000200000000000000000000000000000000000000000000000000000000000000000000000000000000000000000000000000000000000000000020000000000000000000000000000040000000000000080000000000000008000000000000000000000000010000000000000000000000000000",
      "type": "0x2",
      "transactionHash": "0x9b249c4dae8c2d8ed5a1df84825b5e01ecbb247a99444d46fe5a30f0def01665",
      "transactionIndex": "0x0",
      "blockHash": "0xd10dbeafa39e25e91f0feec2a8ec1f423ad4a9b6b81c6277039ca3605be887eb",
      "blockNumber": "0x26610f6",
      "gasUsed": "0x11df7",
      "effectiveGasPrice": "0x2",
      "from": "0xc13113E56E00050327Be3AD164185103541f1903",
      "to": "0x901B462853519FF5b3d235b355a23737736538eB",
      "contractAddress": null
    }
  ],
  "libraries": [],
  "pending": [],
  "returns": {},
  "timestamp": 1746531648,
  "chain": 43113,
  "commit": "757664c"
}