{
  "transactions": [
    {
      "hash": "0x5be039d15da01766049ca77a6c8255163e0e77c3b295df0053db9ffd5581d5df",
      "transactionType": "CREATE",
      "contractName": "MTokenCrossChainAdapter",
      "contractAddress": "0xe17a5c31379c7449a2D909d10383e3e50a610436",
      "function": null,
      "arguments": [
        "0x6ce716D6bBfa3837dEBE3fC5a01BFa6b59b8211F",
        "0xD663195854f46AC841761A13c9A3f8578da98d39",
        "0x67Ca31c56f2daB0138D700AEc08296D353c35c54",
        "0x039576AF83B0FD395eFcE1955E81ea29bD9Ed3c5"
      ],
      "transaction": {
        "from": "0xc13113E56E00050327Be3AD164185103541f1903",
        "gas": "0xbb762",
        "value": "0x0",
        "input": "0x610140806040523461014857608081610ae68038038091610020828561014d565b8339810103126101485761003381610186565b9061004060208201610186565b90610059606061005260408401610186565b9201610186565b60008054336001600160a01b0319821681178355604051969395939290916001600160a01b0316907f8be0079c531659141344cd1fd0a4f28419497f9722a3daafe3b4186f6b6457e09080a360805260a05260e05260c052600080516020610ac6833981519152610100526020810190308252600080516020610ac68339815191526040820152604081526100ef60608261014d565b5190206101205260405161092b908161019b82396080518181816102c40152610707015260a051816103e5015260c051816104ef015260e051816106c3015261010051815050610120518181816101e301526103970152f35b600080fd5b601f909101601f19168101906001600160401b0382119082101761017057604052565b634e487b7160e01b600052604160045260246000fd5b51906001600160a01b03821682036101485756fe608080604052600436101561001357600080fd5b600090813560e01c9081633b611e27146104af5750806368954beb1461028f57806368ba1ef614610260578063715018a6146102065780638afb1063146101cb5780638da5cb5b146101a457806395f36c3114610157578063affed0e014610186578063c8f9ff8d146101575763f2fde38b1461008f57600080fd5b34610154576020366003190112610154576100a861081f565b6100b061089d565b6001600160a01b031680156101005781546001600160a01b03198116821783556001600160a01b03167f8be0079c531659141344cd1fd0a4f28419497f9722a3daafe3b4186f6b6457e08380a380f35b60405162461bcd60e51b815260206004820152602660248201527f4f776e61626c653a206e6577206f776e657220697320746865207a65726f206160448201526564647265737360d01b6064820152608490fd5b80fd5b50346101545760203660031901126101545760ff60406020926004358152600284522054166040519015158152f35b50346101545780600319360112610154576020600354604051908152f35b5034610154578060031936011261015457546040516001600160a01b039091168152602090f35b503461015457806003193601126101545760206040517f00000000000000000000000000000000000000000000000000000000000000008152f35b503461015457806003193601126101545761021f61089d565b80546001600160a01b03198116825581906001600160a01b03167f8be0079c531659141344cd1fd0a4f28419497f9722a3daafe3b4186f6b6457e08280a380f35b50346101545760203660031901126101545760ff60406020926004358152600184522054166040519015158152f35b506080366003190112610154576102a461081f565b6102ac610807565b906044356001600160a01b038116908190036104ab577f00000000000000000000000000000000000000000000000000000000000000006001600160a01b0316330361049c5760035460001981146104885760010190816003556040519261031384610849565b60018060a01b0316928381526040602082019160643583520191825260405193602085015251604084015260018060a01b03905116606083015260808201526080815261036160a08261087b565b604051809263c9a423e560e01b825260606004830152825192836064840152855b848110610470575050608482840181018690527f0000000000000000000000000000000000000000000000000000000000000000602484015263ffffffff919091166044830152602092601f01601f191682018290030181346001600160a01b037f0000000000000000000000000000000000000000000000000000000000000000165af190811561046557829161042f575b508152600260205260408120805460ff1916600117905580f35b90506020813d60201161045d575b8161044a6020938361087b565b81010312610459575138610415565b5080fd5b3d915061043d565b6040513d84823e3d90fd5b60208282018101516084888401015286945001610382565b634e487b7160e01b85526011600452602485fd5b6326b68cd960e21b8452600484fd5b8380fd5b905034610459576040366003190112610459576004359067ffffffffffffffff82116107c15781360360a06003198201126104ab576104ec610807565b917f00000000000000000000000000000000000000000000000000000000000000006001600160a01b031633036107f8576020818101908152906001600160a01b0361053a60048701610835565b1660408201526024850135606082015260448501356080820152606485013592602219018312156107f4578483016024600482013591019067ffffffffffffffff81116107f05780360382136107f0578281610100926105cd9460a0808501528160e08501528484013789838284010152608489013560c0830152601f801991011681010301601f19810183528261087b565b51902092838552600160205260ff6040862054166107dc5790849291848452600160205260408420600160ff19825416179055604051947fb05f56c0d676e09dccc4e69e9d61ba5df2babaf9ab768dfe8638c67112f1f4598580a20190600482013567ffffffffffffffff81116104ab57602483019080360382136107d8576060908401849003126104ab5761066b9061066686610849565b610835565b8085526040610687606460208801956044810135875201610835565b95019485526040516353ddf82160e01b815263ffffffff9290921660048301526001600160a01b039081166024830152602090829060449082907f0000000000000000000000000000000000000000000000000000000000000000165afa9081156107cd578391610787575b5092519051926001600160a01b03918216917f000000000000000000000000000000000000000000000000000000000000000016803b156104ab578392836064926040519788958694630256d18960e31b8652600486015260018060a01b0316602485015260448401525af1801561077a5761076c5780f35b6107759161087b565b388180f35b50604051903d90823e3d90fd5b90506020813d6020116107c5575b816107a26020938361087b565b810103126107c157516001600160a01b03811681036107c157386106f3565b8280fd5b3d9150610795565b6040513d85823e3d90fd5b8480fd5b631597a64560e11b85526004849052602485fd5b8780fd5b8580fd5b635666937960e11b8552600485fd5b6024359063ffffffff8216820361081a57565b600080fd5b600435906001600160a01b038216820361081a57565b35906001600160a01b038216820361081a57565b6060810190811067ffffffffffffffff82111761086557604052565b634e487b7160e01b600052604160045260246000fd5b90601f8019910116810190811067ffffffffffffffff82111761086557604052565b6000546001600160a01b031633036108b157565b606460405162461bcd60e51b815260206004820152602060248201527f4f776e61626c653a2063616c6c6572206973206e6f7420746865206f776e65726044820152fdfea2646970667358221220c221ba51cdbbf8823182c45bf99a13884506cbbae8800a49bbe84a9484f2228364736f6c634300081a0033100521740a2ee05abf5a9c54a30c050f2a5dab2d6a2116f81704d99034a4bc2f0000000000000000000000006ce716d6bbfa3837debe3fc5a01bfa6b59b8211f000000000000000000000000d663195854f46ac841761a13c9a3f8578da98d3900000000000000000000000067ca31c56f2dab0138d700aec08296d353c35c54000000000000000000000000039576af83b0fd395efce1955e81ea29bd9ed3c5",
        "nonce": "0x1166",
        "chainId": "0x41786f6e"
      },
      "additionalContracts": [],
      "isFixedGasLimit": false
    },
    {
      "hash": "0x93d7d6b428d3deeb0fca214ca23025c878563996a6b084a1808bdda6fadb3ca8",
      "transactionType": "CALL",
      "contractName": null,
      "contractAddress": "0x6ce716D6bBfa3837dEBE3fC5a01BFa6b59b8211F",
      "function": "addAuthorizedMinter(address)",
      "arguments": [
        "0xe17a5c31379c7449a2D909d10383e3e50a610436"
      ],
      "transaction": {
        "from": "0xc13113E56E00050327Be3AD164185103541f1903",
        "to": "0x6ce716D6bBfa3837dEBE3fC5a01BFa6b59b8211F",
        "gas": "0x10038",
        "value": "0x0",
        "input": "0x5f710f5c000000000000000000000000e17a5c31379c7449a2d909d10383e3e50a610436",
        "nonce": "0x1167",
        "chainId": "0x41786f6e"
      },
      "additionalContracts": [],
      "isFixedGasLimit": false
    },
    {
      "hash": "0xe3dd0d84427d6010abaac6f49f0381bb911ec7f7907984f3c93eaf899555f38b",
      "transactionType": "CALL",
      "contractName": null,
      "contractAddress": "0x6ce716D6bBfa3837dEBE3fC5a01BFa6b59b8211F",
      "function": "setWithdrawalHandler(address)",
      "arguments": [
        "0xe17a5c31379c7449a2D909d10383e3e50a610436"
      ],
      "transaction": {
        "from": "0xc13113E56E00050327Be3AD164185103541f1903",
        "to": "0x6ce716D6bBfa3837dEBE3fC5a01BFa6b59b8211F",
        "gas": "0xf92b",
        "value": "0x0",
        "input": "0x3d530c09000000000000000000000000e17a5c31379c7449a2d909d10383e3e50a610436",
        "nonce": "0x1168",
        "chainId": "0x41786f6e"
      },
      "additionalContracts": [],
      "isFixedGasLimit": false
    },
    {
      "hash": "0x94d411d474e54eae0e2e5bf4dc12cb4bade05193c08a0e09236d18e5a829e953",
      "transactionType": "CALL",
      "contractName": null,
      "contractAddress": "0xD663195854f46AC841761A13c9A3f8578da98d39",
      "function": "addProducer(address)",
      "arguments": [
        "0xe17a5c31379c7449a2D909d10383e3e50a610436"
      ],
      "transaction": {
        "from": "0xc13113E56E00050327Be3AD164185103541f1903",
        "to": "0xD663195854f46AC841761A13c9A3f8578da98d39",
        "gas": "0xf98f",
        "value": "0x0",
        "input": "0xddf80166000000000000000000000000e17a5c31379c7449a2d909d10383e3e50a610436",
        "nonce": "0x1169",
        "chainId": "0x41786f6e"
      },
      "additionalContracts": [],
      "isFixedGasLimit": false
    },
    {
      "hash": "0x057083fc40babc7eeba0d19b171e0e90200d410d230ad367a503539967402d41",
      "transactionType": "CALL",
      "contractName": null,
      "contractAddress": "0xD663195854f46AC841761A13c9A3f8578da98d39",
      "function": "registerEventOnProducer(address,bytes32)",
      "arguments": [
        "0xe17a5c31379c7449a2D909d10383e3e50a610436",
        "0xdc0189c71d092eedce53bcde4b7dfe222705fdf91f4b12a80cf9bb02fc906a3a"
      ],
      "transaction": {
        "from": "0xc13113E56E00050327Be3AD164185103541f1903",
        "to": "0xD663195854f46AC841761A13c9A3f8578da98d39",
        "gas": "0x212fb",
        "value": "0x0",
        "input": "0xef0167b7000000000000000000000000e17a5c31379c7449a2d909d10383e3e50a610436dc0189c71d092eedce53bcde4b7dfe222705fdf91f4b12a80cf9bb02fc906a3a",
        "nonce": "0x116a",
        "chainId": "0x41786f6e"
      },
      "additionalContracts": [],
      "isFixedGasLimit": false
    }
  ],
  "receipts": [
    {
      "status": "0x1",
      "cumulativeGasUsed": "0x90338",
      "logs": [
        {
          "address": "0xe17a5c31379c7449a2D909d10383e3e50a610436",
          "topics": [
            "0x8be0079c531659141344cd1fd0a4f28419497f9722a3daafe3b4186f6b6457e0",
            "0x0000000000000000000000000000000000000000000000000000000000000000",
            "0x000000000000000000000000c13113e56e00050327be3ad164185103541f1903"
          ],
          "data": "0x",
          "blockHash": "0x346306776d597bab46979b4f6028ed624ddf778b85107d57210fd623b672ead9",
          "blockNumber": "0x6e824b",
          "transactionHash": "0x5be039d15da01766049ca77a6c8255163e0e77c3b295df0053db9ffd5581d5df",
          "transactionIndex": "0x0",
          "logIndex": "0x0",
          "removed": false
        }
      ],
      "logsBloom": "0x00000000000000000000000000000000000000000000000000800000000000000000000000000000000000000000000000000000000000000000000000000000000000000000000000000000000000000001000000000000000000000000000000000000020200000000000000000800000000000000000000000000000020400000000000000000000000000000000000000000000000000000000000000000000000100000000000000000000000000000000000000000000000008000100002000000000000000000000000000000000000000000000000000000000020000000000000000000000000000000000000000000000000000000000000000000",
      "type": "0x2",
      "transactionHash": "0x5be039d15da01766049ca77a6c8255163e0e77c3b295df0053db9ffd5581d5df",
      "transactionIndex": "0x0",
      "blockHash": "0x346306776d597bab46979b4f6028ed624ddf778b85107d57210fd623b672ead9",
      "blockNumber": "0x6e824b",
      "gasUsed": "0x90338",
      "effectiveGasPrice": "0x90338",
      "from": "0xc13113E56E00050327Be3AD164185103541f1903",
      "to": null,
      "contractAddress": "0xe17a5c31379c7449a2D909d10383e3e50a610436",
      "root": "0x0b5d9c39b1a9fd7657cb71e48379d246cff8d5d5c533f718764786a44d3c6f92"
    },
    {
      "status": "0x1",
      "cumulativeGasUsed": "0xb980",
      "logs": [
        {
          "address": "0x6ce716D6bBfa3837dEBE3fC5a01BFa6b59b8211F",
          "topics": [
            "0xe6be4d6cc04eb0219337b22db08c688969a9ec8e34d9a0a2ba38a114e050f1ae",
            "0x000000000000000000000000e17a5c31379c7449a2d909d10383e3e50a610436"
          ],
          "data": "0x",
          "blockHash": "0x346306776d597bab46979b4f6028ed624ddf778b85107d57210fd623b672ead9",
          "blockNumber": "0x6e824b",
          "transactionHash": "0x93d7d6b428d3deeb0fca214ca23025c878563996a6b084a1808bdda6fadb3ca8",
          "transactionIndex": "0x1",
          "logIndex": "0x0",
          "removed": false
        }
      ],
      "logsBloom": "0x00000000000000000000000000000000000000000000000000000000000000000000000000000000000000000200080000000000000000000000000000000000000000000000000800000000000000000080000000000000000000000000000000000000000000000000000000000000000000000000000000000020000000000020002000000000000000000000040000000000000000000000000000000000000000000000000000000000000000000000000000000000000000000000000000000000000400000000000000000000000000000000000000000000000000000000000000000000000000000000000000000000000000000000000000000000",
      "type": "0x2",
      "transactionHash": "0x93d7d6b428d3deeb0fca214ca23025c878563996a6b084a1808bdda6fadb3ca8",
      "transactionIndex": "0x1",
      "blockHash": "0x346306776d597bab46979b4f6028ed624ddf778b85107d57210fd623b672ead9",
      "blockNumber": "0x6e824b",
      "gasUsed": "0xb980",
      "effectiveGasPrice": "0xb980",
      "from": "0xc13113E56E00050327Be3AD164185103541f1903",
      "to": "0x6ce716D6bBfa3837dEBE3fC5a01BFa6b59b8211F",
      "contractAddress": null,
      "root": "0x0b5d9c39b1a9fd7657cb71e48379d246cff8d5d5c533f718764786a44d3c6f92"
    },
    {
      "status": "0x1",
      "cumulativeGasUsed": "0xb465",
      "logs": [],
      "logsBloom": "0x00000000000000000000000000000000000000000000000000000000000000000000000000000000000000000000000000000000000000000000000000000000000000000000000000000000000000000000000000000000000000000000000000000000000000000000000000000000000000000000000000000000000000000000000000000000000000000000000000000000000000000000000000000000000000000000000000000000000000000000000000000000000000000000000000000000000000000000000000000000000000000000000000000000000000000000000000000000000000000000000000000000000000000000000000000000",
      "type": "0x2",
      "transactionHash": "0xe3dd0d84427d6010abaac6f49f0381bb911ec7f7907984f3c93eaf899555f38b",
      "transactionIndex": "0x2",
      "blockHash": "0x346306776d597bab46979b4f6028ed624ddf778b85107d57210fd623b672ead9",
      "blockNumber": "0x6e824b",
      "gasUsed": "0xb465",
      "effectiveGasPrice": "0xb465",
      "from": "0xc13113E56E00050327Be3AD164185103541f1903",
      "to": "0x6ce716D6bBfa3837dEBE3fC5a01BFa6b59b8211F",
      "contractAddress": null,
      "root": "0x0b5d9c39b1a9fd7657cb71e48379d246cff8d5d5c533f718764786a44d3c6f92"
    },
    {
      "status": "0x1",
      "cumulativeGasUsed": "0xb4ae",
      "logs": [],
      "logsBloom": "0x00000000000000000000000000000000000000000000000000000000000000000000000000000000000000000000000000000000000000000000000000000000000000000000000000000000000000000000000000000000000000000000000000000000000000000000000000000000000000000000000000000000000000000000000000000000000000000000000000000000000000000000000000000000000000000000000000000000000000000000000000000000000000000000000000000000000000000000000000000000000000000000000000000000000000000000000000000000000000000000000000000000000000000000000000000000",
      "type": "0x2",
      "transactionHash": "0x94d411d474e54eae0e2e5bf4dc12cb4bade05193c08a0e09236d18e5a829e953",
      "transactionIndex": "0x3",
      "blockHash": "0x346306776d597bab46979b4f6028ed624ddf778b85107d57210fd623b672ead9",
      "blockNumber": "0x6e824b",
      "gasUsed": "0xb4ae",
      "effectiveGasPrice": "0xb4ae",
      "from": "0xc13113E56E00050327Be3AD164185103541f1903",
      "to": "0xD663195854f46AC841761A13c9A3f8578da98d39",
      "contractAddress": null,
      "root": "0x0b5d9c39b1a9fd7657cb71e48379d246cff8d5d5c533f718764786a44d3c6f92"
    },
    {
      "status": "0x1",
      "cumulativeGasUsed": "0x16b11",
      "logs": [
        {
          "address": "0xD663195854f46AC841761A13c9A3f8578da98d39",
          "topics": [
            "0xdadc4a37a299d8b82aab8dc753ed7c0b5c97d537cc4979ae84fb3407a24e7196",
            "0x000000000000000000000000e17a5c31379c7449a2d909d10383e3e50a610436",
            "0xdc0189c71d092eedce53bcde4b7dfe222705fdf91f4b12a80cf9bb02fc906a3a"
          ],
          "data": "0x",
          "blockHash": "0x346306776d597bab46979b4f6028ed624ddf778b85107d57210fd623b672ead9",
          "blockNumber": "0x6e824b",
          "transactionHash": "0x057083fc40babc7eeba0d19b171e0e90200d410d230ad367a503539967402d41",
          "transactionIndex": "0x4",
          "logIndex": "0x0",
          "removed": false
        }
      ],
      "logsBloom": "0x00000000000200000000000000000008000000000000000000000000000000000000000000000000000000000000000000800000000000000000000000000000000000000000000800000000000000000080000000000000000000000000000040000000000000000000000000000000000000000000000000000000000400000020000000000000000000000000040000000000000000000000000000000000000000000000000000000000000000000000000000000000000000000000000000000100000000004000000000000000000000000000000000000000000000000000000000000000000000000004000000000000000000000000000000000000",
      "type": "0x2",
      "transactionHash": "0x057083fc40babc7eeba0d19b171e0e90200d410d230ad367a503539967402d41",
      "transactionIndex": "0x4",
      "blockHash": "0x346306776d597bab46979b4f6028ed624ddf778b85107d57210fd623b672ead9",
      "blockNumber": "0x6e824b",
      "gasUsed": "0x16b11",
      "effectiveGasPrice": "0x16b11",
      "from": "0xc13113E56E00050327Be3AD164185103541f1903",
      "to": "0xD663195854f46AC841761A13c9A3f8578da98d39",
      "contractAddress": null,
      "root": "0x0b5d9c39b1a9fd7657cb71e48379d246cff8d5d5c533f718764786a44d3c6f92"
    }
  ],
  "libraries": [],
  "pending": [],
  "returns": {},
  "timestamp": 1746196059,
  "chain": 1098411886,
  "commit": "041237c"
}