{
  "transactions": [
    {
      "hash": "0xba2470c177f93f86e96b660922657be528b5df8efa1c5784db3bac0da2d2d58f",
      "transactionType": "CALL",
      "contractName": null,
      "contractAddress": "0xa2b8d4de320ccab559c2b3032085dd4593217ae3",
      "function": "setGasAmount(uint32,uint32,uint256)",
      "arguments": [
        "1098411886",
        "421614",
        "250000"
      ],
      "transaction": {
        "from": "0x230e13243869a3a7eb341e4bdb9120d5cd547fa1",
        "to": "0xa2b8d4de320ccab559c2b3032085dd4593217ae3",
        "gas": "0xf98f",
        "value": "0x0",
        "input": "0x36a86c170000000000000000000000000000000000000000000000000000000041786f6e0000000000000000000000000000000000000000000000000000000000066eee000000000000000000000000000000000000000000000000000000000003d090",
        "nonce": "0x23",
        "chainId": "0x41786f6e"
      },
      "additionalContracts": [],
      "isFixedGasLimit": false
    }
  ],
  "receipts": [
    {
      "status": "0x1",
      "cumulativeGasUsed": "0xb4ae",
      "logs": [],
      "logsBloom": "0x00000000000000000000000000000000000000000000000000000000000000000000000000000000000000000000000000000000000000000000000000000000000000000000000000000000000000000000000000000000000000000000000000000000000000000000000000000000000000000000000000000000000000000000000000000000000000000000000000000000000000000000000000000000000000000000000000000000000000000000000000000000000000000000000000000000000000000000000000000000000000000000000000000000000000000000000000000000000000000000000000000000000000000000000000000000",
      "type": "0x2",
      "transactionHash": "0xba2470c177f93f86e96b660922657be528b5df8efa1c5784db3bac0da2d2d58f",
      "transactionIndex": "0x0",
      "blockHash": "0xac4667a8beeb1784aa6fe3c335eb05e3276d02e61f52f80821bc5e3ccb89819d",
      "blockNumber": "0x84488c",
      "gasUsed": "0xb4ae",
      "effectiveGasPrice": "0xb4ae",
      "from": "0x230e13243869a3a7eb341e4bdb9120d5cd547fa1",
      "to": "0xa2b8d4de320ccab559c2b3032085dd4593217ae3",
      "contractAddress": null,
      "root": "0x0f7f7315bda082ae5c887cc3f5b823bbc023ae7b433b365f67d04134e07137d7"
    }
  ],
  "libraries": [],
  "pending": [],
  "returns": {},
  "timestamp": 1750879028,
  "chain": 1098411886,
  "commit": "126072b"
}