{
  "transactions": [
    {
      "hash": "0x2867276edf4fe9f90c16c810f4f8b058585c4989aeca56806a2cb36553827e9c",
      "transactionType": "CALL",
      "contractName": null,
      "contractAddress": "0xa2b8d4de320ccab559c2b3032085dd4593217ae3",
      "function": "setGasAmount(uint32,uint32,uint256)",
      "arguments": [
        "1098411886",
        "11155111",
        "250000"
      ],
      "transaction": {
        "from": "0x230e13243869a3a7eb341e4bdb9120d5cd547fa1",
        "to": "0xa2b8d4de320ccab559c2b3032085dd4593217ae3",
        "gas": "0xf98f",
        "value": "0x0",
        "input": "0x36a86c170000000000000000000000000000000000000000000000000000000041786f6e0000000000000000000000000000000000000000000000000000000000aa36a7000000000000000000000000000000000000000000000000000000000003d090",
        "nonce": "0x22",
        "chainId": "0x41786f6e"
      },
      "additionalContracts": [],
      "isFixedGasLimit": false
    }
  ],
  "receipts": [
    {
      "status": "0x1",
      "cumulativeGasUsed": "0xb4ae",
      "logs": [],
      "logsBloom": "0x00000000000000000000000000000000000000000000000000000000000000000000000000000000000000000000000000000000000000000000000000000000000000000000000000000000000000000000000000000000000000000000000000000000000000000000000000000000000000000000000000000000000000000000000000000000000000000000000000000000000000000000000000000000000000000000000000000000000000000000000000000000000000000000000000000000000000000000000000000000000000000000000000000000000000000000000000000000000000000000000000000000000000000000000000000000",
      "type": "0x2",
      "transactionHash": "0x2867276edf4fe9f90c16c810f4f8b058585c4989aeca56806a2cb36553827e9c",
      "transactionIndex": "0x0",
      "blockHash": "0x7e5c3b6d89699d51deb8946416de28c67e4a8ee2f9313e8211938c9ce9ff203a",
      "blockNumber": "0x84484e",
      "gasUsed": "0xb4ae",
      "effectiveGasPrice": "0xb4ae",
      "from": "0x230e13243869a3a7eb341e4bdb9120d5cd547fa1",
      "to": "0xa2b8d4de320ccab559c2b3032085dd4593217ae3",
      "contractAddress": null,
      "root": "0x9dc37f37e8c4145a1788dd921b2f58d570197800ab2fae3a5c1eee512d56427f"
    }
  ],
  "libraries": [],
  "pending": [],
  "returns": {},
  "timestamp": 1750878823,
  "chain": 1098411886,
  "commit": "126072b"
}