{
  "transactions": [
    {
      "hash": "0xbbc7b1482f79c21705acde4905df43c60f707d476fa34df27353f469f5b7c884",
      "transactionType": "CALL",
      "contractName": null,
      "contractAddress": "0xfe2bfca82a01631cd8652d50ff8dc3d3f73945b7",
      "function": "registerEventType(address,bytes32)",
      "arguments": [
        "0x32D325C50D5f626C9fa34c9E5e09B1ADEcEB2706",
        "0x078e084e864341bc799dfc4a2d889407d891f4a6f04a6cec7ce74786317194fc"
      ],
      "transaction": {
        "from": "0x230e13243869a3a7eb341e4bdb9120d5cd547fa1",
        "to": "0xfe2bfca82a01631cd8652d50ff8dc3d3f73945b7",
        "gas": "0xf270",
        "value": "0x0",
        "input": "0xe57f6de500000000000000000000000032d325c50d5f626c9fa34c9e5e09b1adeceb2706078e084e864341bc799dfc4a2d889407d891f4a6f04a6cec7ce74786317194fc",
        "nonce": "0x1e",
        "chainId": "0x41786f6e"
      },
      "additionalContracts": [],
      "isFixedGasLimit": false
    }
  ],
  "receipts": [
    {
      "status": "0x1",
      "cumulativeGasUsed": "0xaf86",
      "logs": [],
      "logsBloom": "0x00000000000000000000000000000000000000000000000000000000000000000000000000000000000000000000000000000000000000000000000000000000000000000000000000000000000000000000000000000000000000000000000000000000000000000000000000000000000000000000000000000000000000000000000000000000000000000000000000000000000000000000000000000000000000000000000000000000000000000000000000000000000000000000000000000000000000000000000000000000000000000000000000000000000000000000000000000000000000000000000000000000000000000000000000000000",
      "type": "0x2",
      "transactionHash": "0xbbc7b1482f79c21705acde4905df43c60f707d476fa34df27353f469f5b7c884",
      "transactionIndex": "0x0",
      "blockHash": "0x54cd184d8af2b4462f6e8542f78d8e14264d1df2439f672c765b0dfbcaa18a3f",
      "blockNumber": "0x83dfc5",
      "gasUsed": "0xaf86",
      "effectiveGasPrice": "0xaf86",
      "from": "0x230e13243869a3a7eb341e4bdb9120d5cd547fa1",
      "to": "0xfe2bfca82a01631cd8652d50ff8dc3d3f73945b7",
      "contractAddress": null,
      "root": "0x85661ad4de4cae00f9c6d7b6e9cd26e54b42e813974ba2613745236cbd617fbd"
    }
  ],
  "libraries": [],
  "pending": [],
  "returns": {},
  "timestamp": 1750791246,
  "chain": 1098411886,
  "commit": "80c8da4"
}