{
  "transactions": [
    {
      "hash": "0xb316740f1dae950b76ca2d0aa4f8b0204de051b83f7ef0911b7f76cb1140ec8e",
      "transactionType": "CALL",
      "contractName": null,
      "contractAddress": "0x444d466B39bB0c74Cc78552b99Ba41A25231Da1d",
      "function": "addRemoteProver(address)",
      "arguments": [
        "0xFc80553cfa5034c82fd199623A730dC7b5210b33"
      ],
      "transaction": {
        "from": "0xc13113E56E00050327Be3AD164185103541f1903",
        "to": "0x444d466B39bB0c74Cc78552b99Ba41A25231Da1d",
        "gas": "0xf8e8",
        "value": "0x0",
        "input": "0xc6cee29d000000000000000000000000fc80553cfa5034c82fd199623a730dc7b5210b33",
        "nonce": "0x1186",
        "chainId": "0x41786f6e"
      },
      "additionalContracts": [],
      "isFixedGasLimit": false
    }
  ],
  "receipts": [
    {
      "status": "0x1",
      "cumulativeGasUsed": "0xb435",
      "logs": [],
      "logsBloom": "0x00000000000000000000000000000000000000000000000000000000000000000000000000000000000000000000000000000000000000000000000000000000000000000000000000000000000000000000000000000000000000000000000000000000000000000000000000000000000000000000000000000000000000000000000000000000000000000000000000000000000000000000000000000000000000000000000000000000000000000000000000000000000000000000000000000000000000000000000000000000000000000000000000000000000000000000000000000000000000000000000000000000000000000000000000000000",
      "type": "0x2",
      "transactionHash": "0xb316740f1dae950b76ca2d0aa4f8b0204de051b83f7ef0911b7f76cb1140ec8e",
      "transactionIndex": "0x0",
      "blockHash": "0x2677cd030b97b95b5c445c3f62238165b3e4a22a13ce7c5d5c8af4d3e6359290",
      "blockNumber": "0x6e8706",
      "gasUsed": "0xb435",
      "effectiveGasPrice": "0xb435",
      "from": "0xc13113E56E00050327Be3AD164185103541f1903",
      "to": "0x444d466B39bB0c74Cc78552b99Ba41A25231Da1d",
      "contractAddress": null,
      "root": "0xc16f04139ae3758b4955d13865f5500c305df84d1ff42063efebf5c46607f517"
    }
  ],
  "libraries": [],
  "pending": [],
  "returns": {},
  "timestamp": 1746200032,
  "chain": 1098411886,
  "commit": "041237c"
}