{
  "transactions": [
    {
      "hash": "0x6b6198d813ce837be634a47c27ffabdfabcb35b7257adc24a94597308dc33605",
      "transactionType": "CALL",
      "contractName": null,
      "contractAddress": "0x53e58239632c784bf4E7f2173cAc84C3aa7a9Bd1",
      "function": "setGasAmount(uint32,uint32,uint256)",
      "arguments": [
        "11155111",
        "1098411886",
        "500000"
      ],
      "transaction": {
        "from": "0xc13113E56E00050327Be3AD164185103541f1903",
        "to": "0x53e58239632c784bf4E7f2173cAc84C3aa7a9Bd1",
        "gas": "0xf98f",
        "value": "0x0",
        "input": "0x36a86c170000000000000000000000000000000000000000000000000000000000aa36a70000000000000000000000000000000000000000000000000000000041786f6e000000000000000000000000000000000000000000000000000000000007a120",
        "nonce": "0xf4",
        "chainId": "0xaa36a7"
      },
      "additionalContracts": [],
      "isFixedGasLimit": false
    }
  ],
  "receipts": [
    {
      "status": "0x1",
      "cumulativeGasUsed": "0xf1e242",
      "logs": [],
      "logsBloom": "0x00000000000000000000000000000000000000000000000000000000000000000000000000000000000000000000000000000000000000000000000000000000000000000000000000000000000000000000000000000000000000000000000000000000000000000000000000000000000000000000000000000000000000000000000000000000000000000000000000000000000000000000000000000000000000000000000000000000000000000000000000000000000000000000000000000000000000000000000000000000000000000000000000000000000000000000000000000000000000000000000000000000000000000000000000000000",
      "type": "0x2",
      "transactionHash": "0x6b6198d813ce837be634a47c27ffabdfabcb35b7257adc24a94597308dc33605",
      "transactionIndex": "0x91",
      "blockHash": "0xb3ac5a8d7c5d19fa9b77a1335226d648e925b490c010ee5f68b60faafcbecc47",
      "blockNumber": "0x7e4060",
      "gasUsed": "0xb4ae",
      "effectiveGasPrice": "0xa031528b8",
      "from": "0xc13113E56E00050327Be3AD164185103541f1903",
      "to": "0x53e58239632c784bf4E7f2173cAc84C3aa7a9Bd1",
      "contractAddress": null
    }
  ],
  "libraries": [],
  "pending": [],
  "returns": {},
  "timestamp": 1746607478,
  "chain": 11155111,
  "commit": "f1418e3"
}