{
  "transactions": [
    {
      "hash": "0x47d81677640a03409366151e69311a6472802085a6802a315071395e5a2993c1",
      "transactionType": "CALL",
      "contractName": null,
      "contractAddress": "0x2ba13efd182c7930122d4b3d26a28e9371157fee",
      "function": "addAsset(address)",
      "arguments": [
        "0x7169D38820dfd117C3FA1f22a697dBA58d90BA06"
      ],
      "transaction": {
        "from": "0x230e13243869a3a7eb341e4bdb9120d5cd547fa1",
        "to": "0x2ba13efd182c7930122d4b3d26a28e9371157fee",
        "gas": "0x19629",
        "value": "0x0",
        "input": "0x298410e50000000000000000000000007169d38820dfd117c3fa1f22a697dba58d90ba06",
        "nonce": "0xe",
        "chainId": "0xaa36a7"
      },
      "additionalContracts": [],
      "isFixedGasLimit": false
    }
  ],
  "receipts": [
    {
      "status": "0x1",
      "cumulativeGasUsed": "0x14b61e1",
      "logs": [
        {
          "address": "0x2ba13efd182c7930122d4b3d26a28e9371157fee",
          "topics": [
            "0x57c9e281a77ac9ba91a9f926dda440cd98f47ee4f2d5030b5d54688cecbc9989",
            "0x0000000000000000000000007169d38820dfd117c3fa1f22a697dba58d90ba06"
          ],
          "data": "0x0000000000000000000000000000000000000000000000000000000000000006",
          "blockHash": "0x42889510e20c7b7b8968f0f4f07b173c84a45506a0341f5f0184536452e1d541",
          "blockNumber": "0x83898c",
          "transactionHash": "0x47d81677640a03409366151e69311a6472802085a6802a315071395e5a2993c1",
          "transactionIndex": "0x99",
          "logIndex": "0xea",
          "removed": false
        }
      ],
      "logsBloom": "0x00200000000010000000000000000000000000000000000000000000000000000000000000000000001000000000000000000000000000000000000000000000010000000000000000000000000000000000000000000000000000000000000000000000000000800000000000000000000000000000000000010000000000000000000000000000000000000000000000000000000000000000000080000000000000000000000000000000000000000000000000000000000000000000000000000000000020000000000000000000000000000040000000000000000000000000000000000000000000000000000000000000000000000000000000000000",
      "type": "0x2",
      "transactionHash": "0x47d81677640a03409366151e69311a6472802085a6802a315071395e5a2993c1",
      "transactionIndex": "0x99",
      "blockHash": "0x42889510e20c7b7b8968f0f4f07b173c84a45506a0341f5f0184536452e1d541",
      "blockNumber": "0x83898c",
      "gasUsed": "0x1260f",
      "effectiveGasPrice": "0x1d37bc58",
      "from": "0x230e13243869a3a7eb341e4bdb9120d5cd547fa1",
      "to": "0x2ba13efd182c7930122d4b3d26a28e9371157fee",
      "contractAddress": null
    }
  ],
  "libraries": [],
  "pending": [],
  "returns": {},
  "timestamp": 1750788781,
  "chain": 11155111,
  "commit": "80c8da4"
}