{
  "transactions": [
    {
      "hash": "0xe3c49a52e7139bfdc305f8e66e8e40b33d1ccd80581d3635cff4d5424d69213e",
      "transactionType": "CALL",
      "contractName": null,
      "contractAddress": "0x2ba13efd182c7930122d4b3d26a28e9371157fee",
      "function": "addAsset(address)",
      "arguments": [
        "0x1c7D4B196Cb0C7B01d743Fbc6116a902379C7238"
      ],
      "transaction": {
        "from": "0x230e13243869a3a7eb341e4bdb9120d5cd547fa1",
        "to": "0x2ba13efd182c7930122d4b3d26a28e9371157fee",
        "gas": "0x1d657",
        "value": "0x0",
        "input": "0x298410e50000000000000000000000001c7d4b196cb0c7b01d743fbc6116a902379c7238",
        "nonce": "0xd",
        "chainId": "0xaa36a7"
      },
      "additionalContracts": [],
      "isFixedGasLimit": false
    }
  ],
  "receipts": [
    {
      "status": "0x1",
      "cumulativeGasUsed": "0x53fdf7",
      "logs": [
        {
          "address": "0x2ba13efd182c7930122d4b3d26a28e9371157fee",
          "topics": [
            "0x57c9e281a77ac9ba91a9f926dda440cd98f47ee4f2d5030b5d54688cecbc9989",
            "0x0000000000000000000000001c7d4b196cb0c7b01d743fbc6116a902379c7238"
          ],
          "data": "0x0000000000000000000000000000000000000000000000000000000000000006",
          "blockHash": "0xd6a9bed1ffb4e17d45290d64c7f83f425dfffa5f74cbb20782fef7665256b1bd",
          "blockNumber": "0x838983",
          "transactionHash": "0xe3c49a52e7139bfdc305f8e66e8e40b33d1ccd80581d3635cff4d5424d69213e",
          "transactionIndex": "0x32",
          "logIndex": "0x40",
          "removed": false
        }
      ],
      "logsBloom": "0x00000000000010000000000000000000000000000000000000000000000000000000000000000000001000000000000000000000000004000000000000000000100000000000000000000000000000000000000000000000000000000000000000000000000000800000000000000000000000000000000000010000000000000000000000000000000000000000000000000000000000000000000000000000000000000000000000000000000000000000008000000000000000000000000000000000000020000000000000000000000000000040000000000000000000000000000000000000000000000000000000000000000000000000000000000000",
      "type": "0x2",
      "transactionHash": "0xe3c49a52e7139bfdc305f8e66e8e40b33d1ccd80581d3635cff4d5424d69213e",
      "transactionIndex": "0x32",
      "blockHash": "0xd6a9bed1ffb4e17d45290d64c7f83f425dfffa5f74cbb20782fef7665256b1bd",
      "blockNumber": "0x838983",
      "gasUsed": "0x1419a",
      "effectiveGasPrice": "0x21ce67f3",
      "from": "0x230e13243869a3a7eb341e4bdb9120d5cd547fa1",
      "to": "0x2ba13efd182c7930122d4b3d26a28e9371157fee",
      "contractAddress": null
    }
  ],
  "libraries": [],
  "pending": [],
  "returns": {},
  "timestamp": 1750788672,
  "chain": 11155111,
  "commit": "80c8da4"
}