{
  "transactions": [
    {
      "hash": "0x339432ad31397a3645780871c006d8b94f8e17befd5d01b08ed0f4a0195e5a40",
      "transactionType": "CALL",
      "contractName": null,
      "contractAddress": "0x93807fCe9ef150a0ea820F704577ba859Ecf25a6",
      "function": "addAsset(address)",
      "arguments": [
        "0xFe3C69De114047C6b43a9b40D72001f06D4f3782"
      ],
      "transaction": {
        "from": "0xc13113E56E00050327Be3AD164185103541f1903",
        "to": "0x93807fCe9ef150a0ea820F704577ba859Ecf25a6",
        "gas": "0x23bdf",
        "value": "0x0",
        "input": "0x298410e5000000000000000000000000fe3c69de114047c6b43a9b40d72001f06d4f3782",
        "nonce": "0xf2",
        "chainId": "0x66eee"
      },
      "additionalContracts": [],
      "isFixedGasLimit": false
    }
  ],
  "receipts": [
    {
      "status": "0x1",
      "cumulativeGasUsed": "0xb6ae4",
      "logs": [
        {
          "address": "0x93807fCe9ef150a0ea820F704577ba859Ecf25a6",
          "topics": [
            "0x57c9e281a77ac9ba91a9f926dda440cd98f47ee4f2d5030b5d54688cecbc9989",
            "0x000000000000000000000000fe3c69de114047c6b43a9b40d72001f06d4f3782"
          ],
          "data": "0x0000000000000000000000000000000000000000000000000000000000000012",
          "blockHash": "0x987d3995c5f7008538259cfd969c46e1c86247e3a0f29f3d9f28964813f563ed",
          "blockNumber": "0x8f249aa",
          "transactionHash": "0x339432ad31397a3645780871c006d8b94f8e17befd5d01b08ed0f4a0195e5a40",
          "transactionIndex": "0x3",
          "logIndex": "0x3",
          "removed": false
        }
      ],
      "logsBloom": "0x00000000000010000000000000000000000000000000000000000000000000000000000000000000000000004000000000000000000000000040000000000000000000000000000000000200000000000000000000000000000000000000000000000000000000000000000000000000000000020000000000000000000000000000000000000000000000000000000000000000000000000000002000000000000000000000000000000000000000000000000000000000000000000000000000000000000020000000000000000004000000000040000000000000000000000000000000000000000000000000000000000000000000000000000000000000",
      "type": "0x2",
      "transactionHash": "0x339432ad31397a3645780871c006d8b94f8e17befd5d01b08ed0f4a0195e5a40",
      "transactionIndex": "0x3",
      "blockHash": "0x987d3995c5f7008538259cfd969c46e1c86247e3a0f29f3d9f28964813f563ed",
      "blockNumber": "0x8f249aa",
      "gasUsed": "0x1943f",
      "effectiveGasPrice": "0x5f5e100",
      "from": "0xc13113E56E00050327Be3AD164185103541f1903",
      "to": "0x93807fCe9ef150a0ea820F704577ba859Ecf25a6",
      "contractAddress": null,
      "gasUsedForL1": "0x76cd",
      "l1BlockNumber": "0x7e27d8",
      "timeboosted": false
    }
  ],
  "libraries": [],
  "pending": [],
  "returns": {},
  "timestamp": 1746531269,
  "chain": 421614,
  "commit": "757664c"
}