{
  "transactions": [
    {
      "hash": "0x9769f16ed2aa7ddfd551792d91eac10dd0fc1f0d126d0ad8455b13a8579577c6",
      "transactionType": "CALL",
      "contractName": null,
      "contractAddress": "0x93807fCe9ef150a0ea820F704577ba859Ecf25a6",
      "function": "addAsset(address)",
      "arguments": [
        "0x31cd10b71f0b5194bDD8Ec58b567ffe17B942c0B"
      ],
      "transaction": {
        "from": "0xc13113E56E00050327Be3AD164185103541f1903",
        "to": "0x93807fCe9ef150a0ea820F704577ba859Ecf25a6",
        "gas": "0x23bdf",
        "value": "0x0",
        "input": "0x298410e500000000000000000000000031cd10b71f0b5194bdd8ec58b567ffe17b942c0b",
        "nonce": "0xf3",
        "chainId": "0x66eee"
      },
      "additionalContracts": [],
      "isFixedGasLimit": false
    }
  ],
  "receipts": [
    {
      "status": "0x1",
      "cumulativeGasUsed": "0x316f8",
      "logs": [
        {
          "address": "0x93807fCe9ef150a0ea820F704577ba859Ecf25a6",
          "topics": [
            "0x57c9e281a77ac9ba91a9f926dda440cd98f47ee4f2d5030b5d54688cecbc9989",
            "0x00000000000000000000000031cd10b71f0b5194bdd8ec58b567ffe17b942c0b"
          ],
          "data": "0x0000000000000000000000000000000000000000000000000000000000000012",
          "blockHash": "0x301f4ab38a25182c329be39acaeb0bcc9e45d42e3c3661b6c27851157e63b99d",
          "blockNumber": "0x8f24aa8",
          "transactionHash": "0x9769f16ed2aa7ddfd551792d91eac10dd0fc1f0d126d0ad8455b13a8579577c6",
          "transactionIndex": "0x2",
          "logIndex": "0x0",
          "removed": false
        }
      ],
      "logsBloom": "0x00000000000010000000000000000000000000000000000000000000000000000000000000000000000000000000000000000000000000000000000000000000000000000000000000000200000000000000000000000000000000000000000000000000000000000000000000000000000000020000000000000000000000000000000000000000000000000000000000000000000000000000002000000000000000000000000000000000000000000000000000000000000000000000000000000000000020000000000000000000000000000040000000040000000000000000000000000000000004000000000000000000000000100000000000000000",
      "type": "0x2",
      "transactionHash": "0x9769f16ed2aa7ddfd551792d91eac10dd0fc1f0d126d0ad8455b13a8579577c6",
      "transactionIndex": "0x2",
      "blockHash": "0x301f4ab38a25182c329be39acaeb0bcc9e45d42e3c3661b6c27851157e63b99d",
      "blockNumber": "0x8f24aa8",
      "gasUsed": "0x1943f",
      "effectiveGasPrice": "0x5f5e100",
      "from": "0xc13113E56E00050327Be3AD164185103541f1903",
      "to": "0x93807fCe9ef150a0ea820F704577ba859Ecf25a6",
      "contractAddress": null,
      "gasUsedForL1": "0x76cd",
      "l1BlockNumber": "0x7e27dd",
      "timeboosted": false
    }
  ],
  "libraries": [],
  "pending": [],
  "returns": {},
  "timestamp": 1746531332,
  "chain": 421614,
  "commit": "757664c"
}