{
  "transactions": [
    {
      "hash": "0xe0dc1583a28b08e89e5c8ee5d1eab456279ce2319ed39104c86d6ca7e7d0a122",
      "transactionType": "CALL",
      "contractName": null,
      "contractAddress": "0x93807fCe9ef150a0ea820F704577ba859Ecf25a6",
      "function": "addAsset(address)",
      "arguments": [
        "0xeAa5cbBc599556be8d182488aF6b3b89e10c10F3"
      ],
      "transaction": {
        "from": "0xc13113E56E00050327Be3AD164185103541f1903",
        "to": "0x93807fCe9ef150a0ea820F704577ba859Ecf25a6",
        "gas": "0x1f2ad",
        "value": "0x0",
        "input": "0x298410e5000000000000000000000000eaa5cbbc599556be8d182488af6b3b89e10c10f3",
        "nonce": "0xf1",
        "chainId": "0x66eee"
      },
      "additionalContracts": [],
      "isFixedGasLimit": false
    }
  ],
  "receipts": [
    {
      "status": "0x1",
      "cumulativeGasUsed": "0x1e0a0e",
      "logs": [
        {
          "address": "0x93807fCe9ef150a0ea820F704577ba859Ecf25a6",
          "topics": [
            "0x57c9e281a77ac9ba91a9f926dda440cd98f47ee4f2d5030b5d54688cecbc9989",
            "0x000000000000000000000000eaa5cbbc599556be8d182488af6b3b89e10c10f3"
          ],
          "data": "0x0000000000000000000000000000000000000000000000000000000000000012",
          "blockHash": "0xba3a88922d23f374d0dd4f8a1317c92f0c64f806172208187c991648d17a430b",
          "blockNumber": "0x8f23eae",
          "transactionHash": "0xe0dc1583a28b08e89e5c8ee5d1eab456279ce2319ed39104c86d6ca7e7d0a122",
          "transactionIndex": "0x8",
          "logIndex": "0x12",
          "removed": false
        }
      ],
      "logsBloom": "0x00000000000010000000000000000000000000000000000000000000000000000000000008000000000000000000000000000000000000000000000000000000000000000000000000000200000000000000000000000000000000000000000000000000000000000000000000000000000000020000000000040000000000000000000000000000000000000000000000000000000000000000002000000000000000000000000000000000000000000000000000000000000000000000000000000000000020000000000000000000000000000040000000000000000000000000000004000000000000000000000000000000000000000000000000000000",
      "type": "0x2",
      "transactionHash": "0xe0dc1583a28b08e89e5c8ee5d1eab456279ce2319ed39104c86d6ca7e7d0a122",
      "transactionIndex": "0x8",
      "blockHash": "0xba3a88922d23f374d0dd4f8a1317c92f0c64f806172208187c991648d17a430b",
      "blockNumber": "0x8f23eae",
      "gasUsed": "0x167f6",
      "effectiveGasPrice": "0x5f5e100",
      "from": "0xc13113E56E00050327Be3AD164185103541f1903",
      "to": "0x93807fCe9ef150a0ea820F704577ba859Ecf25a6",
      "contractAddress": null,
      "gasUsedForL1": "0x4a84",
      "l1BlockNumber": "0x7e279d",
      "timeboosted": false
    }
  ],
  "libraries": [],
  "pending": [],
  "returns": {},
  "timestamp": 1746530570,
  "chain": 421614,
  "commit": "757664c"
}