{
  "transactions": [
    {
      "hash": "0xa3ae6ce58706607deb4baf8ac8f2fdbf3776f546eef8e262bfde07e0324d0465",
      "transactionType": "CALL",
      "contractName": null,
      "contractAddress": "0x41757B69A510ab48e5c3Ba61514845D30860A786",
      "function": "registerEventType(address,bytes32)",
      "arguments": [
        "0x901B462853519FF5b3d235b355a23737736538eB",
        "0xdc0189c71d092eedce53bcde4b7dfe222705fdf91f4b12a80cf9bb02fc906a3a"
      ],
      "transaction": {
        "from": "0xc13113E56E00050327Be3AD164185103541f1903",
        "to": "0x41757B69A510ab48e5c3Ba61514845D30860A786",
        "gas": "0x17570",
        "value": "0x0",
        "input": "0xe57f6de5000000000000000000000000901b462853519ff5b3d235b355a23737736538ebdc0189c71d092eedce53bcde4b7dfe222705fdf91f4b12a80cf9bb02fc906a3a",
        "nonce": "0x313",
        "chainId": "0xa869"
      },
      "additionalContracts": [],
      "isFixedGasLimit": false
    }
  ],
  "receipts": [
    {
      "status": "0x1",
      "cumulativeGasUsed": "0x10e5e",
      "logs": [],
      "logsBloom": "0x00000000000000000000000000000000000000000000000000000000000000000000000000000000000000000000000000000000000000000000000000000000000000000000000000000000000000000000000000000000000000000000000000000000000000000000000000000000000000000000000000000000000000000000000000000000000000000000000000000000000000000000000000000000000000000000000000000000000000000000000000000000000000000000000000000000000000000000000000000000000000000000000000000000000000000000000000000000000000000000000000000000000000000000000000000000",
      "type": "0x2",
      "transactionHash": "0xa3ae6ce58706607deb4baf8ac8f2fdbf3776f546eef8e262bfde07e0324d0465",
      "transactionIndex": "0x0",
      "blockHash": "0x44176b560b9b91a82202edd3e62c7bffc6c53044669973f94b0e2d580836a436",
      "blockNumber": "0x263fbe7",
      "gasUsed": "0x10e5e",
      "effectiveGasPrice": "0x2cb41781",
      "from": "0xc13113E56E00050327Be3AD164185103541f1903",
      "to": "0x41757B69A510ab48e5c3Ba61514845D30860A786",
      "contractAddress": null
    }
  ],
  "libraries": [],
  "pending": [],
  "returns": {},
  "timestamp": 1746199717,
  "chain": 43113,
  "commit": "041237c"
}