{
  "transactions": [
    {
      "hash": "0xa180238f3ac9b82be33c811a59dd9f5d48fc9e53060fd1f51995839cc0d12f08",
      "transactionType": "CALL",
      "contractName": null,
      "contractAddress": "0x95D563200D2A4068F4bD263cf4afcCa076536555",
      "function": "setGasAmount(uint32,uint32,uint256)",
      "arguments": [
        "11155420",
        "1098411886",
        "500000"
      ],
      "transaction": {
        "from": "0xc13113E56E00050327Be3AD164185103541f1903",
        "to": "0x95D563200D2A4068F4bD263cf4afcCa076536555",
        "gas": "0xf98f",
        "value": "0x0",
        "input": "0x36a86c170000000000000000000000000000000000000000000000000000000000aa37dc0000000000000000000000000000000000000000000000000000000041786f6e000000000000000000000000000000000000000000000000000000000007a120",
        "nonce": "0x82",
        "chainId": "0xaa37dc"
      },
      "additionalContracts": [],
      "isFixedGasLimit": false
    }
  ],
  "receipts": [
    {
      "status": "0x1",
      "cumulativeGasUsed": "0xaeb952",
      "logs": [],
      "logsBloom": "0x00000000000000000000000000000000000000000000000000000000000000000000000000000000000000000000000000000000000000000000000000000000000000000000000000000000000000000000000000000000000000000000000000000000000000000000000000000000000000000000000000000000000000000000000000000000000000000000000000000000000000000000000000000000000000000000000000000000000000000000000000000000000000000000000000000000000000000000000000000000000000000000000000000000000000000000000000000000000000000000000000000000000000000000000000000000",
      "type": "0x2",
      "transactionHash": "0xa180238f3ac9b82be33c811a59dd9f5d48fc9e53060fd1f51995839cc0d12f08",
      "transactionIndex": "0x16",
      "blockHash": "0xefcdb21ef807b592ae31754c7735ff246dae1189ae22821c0420710c31d69271",
      "blockNumber": "0x1a21850",
      "gasUsed": "0xb4ae",
      "effectiveGasPrice": "0x15369587",
      "from": "0xc13113E56E00050327Be3AD164185103541f1903",
      "to": "0x95D563200D2A4068F4bD263cf4afcCa076536555",
      "contractAddress": null,
      "l1BaseFeeScalar": "0x1db0",
      "l1BlobBaseFee": "0x1",
      "l1BlobBaseFeeScalar": "0xd2730",
      "l1Fee": "0x2c3d722261",
      "l1GasPrice": "0x3a35e7046",
      "l1GasUsed": "0x640"
    }
  ],
  "libraries": [],
  "pending": [],
  "returns": {},
  "timestamp": 1746603084,
  "chain": 11155420,
  "commit": "0342e81"
}