{
  "transactions": [
    {
      "hash": "0x0cb83bba2fcd290debf7f7421493d02973e0d7233820906182a187b90f57e7bc",
      "transactionType": "CALL",
      "contractName": null,
      "contractAddress": "0x8E57C1FAd22e4BE6C757ac49e154261Cf9E15f8A",
      "function": "addAsset(address)",
      "arguments": [
        "0x20F6cECe05F713ac6781f6f3b6C683c6266A18d1"
      ],
      "transaction": {
        "from": "0xc13113E56E00050327Be3AD164185103541f1903",
        "to": "0x8E57C1FAd22e4BE6C757ac49e154261Cf9E15f8A",
        "gas": "0x1a176",
        "value": "0x0",
        "input": "0x298410e500000000000000000000000020f6cece05f713ac6781f6f3b6c683c6266a18d1",
        "nonce": "0xf8",
        "chainId": "0xaa36a7"
      },
      "additionalContracts": [],
      "isFixedGasLimit": false
    }
  ],
  "receipts": [
    {
      "status": "0x1",
      "cumulativeGasUsed": "0x162d475",
      "logs": [
        {
          "address": "0x8E57C1FAd22e4BE6C757ac49e154261Cf9E15f8A",
          "topics": [
            "0x57c9e281a77ac9ba91a9f926dda440cd98f47ee4f2d5030b5d54688cecbc9989",
            "0x00000000000000000000000020f6cece05f713ac6781f6f3b6c683c6266a18d1"
          ],
          "data": "0x0000000000000000000000000000000000000000000000000000000000000012",
          "blockHash": "0x77be83cdc5adb9b724347441deb4d8694dce064ca76438c01192f9fba34c1908",
          "blockNumber": "0x7e40a1",
          "blockTimestamp": "0x681b2080",
          "transactionHash": "0x0cb83bba2fcd290debf7f7421493d02973e0d7233820906182a187b90f57e7bc",
          "transactionIndex": "0x6c",
          "logIndex": "0x17e",
          "removed": false
        }
      ],
      "logsBloom": "0x00000000000010000000000000000000000000000000000000000000000000000004000000000000000000000000000000000000000000000000000000000000000000000000000000000000000000000000000000000000000000000000000000000000000000000000000000000000000000040000000000000000000000000000000000000000000000000000000000000000000000000000000000000200200000000000000000000000000000000000000000000000000000000000000000000000000020000000000000000000000200000040000000000000000000000000000000002000000000000000000000000000000000000000000000000000",
      "type": "0x2",
      "transactionHash": "0x0cb83bba2fcd290debf7f7421493d02973e0d7233820906182a187b90f57e7bc",
      "transactionIndex": "0x6c",
      "blockHash": "0x77be83cdc5adb9b724347441deb4d8694dce064ca76438c01192f9fba34c1908",
      "blockNumber": "0x7e40a1",
      "gasUsed": "0x11d72",
      "effectiveGasPrice": "0xb56dd10e4",
      "from": "0xc13113E56E00050327Be3AD164185103541f1903",
      "to": "0x8E57C1FAd22e4BE6C757ac49e154261Cf9E15f8A",
      "contractAddress": null
    }
  ],
  "libraries": [],
  "pending": [],
  "returns": {},
  "timestamp": 1746608260,
  "chain": 11155111,
  "commit": "f1418e3"
}