{
  "transactions": [
    {
      "hash": "0xf8d160373a8d3c51b2a41cb0789960b8d86d757b12341d53d60fa7222718e617",
      "transactionType": "CALL",
      "contractName": null,
      "contractAddress": "0x8E57C1FAd22e4BE6C757ac49e154261Cf9E15f8A",
      "function": "addAsset(address)",
      "arguments": [
        "0xfE69cC79d53cd27BC9A4B39d309F309C2B614114"
      ],
      "transaction": {
        "from": "0xc13113E56E00050327Be3AD164185103541f1903",
        "to": "0x8E57C1FAd22e4BE6C757ac49e154261Cf9E15f8A",
        "gas": "0x1a176",
        "value": "0x0",
        "input": "0x298410e5000000000000000000000000fe69cc79d53cd27bc9a4b39d309f309c2b614114",
        "nonce": "0xf5",
        "chainId": "0xaa36a7"
      },
      "additionalContracts": [],
      "isFixedGasLimit": false
    }
  ],
  "receipts": [
    {
      "status": "0x1",
      "cumulativeGasUsed": "0x8c14f4",
      "logs": [
        {
          "address": "0x8E57C1FAd22e4BE6C757ac49e154261Cf9E15f8A",
          "topics": [
            "0x57c9e281a77ac9ba91a9f926dda440cd98f47ee4f2d5030b5d54688cecbc9989",
            "0x000000000000000000000000fe69cc79d53cd27bc9a4b39d309f309c2b614114"
          ],
          "data": "0x0000000000000000000000000000000000000000000000000000000000000012",
          "blockHash": "0xf6f225c41d4bc9d9d4211d6c2dbd44e7ad484ebd5c8d92c84e601f5d2a04b311",
          "blockNumber": "0x7e4070",
          "blockTimestamp": "0x681b1e34",
          "transactionHash": "0xf8d160373a8d3c51b2a41cb0789960b8d86d757b12341d53d60fa7222718e617",
          "transactionIndex": "0x53",
          "logIndex": "0x96",
          "removed": false
        }
      ],
      "logsBloom": "0x00000000000010000000000000000000000000000000000000000000000000000000000000000000000000000000000000000000000000000000000000000000000000000000000000000000000000000000000000000000000000000000000000000000000000000000000000000000000000000000000000000000000000000000000000000000004000000000000000000400000000000000000000000200200000000000000000000000000000000000000000000000000000080000000000000000000020000000000000000000000000000040000000000000000000000000000000002000000000000000000000000000000000000000000000000000",
      "type": "0x2",
      "transactionHash": "0xf8d160373a8d3c51b2a41cb0789960b8d86d757b12341d53d60fa7222718e617",
      "transactionIndex": "0x53",
      "blockHash": "0xf6f225c41d4bc9d9d4211d6c2dbd44e7ad484ebd5c8d92c84e601f5d2a04b311",
      "blockNumber": "0x7e4070",
      "gasUsed": "0x11d72",
      "effectiveGasPrice": "0xaec1af9ec",
      "from": "0xc13113E56E00050327Be3AD164185103541f1903",
      "to": "0x8E57C1FAd22e4BE6C757ac49e154261Cf9E15f8A",
      "contractAddress": null
    }
  ],
  "libraries": [],
  "pending": [],
  "returns": {},
  "timestamp": 1746607671,
  "chain": 11155111,
  "commit": "f1418e3"
}