{
  "transactions": [
    {
      "hash": "0x955629513570405ca2212a1ac8e686227984a8cce1abb056c7569cc977d6369d",
      "transactionType": "CALL",
      "contractName": null,
      "contractAddress": "0x8E57C1FAd22e4BE6C757ac49e154261Cf9E15f8A",
      "function": "addAsset(address)",
      "arguments": [
        "0x2B403fDF61038dB622e1740b2Ad271489438AA56"
      ],
      "transaction": {
        "from": "0xc13113E56E00050327Be3AD164185103541f1903",
        "to": "0x8E57C1FAd22e4BE6C757ac49e154261Cf9E15f8A",
        "gas": "0x1a176",
        "value": "0x0",
        "input": "0x298410e50000000000000000000000002b403fdf61038db622e1740b2ad271489438aa56",
        "nonce": "0xf6",
        "chainId": "0xaa36a7"
      },
      "additionalContracts": [],
      "isFixedGasLimit": false
    }
  ],
  "receipts": [
    {
      "status": "0x1",
      "cumulativeGasUsed": "0x8e3ae4",
      "logs": [
        {
          "address": "0x8E57C1FAd22e4BE6C757ac49e154261Cf9E15f8A",
          "topics": [
            "0x57c9e281a77ac9ba91a9f926dda440cd98f47ee4f2d5030b5d54688cecbc9989",
            "0x0000000000000000000000002b403fdf61038db622e1740b2ad271489438aa56"
          ],
          "data": "0x0000000000000000000000000000000000000000000000000000000000000012",
          "blockHash": "0x51f0ddc0f1a15dbfb6c07e1af5d3c22bc6755c7d1f59253d1da88ff9ab706ea0",
          "blockNumber": "0x7e408f",
          "blockTimestamp": "0x681b1fa8",
          "transactionHash": "0x955629513570405ca2212a1ac8e686227984a8cce1abb056c7569cc977d6369d",
          "transactionIndex": "0x5f",
          "logIndex": "0xbc",
          "removed": false
        }
      ],
      "logsBloom": "0x00000000000010000000000000000000000000000000000000000000000000000000000000000000000000000000000000000000000000000000000000000000000000000000000000000000000000000000000000000000000000000000000000000000000000000000000000000000000000000000000000000000000000000000000000000000000080000000000000000000000000000000000000000200300000000000000000000000000000000000000000000000000000000000000000080000000020000000000000000000000000000040000000000000000000000000000000002000000000000000000000000000000000000000000000000000",
      "type": "0x2",
      "transactionHash": "0x955629513570405ca2212a1ac8e686227984a8cce1abb056c7569cc977d6369d",
      "transactionIndex": "0x5f",
      "blockHash": "0x51f0ddc0f1a15dbfb6c07e1af5d3c22bc6755c7d1f59253d1da88ff9ab706ea0",
      "blockNumber": "0x7e408f",
      "gasUsed": "0x11d72",
      "effectiveGasPrice": "0xaaaef00f3",
      "from": "0xc13113E56E00050327Be3AD164185103541f1903",
      "to": "0x8E57C1FAd22e4BE6C757ac49e154261Cf9E15f8A",
      "contractAddress": null
    }
  ],
  "libraries": [],
  "pending": [],
  "returns": {},
  "timestamp": 1746608046,
  "chain": 11155111,
  "commit": "f1418e3"
}