{
  "transactions": [
    {
      "hash": "0x9069026ce5360cb8aa064853597af3e799c818982d60592b9a529c5d916ae906",
      "transactionType": "CALL",
      "contractName": null,
      "contractAddress": "0x95D563200D2A4068F4bD263cf4afcCa076536555",
      "function": "setGasAmount(uint32,uint32,uint256)",
      "arguments": [
        "84532",
        "1098411886",
        "500000"
      ],
      "transaction": {
        "from": "0xc13113E56E00050327Be3AD164185103541f1903",
        "to": "0x95D563200D2A4068F4bD263cf4afcCa076536555",
        "gas": "0xf98f",
        "value": "0x0",
        "input": "0x36a86c170000000000000000000000000000000000000000000000000000000000014a340000000000000000000000000000000000000000000000000000000041786f6e000000000000000000000000000000000000000000000000000000000007a120",
        "nonce": "0x82",
        "chainId": "0x14a34"
      },
      "additionalContracts": [],
      "isFixedGasLimit": false
    }
  ],
  "receipts": [
    {
      "status": "0x1",
      "cumulativeGasUsed": "0x3ca082",
      "logs": [],
      "logsBloom": "0x00000000000000000000000000000000000000000000000000000000000000000000000000000000000000000000000000000000000000000000000000000000000000000000000000000000000000000000000000000000000000000000000000000000000000000000000000000000000000000000000000000000000000000000000000000000000000000000000000000000000000000000000000000000000000000000000000000000000000000000000000000000000000000000000000000000000000000000000000000000000000000000000000000000000000000000000000000000000000000000000000000000000000000000000000000000",
      "type": "0x2",
      "transactionHash": "0x9069026ce5360cb8aa064853597af3e799c818982d60592b9a529c5d916ae906",
      "transactionIndex": "0x16",
      "blockHash": "0x9eb8fcc612a44ca9236ebea495487575c332e71e3d9052ab6b0502db735247c6",
      "blockNumber": "0x183f6e9",
      "gasUsed": "0xb4ae",
      "effectiveGasPrice": "0xf093b",
      "from": "0xc13113E56E00050327Be3AD164185103541f1903",
      "to": "0x95D563200D2A4068F4bD263cf4afcCa076536555",
      "contractAddress": null,
      "l1BaseFeeScalar": "0x44d",
      "l1BlobBaseFee": "0x1",
      "l1BlobBaseFeeScalar": "0xa118b",
      "l1Fee": "0x16b182c991",
      "l1GasPrice": "0xce1dc434f",
      "l1GasUsed": "0x640"
    }
  ],
  "libraries": [],
  "pending": [],
  "returns": {},
  "timestamp": 1746619577,
  "chain": 84532,
  "commit": "7691af1"
}