{
  "transactions": [
    {
      "hash": "0x88798772fb70ee944f373a07aae9939bb3f123a5e2caef80a53354c535098211",
      "transactionType": "CALL",
      "contractName": null,
      "contractAddress": "0x76e77d4a36441d3fbc467b71a7ec502f406e821f",
      "function": "addAsset(address)",
      "arguments": [
        "0x780D4721F6bD26897A72aFF5CB4eeE6F381f0C96"
      ],
      "transaction": {
        "from": "0x230e13243869a3a7eb341e4bdb9120d5cd547fa1",
        "to": "0x76e77d4a36441d3fbc467b71a7ec502f406e821f",
        "gas": "0x17944",
        "value": "0x0",
        "input": "0x298410e5000000000000000000000000780d4721f6bd26897a72aff5cb4eee6f381f0c96",
        "nonce": "0xf",
        "chainId": "0x66eee"
      },
      "additionalContracts": [],
      "isFixedGasLimit": false
    }
  ],
  "receipts": [
    {
      "status": "0x1",
      "cumulativeGasUsed": "0x11e79",
      "logs": [
        {
          "address": "0x76e77d4a36441d3fbc467b71a7ec502f406e821f",
          "topics": [
            "0x57c9e281a77ac9ba91a9f926dda440cd98f47ee4f2d5030b5d54688cecbc9989",
            "0x000000000000000000000000780d4721f6bd26897a72aff5cb4eee6f381f0c96"
          ],
          "data": "0x0000000000000000000000000000000000000000000000000000000000000012",
          "blockHash": "0x61cf08bec2f4b95e3c93a4acf2ddfc28dab322c0e6c299b5e362235681552878",
          "blockNumber": "0x9f63cf0",
          "transactionHash": "0x88798772fb70ee944f373a07aae9939bb3f123a5e2caef80a53354c535098211",
          "transactionIndex": "0x1",
          "logIndex": "0x0",
          "removed": false
        }
      ],
      "logsBloom": "0x00000000000010000000000000010000000000000000000000040000000000000100000000000000000000000000000000000000000000000000000000000000000000000000000000000000000000000000000000000000000000000200000000000000000000000000000000000000000000000000000000000000000000000000000000000000000000000000000000000001000000000000000000000000000000000000000000000000000000000000000000000000000000000000000000000000000020000000000000000000000000000040000000000000000000000000000000000000000000000000000000000000020000000000000000000000",
      "type": "0x2",
      "transactionHash": "0x88798772fb70ee944f373a07aae9939bb3f123a5e2caef80a53354c535098211",
      "transactionIndex": "0x1",
      "blockHash": "0x61cf08bec2f4b95e3c93a4acf2ddfc28dab322c0e6c299b5e362235681552878",
      "blockNumber": "0x9f63cf0",
      "gasUsed": "0x11e79",
      "effectiveGasPrice": "0x5f5e100",
      "from": "0x230e13243869a3a7eb341e4bdb9120d5cd547fa1",
      "to": "0x76e77d4a36441d3fbc467b71a7ec502f406e821f",
      "contractAddress": null,
      "gasUsedForL1": "0x133",
      "l1BlockNumber": "0x83a283",
      "timeboosted": false
    }
  ],
  "libraries": [],
  "pending": [],
  "returns": {},
  "timestamp": 1750865891,
  "chain": 421614,
  "commit": "126072b"
}