{
  "transactions": [
    {
      "hash": "0x4f93755e30846c34aae95adc9763f0ff97cdb4e25852538df558fa265d854378",
      "transactionType": "CALL",
      "contractName": null,
      "contractAddress": "0x76e77d4a36441d3fbc467b71a7ec502f406e821f",
      "function": "addAsset(address)",
      "arguments": [
        "0x75faf114eafb1BDbe2F0316DF893fd58CE46AA4d"
      ],
      "transaction": {
        "from": "0x230e13243869a3a7eb341e4bdb9120d5cd547fa1",
        "to": "0x76e77d4a36441d3fbc467b71a7ec502f406e821f",
        "gas": "0x1b267",
        "value": "0x0",
        "input": "0x298410e500000000000000000000000075faf114eafb1bdbe2f0316df893fd58ce46aa4d",
        "nonce": "0xc",
        "chainId": "0x66eee"
      },
      "additionalContracts": [],
      "isFixedGasLimit": false
    }
  ],
  "receipts": [
    {
      "status": "0x1",
      "cumulativeGasUsed": "0x4c891",
      "logs": [
        {
          "address": "0x76e77d4a36441d3fbc467b71a7ec502f406e821f",
          "topics": [
            "0x57c9e281a77ac9ba91a9f926dda440cd98f47ee4f2d5030b5d54688cecbc9989",
            "0x00000000000000000000000075faf114eafb1bdbe2f0316df893fd58ce46aa4d"
          ],
          "data": "0x0000000000000000000000000000000000000000000000000000000000000006",
          "blockHash": "0xf13bf66b46ffceffea81c750009648001847aa12bd0f21a189af8a69324a5e76",
          "blockNumber": "0x9f1bb39",
          "transactionHash": "0x4f93755e30846c34aae95adc9763f0ff97cdb4e25852538df558fa265d854378",
          "transactionIndex": "0x3",
          "logIndex": "0x8",
          "removed": false
        }
      ],
      "logsBloom": "0x00000000000010000000000000010000000000000000000000000000000000000000000000000000000000000000000000008000000000000000000000000000000000000000000000000000000000000000000000000000000000000000000000000000000000000000000000000000020000000000002000000000000000000000000000000000000000000000000000000001000000000000000000000000000000000000000000000000000000000000000000000000000000000000000000000000000020000000000000000000000000000040000000000000000000000000000000000000000000000000000000000000020000000000000000000000",
      "type": "0x2",
      "transactionHash": "0x4f93755e30846c34aae95adc9763f0ff97cdb4e25852538df558fa265d854378",
      "transactionIndex": "0x3",
      "blockHash": "0xf13bf66b46ffceffea81c750009648001847aa12bd0f21a189af8a69324a5e76",
      "blockNumber": "0x9f1bb39",
      "gasUsed": "0x148a0",
      "effectiveGasPrice": "0x5f5e100",
      "from": "0x230e13243869a3a7eb341e4bdb9120d5cd547fa1",
      "to": "0x76e77d4a36441d3fbc467b71a7ec502f406e821f",
      "contractAddress": null,
      "gasUsedForL1": "0x706",
      "l1BlockNumber": "0x838a64",
      "timeboosted": false
    }
  ],
  "libraries": [],
  "pending": [],
  "returns": {},
  "timestamp": 1750791414,
  "chain": 421614,
  "commit": "80c8da4"
}