{
  "transactions": [
    {
      "hash": "0xf74975141ec3fb4a044e1f13a5268a1472dc57b9524dec20b0e9424c68e812f9",
      "transactionType": "CREATE",
      "contractName": "MTokenCrossChainAdapter",
      "contractAddress": "0x1846a76f7c3383b4cd7a241ba85e54922b4a031a",
      "function": null,
      "arguments": [
        "0x6aa5e79022e802DDdBc7bDf170A394D6327b8491",
        "0x0d20af55731e9363AD2e27a96D27B735d5673A8a",
        "0xcdf6c9488E032D8E62B80159FFD8a563E89533A8",
        "0xfE2bfcA82a01631Cd8652D50ff8Dc3d3f73945B7"
      ],
      "transaction": {
        "from": "0x0e6b8175eb3b4361193f5719c12cc9143bcda14a",
        "gas": "0xbb772",
        "value": "0x0",
        "input": "0x610140806040523461014857608081610ae68038038091610020828561014d565b8339810103126101485761003381610186565b9061004060208201610186565b90610059606061005260408401610186565b9201610186565b60008054336001600160a01b0319821681178355604051969395939290916001600160a01b0316907f8be0079c531659141344cd1fd0a4f28419497f9722a3daafe3b4186f6b6457e09080a360805260a05260e05260c052600080516020610ac6833981519152610100526020810190308252600080516020610ac68339815191526040820152604081526100ef60608261014d565b5190206101205260405161092b908161019b82396080518181816102c40152610707015260a051816103e5015260c051816104ef015260e051816106c3015261010051815050610120518181816101e301526103970152f35b600080fd5b601f909101601f19168101906001600160401b0382119082101761017057604052565b634e487b7160e01b600052604160045260246000fd5b51906001600160a01b03821682036101485756fe608080604052600436101561001357600080fd5b600090813560e01c9081633b611e27146104af5750806368954beb1461028f57806368ba1ef614610260578063715018a6146102065780638afb1063146101cb5780638da5cb5b146101a457806395f36c3114610157578063affed0e014610186578063c8f9ff8d146101575763f2fde38b1461008f57600080fd5b34610154576020366003190112610154576100a861081f565b6100b061089d565b6001600160a01b031680156101005781546001600160a01b03198116821783556001600160a01b03167f8be0079c531659141344cd1fd0a4f28419497f9722a3daafe3b4186f6b6457e08380a380f35b60405162461bcd60e51b815260206004820152602660248201527f4f776e61626c653a206e6577206f776e657220697320746865207a65726f206160448201526564647265737360d01b6064820152608490fd5b80fd5b50346101545760203660031901126101545760ff60406020926004358152600284522054166040519015158152f35b50346101545780600319360112610154576020600354604051908152f35b5034610154578060031936011261015457546040516001600160a01b039091168152602090f35b503461015457806003193601126101545760206040517f00000000000000000000000000000000000000000000000000000000000000008152f35b503461015457806003193601126101545761021f61089d565b80546001600160a01b03198116825581906001600160a01b03167f8be0079c531659141344cd1fd0a4f28419497f9722a3daafe3b4186f6b6457e08280a380f35b50346101545760203660031901126101545760ff60406020926004358152600184522054166040519015158152f35b506080366003190112610154576102a461081f565b6102ac610807565b906044356001600160a01b038116908190036104ab577f00000000000000000000000000000000000000000000000000000000000000006001600160a01b0316330361049c5760035460001981146104885760010190816003556040519261031384610849565b60018060a01b0316928381526040602082019160643583520191825260405193602085015251604084015260018060a01b03905116606083015260808201526080815261036160a08261087b565b604051809263c9a423e560e01b825260606004830152825192836064840152855b848110610470575050608482840181018690527f0000000000000000000000000000000000000000000000000000000000000000602484015263ffffffff919091166044830152602092601f01601f191682018290030181346001600160a01b037f0000000000000000000000000000000000000000000000000000000000000000165af190811561046557829161042f575b508152600260205260408120805460ff1916600117905580f35b90506020813d60201161045d575b8161044a6020938361087b565b81010312610459575138610415565b5080fd5b3d915061043d565b6040513d84823e3d90fd5b60208282018101516084888401015286945001610382565b634e487b7160e01b85526011600452602485fd5b6326b68cd960e21b8452600484fd5b8380fd5b905034610459576040366003190112610459576004359067ffffffffffffffff82116107c15781360360a06003198201126104ab576104ec610807565b917f00000000000000000000000000000000000000000000000000000000000000006001600160a01b031633036107f8576020818101908152906001600160a01b0361053a60048701610835565b1660408201526024850135606082015260448501356080820152606485013592602219018312156107f4578483016024600482013591019067ffffffffffffffff81116107f05780360382136107f0578281610100926105cd9460a0808501528160e08501528484013789838284010152608489013560c0830152601f801991011681010301601f19810183528261087b565b51902092838552600160205260ff6040862054166107dc5790849291848452600160205260408420600160ff19825416179055604051947fb05f56c0d676e09dccc4e69e9d61ba5df2babaf9ab768dfe8638c67112f1f4598580a20190600482013567ffffffffffffffff81116104ab57602483019080360382136107d8576060908401849003126104ab5761066b9061066686610849565b610835565b8085526040610687606460208801956044810135875201610835565b95019485526040516353ddf82160e01b815263ffffffff9290921660048301526001600160a01b039081166024830152602090829060449082907f0000000000000000000000000000000000000000000000000000000000000000165afa9081156107cd578391610787575b5092519051926001600160a01b03918216917f000000000000000000000000000000000000000000000000000000000000000016803b156104ab578392836064926040519788958694630256d18960e31b8652600486015260018060a01b0316602485015260448401525af1801561077a5761076c5780f35b6107759161087b565b388180f35b50604051903d90823e3d90fd5b90506020813d6020116107c5575b816107a26020938361087b565b810103126107c157516001600160a01b03811681036107c157386106f3565b8280fd5b3d9150610795565b6040513d85823e3d90fd5b8480fd5b631597a64560e11b85526004849052602485fd5b8780fd5b8580fd5b635666937960e11b8552600485fd5b6024359063ffffffff8216820361081a57565b600080fd5b600435906001600160a01b038216820361081a57565b35906001600160a01b038216820361081a57565b6060810190811067ffffffffffffffff82111761086557604052565b634e487b7160e01b600052604160045260246000fd5b90601f8019910116810190811067ffffffffffffffff82111761086557604052565b6000546001600160a01b031633036108b157565b606460405162461bcd60e51b815260206004820152602060248201527f4f776e61626c653a2063616c6c6572206973206e6f7420746865206f776e65726044820152fdfea2646970667358221220c9a5838f2ab5b964b2d2ec1623d7b12c4e740d84de09c7e6382aeaea87d9b5b864736f6c634300081e0033100521740a2ee05abf5a9c54a30c050f2a5dab2d6a2116f81704d99034a4bc2f0000000000000000000000006aa5e79022e802dddbc7bdf170a394d6327b84910000000000000000000000000d20af55731e9363ad2e27a96d27b735d5673a8a000000000000000000000000cdf6c9488e032d8e62b80159ffd8a563e89533a8000000000000000000000000fe2bfca82a01631cd8652d50ff8dc3d3f73945b7",
        "nonce": "0x11",
        "chainId": "0x41786f6e"
      },
      "additionalContracts": [],
      "isFixedGasLimit": false
    },
    {
      "hash": "0xd881cebf1e4fbb6f367cc54ac41cde24ea3892533b06bcb83d224a6e7a223f34",
      "transactionType": "CALL",
      "contractName": "MTokenCrossChainAdapter",
      "contractAddress": "0x1846a76f7c3383b4cd7a241ba85e54922b4a031a",
      "function": "transferOwnership(address)",
      "arguments": [
        "0x230E13243869a3a7eb341E4bDB9120D5cd547fA1"
      ],
      "transaction": {
        "from": "0x0e6b8175eb3b4361193f5719c12cc9143bcda14a",
        "to": "0x1846a76f7c3383b4cd7a241ba85e54922b4a031a",
        "gas": "0xa367",
        "value": "0x0",
        "input": "0xf2fde38b000000000000000000000000230e13243869a3a7eb341e4bdb9120d5cd547fa1",
        "nonce": "0x12",
        "chainId": "0x41786f6e"
      },
      "additionalContracts": [],
      "isFixedGasLimit": false
    },
    {
      "hash": "0x2ad62a8a798b486007b5d998b75035c492ca33c34e6f077cce48a25e725bcf1d",
      "transactionType": "CALL",
      "contractName": null,
      "contractAddress": "0x89cb0eb5a9a0d70cce9dbb09e0a8755aa777ca9c",
      "function": "grantRole(uint64,address,uint32)",
      "arguments": [
        "21",
        "0x1846a76F7c3383B4CD7a241Ba85E54922b4A031a",
        "0"
      ],
      "transaction": {
        "from": "0x9d6707c2e8f3c631ceb36f4e350f7a17127697e5",
        "to": "0x89cb0eb5a9a0d70cce9dbb09e0a8755aa777ca9c",
        "gas": "0x1220d",
        "value": "0x0",
        "input": "0x25c471a000000000000000000000000000000000000000000000000000000000000000150000000000000000000000001846a76f7c3383b4cd7a241ba85e54922b4a031a0000000000000000000000000000000000000000000000000000000000000000",
        "nonce": "0xd",
        "chainId": "0x41786f6e"
      },
      "additionalContracts": [],
      "isFixedGasLimit": false
    },
    {
      "hash": "0x38511676aed7248d2075f3727665f216d5c9e07a67c5ff20110ea9ebb9001b6e",
      "transactionType": "CALL",
      "contractName": null,
      "contractAddress": "0x89cb0eb5a9a0d70cce9dbb09e0a8755aa777ca9c",
      "function": "grantRole(uint64,address,uint32)",
      "arguments": [
        "20",
        "0x1846a76F7c3383B4CD7a241Ba85E54922b4A031a",
        "0"
      ],
      "transaction": {
        "from": "0x9d6707c2e8f3c631ceb36f4e350f7a17127697e5",
        "to": "0x89cb0eb5a9a0d70cce9dbb09e0a8755aa777ca9c",
        "gas": "0x1220d",
        "value": "0x0",
        "input": "0x25c471a000000000000000000000000000000000000000000000000000000000000000140000000000000000000000001846a76f7c3383b4cd7a241ba85e54922b4a031a0000000000000000000000000000000000000000000000000000000000000000",
        "nonce": "0xe",
        "chainId": "0x41786f6e"
      },
      "additionalContracts": [],
      "isFixedGasLimit": false
    },
    {
      "hash": "0x5f40210bffcfb1154b18102c31b115c2f5db81927e57aeaf4ae2e7cceebc59a3",
      "transactionType": "CALL",
      "contractName": null,
      "contractAddress": "0x0d20af55731e9363ad2e27a96d27b735d5673a8a",
      "function": "addProducer(address)",
      "arguments": [
        "0x1846a76F7c3383B4CD7a241Ba85E54922b4A031a"
      ],
      "transaction": {
        "from": "0x230e13243869a3a7eb341e4bdb9120d5cd547fa1",
        "to": "0x0d20af55731e9363ad2e27a96d27b735d5673a8a",
        "gas": "0xf98f",
        "value": "0x0",
        "input": "0xddf801660000000000000000000000001846a76f7c3383b4cd7a241ba85e54922b4a031a",
        "nonce": "0x7",
        "chainId": "0x41786f6e"
      },
      "additionalContracts": [],
      "isFixedGasLimit": false
    },
    {
      "hash": "0x43256af4eb2be98f2b94b2ab96746b2b6d035aa83fd47a5385f1652b4ef5e283",
      "transactionType": "CALL",
      "contractName": null,
      "contractAddress": "0x0d20af55731e9363ad2e27a96d27b735d5673a8a",
      "function": "registerEventOnProducer(address,bytes32)",
      "arguments": [
        "0x1846a76F7c3383B4CD7a241Ba85E54922b4A031a",
        "0x2099167010ba8d8e6c81a9826a0afe4303c4271925fb4b3c8015514a1e712548"
      ],
      "transaction": {
        "from": "0x230e13243869a3a7eb341e4bdb9120d5cd547fa1",
        "to": "0x0d20af55731e9363ad2e27a96d27b735d5673a8a",
        "gas": "0x212fb",
        "value": "0x0",
        "input": "0xef0167b70000000000000000000000001846a76f7c3383b4cd7a241ba85e54922b4a031a2099167010ba8d8e6c81a9826a0afe4303c4271925fb4b3c8015514a1e712548",
        "nonce": "0x8",
        "chainId": "0x41786f6e"
      },
      "additionalContracts": [],
      "isFixedGasLimit": false
    },
    {
      "hash": "0xcd72b459b98f1798a5c2e43ae397f84c88182f72a103e5cc574c44cc20f0754a",
      "transactionType": "CALL",
      "contractName": null,
      "contractAddress": "0x6aa5e79022e802dddbc7bdf170a394d6327b8491",
      "function": "setWithdrawalHandler(address)",
      "arguments": [
        "0x1846a76F7c3383B4CD7a241Ba85E54922b4A031a"
      ],
      "transaction": {
        "from": "0x230e13243869a3a7eb341e4bdb9120d5cd547fa1",
        "to": "0x6aa5e79022e802dddbc7bdf170a394d6327b8491",
        "gas": "0x13579",
        "value": "0x0",
        "input": "0x3d530c090000000000000000000000001846a76f7c3383b4cd7a241ba85e54922b4a031a",
        "nonce": "0x9",
        "chainId": "0x41786f6e"
      },
      "additionalContracts": [],
      "isFixedGasLimit": false
    }
  ],
  "receipts": [
    {
      "status": "0x1",
      "cumulativeGasUsed": "0x90344",
      "logs": [
        {
          "address": "0x1846a76f7c3383b4cd7a241ba85e54922b4a031a",
          "topics": [
            "0x8be0079c531659141344cd1fd0a4f28419497f9722a3daafe3b4186f6b6457e0",
            "0x0000000000000000000000000000000000000000000000000000000000000000",
            "0x0000000000000000000000000e6b8175eb3b4361193f5719c12cc9143bcda14a"
          ],
          "data": "0x",
          "blockHash": "0xa9e2d6a0d2a739ca5ea71f8138bcf4b0dce48bd8854cded3e1070e4cd256577a",
          "blockNumber": "0x83c85c",
          "transactionHash": "0xf74975141ec3fb4a044e1f13a5268a1472dc57b9524dec20b0e9424c68e812f9",
          "transactionIndex": "0x0",
          "logIndex": "0x0",
          "removed": false
        }
      ],
      "logsBloom": "0x00000000000000000040000000000000000000000000000000800000000000000000000000400200000000000000000000000000000000000000000000000000000000800000000010000000000000000001000000000000000000000000000000000000020000000000000000000800000000000000000000000000000000400000000000000000000000000000000000000000000000000000000000000000000000000000000000000000000000000000000000000000000000000000000000000000000000000000000000000002000000000000000000000000000020000000000000000000000000000000000000000000000000000000000000000000",
      "type": "0x2",
      "transactionHash": "0xf74975141ec3fb4a044e1f13a5268a1472dc57b9524dec20b0e9424c68e812f9",
      "transactionIndex": "0x0",
      "blockHash": "0xa9e2d6a0d2a739ca5ea71f8138bcf4b0dce48bd8854cded3e1070e4cd256577a",
      "blockNumber": "0x83c85c",
      "gasUsed": "0x90344",
      "effectiveGasPrice": "0x90344",
      "from": "0x0e6b8175eb3b4361193f5719c12cc9143bcda14a",
      "to": null,
      "contractAddress": "0x1846a76f7c3383b4cd7a241ba85e54922b4a031a",
      "root": "0x7c8760b54f5f4f037ea7e6d4a8869915787271a85da40ca517c9db77a88d40f3"
    },
    {
      "status": "0x1",
      "cumulativeGasUsed": "0x6fbb",
      "logs": [
        {
          "address": "0x1846a76f7c3383b4cd7a241ba85e54922b4a031a",
          "topics": [
            "0x8be0079c531659141344cd1fd0a4f28419497f9722a3daafe3b4186f6b6457e0",
            "0x0000000000000000000000000e6b8175eb3b4361193f5719c12cc9143bcda14a",
            "0x000000000000000000000000230e13243869a3a7eb341e4bdb9120d5cd547fa1"
          ],
          "data": "0x",
          "blockHash": "0xe4a5f812ddf220d9f84e058d5493c605ec112ea86d64191ea38f36cb3916573e",
          "blockNumber": "0x83c85d",
          "transactionHash": "0xd881cebf1e4fbb6f367cc54ac41cde24ea3892533b06bcb83d224a6e7a223f34",
          "transactionIndex": "0x0",
          "logIndex": "0x0",
          "removed": false
        }
      ],
      "logsBloom": "0x00000000000000000040000000000000000000000000010000800000000000000000000000400200000000000000000000000000000000000000000000000000000000800000000010000000000000000001000040000000000000000000000000000000000000000000000000000000000000000000000000000000000000400000000000000000000000000000000000000000000000000000000000000000000000000000000000000000000000000000000000000000000000000000000000000000000000000000000000000002000000000000000000000000000000000000000000000000000000000000000000000000000000000000000000100000",
      "type": "0x2",
      "transactionHash": "0xd881cebf1e4fbb6f367cc54ac41cde24ea3892533b06bcb83d224a6e7a223f34",
      "transactionIndex": "0x0",
      "blockHash": "0xe4a5f812ddf220d9f84e058d5493c605ec112ea86d64191ea38f36cb3916573e",
      "blockNumber": "0x83c85d",
      "gasUsed": "0x6fbb",
      "effectiveGasPrice": "0x6fbb",
      "from": "0x0e6b8175eb3b4361193f5719c12cc9143bcda14a",
      "to": "0x1846a76f7c3383b4cd7a241ba85e54922b4a031a",
      "contractAddress": null,
      "root": "0xc5e9a85d85e79f8d64fa75c520ba2529a5f2454b0f61f42bc5024f4dd82f7de4"
    },
    {
      "status": "0x1",
      "cumulativeGasUsed": "0xd1ff",
      "logs": [
        {
          "address": "0x89cb0eb5a9a0d70cce9dbb09e0a8755aa777ca9c",
          "topics": [
            "0xf98448b987f1428e0e230e1f3c6e2ce15b5693eaf31827fbd0b1ec4b424ae7cf",
            "0x0000000000000000000000000000000000000000000000000000000000000015",
            "0x0000000000000000000000001846a76f7c3383b4cd7a241ba85e54922b4a031a"
          ],
          "data": "0x000000000000000000000000000000000000000000000000000000000000000000000000000000000000000000000000000000000000000000000000685aa7bb0000000000000000000000000000000000000000000000000000000000000001",
          "blockHash": "0xbbded00658dffee4134cb8cba1d949e3e7a99cdcf6959849b954f921679f2ba6",
          "blockNumber": "0x83c85e",
          "transactionHash": "0x2ad62a8a798b486007b5d998b75035c492ca33c34e6f077cce48a25e725bcf1d",
          "transactionIndex": "0x0",
          "logIndex": "0x0",
          "removed": false
        }
      ],
      "logsBloom": "0x00000000000000004000000000000000000000000000000000000000000000000000000000000000000010000000000000000000000000001000000000000000001000000000000000000000000000000000000000000000000000000000000000000000000000000010000000000000000000000000000000400000000000000000000000000000000000000000000008000000000000000000000000000000000000000000000000002008010000000000000000000008000000000000000000000000000000000000000000000000000000000000000000000000000000002000000000000000000000000000000000000000000000000000000000000000",
      "type": "0x2",
      "transactionHash": "0x2ad62a8a798b486007b5d998b75035c492ca33c34e6f077cce48a25e725bcf1d",
      "transactionIndex": "0x0",
      "blockHash": "0xbbded00658dffee4134cb8cba1d949e3e7a99cdcf6959849b954f921679f2ba6",
      "blockNumber": "0x83c85e",
      "gasUsed": "0xd1ff",
      "effectiveGasPrice": "0xd1ff",
      "from": "0x9d6707c2e8f3c631ceb36f4e350f7a17127697e5",
      "to": "0x89cb0eb5a9a0d70cce9dbb09e0a8755aa777ca9c",
      "contractAddress": null,
      "root": "0xbf1ff4d6c7f372656c91df241048ea7a9421abc406b55daba2d5c95a7cda53ee"
    },
    {
      "status": "0x1",
      "cumulativeGasUsed": "0xd1ff",
      "logs": [
        {
          "address": "0x89cb0eb5a9a0d70cce9dbb09e0a8755aa777ca9c",
          "topics": [
            "0xf98448b987f1428e0e230e1f3c6e2ce15b5693eaf31827fbd0b1ec4b424ae7cf",
            "0x0000000000000000000000000000000000000000000000000000000000000014",
            "0x0000000000000000000000001846a76f7c3383b4cd7a241ba85e54922b4a031a"
          ],
          "data": "0x000000000000000000000000000000000000000000000000000000000000000000000000000000000000000000000000000000000000000000000000685aa7bd0000000000000000000000000000000000000000000000000000000000000001",
          "blockHash": "0x1d472f1b64df2fe38a0a2d79fd4973eada56dc550bc093bec9b686ce4eb4d9c2",
          "blockNumber": "0x83c85f",
          "transactionHash": "0x38511676aed7248d2075f3727665f216d5c9e07a67c5ff20110ea9ebb9001b6e",
          "transactionIndex": "0x0",
          "logIndex": "0x0",
          "removed": false
        }
      ],
      "logsBloom": "0x00000000000000004000000000000000000000000000000000000000000000000000000000000000000010000000000000002000000000001000000000000000000000000000000000000000000000000000000000000000000000000000000000000000000000000010000000000000000000000000000000400000000000000000000000000000000000000000000008000000000400000000000000000000000000000000000020002008000000000000000000000008000000000000000000000000000000000000000000000000000000000000000000000000000000000000000000000000000000000000000000000000000000000000000000000000",
      "type": "0x2",
      "transactionHash": "0x38511676aed7248d2075f3727665f216d5c9e07a67c5ff20110ea9ebb9001b6e",
      "transactionIndex": "0x0",
      "blockHash": "0x1d472f1b64df2fe38a0a2d79fd4973eada56dc550bc093bec9b686ce4eb4d9c2",
      "blockNumber": "0x83c85f",
      "gasUsed": "0xd1ff",
      "effectiveGasPrice": "0xd1ff",
      "from": "0x9d6707c2e8f3c631ceb36f4e350f7a17127697e5",
      "to": "0x89cb0eb5a9a0d70cce9dbb09e0a8755aa777ca9c",
      "contractAddress": null,
      "root": "0x8e3421fa8f0efdc90efa39b83e445bdfb2fb864793f9ae5710fc364974cd7ab3"
    },
    {
      "status": "0x1",
      "cumulativeGasUsed": "0xb4ae",
      "logs": [],
      "logsBloom": "0x00000000000000000000000000000000000000000000000000000000000000000000000000000000000000000000000000000000000000000000000000000000000000000000000000000000000000000000000000000000000000000000000000000000000000000000000000000000000000000000000000000000000000000000000000000000000000000000000000000000000000000000000000000000000000000000000000000000000000000000000000000000000000000000000000000000000000000000000000000000000000000000000000000000000000000000000000000000000000000000000000000000000000000000000000000000",
      "type": "0x2",
      "transactionHash": "0x5f40210bffcfb1154b18102c31b115c2f5db81927e57aeaf4ae2e7cceebc59a3",
      "transactionIndex": "0x0",
      "blockHash": "0x1c1da6eebc07901d741bf8c70b523d50fc56f46ffa6166b4f4acebab43025c97",
      "blockNumber": "0x83c860",
      "gasUsed": "0xb4ae",
      "effectiveGasPrice": "0xb4ae",
      "from": "0x230e13243869a3a7eb341e4bdb9120d5cd547fa1",
      "to": "0x0d20af55731e9363ad2e27a96d27b735d5673a8a",
      "contractAddress": null,
      "root": "0x64a7cb6564bb1f7e8f83f16a2b71ed2210c61853798081dfcffe36cfc3c3e8c9"
    },
    {
      "status": "0x1",
      "cumulativeGasUsed": "0x16b11",
      "logs": [
        {
          "address": "0x0d20af55731e9363ad2e27a96d27b735d5673a8a",
          "topics": [
            "0xdadc4a37a299d8b82aab8dc753ed7c0b5c97d537cc4979ae84fb3407a24e7196",
            "0x0000000000000000000000001846a76f7c3383b4cd7a241ba85e54922b4a031a",
            "0x2099167010ba8d8e6c81a9826a0afe4303c4271925fb4b3c8015514a1e712548"
          ],
          "data": "0x",
          "blockHash": "0x6306138a8edd6eed48ff0f65685ca98df1f0261c76d65864bdcb34a3a259c58f",
          "blockNumber": "0x83c861",
          "transactionHash": "0x43256af4eb2be98f2b94b2ab96746b2b6d035aa83fd47a5385f1652b4ef5e283",
          "transactionIndex": "0x0",
          "logIndex": "0x0",
          "removed": false
        }
      ],
      "logsBloom": "0x00000000000202004000000000000000000000000200000000200000000000000000000000000000000000000000000000800000000000000000000000000000000000000000000000000000000000000000000000000000000000000000000040000000000000000010000000000000000000000002000000000000000000000000000000000000000000000000000000000000000000000000000000000000000000000000000000000008000000000000000000000008000000000000000000000000000000000000000000000000000000000000000000000000000000000000000000000000000000000000000000000000000000020000000000000000",
      "type": "0x2",
      "transactionHash": "0x43256af4eb2be98f2b94b2ab96746b2b6d035aa83fd47a5385f1652b4ef5e283",
      "transactionIndex": "0x0",
      "blockHash": "0x6306138a8edd6eed48ff0f65685ca98df1f0261c76d65864bdcb34a3a259c58f",
      "blockNumber": "0x83c861",
      "gasUsed": "0x16b11",
      "effectiveGasPrice": "0x16b11",
      "from": "0x230e13243869a3a7eb341e4bdb9120d5cd547fa1",
      "to": "0x0d20af55731e9363ad2e27a96d27b735d5673a8a",
      "contractAddress": null,
      "root": "0x38e3443ba5d555e84e2e43633faea90cdfb77722624ce8641b6ea4b2f19a474e"
    },
    {
      "status": "0x1",
      "cumulativeGasUsed": "0xe00f",
      "logs": [],
      "logsBloom": "0x00000000000000000000000000000000000000000000000000000000000000000000000000000000000000000000000000000000000000000000000000000000000000000000000000000000000000000000000000000000000000000000000000000000000000000000000000000000000000000000000000000000000000000000000000000000000000000000000000000000000000000000000000000000000000000000000000000000000000000000000000000000000000000000000000000000000000000000000000000000000000000000000000000000000000000000000000000000000000000000000000000000000000000000000000000000",
      "type": "0x2",
      "transactionHash": "0xcd72b459b98f1798a5c2e43ae397f84c88182f72a103e5cc574c44cc20f0754a",
      "transactionIndex": "0x0",
      "blockHash": "0xbd331344ebbd7e33db799ea10bbdc6508849f12fe8375d7788731003d8d5e8ba",
      "blockNumber": "0x83c862",
      "gasUsed": "0xe00f",
      "effectiveGasPrice": "0xe00f",
      "from": "0x230e13243869a3a7eb341e4bdb9120d5cd547fa1",
      "to": "0x6aa5e79022e802dddbc7bdf170a394d6327b8491",
      "contractAddress": null,
      "root": "0x96f12876eec01c3a3cc01b6b61d5983da6f5ecf2a32dc8a41eef98a318c69212"
    }
  ],
  "libraries": [],
  "pending": [],
  "returns": {},
  "timestamp": 1750771656,
  "chain": 1098411886,
  "commit": "80c8da4"
}