{
  "transactions": [
    {
      "hash": "0xf57732b05833049d5c2b24203fbfbe5997b1c641d328c5aa732162eb42238d7d",
      "transactionType": "CREATE",
      "contractName": "MTokenCrossChainAdapter",
      "contractAddress": "0x32d325c50d5f626c9fa34c9e5e09b1adeceb2706",
      "function": null,
      "arguments": [
        "0x6aa5e79022e802DDdBc7bDf170A394D6327b8491",
        "0x0d20af55731e9363AD2e27a96D27B735d5673A8a",
        "0xcdf6c9488E032D8E62B80159FFD8a563E89533A8",
        "0xfE2bfcA82a01631Cd8652D50ff8Dc3d3f73945B7"
      ],
      "transaction": {
        "from": "0x0e6b8175eb3b4361193f5719c12cc9143bcda14a",
        "gas": "0xbb772",
        "value": "0x0",
        "input": "0x610140806040523461014857608081610ae68038038091610020828561014d565b8339810103126101485761003381610186565b9061004060208201610186565b90610059606061005260408401610186565b9201610186565b60008054336001600160a01b0319821681178355604051969395939290916001600160a01b0316907f8be0079c531659141344cd1fd0a4f28419497f9722a3daafe3b4186f6b6457e09080a360805260a05260e05260c052600080516020610ac6833981519152610100526020810190308252600080516020610ac68339815191526040820152604081526100ef60608261014d565b5190206101205260405161092b908161019b82396080518181816102c40152610707015260a051816103e5015260c051816104ef015260e051816106c3015261010051815050610120518181816101e301526103970152f35b600080fd5b601f909101601f19168101906001600160401b0382119082101761017057604052565b634e487b7160e01b600052604160045260246000fd5b51906001600160a01b03821682036101485756fe608080604052600436101561001357600080fd5b600090813560e01c9081633b611e27146104af5750806368954beb1461028f57806368ba1ef614610260578063715018a6146102065780638afb1063146101cb5780638da5cb5b146101a457806395f36c3114610157578063affed0e014610186578063c8f9ff8d146101575763f2fde38b1461008f57600080fd5b34610154576020366003190112610154576100a861081f565b6100b061089d565b6001600160a01b031680156101005781546001600160a01b03198116821783556001600160a01b03167f8be0079c531659141344cd1fd0a4f28419497f9722a3daafe3b4186f6b6457e08380a380f35b60405162461bcd60e51b815260206004820152602660248201527f4f776e61626c653a206e6577206f776e657220697320746865207a65726f206160448201526564647265737360d01b6064820152608490fd5b80fd5b50346101545760203660031901126101545760ff60406020926004358152600284522054166040519015158152f35b50346101545780600319360112610154576020600354604051908152f35b5034610154578060031936011261015457546040516001600160a01b039091168152602090f35b503461015457806003193601126101545760206040517f00000000000000000000000000000000000000000000000000000000000000008152f35b503461015457806003193601126101545761021f61089d565b80546001600160a01b03198116825581906001600160a01b03167f8be0079c531659141344cd1fd0a4f28419497f9722a3daafe3b4186f6b6457e08280a380f35b50346101545760203660031901126101545760ff60406020926004358152600184522054166040519015158152f35b506080366003190112610154576102a461081f565b6102ac610807565b906044356001600160a01b038116908190036104ab577f00000000000000000000000000000000000000000000000000000000000000006001600160a01b0316330361049c5760035460001981146104885760010190816003556040519261031384610849565b60018060a01b0316928381526040602082019160643583520191825260405193602085015251604084015260018060a01b03905116606083015260808201526080815261036160a08261087b565b604051809263c9a423e560e01b825260606004830152825192836064840152855b848110610470575050608482840181018690527f0000000000000000000000000000000000000000000000000000000000000000602484015263ffffffff919091166044830152602092601f01601f191682018290030181346001600160a01b037f0000000000000000000000000000000000000000000000000000000000000000165af190811561046557829161042f575b508152600260205260408120805460ff1916600117905580f35b90506020813d60201161045d575b8161044a6020938361087b565b81010312610459575138610415565b5080fd5b3d915061043d565b6040513d84823e3d90fd5b60208282018101516084888401015286945001610382565b634e487b7160e01b85526011600452602485fd5b6326b68cd960e21b8452600484fd5b8380fd5b905034610459576040366003190112610459576004359067ffffffffffffffff82116107c15781360360a06003198201126104ab576104ec610807565b917f00000000000000000000000000000000000000000000000000000000000000006001600160a01b031633036107f8576020818101908152906001600160a01b0361053a60048701610835565b1660408201526024850135606082015260448501356080820152606485013592602219018312156107f4578483016024600482013591019067ffffffffffffffff81116107f05780360382136107f0578281610100926105cd9460a0808501528160e08501528484013789838284010152608489013560c0830152601f801991011681010301601f19810183528261087b565b51902092838552600160205260ff6040862054166107dc5790849291848452600160205260408420600160ff19825416179055604051947fb05f56c0d676e09dccc4e69e9d61ba5df2babaf9ab768dfe8638c67112f1f4598580a20190600482013567ffffffffffffffff81116104ab57602483019080360382136107d8576060908401849003126104ab5761066b9061066686610849565b610835565b8085526040610687606460208801956044810135875201610835565b95019485526040516353ddf82160e01b815263ffffffff9290921660048301526001600160a01b039081166024830152602090829060449082907f0000000000000000000000000000000000000000000000000000000000000000165afa9081156107cd578391610787575b5092519051926001600160a01b03918216917f000000000000000000000000000000000000000000000000000000000000000016803b156104ab578392836064926040519788958694630256d18960e31b8652600486015260018060a01b0316602485015260448401525af1801561077a5761076c5780f35b6107759161087b565b388180f35b50604051903d90823e3d90fd5b90506020813d6020116107c5575b816107a26020938361087b565b810103126107c157516001600160a01b03811681036107c157386106f3565b8280fd5b3d9150610795565b6040513d85823e3d90fd5b8480fd5b631597a64560e11b85526004849052602485fd5b8780fd5b8580fd5b635666937960e11b8552600485fd5b6024359063ffffffff8216820361081a57565b600080fd5b600435906001600160a01b038216820361081a57565b35906001600160a01b038216820361081a57565b6060810190811067ffffffffffffffff82111761086557604052565b634e487b7160e01b600052604160045260246000fd5b90601f8019910116810190811067ffffffffffffffff82111761086557604052565b6000546001600160a01b031633036108b157565b606460405162461bcd60e51b815260206004820152602060248201527f4f776e61626c653a2063616c6c6572206973206e6f7420746865206f776e65726044820152fdfea2646970667358221220c9a5838f2ab5b964b2d2ec1623d7b12c4e740d84de09c7e6382aeaea87d9b5b864736f6c634300081e0033100521740a2ee05abf5a9c54a30c050f2a5dab2d6a2116f81704d99034a4bc2f0000000000000000000000006aa5e79022e802dddbc7bdf170a394d6327b84910000000000000000000000000d20af55731e9363ad2e27a96d27b735d5673a8a000000000000000000000000cdf6c9488e032d8e62b80159ffd8a563e89533a8000000000000000000000000fe2bfca82a01631cd8652d50ff8dc3d3f73945b7",
        "nonce": "0x13",
        "chainId": "0x41786f6e"
      },
      "additionalContracts": [],
      "isFixedGasLimit": false
    },
    {
      "hash": "0x051d4004cd58f2782806d232d4220d493a6423a11fa84035178c2257f5df3b98",
      "transactionType": "CALL",
      "contractName": "MTokenCrossChainAdapter",
      "contractAddress": "0x32d325c50d5f626c9fa34c9e5e09b1adeceb2706",
      "function": "transferOwnership(address)",
      "arguments": [
        "0x230E13243869a3a7eb341E4bDB9120D5cd547fA1"
      ],
      "transaction": {
        "from": "0x0e6b8175eb3b4361193f5719c12cc9143bcda14a",
        "to": "0x32d325c50d5f626c9fa34c9e5e09b1adeceb2706",
        "gas": "0xa367",
        "value": "0x0",
        "input": "0xf2fde38b000000000000000000000000230e13243869a3a7eb341e4bdb9120d5cd547fa1",
        "nonce": "0x14",
        "chainId": "0x41786f6e"
      },
      "additionalContracts": [],
      "isFixedGasLimit": false
    },
    {
      "hash": "0x11884509a13d5bc392dd882633506e3b0979cc7a1758f6249b90006fe6c14c68",
      "transactionType": "CALL",
      "contractName": null,
      "contractAddress": "0x89cb0eb5a9a0d70cce9dbb09e0a8755aa777ca9c",
      "function": "grantRole(uint64,address,uint32)",
      "arguments": [
        "21",
        "0x32D325C50D5f626C9fa34c9E5e09B1ADEcEB2706",
        "0"
      ],
      "transaction": {
        "from": "0x9d6707c2e8f3c631ceb36f4e350f7a17127697e5",
        "to": "0x89cb0eb5a9a0d70cce9dbb09e0a8755aa777ca9c",
        "gas": "0x1220d",
        "value": "0x0",
        "input": "0x25c471a0000000000000000000000000000000000000000000000000000000000000001500000000000000000000000032d325c50d5f626c9fa34c9e5e09b1adeceb27060000000000000000000000000000000000000000000000000000000000000000",
        "nonce": "0xf",
        "chainId": "0x41786f6e"
      },
      "additionalContracts": [],
      "isFixedGasLimit": false
    },
    {
      "hash": "0x9c7c7c6d1985c0cedd4bd638b3d317f08d98c58301254aa57569f3be6357844c",
      "transactionType": "CALL",
      "contractName": null,
      "contractAddress": "0x89cb0eb5a9a0d70cce9dbb09e0a8755aa777ca9c",
      "function": "grantRole(uint64,address,uint32)",
      "arguments": [
        "20",
        "0x32D325C50D5f626C9fa34c9E5e09B1ADEcEB2706",
        "0"
      ],
      "transaction": {
        "from": "0x9d6707c2e8f3c631ceb36f4e350f7a17127697e5",
        "to": "0x89cb0eb5a9a0d70cce9dbb09e0a8755aa777ca9c",
        "gas": "0x1220d",
        "value": "0x0",
        "input": "0x25c471a0000000000000000000000000000000000000000000000000000000000000001400000000000000000000000032d325c50d5f626c9fa34c9e5e09b1adeceb27060000000000000000000000000000000000000000000000000000000000000000",
        "nonce": "0x10",
        "chainId": "0x41786f6e"
      },
      "additionalContracts": [],
      "isFixedGasLimit": false
    },
    {
      "hash": "0xb1d4520a86eae1166ee8c427dce42ee44c9102b9945eec3726609b2c7f7cbf2a",
      "transactionType": "CALL",
      "contractName": null,
      "contractAddress": "0x0d20af55731e9363ad2e27a96d27b735d5673a8a",
      "function": "addProducer(address)",
      "arguments": [
        "0x32D325C50D5f626C9fa34c9E5e09B1ADEcEB2706"
      ],
      "transaction": {
        "from": "0x230e13243869a3a7eb341e4bdb9120d5cd547fa1",
        "to": "0x0d20af55731e9363ad2e27a96d27b735d5673a8a",
        "gas": "0xf98f",
        "value": "0x0",
        "input": "0xddf8016600000000000000000000000032d325c50d5f626c9fa34c9e5e09b1adeceb2706",
        "nonce": "0x14",
        "chainId": "0x41786f6e"
      },
      "additionalContracts": [],
      "isFixedGasLimit": false
    },
    {
      "hash": "0xa9703e6295b056e0bc8b2502c8c19c145a5b57bc41c4e2d21c1f923847d539c1",
      "transactionType": "CALL",
      "contractName": null,
      "contractAddress": "0x0d20af55731e9363ad2e27a96d27b735d5673a8a",
      "function": "registerEventOnProducer(address,bytes32)",
      "arguments": [
        "0x32D325C50D5f626C9fa34c9E5e09B1ADEcEB2706",
        "0x0a6478e40c3707a3461e2102f94e52b9498e611b2e59ff221bee94ce5fd63999"
      ],
      "transaction": {
        "from": "0x230e13243869a3a7eb341e4bdb9120d5cd547fa1",
        "to": "0x0d20af55731e9363ad2e27a96d27b735d5673a8a",
        "gas": "0x212fb",
        "value": "0x0",
        "input": "0xef0167b700000000000000000000000032d325c50d5f626c9fa34c9e5e09b1adeceb27060a6478e40c3707a3461e2102f94e52b9498e611b2e59ff221bee94ce5fd63999",
        "nonce": "0x15",
        "chainId": "0x41786f6e"
      },
      "additionalContracts": [],
      "isFixedGasLimit": false
    },
    {
      "hash": "0xa3e442c4d3e37c9eaa090a3d6c6675a2683a6ef369931e3315bcc801867ef703",
      "transactionType": "CALL",
      "contractName": null,
      "contractAddress": "0x6aa5e79022e802dddbc7bdf170a394d6327b8491",
      "function": "setWithdrawalHandler(address)",
      "arguments": [
        "0x32D325C50D5f626C9fa34c9E5e09B1ADEcEB2706"
      ],
      "transaction": {
        "from": "0x230e13243869a3a7eb341e4bdb9120d5cd547fa1",
        "to": "0x6aa5e79022e802dddbc7bdf170a394d6327b8491",
        "gas": "0xe5fe",
        "value": "0x0",
        "input": "0x3d530c0900000000000000000000000032d325c50d5f626c9fa34c9e5e09b1adeceb2706",
        "nonce": "0x16",
        "chainId": "0x41786f6e"
      },
      "additionalContracts": [],
      "isFixedGasLimit": false
    }
  ],
  "receipts": [
    {
      "status": "0x1",
      "cumulativeGasUsed": "0x90344",
      "logs": [
        {
          "address": "0x32d325c50d5f626c9fa34c9e5e09b1adeceb2706",
          "topics": [
            "0x8be0079c531659141344cd1fd0a4f28419497f9722a3daafe3b4186f6b6457e0",
            "0x0000000000000000000000000000000000000000000000000000000000000000",
            "0x0000000000000000000000000e6b8175eb3b4361193f5719c12cc9143bcda14a"
          ],
          "data": "0x",
          "blockHash": "0x00765834f38a5774d05f22d150029d437df6ddd68b683f4aa27ef6d906b452a9",
          "blockNumber": "0x83df20",
          "transactionHash": "0xf57732b05833049d5c2b24203fbfbe5997b1c641d328c5aa732162eb42238d7d",
          "transactionIndex": "0x0",
          "logIndex": "0x0",
          "removed": false
        }
      ],
      "logsBloom": "0x00000000000000000000000000000000000000000000000000800000000000000000000000400000000000000000000000000000000000000000000000000000000000800000000010000000000000000001004000000000000000000000000000000000020000000000000000000800000000000000000000000000000000400000000000000000000000000000000000000000000000000000000000000000000000000000000000000000000000000000001000000000000000000000000000000000000000000000000000000100000000000000000000000000000020000000000000000000000000000000000000000000000000000000000000000000",
      "type": "0x2",
      "transactionHash": "0xf57732b05833049d5c2b24203fbfbe5997b1c641d328c5aa732162eb42238d7d",
      "transactionIndex": "0x0",
      "blockHash": "0x00765834f38a5774d05f22d150029d437df6ddd68b683f4aa27ef6d906b452a9",
      "blockNumber": "0x83df20",
      "gasUsed": "0x90344",
      "effectiveGasPrice": "0x90344",
      "from": "0x0e6b8175eb3b4361193f5719c12cc9143bcda14a",
      "to": null,
      "contractAddress": "0x32d325c50d5f626c9fa34c9e5e09b1adeceb2706",
      "root": "0x31437c3f8db6229018db26d5e8e8b41a110526881995a496eb1fc0ea624459ce"
    },
    {
      "status": "0x1",
      "cumulativeGasUsed": "0x6fbb",
      "logs": [
        {
          "address": "0x32d325c50d5f626c9fa34c9e5e09b1adeceb2706",
          "topics": [
            "0x8be0079c531659141344cd1fd0a4f28419497f9722a3daafe3b4186f6b6457e0",
            "0x0000000000000000000000000e6b8175eb3b4361193f5719c12cc9143bcda14a",
            "0x000000000000000000000000230e13243869a3a7eb341e4bdb9120d5cd547fa1"
          ],
          "data": "0x",
          "blockHash": "0xe4008a466b0c16c8d77aa02e2c91b7ed6d6efc94b4fe74c4ada92b7d1ce2402f",
          "blockNumber": "0x83df21",
          "transactionHash": "0x051d4004cd58f2782806d232d4220d493a6423a11fa84035178c2257f5df3b98",
          "transactionIndex": "0x0",
          "logIndex": "0x0",
          "removed": false
        }
      ],
      "logsBloom": "0x00000000000000000000000000000000000000000000010000800000000000000000000000400000000000000000000000000000000000000000000000000000000000800000000010000000000000000001004040000000000000000000000000000000000000000000000000000000000000000000000000000000000000400000000000000000000000000000000000000000000000000000000000000000000000000000000000000000000000000000001000000000000000000000000000000000000000000000000000000100000000000000000000000000000000000000000000000000000000000000000000000000000000000000000000100000",
      "type": "0x2",
      "transactionHash": "0x051d4004cd58f2782806d232d4220d493a6423a11fa84035178c2257f5df3b98",
      "transactionIndex": "0x0",
      "blockHash": "0xe4008a466b0c16c8d77aa02e2c91b7ed6d6efc94b4fe74c4ada92b7d1ce2402f",
      "blockNumber": "0x83df21",
      "gasUsed": "0x6fbb",
      "effectiveGasPrice": "0x6fbb",
      "from": "0x0e6b8175eb3b4361193f5719c12cc9143bcda14a",
      "to": "0x32d325c50d5f626c9fa34c9e5e09b1adeceb2706",
      "contractAddress": null,
      "root": "0x2c3381c531320a3e53deea90bd7b94b0b0bf11b3b44887940c8d84796790c4b2"
    },
    {
      "status": "0x1",
      "cumulativeGasUsed": "0xd1ff",
      "logs": [
        {
          "address": "0x89cb0eb5a9a0d70cce9dbb09e0a8755aa777ca9c",
          "topics": [
            "0xf98448b987f1428e0e230e1f3c6e2ce15b5693eaf31827fbd0b1ec4b424ae7cf",
            "0x0000000000000000000000000000000000000000000000000000000000000015",
            "0x00000000000000000000000032d325c50d5f626c9fa34c9e5e09b1adeceb2706"
          ],
          "data": "0x000000000000000000000000000000000000000000000000000000000000000000000000000000000000000000000000000000000000000000000000685af2380000000000000000000000000000000000000000000000000000000000000001",
          "blockHash": "0x7a478085226e2718d466935d96ffc5a02f764f2415336b668062c76239f200aa",
          "blockNumber": "0x83df23",
          "transactionHash": "0x11884509a13d5bc392dd882633506e3b0979cc7a1758f6249b90006fe6c14c68",
          "transactionIndex": "0x0",
          "logIndex": "0x0",
          "removed": false
        }
      ],
      "logsBloom": "0x00000000200000000000000000000000000000000000000000000000000000000000000000000000000010000000000000000000000000001000000000000000001000000000000000000000000000004000000000000000000000000000000000000000000000000000000000000000000000000000000000400000000000000000000000000000000000000000000008000000000000000000000000000000000000000000000000002000010000000000000000000008000000000000000000000000000000000000000000000000000000000000000000000000000002002000000000000000000000000000000000000000000000000000000000000000",
      "type": "0x2",
      "transactionHash": "0x11884509a13d5bc392dd882633506e3b0979cc7a1758f6249b90006fe6c14c68",
      "transactionIndex": "0x0",
      "blockHash": "0x7a478085226e2718d466935d96ffc5a02f764f2415336b668062c76239f200aa",
      "blockNumber": "0x83df23",
      "gasUsed": "0xd1ff",
      "effectiveGasPrice": "0xd1ff",
      "from": "0x9d6707c2e8f3c631ceb36f4e350f7a17127697e5",
      "to": "0x89cb0eb5a9a0d70cce9dbb09e0a8755aa777ca9c",
      "contractAddress": null,
      "root": "0x8bdf8e2cfded880ad84d89d9d2e3ffca83357aff4bc140145bbafcc6d5c8d1ba"
    },
    {
      "status": "0x1",
      "cumulativeGasUsed": "0xd1ff",
      "logs": [
        {
          "address": "0x89cb0eb5a9a0d70cce9dbb09e0a8755aa777ca9c",
          "topics": [
            "0xf98448b987f1428e0e230e1f3c6e2ce15b5693eaf31827fbd0b1ec4b424ae7cf",
            "0x0000000000000000000000000000000000000000000000000000000000000014",
            "0x00000000000000000000000032d325c50d5f626c9fa34c9e5e09b1adeceb2706"
          ],
          "data": "0x000000000000000000000000000000000000000000000000000000000000000000000000000000000000000000000000000000000000000000000000685af2400000000000000000000000000000000000000000000000000000000000000001",
          "blockHash": "0xe659494c64e3f0e8871341169cdbd7fd20ea99e97ebc5a4e73e001570a690dbf",
          "blockNumber": "0x83df24",
          "transactionHash": "0x9c7c7c6d1985c0cedd4bd638b3d317f08d98c58301254aa57569f3be6357844c",
          "transactionIndex": "0x0",
          "logIndex": "0x0",
          "removed": false
        }
      ],
      "logsBloom": "0x00000000200000000000000000000000000000000000000000000000000000000000000000000000000010000000000000002000000000001000000000000000000000000000000000000000000000004000000000000000000000000000000000000000000000000000000000000000000000000000000000400000000000000000000000000000000000000000000008000000000400000000000000000000000000000000000020002000000000000000000000000008000000000000000000000000000000000000000000000000000000000000000000000000000002000000000000000000000000000000000000000000000000000000000000000000",
      "type": "0x2",
      "transactionHash": "0x9c7c7c6d1985c0cedd4bd638b3d317f08d98c58301254aa57569f3be6357844c",
      "transactionIndex": "0x0",
      "blockHash": "0xe659494c64e3f0e8871341169cdbd7fd20ea99e97ebc5a4e73e001570a690dbf",
      "blockNumber": "0x83df24",
      "gasUsed": "0xd1ff",
      "effectiveGasPrice": "0xd1ff",
      "from": "0x9d6707c2e8f3c631ceb36f4e350f7a17127697e5",
      "to": "0x89cb0eb5a9a0d70cce9dbb09e0a8755aa777ca9c",
      "contractAddress": null,
      "root": "0x1f4861083ff7c68a40d4ae5174669b47d00ebe7d6c20e0efa0d50b58b4fa09e8"
    },
    {
      "status": "0x1",
      "cumulativeGasUsed": "0xb4ae",
      "logs": [],
      "logsBloom": "0x00000000000000000000000000000000000000000000000000000000000000000000000000000000000000000000000000000000000000000000000000000000000000000000000000000000000000000000000000000000000000000000000000000000000000000000000000000000000000000000000000000000000000000000000000000000000000000000000000000000000000000000000000000000000000000000000000000000000000000000000000000000000000000000000000000000000000000000000000000000000000000000000000000000000000000000000000000000000000000000000000000000000000000000000000000000",
      "type": "0x2",
      "transactionHash": "0xb1d4520a86eae1166ee8c427dce42ee44c9102b9945eec3726609b2c7f7cbf2a",
      "transactionIndex": "0x0",
      "blockHash": "0x51c6403a77dbd860fb8cbf80f5e802d396b9bd45855ad94a49eda823f1095aa9",
      "blockNumber": "0x83df25",
      "gasUsed": "0xb4ae",
      "effectiveGasPrice": "0xb4ae",
      "from": "0x230e13243869a3a7eb341e4bdb9120d5cd547fa1",
      "to": "0x0d20af55731e9363ad2e27a96d27b735d5673a8a",
      "contractAddress": null,
      "root": "0xf82f698260f08c803e4b385522f596e384e57d2a31fa6d2794d82aadbfadd1bb"
    },
    {
      "status": "0x1",
      "cumulativeGasUsed": "0x16b11",
      "logs": [
        {
          "address": "0x0d20af55731e9363ad2e27a96d27b735d5673a8a",
          "topics": [
            "0xdadc4a37a299d8b82aab8dc753ed7c0b5c97d537cc4979ae84fb3407a24e7196",
            "0x00000000000000000000000032d325c50d5f626c9fa34c9e5e09b1adeceb2706",
            "0x0a6478e40c3707a3461e2102f94e52b9498e611b2e59ff221bee94ce5fd63999"
          ],
          "data": "0x",
          "blockHash": "0x3965538adcda70cbff988fa753aff4cb5a06bd578200bc55df77b6a1246b2e1b",
          "blockNumber": "0x83df26",
          "transactionHash": "0xa9703e6295b056e0bc8b2502c8c19c145a5b57bc41c4e2d21c1f923847d539c1",
          "transactionIndex": "0x0",
          "logIndex": "0x0",
          "removed": false
        }
      ],
      "logsBloom": "0x00000000200202000000000000000000000000000200000000000000000000000000000000000000000000000000000000800000000000000000000000000000000000400000000000000000000000004000000000000000000000000000000040000000000000000000000000000000000000000002000000000000000000000000000000000000000000000000000000000000000000000000000000000000000000000000000000000000000000000000000000000200000000000000000000000000002000000000000000000000000000000000000000000000000002000000000000000000000000000000000000000000000000000000000000000000",
      "type": "0x2",
      "transactionHash": "0xa9703e6295b056e0bc8b2502c8c19c145a5b57bc41c4e2d21c1f923847d539c1",
      "transactionIndex": "0x0",
      "blockHash": "0x3965538adcda70cbff988fa753aff4cb5a06bd578200bc55df77b6a1246b2e1b",
      "blockNumber": "0x83df26",
      "gasUsed": "0x16b11",
      "effectiveGasPrice": "0x16b11",
      "from": "0x230e13243869a3a7eb341e4bdb9120d5cd547fa1",
      "to": "0x0d20af55731e9363ad2e27a96d27b735d5673a8a",
      "contractAddress": null,
      "root": "0x89b0ecc04c09fbe8bb425cccf34f73ca0de69dddf999c491928ba9aa9f54eb5a"
    },
    {
      "status": "0x1",
      "cumulativeGasUsed": "0x9d43",
      "logs": [],
      "logsBloom": "0x00000000000000000000000000000000000000000000000000000000000000000000000000000000000000000000000000000000000000000000000000000000000000000000000000000000000000000000000000000000000000000000000000000000000000000000000000000000000000000000000000000000000000000000000000000000000000000000000000000000000000000000000000000000000000000000000000000000000000000000000000000000000000000000000000000000000000000000000000000000000000000000000000000000000000000000000000000000000000000000000000000000000000000000000000000000",
      "type": "0x2",
      "transactionHash": "0xa3e442c4d3e37c9eaa090a3d6c6675a2683a6ef369931e3315bcc801867ef703",
      "transactionIndex": "0x0",
      "blockHash": "0x0c31cb9e06493ea838e1efa90c2ef334840122fdc56ca3bc529ab9ffb7bac431",
      "blockNumber": "0x83df27",
      "gasUsed": "0x9d43",
      "effectiveGasPrice": "0x9d43",
      "from": "0x230e13243869a3a7eb341e4bdb9120d5cd547fa1",
      "to": "0x6aa5e79022e802dddbc7bdf170a394d6327b8491",
      "contractAddress": null,
      "root": "0x08d1c639def9ce8ea4a0f60a4846247bdad3c48081eacebb669b42e0724e132f"
    }
  ],
  "libraries": [],
  "pending": [],
  "returns": {},
  "timestamp": 1750790726,
  "chain": 1098411886,
  "commit": "80c8da4"
}