{
  "transactions": [
    {
      "hash": "0xd33b87e69e4388c0804695f0633c4940e709c500803e3bb0af2f770e9182c42f",
      "transactionType": "CALL",
      "contractName": null,
      "contractAddress": "0x302fB6Dbc21674670e1B2582ED97C06f8f515b58",
      "function": "setGasAmount(uint32,uint32,uint256)",
      "arguments": [
        "421614",
        "1098411886",
        "500000"
      ],
      "transaction": {
        "from": "0xc13113E56E00050327Be3AD164185103541f1903",
        "to": "0x302fB6Dbc21674670e1B2582ED97C06f8f515b58",
        "gas": "0xecd2",
        "value": "0x0",
        "input": "0x36a86c170000000000000000000000000000000000000000000000000000000000066eee0000000000000000000000000000000000000000000000000000000041786f6e000000000000000000000000000000000000000000000000000000000007a120",
        "nonce": "0xdd",
        "chainId": "0x66eee"
      },
      "additionalContracts": [],
      "isFixedGasLimit": false
    }
  ],
  "receipts": [
    {
      "status": "0x1",
      "cumulativeGasUsed": "0x17f678",
      "logs": [],
      "logsBloom": "0x00000000000000000000000000000000000000000000000000000000000000000000000000000000000000000000000000000000000000000000000000000000000000000000000000000000000000000000000000000000000000000000000000000000000000000000000000000000000000000000000000000000000000000000000000000000000000000000000000000000000000000000000000000000000000000000000000000000000000000000000000000000000000000000000000000000000000000000000000000000000000000000000000000000000000000000000000000000000000000000000000000000000000000000000000000000",
      "type": "0x2",
      "transactionHash": "0xd33b87e69e4388c0804695f0633c4940e709c500803e3bb0af2f770e9182c42f",
      "transactionIndex": "0x14",
      "blockHash": "0x4ee6e7193d980d01ea8e4e222c80a92434ab643fa6f30556072ea6e4230ec15e",
      "blockNumber": "0x8de510d",
      "gasUsed": "0xb4ae",
      "effectiveGasPrice": "0xe5c25c0",
      "from": "0xc13113E56E00050327Be3AD164185103541f1903",
      "to": "0x302fB6Dbc21674670e1B2582ED97C06f8f515b58",
      "contractAddress": null,
      "gasUsedForL1": "0x0",
      "l1BlockNumber": "0x7dc040"
    }
  ],
  "libraries": [],
  "pending": [],
  "returns": {},
  "timestamp": 1746201872,
  "chain": 421614,
  "commit": "041237c"
}