{
  "transactions": [
    {
      "hash": "0xa74fac617b1bca572dabe86bc60adad04c7f43525c5d1d2bef8aa90b7914eaab",
      "transactionType": "CALL",
      "contractName": null,
      "contractAddress": "0xbD312F252F8601D2f57ACbb356156f43c755296e",
      "function": "setGasAmount(uint32,uint32,uint256)",
      "arguments": [
        "43113",
        "1098411886",
        "500000"
      ],
      "transaction": {
        "from": "0xc13113E56E00050327Be3AD164185103541f1903",
        "to": "0xbD312F252F8601D2f57ACbb356156f43c755296e",
        "gas": "0x8e20",
        "value": "0x0",
        "input": "0x36a86c17000000000000000000000000000000000000000000000000000000000000a8690000000000000000000000000000000000000000000000000000000041786f6e000000000000000000000000000000000000000000000000000000000007a120",
        "nonce": "0x316",
        "chainId": "0xa869"
      },
      "additionalContracts": [],
      "isFixedGasLimit": false
    }
  ],
  "receipts": [
    {
      "status": "0x1",
      "cumulativeGasUsed": "0x66e6",
      "logs": [],
      "logsBloom": "0x00000000000000000000000000000000000000000000000000000000000000000000000000000000000000000000000000000000000000000000000000000000000000000000000000000000000000000000000000000000000000000000000000000000000000000000000000000000000000000000000000000000000000000000000000000000000000000000000000000000000000000000000000000000000000000000000000000000000000000000000000000000000000000000000000000000000000000000000000000000000000000000000000000000000000000000000000000000000000000000000000000000000000000000000000000000",
      "type": "0x2",
      "transactionHash": "0xa74fac617b1bca572dabe86bc60adad04c7f43525c5d1d2bef8aa90b7914eaab",
      "transactionIndex": "0x0",
      "blockHash": "0x7ba68f90568ec45879d5ba95349d98488846bf6c332d625cc01dbcdaeaf41c6a",
      "blockNumber": "0x2640044",
      "gasUsed": "0x66e6",
      "effectiveGasPrice": "0x2",
      "from": "0xc13113E56E00050327Be3AD164185103541f1903",
      "to": "0xbD312F252F8601D2f57ACbb356156f43c755296e",
      "contractAddress": null
    }
  ],
  "libraries": [],
  "pending": [],
  "returns": {},
  "timestamp": 1746201856,
  "chain": 43113,
  "commit": "041237c"
}