{
  "transactions": [
    {
      "hash": "0x31fdf04ac2d4f38e36e140393ac35cd833dfa4f89a7b49afdca02e668b2b2327",
      "transactionType": "CALL",
      "contractName": null,
      "contractAddress": "0x50ce8a37f4977876c2c06dfab837bddcc754e297",
      "function": "setGasAmount(uint32,uint32,uint256)",
      "arguments": [
        "11155111",
        "1098411886",
        "250000"
      ],
      "transaction": {
        "from": "0x230e13243869a3a7eb341e4bdb9120d5cd547fa1",
        "to": "0x50ce8a37f4977876c2c06dfab837bddcc754e297",
        "gas": "0xf98f",
        "value": "0x0",
        "input": "0x36a86c170000000000000000000000000000000000000000000000000000000000aa36a70000000000000000000000000000000000000000000000000000000041786f6e000000000000000000000000000000000000000000000000000000000003d090",
        "nonce": "0x12",
        "chainId": "0xaa36a7"
      },
      "additionalContracts": [],
      "isFixedGasLimit": false
    }
  ],
  "receipts": [
    {
      "status": "0x1",
      "cumulativeGasUsed": "0x10dcce5",
      "logs": [],
      "logsBloom": "0x00000000000000000000000000000000000000000000000000000000000000000000000000000000000000000000000000000000000000000000000000000000000000000000000000000000000000000000000000000000000000000000000000000000000000000000000000000000000000000000000000000000000000000000000000000000000000000000000000000000000000000000000000000000000000000000000000000000000000000000000000000000000000000000000000000000000000000000000000000000000000000000000000000000000000000000000000000000000000000000000000000000000000000000000000000000",
      "type": "0x2",
      "transactionHash": "0x31fdf04ac2d4f38e36e140393ac35cd833dfa4f89a7b49afdca02e668b2b2327",
      "transactionIndex": "0x14d",
      "blockHash": "0xa73335661978066c0f4a4a9a88dff9626e9138f7fd9c13900994892f0852b411",
      "blockNumber": "0x83a6c0",
      "gasUsed": "0xb4ae",
      "effectiveGasPrice": "0x1917b4ae",
      "from": "0x230e13243869a3a7eb341e4bdb9120d5cd547fa1",
      "to": "0x50ce8a37f4977876c2c06dfab837bddcc754e297",
      "contractAddress": null
    }
  ],
  "libraries": [],
  "pending": [],
  "returns": {},
  "timestamp": 1750878902,
  "chain": 11155111,
  "commit": "126072b"
}