{
  "transactions": [
    {
      "hash": "0x7c6aba701657ff9e3c4eee03049014be844b37227862eeca307cf513fe5cfe81",
      "transactionType": "CREATE",
      "contractName": "EventProver",
      "contractAddress": "0x6B82934EDaF89B3fD2597A16BfF9cb6F78Be2305",
      "function": null,
      "arguments": [
        "0x6966b0E55883d49BFB24539356a2f8A673E02039",
        "0x444d466B39bB0c74Cc78552b99Ba41A25231Da1d",
        "1098411886",
        "0x28B02B97a850872C4D33C3E024fab6499ad96564",
        "0x95D563200D2A4068F4bD263cf4afcCa076536555"
      ],
      "transaction": {
        "from": "0xc13113E56E00050327Be3AD164185103541f1903",
        "gas": "0xeaea6",
        "value": "0x0",
        "input": "0x61014080604052346101ad5760a081610d70803803809161002082856101c6565b8339810103126101ad57610033816101ff565b90610040602082016101ff565b61004c60408301610213565b610064608061005d606086016101ff565b94016101ff565b60008054336001600160a01b03198216811783556040519397602093859360049385939290916001600160a01b0316907f8be0079c531659141344cd1fd0a4f28419497f9722a3daafe3b4186f6b6457e09080a3600180556001600160a01b0316608081905263234d8e3d60e21b82525afa9081156101ba5760009161017b575b5060e05261012052610100526001600160a01b0390811660a0521660c052604051610b4b908161022582396080518181816101e001526102bd015260a0518181816103fb01526107c9015260c05181818161072a01526109f2015260e051818181610688015261099401526101005181818161030b015261080c0152610120518181816102df0152818161062001526109bc0152f35b90506020813d6020116101b2575b81610196602093836101c6565b810103126101ad576101a790610213565b386100e5565b600080fd5b3d9150610189565b6040513d6000823e3d90fd5b601f909101601f19168101906001600160401b038211908210176101e957604052565b634e487b7160e01b600052604160045260246000fd5b51906001600160a01b03821682036101ad57565b519063ffffffff821682036101ad5756fe608080604052600436101561001357600080fd5b600090813560e01c90816307aef2fa146107f85750806339bb4ad9146107b3578063715018a6146107595780637c12f857146107145780638b6dfd9f146106ac5780638d3638f41461066b5780638da5cb5b14610644578063a721719514610603578063c307e6341461020f578063d5438eae146101ca578063ea8f4a44146101a7578063f0c51c5f146101785763f2fde38b146100b057600080fd5b34610175576020366003190112610175576100c961083b565b6100d1610abd565b6001600160a01b031680156101215781546001600160a01b03198116821783556001600160a01b03167f8be0079c531659141344cd1fd0a4f28419497f9722a3daafe3b4186f6b6457e08380a380f35b60405162461bcd60e51b815260206004820152602660248201527f4f776e61626c653a206e6577206f776e657220697320746865207a65726f206160448201526564647265737360d01b6064820152608490fd5b80fd5b50346101755760203660031901126101755760ff60406020926004358152600384522054166040519015158152f35b503461017557806003193601126101755760206101c2610980565b604051908152f35b50346101755780600319360112610175576040517f00000000000000000000000000000000000000000000000000000000000000006001600160a01b03168152602090f35b5060203660031901126101755760043567ffffffffffffffff81116105465760a081600401916003199036030112610546576002546001600160a01b031633036105f4576002600154146105af5760026001556040516020810190610286816102788585610856565b03601f1981018352826108ec565b519020808352600360205260ff6040842054166105a0578252600360205260408220600160ff198254161790558160018060a01b037f0000000000000000000000000000000000000000000000000000000000000000167f00000000000000000000000000000000000000000000000000000000000000009061035d60018060a01b037f0000000000000000000000000000000000000000000000000000000000000000169460206040516103418161027885858301610856565b6040518094819263138857a360e31b83528a8960048501610924565b0381865afa91821561059557859261055d575b50916103b99561038e9261039c602095604051958691888301610856565b03601f1981018652856108ec565b60405180988195829463fa31de0160e01b84528960048501610924565b03925af192831561055257829361051a575b506103d4610980565b60405163a692979360e01b815263ffffffff929092166004830181905260248301919091527f00000000000000000000000000000000000000000000000000000000000000006001600160a01b0316602083604481845afa92831561050f5784936104d7575b50610443610980565b94813b156104d35784936084926040519788958694630237e58360e31b86526004860152602485015260448401523360648401525af180156104c6576104b6575b8080809350478181156104ad575b3390f1156104a1576001805580f35b604051903d90823e3d90fd5b506108fc610492565b6104bf916108ec565b3881610484565b50604051903d90823e3d90fd5b8480fd5b9092506020813d602011610507575b816104f3602093836108ec565b810103126105035751913861043a565b8380fd5b3d91506104e6565b6040513d86823e3d90fd5b9092506020813d60201161054a575b81610536602093836108ec565b81010312610546575191386103cb565b5080fd5b3d9150610529565b6040513d84823e3d90fd5b9150916020823d60201161058d575b81610579602093836108ec565b810103126104d357905190916103b9610370565b3d915061056c565b6040513d87823e3d90fd5b632ccaca7760e01b8352600483fd5b60405162461bcd60e51b815260206004820152601f60248201527f5265656e7472616e637947756172643a207265656e7472616e742063616c6c006044820152606490fd5b632cdc897760e01b8252600482fd5b5034610175578060031936011261017557602060405163ffffffff7f0000000000000000000000000000000000000000000000000000000000000000168152f35b5034610175578060031936011261017557546040516001600160a01b039091168152602090f35b5034610175578060031936011261017557602060405163ffffffff7f0000000000000000000000000000000000000000000000000000000000000000168152f35b5034610175576020366003190112610175576106c661083b565b6106ce610abd565b600280546001600160a01b0319166001600160a01b039290921691821790557f6f2346fd427e08f951b0c6f27eb5ba63691c987aa57e7e466c4cd074c6fbd1968280a280f35b50346101755780600319360112610175576040517f00000000000000000000000000000000000000000000000000000000000000006001600160a01b03168152602090f35b5034610175578060031936011261017557610772610abd565b80546001600160a01b03198116825581906001600160a01b03167f8be0079c531659141344cd1fd0a4f28419497f9722a3daafe3b4186f6b6457e08280a380f35b50346101755780600319360112610175576040517f00000000000000000000000000000000000000000000000000000000000000006001600160a01b03168152602090f35b9050346105465781600319360112610546577f00000000000000000000000000000000000000000000000000000000000000006001600160a01b03168152602090f35b600435906001600160a01b038216820361085157565b600080fd5b6020815281356001600160a01b0381169081900361085157602082015260208201356040820152604082013560608201526060820135601e198336030181121561085157820160208135910167ffffffffffffffff82116108515781360381136108515760e0938260809260a0848701528160c0870152868601376000848401860152013560a0830152601f01601f1916010190565b90601f8019910116810190811067ffffffffffffffff82111761090e57604052565b634e487b7160e01b600052604160045260246000fd5b919063ffffffff90949394168252602082015260606040820152825180606083015260005b81811061096a575060809293506000838284010152601f8019910116010190565b8060208092870101516080828601015201610949565b6040516335806ef960e01b815263ffffffff7f0000000000000000000000000000000000000000000000000000000000000000811660048301527f0000000000000000000000000000000000000000000000000000000000000000166024820152906020826044816001600160a01b037f0000000000000000000000000000000000000000000000000000000000000000165afa918215610ab157600092610a7d575b508115610a2c57565b60405162461bcd60e51b815260206004820152602360248201527f476173416d6f756e744f7261636c653a2047617320616d6f756e74206e6f74206044820152621cd95d60ea1b6064820152608490fd5b90916020823d602011610aa9575b81610a98602093836108ec565b810103126101755750519038610a23565b3d9150610a8b565b6040513d6000823e3d90fd5b6000546001600160a01b03163303610ad157565b606460405162461bcd60e51b815260206004820152602060248201527f4f776e61626c653a2063616c6c6572206973206e6f7420746865206f776e65726044820152fdfea2646970667358221220afee0426384c75c2d00cd3f3d179bb23bae81720ee221bb98473732de0828c5a64736f6c634300081a00330000000000000000000000006966b0e55883d49bfb24539356a2f8a673e02039000000000000000000000000444d466b39bb0c74cc78552b99ba41a25231da1d0000000000000000000000000000000000000000000000000000000041786f6e00000000000000000000000028b02b97a850872c4d33c3e024fab6499ad9656400000000000000000000000095d563200d2a4068f4bd263cf4afcca076536555",
        "nonce": "0x7d",
        "chainId": "0x14a34"
      },
      "additionalContracts": [],
      "isFixedGasLimit": false
    },
    {
      "hash": "0x84a4bd470e5ebe473326fa486a2bd0aabae6e49afe09fcc79857ed0101aba2d2",
      "transactionType": "CALL",
      "contractName": null,
      "contractAddress": "0x5f8efdBaC8fc0caCFb366D999A2fa006e64F1fA4",
      "function": "registerEventProver(uint32,address)",
      "arguments": [
        "1098411886",
        "0x6B82934EDaF89B3fD2597A16BfF9cb6F78Be2305"
      ],
      "transaction": {
        "from": "0xc13113E56E00050327Be3AD164185103541f1903",
        "to": "0x5f8efdBaC8fc0caCFb366D999A2fa006e64F1fA4",
        "gas": "0x12f1d",
        "value": "0x0",
        "input": "0x6dc0ac2e0000000000000000000000000000000000000000000000000000000041786f6e0000000000000000000000006b82934edaf89b3fd2597a16bff9cb6f78be2305",
        "nonce": "0x7e",
        "chainId": "0x14a34"
      },
      "additionalContracts": [],
      "isFixedGasLimit": false
    },
    {
      "hash": "0x7c7d78a12b00c81608d42b8243bac2243768f963798ed90c1d4fd6b410991d09",
      "transactionType": "CALL",
      "contractName": "EventProver",
      "contractAddress": "0x6B82934EDaF89B3fD2597A16BfF9cb6F78Be2305",
      "function": "addEventPublisher(address)",
      "arguments": [
        "0x5f8efdBaC8fc0caCFb366D999A2fa006e64F1fA4"
      ],
      "transaction": {
        "from": "0xc13113E56E00050327Be3AD164185103541f1903",
        "to": "0x6B82934EDaF89B3fD2597A16BfF9cb6F78Be2305",
        "gas": "0xfea7",
        "value": "0x0",
        "input": "0x8b6dfd9f0000000000000000000000005f8efdbac8fc0cacfb366d999a2fa006e64f1fa4",
        "nonce": "0x7f",
        "chainId": "0x14a34"
      },
      "additionalContracts": [],
      "isFixedGasLimit": false
    }
  ],
  "receipts": [
    {
      "status": "0x1",
      "cumulativeGasUsed": "0x169270c",
      "logs": [
        {
          "address": "0x6B82934EDaF89B3fD2597A16BfF9cb6F78Be2305",
          "topics": [
            "0x8be0079c531659141344cd1fd0a4f28419497f9722a3daafe3b4186f6b6457e0",
            "0x0000000000000000000000000000000000000000000000000000000000000000",
            "0x000000000000000000000000c13113e56e00050327be3ad164185103541f1903"
          ],
          "data": "0x",
          "blockHash": "0x70fe33108f33d7610faf896103461a3491c35164206e8cf41060f76c61233466",
          "blockNumber": "0x183f620",
          "blockTimestamp": "0x681b4b20",
          "transactionHash": "0x7c6aba701657ff9e3c4eee03049014be844b37227862eeca307cf513fe5cfe81",
          "transactionIndex": "0x1d",
          "logIndex": "0xbe",
          "removed": false
        }
      ],
      "logsBloom": "0x00000000000000000000000000000000000000000000000000800000000000000000000000000000000000000000020000000000000000000000000000000000000000000000000000000000000000000001000000000000000000000000000000000000020000000000000000000800000000000000000000000000000000400000000000000000000000000200000000000400000000000000000000000000000000100000000000000000000000000000000000000000000000000000100002000000000000000000000000000000000000000000000000000000000020000000000000000000000000000000000000000000000000000000000000000000",
      "type": "0x2",
      "transactionHash": "0x7c6aba701657ff9e3c4eee03049014be844b37227862eeca307cf513fe5cfe81",
      "transactionIndex": "0x1d",
      "blockHash": "0x70fe33108f33d7610faf896103461a3491c35164206e8cf41060f76c61233466",
      "blockNumber": "0x183f620",
      "gasUsed": "0xb4c27",
      "effectiveGasPrice": "0xe5ce8",
      "from": "0xc13113E56E00050327Be3AD164185103541f1903",
      "to": null,
      "contractAddress": "0x6B82934EDaF89B3fD2597A16BfF9cb6F78Be2305",
      "l1BaseFeeScalar": "0x44d",
      "l1BlobBaseFee": "0x1",
      "l1BlobBaseFeeScalar": "0xa118b",
      "l1Fee": "0x13d8d43c88c",
      "l1GasPrice": "0x8ed37eec0",
      "l1GasUsed": "0x7e36"
    },
    {
      "status": "0x1",
      "cumulativeGasUsed": "0x169f64e",
      "logs": [
        {
          "address": "0x5f8efdBaC8fc0caCFb366D999A2fa006e64F1fA4",
          "topics": [
            "0x486ed864be7b5bb56c3843502994b8390aa402ba14643564d6aff19193f3165e",
            "0x0000000000000000000000006b82934edaf89b3fd2597a16bff9cb6f78be2305"
          ],
          "data": "0x",
          "blockHash": "0x70fe33108f33d7610faf896103461a3491c35164206e8cf41060f76c61233466",
          "blockNumber": "0x183f620",
          "blockTimestamp": "0x681b4b20",
          "transactionHash": "0x84a4bd470e5ebe473326fa486a2bd0aabae6e49afe09fcc79857ed0101aba2d2",
          "transactionIndex": "0x1e",
          "logIndex": "0xbf",
          "removed": false
        }
      ],
      "logsBloom": "0x00000000000000000040000000004000000000000000000000000000000000000000000000000000000000000000000000000000000000000000000000000000000000000000000000000000000000000000000000000000000000000000000000000000000000000000000000000000100080010000000000000000000000000000000000000000000000000000000000000000000000000000000000000000000000000000000000000000000000000000000000200000000000000000000000000000000000000000000000000000000000000000000000000001000000000000000000000000008000000000000000000000000000000000000008000000",
      "type": "0x2",
      "transactionHash": "0x84a4bd470e5ebe473326fa486a2bd0aabae6e49afe09fcc79857ed0101aba2d2",
      "transactionIndex": "0x1e",
      "blockHash": "0x70fe33108f33d7610faf896103461a3491c35164206e8cf41060f76c61233466",
      "blockNumber": "0x183f620",
      "gasUsed": "0xcf42",
      "effectiveGasPrice": "0xe5ce8",
      "from": "0xc13113E56E00050327Be3AD164185103541f1903",
      "to": "0x5f8efdBaC8fc0caCFb366D999A2fa006e64F1fA4",
      "contractAddress": null,
      "l1BaseFeeScalar": "0x44d",
      "l1BlobBaseFee": "0x1",
      "l1BlobBaseFeeScalar": "0xa118b",
      "l1Fee": "0xfb9a41162",
      "l1GasPrice": "0x8ed37eec0",
      "l1GasUsed": "0x640"
    },
    {
      "status": "0x1",
      "cumulativeGasUsed": "0x16aaeac",
      "logs": [
        {
          "address": "0x6B82934EDaF89B3fD2597A16BfF9cb6F78Be2305",
          "topics": [
            "0x6f2346fd427e08f951b0c6f27eb5ba63691c987aa57e7e466c4cd074c6fbd196",
            "0x0000000000000000000000005f8efdbac8fc0cacfb366d999a2fa006e64f1fa4"
          ],
          "data": "0x",
          "blockHash": "0x70fe33108f33d7610faf896103461a3491c35164206e8cf41060f76c61233466",
          "blockNumber": "0x183f620",
          "blockTimestamp": "0x681b4b20",
          "transactionHash": "0x7c7d78a12b00c81608d42b8243bac2243768f963798ed90c1d4fd6b410991d09",
          "transactionIndex": "0x1f",
          "logIndex": "0xc0",
          "removed": false
        }
      ],
      "logsBloom": "0x00000000000000000000000000000000000000000000000000000000000000000000000000000000008000000000020000000000000000000000000000000000000000000000000000000000000000000000000000000000000000000000000000000000000000000000000000000000000000040000000000000000000000000000000000000000000000000200008000000400000000000000000000000000000000000000000000000000000000000010000000000000000000010000000000000000000000000000000000000000000000000000000000000000000000000100000000000000000000000000000000000000000000000000000000000000",
      "type": "0x2",
      "transactionHash": "0x7c7d78a12b00c81608d42b8243bac2243768f963798ed90c1d4fd6b410991d09",
      "transactionIndex": "0x1f",
      "blockHash": "0x70fe33108f33d7610faf896103461a3491c35164206e8cf41060f76c61233466",
      "blockNumber": "0x183f620",
      "gasUsed": "0xb85e",
      "effectiveGasPrice": "0xe5ce8",
      "from": "0xc13113E56E00050327Be3AD164185103541f1903",
      "to": "0x6B82934EDaF89B3fD2597A16BfF9cb6F78Be2305",
      "contractAddress": null,
      "l1BaseFeeScalar": "0x44d",
      "l1BlobBaseFee": "0x1",
      "l1BlobBaseFeeScalar": "0xa118b",
      "l1Fee": "0xfb9a41162",
      "l1GasPrice": "0x8ed37eec0",
      "l1GasUsed": "0x640"
    }
  ],
  "libraries": [],
  "pending": [],
  "returns": {},
  "timestamp": 1746619175,
  "chain": 84532,
  "commit": "7691af1"
}